{
	"contracts/NFT.sol": {
		"NFT": {
			"abi": [
				{
					"inputs": [
						{
							"internalType": "address",
							"name": "_marketplace",
							"type": "address"
						}
					],
					"stateMutability": "nonpayable",
					"type": "constructor"
				},
				{
					"anonymous": false,
					"inputs": [
						{
							"indexed": true,
							"internalType": "address",
							"name": "owner",
							"type": "address"
						},
						{
							"indexed": true,
							"internalType": "address",
							"name": "approved",
							"type": "address"
						},
						{
							"indexed": true,
							"internalType": "uint256",
							"name": "tokenId",
							"type": "uint256"
						}
					],
					"name": "Approval",
					"type": "event"
				},
				{
					"anonymous": false,
					"inputs": [
						{
							"indexed": true,
							"internalType": "address",
							"name": "owner",
							"type": "address"
						},
						{
							"indexed": true,
							"internalType": "address",
							"name": "operator",
							"type": "address"
						},
						{
							"indexed": false,
							"internalType": "bool",
							"name": "approved",
							"type": "bool"
						}
					],
					"name": "ApprovalForAll",
					"type": "event"
				},
				{
					"anonymous": false,
					"inputs": [
						{
							"indexed": false,
							"internalType": "uint256",
							"name": "",
							"type": "uint256"
						}
					],
					"name": "NFTMinted",
					"type": "event"
				},
				{
					"anonymous": false,
					"inputs": [
						{
							"indexed": true,
							"internalType": "address",
							"name": "from",
							"type": "address"
						},
						{
							"indexed": true,
							"internalType": "address",
							"name": "to",
							"type": "address"
						},
						{
							"indexed": true,
							"internalType": "uint256",
							"name": "tokenId",
							"type": "uint256"
						}
					],
					"name": "Transfer",
					"type": "event"
				},
				{
					"inputs": [
						{
							"internalType": "address",
							"name": "to",
							"type": "address"
						},
						{
							"internalType": "uint256",
							"name": "tokenId",
							"type": "uint256"
						}
					],
					"name": "approve",
					"outputs": [],
					"stateMutability": "nonpayable",
					"type": "function"
				},
				{
					"inputs": [
						{
							"internalType": "address",
							"name": "owner",
							"type": "address"
						}
					],
					"name": "balanceOf",
					"outputs": [
						{
							"internalType": "uint256",
							"name": "",
							"type": "uint256"
						}
					],
					"stateMutability": "view",
					"type": "function"
				},
				{
					"inputs": [
						{
							"internalType": "uint256",
							"name": "tokenId",
							"type": "uint256"
						}
					],
					"name": "getApproved",
					"outputs": [
						{
							"internalType": "address",
							"name": "",
							"type": "address"
						}
					],
					"stateMutability": "view",
					"type": "function"
				},
				{
					"inputs": [],
					"name": "getCurrentToken",
					"outputs": [
						{
							"internalType": "uint256",
							"name": "",
							"type": "uint256"
						}
					],
					"stateMutability": "view",
					"type": "function"
				},
				{
					"inputs": [
						{
							"internalType": "address",
							"name": "owner",
							"type": "address"
						},
						{
							"internalType": "address",
							"name": "operator",
							"type": "address"
						}
					],
					"name": "isApprovedForAll",
					"outputs": [
						{
							"internalType": "bool",
							"name": "",
							"type": "bool"
						}
					],
					"stateMutability": "view",
					"type": "function"
				},
				{
					"inputs": [
						{
							"internalType": "string",
							"name": "_tokenURI",
							"type": "string"
						}
					],
					"name": "mint",
					"outputs": [
						{
							"internalType": "uint256",
							"name": "",
							"type": "uint256"
						}
					],
					"stateMutability": "nonpayable",
					"type": "function"
				},
				{
					"inputs": [],
					"name": "name",
					"outputs": [
						{
							"internalType": "string",
							"name": "",
							"type": "string"
						}
					],
					"stateMutability": "view",
					"type": "function"
				},
				{
					"inputs": [
						{
							"internalType": "uint256",
							"name": "tokenId",
							"type": "uint256"
						}
					],
					"name": "ownerOf",
					"outputs": [
						{
							"internalType": "address",
							"name": "",
							"type": "address"
						}
					],
					"stateMutability": "view",
					"type": "function"
				},
				{
					"inputs": [
						{
							"internalType": "address",
							"name": "from",
							"type": "address"
						},
						{
							"internalType": "address",
							"name": "to",
							"type": "address"
						},
						{
							"internalType": "uint256",
							"name": "tokenId",
							"type": "uint256"
						}
					],
					"name": "safeTransferFrom",
					"outputs": [],
					"stateMutability": "nonpayable",
					"type": "function"
				},
				{
					"inputs": [
						{
							"internalType": "address",
							"name": "from",
							"type": "address"
						},
						{
							"internalType": "address",
							"name": "to",
							"type": "address"
						},
						{
							"internalType": "uint256",
							"name": "tokenId",
							"type": "uint256"
						},
						{
							"internalType": "bytes",
							"name": "data",
							"type": "bytes"
						}
					],
					"name": "safeTransferFrom",
					"outputs": [],
					"stateMutability": "nonpayable",
					"type": "function"
				},
				{
					"inputs": [
						{
							"internalType": "address",
							"name": "operator",
							"type": "address"
						},
						{
							"internalType": "bool",
							"name": "approved",
							"type": "bool"
						}
					],
					"name": "setApprovalForAll",
					"outputs": [],
					"stateMutability": "nonpayable",
					"type": "function"
				},
				{
					"inputs": [
						{
							"internalType": "bytes4",
							"name": "interfaceId",
							"type": "bytes4"
						}
					],
					"name": "supportsInterface",
					"outputs": [
						{
							"internalType": "bool",
							"name": "",
							"type": "bool"
						}
					],
					"stateMutability": "view",
					"type": "function"
				},
				{
					"inputs": [],
					"name": "symbol",
					"outputs": [
						{
							"internalType": "string",
							"name": "",
							"type": "string"
						}
					],
					"stateMutability": "view",
					"type": "function"
				},
				{
					"inputs": [
						{
							"internalType": "uint256",
							"name": "tokenId",
							"type": "uint256"
						}
					],
					"name": "tokenURI",
					"outputs": [
						{
							"internalType": "string",
							"name": "",
							"type": "string"
						}
					],
					"stateMutability": "view",
					"type": "function"
				},
				{
					"inputs": [
						{
							"internalType": "address",
							"name": "from",
							"type": "address"
						},
						{
							"internalType": "address",
							"name": "to",
							"type": "address"
						},
						{
							"internalType": "uint256",
							"name": "tokenId",
							"type": "uint256"
						}
					],
					"name": "transferFrom",
					"outputs": [],
					"stateMutability": "nonpayable",
					"type": "function"
				}
			],
			"devdoc": {
				"events": {
					"Approval(address,address,uint256)": {
						"details": "Emitted when `owner` enables `approved` to manage the `tokenId` token."
					},
					"ApprovalForAll(address,address,bool)": {
						"details": "Emitted when `owner` enables or disables (`approved`) `operator` to manage all of its assets."
					},
					"Transfer(address,address,uint256)": {
						"details": "Emitted when `tokenId` token is transferred from `from` to `to`."
					}
				},
				"kind": "dev",
				"methods": {
					"approve(address,uint256)": {
						"details": "See {IERC721-approve}."
					},
					"balanceOf(address)": {
						"details": "See {IERC721-balanceOf}."
					},
					"getApproved(uint256)": {
						"details": "See {IERC721-getApproved}."
					},
					"isApprovedForAll(address,address)": {
						"details": "See {IERC721-isApprovedForAll}."
					},
					"name()": {
						"details": "See {IERC721Metadata-name}."
					},
					"ownerOf(uint256)": {
						"details": "See {IERC721-ownerOf}."
					},
					"safeTransferFrom(address,address,uint256)": {
						"details": "See {IERC721-safeTransferFrom}."
					},
					"safeTransferFrom(address,address,uint256,bytes)": {
						"details": "See {IERC721-safeTransferFrom}."
					},
					"setApprovalForAll(address,bool)": {
						"details": "See {IERC721-setApprovalForAll}."
					},
					"supportsInterface(bytes4)": {
						"details": "See {IERC165-supportsInterface}."
					},
					"symbol()": {
						"details": "See {IERC721Metadata-symbol}."
					},
					"tokenURI(uint256)": {
						"details": "See {IERC721Metadata-tokenURI}."
					},
					"transferFrom(address,address,uint256)": {
						"details": "See {IERC721-transferFrom}."
					}
				},
				"version": 1
			},
			"evm": {
				"assembly": "    /* \"contracts/NFT.sol\":259:1000  contract NFT is ERC721URIStorage {... */\n  mstore(0x40, 0x80)\n    /* \"contracts/NFT.sol\":443:561  constructor(address _marketplace) ERC721(\"Birrocco NFT \", \"BRNFT\") {... */\n  callvalue\n  dup1\n  iszero\n  tag_1\n  jumpi\n  0x00\n  dup1\n  revert\ntag_1:\n  pop\n  mload(0x40)\n  sub(codesize, bytecodeSize)\n  dup1\n  bytecodeSize\n  dup4\n  codecopy\n  dup2\n  add\n  0x40\n  dup2\n  swap1\n  mstore\n  tag_2\n  swap2\n  tag_3\n  jump\t// in\ntag_2:\n    /* \"contracts/@openzeppelin/contracts/token/ERC721/ERC721.sol\":1390:1503  constructor(string memory name_, string memory symbol_) {... */\n  mload(0x40)\n  dup1\n  0x40\n  add\n  0x40\n  mstore\n  dup1\n  0x0d\n  dup2\n  mstore\n  0x20\n  add\n  shl(0x9d, 0x02134b93937b1b1b79027232a1)\n  dup2\n  mstore\n  pop\n  mload(0x40)\n  dup1\n  0x40\n  add\n  0x40\n  mstore\n  dup1\n  0x05\n  dup2\n  mstore\n  0x20\n  add\n  shl(0xda, 0x1094939195)\n  dup2\n  mstore\n  pop\n    /* \"contracts/@openzeppelin/contracts/token/ERC721/ERC721.sol\":1464:1469  name_ */\n  dup2\n    /* \"contracts/@openzeppelin/contracts/token/ERC721/ERC721.sol\":1456:1461  _name */\n  0x00\n    /* \"contracts/@openzeppelin/contracts/token/ERC721/ERC721.sol\":1456:1469  _name = name_ */\n  swap1\n  dup2\n  tag_7\n  swap2\n  swap1\n  tag_8\n  jump\t// in\ntag_7:\n  pop\n    /* \"contracts/@openzeppelin/contracts/token/ERC721/ERC721.sol\":1479:1486  _symbol */\n  0x01\n    /* \"contracts/@openzeppelin/contracts/token/ERC721/ERC721.sol\":1479:1496  _symbol = symbol_ */\n  tag_9\n    /* \"contracts/@openzeppelin/contracts/token/ERC721/ERC721.sol\":1489:1496  symbol_ */\n  dup3\n    /* \"contracts/@openzeppelin/contracts/token/ERC721/ERC721.sol\":1479:1486  _symbol */\n  dup3\n    /* \"contracts/@openzeppelin/contracts/token/ERC721/ERC721.sol\":1479:1496  _symbol = symbol_ */\n  tag_8\n  jump\t// in\ntag_9:\n  pop\n  pop\n    /* \"contracts/NFT.sol\":520:539  marketplaceContract */\n  0x08\n    /* \"contracts/NFT.sol\":520:554  marketplaceContract = _marketplace */\n  dup1\n  sload\n  not(sub(shl(0xa0, 0x01), 0x01))\n  and\n  sub(shl(0xa0, 0x01), 0x01)\n  swap4\n  swap1\n  swap4\n  and\n  swap3\n  swap1\n  swap3\n  or\n  swap1\n  swap2\n  sstore\n  pop\n    /* \"contracts/NFT.sol\":259:1000  contract NFT is ERC721URIStorage {... */\n  jump(tag_17)\n    /* \"#utility.yul\":14:304   */\ntag_3:\n    /* \"#utility.yul\":84:90   */\n  0x00\n    /* \"#utility.yul\":137:139   */\n  0x20\n    /* \"#utility.yul\":125:134   */\n  dup3\n    /* \"#utility.yul\":116:123   */\n  dup5\n    /* \"#utility.yul\":112:135   */\n  sub\n    /* \"#utility.yul\":108:140   */\n  slt\n    /* \"#utility.yul\":105:157   */\n  iszero\n  tag_19\n  jumpi\n    /* \"#utility.yul\":153:154   */\n  0x00\n    /* \"#utility.yul\":150:151   */\n  dup1\n    /* \"#utility.yul\":143:155   */\n  revert\n    /* \"#utility.yul\":105:157   */\ntag_19:\n    /* \"#utility.yul\":179:195   */\n  dup2\n  mload\n  sub(shl(0xa0, 0x01), 0x01)\n    /* \"#utility.yul\":224:255   */\n  dup2\n  and\n    /* \"#utility.yul\":214:256   */\n  dup2\n  eq\n    /* \"#utility.yul\":204:274   */\n  tag_20\n  jumpi\n    /* \"#utility.yul\":270:271   */\n  0x00\n    /* \"#utility.yul\":267:268   */\n  dup1\n    /* \"#utility.yul\":260:272   */\n  revert\n    /* \"#utility.yul\":204:274   */\ntag_20:\n    /* \"#utility.yul\":293:298   */\n  swap4\n    /* \"#utility.yul\":14:304   */\n  swap3\n  pop\n  pop\n  pop\n  jump\t// out\n    /* \"#utility.yul\":309:436   */\ntag_12:\n    /* \"#utility.yul\":370:380   */\n  0x4e487b71\n    /* \"#utility.yul\":365:368   */\n  0xe0\n    /* \"#utility.yul\":361:381   */\n  shl\n    /* \"#utility.yul\":358:359   */\n  0x00\n    /* \"#utility.yul\":351:382   */\n  mstore\n    /* \"#utility.yul\":401:405   */\n  0x41\n    /* \"#utility.yul\":398:399   */\n  0x04\n    /* \"#utility.yul\":391:406   */\n  mstore\n    /* \"#utility.yul\":425:429   */\n  0x24\n    /* \"#utility.yul\":422:423   */\n  0x00\n    /* \"#utility.yul\":415:430   */\n  revert\n    /* \"#utility.yul\":441:821   */\ntag_13:\n    /* \"#utility.yul\":520:521   */\n  0x01\n    /* \"#utility.yul\":516:528   */\n  dup2\n  dup2\n  shr\n  swap1\n    /* \"#utility.yul\":563:575   */\n  dup3\n  and\n  dup1\n    /* \"#utility.yul\":584:645   */\n  tag_23\n  jumpi\n    /* \"#utility.yul\":638:642   */\n  0x7f\n    /* \"#utility.yul\":630:636   */\n  dup3\n    /* \"#utility.yul\":626:643   */\n  and\n    /* \"#utility.yul\":616:643   */\n  swap2\n  pop\n    /* \"#utility.yul\":584:645   */\ntag_23:\n    /* \"#utility.yul\":691:693   */\n  0x20\n    /* \"#utility.yul\":683:689   */\n  dup3\n    /* \"#utility.yul\":680:694   */\n  lt\n    /* \"#utility.yul\":660:678   */\n  dup2\n    /* \"#utility.yul\":657:695   */\n  sub\n    /* \"#utility.yul\":654:815   */\n  tag_24\n  jumpi\n    /* \"#utility.yul\":737:747   */\n  0x4e487b71\n    /* \"#utility.yul\":732:735   */\n  0xe0\n    /* \"#utility.yul\":728:748   */\n  shl\n    /* \"#utility.yul\":725:726   */\n  0x00\n    /* \"#utility.yul\":718:749   */\n  mstore\n    /* \"#utility.yul\":772:776   */\n  0x22\n    /* \"#utility.yul\":769:770   */\n  0x04\n    /* \"#utility.yul\":762:777   */\n  mstore\n    /* \"#utility.yul\":800:804   */\n  0x24\n    /* \"#utility.yul\":797:798   */\n  0x00\n    /* \"#utility.yul\":790:805   */\n  revert\n    /* \"#utility.yul\":654:815   */\ntag_24:\n  pop\n    /* \"#utility.yul\":441:821   */\n  swap2\n  swap1\n  pop\n  jump\t// out\n    /* \"#utility.yul\":952:1470   */\ntag_15:\n    /* \"#utility.yul\":1054:1056   */\n  0x1f\n    /* \"#utility.yul\":1049:1052   */\n  dup3\n    /* \"#utility.yul\":1046:1057   */\n  gt\n    /* \"#utility.yul\":1043:1464   */\n  iszero\n  tag_27\n  jumpi\n    /* \"#utility.yul\":1090:1095   */\n  dup1\n    /* \"#utility.yul\":1087:1088   */\n  0x00\n    /* \"#utility.yul\":1080:1096   */\n  mstore\n    /* \"#utility.yul\":1134:1138   */\n  0x20\n    /* \"#utility.yul\":1131:1132   */\n  0x00\n    /* \"#utility.yul\":1121:1139   */\n  keccak256\n    /* \"#utility.yul\":1204:1206   */\n  0x1f\n    /* \"#utility.yul\":1192:1202   */\n  dup5\n    /* \"#utility.yul\":1188:1207   */\n  add\n    /* \"#utility.yul\":1185:1186   */\n  0x05\n    /* \"#utility.yul\":1181:1208   */\n  shr\n    /* \"#utility.yul\":1175:1179   */\n  dup2\n    /* \"#utility.yul\":1171:1209   */\n  add\n    /* \"#utility.yul\":1240:1244   */\n  0x20\n    /* \"#utility.yul\":1228:1238   */\n  dup6\n    /* \"#utility.yul\":1225:1245   */\n  lt\n    /* \"#utility.yul\":1222:1269   */\n  iszero\n  tag_28\n  jumpi\n  pop\n    /* \"#utility.yul\":1263:1267   */\n  dup1\n    /* \"#utility.yul\":1222:1269   */\ntag_28:\n    /* \"#utility.yul\":1318:1320   */\n  0x1f\n    /* \"#utility.yul\":1313:1316   */\n  dup5\n    /* \"#utility.yul\":1309:1321   */\n  add\n    /* \"#utility.yul\":1306:1307   */\n  0x05\n    /* \"#utility.yul\":1302:1322   */\n  shr\n    /* \"#utility.yul\":1296:1300   */\n  dup3\n    /* \"#utility.yul\":1292:1323   */\n  add\n    /* \"#utility.yul\":1282:1323   */\n  swap2\n  pop\n    /* \"#utility.yul\":1373:1454   */\ntag_29:\n    /* \"#utility.yul\":1391:1393   */\n  dup2\n    /* \"#utility.yul\":1384:1389   */\n  dup2\n    /* \"#utility.yul\":1381:1394   */\n  lt\n    /* \"#utility.yul\":1373:1454   */\n  iszero\n  tag_31\n  jumpi\n    /* \"#utility.yul\":1450:1451   */\n  0x00\n    /* \"#utility.yul\":1436:1452   */\n  dup2\n  sstore\n    /* \"#utility.yul\":1417:1418   */\n  0x01\n    /* \"#utility.yul\":1406:1419   */\n  add\n    /* \"#utility.yul\":1373:1454   */\n  jump(tag_29)\ntag_31:\n    /* \"#utility.yul\":1377:1380   */\n  pop\n  pop\n    /* \"#utility.yul\":1043:1464   */\ntag_27:\n    /* \"#utility.yul\":952:1470   */\n  pop\n  pop\n  pop\n  jump\t// out\n    /* \"#utility.yul\":1646:2945   */\ntag_8:\n    /* \"#utility.yul\":1766:1776   */\n  dup2\n  mload\n  sub(shl(0x40, 0x01), 0x01)\n    /* \"#utility.yul\":1788:1818   */\n  dup2\n  gt\n    /* \"#utility.yul\":1785:1841   */\n  iszero\n  tag_35\n  jumpi\n    /* \"#utility.yul\":1821:1839   */\n  tag_35\n  tag_12\n  jump\t// in\ntag_35:\n    /* \"#utility.yul\":1850:1947   */\n  tag_36\n    /* \"#utility.yul\":1940:1946   */\n  dup2\n    /* \"#utility.yul\":1900:1938   */\n  tag_37\n    /* \"#utility.yul\":1932:1936   */\n  dup5\n    /* \"#utility.yul\":1926:1937   */\n  sload\n    /* \"#utility.yul\":1900:1938   */\n  tag_13\n  jump\t// in\ntag_37:\n    /* \"#utility.yul\":1894:1898   */\n  dup5\n    /* \"#utility.yul\":1850:1947   */\n  tag_15\n  jump\t// in\ntag_36:\n    /* \"#utility.yul\":1996:2000   */\n  0x20\n    /* \"#utility.yul\":2027:2029   */\n  0x1f\n    /* \"#utility.yul\":2016:2030   */\n  dup3\n  gt\n    /* \"#utility.yul\":2044:2045   */\n  0x01\n    /* \"#utility.yul\":2039:2688   */\n  dup2\n  eq\n  tag_39\n  jumpi\n    /* \"#utility.yul\":2732:2733   */\n  0x00\n    /* \"#utility.yul\":2749:2755   */\n  dup4\n    /* \"#utility.yul\":2746:2835   */\n  iszero\n  tag_40\n  jumpi\n  pop\n    /* \"#utility.yul\":2801:2820   */\n  dup5\n  dup3\n  add\n    /* \"#utility.yul\":2795:2821   */\n  mload\n    /* \"#utility.yul\":2746:2835   */\ntag_40:\n  not(0x00)\n    /* \"#utility.yul\":1603:1604   */\n  0x03\n    /* \"#utility.yul\":1599:1610   */\n  dup6\n  swap1\n  shl\n    /* \"#utility.yul\":1595:1619   */\n  shr\n    /* \"#utility.yul\":1591:1620   */\n  not\n    /* \"#utility.yul\":1581:1621   */\n  and\n    /* \"#utility.yul\":1627:1628   */\n  0x01\n    /* \"#utility.yul\":1623:1634   */\n  dup5\n  swap1\n  shl\n    /* \"#utility.yul\":1578:1635   */\n  or\n    /* \"#utility.yul\":2848:2929   */\n  dup5\n  sstore\n    /* \"#utility.yul\":2009:2939   */\n  jump(tag_31)\n    /* \"#utility.yul\":2039:2688   */\ntag_39:\n    /* \"#utility.yul\":899:900   */\n  0x00\n    /* \"#utility.yul\":892:906   */\n  dup5\n  dup2\n  mstore\n    /* \"#utility.yul\":936:940   */\n  0x20\n    /* \"#utility.yul\":923:941   */\n  dup2\n  keccak256\n  not(0x1f)\n    /* \"#utility.yul\":2075:2095   */\n  dup6\n  and\n  swap2\n    /* \"#utility.yul\":2193:2415   */\ntag_43:\n    /* \"#utility.yul\":2207:2214   */\n  dup3\n    /* \"#utility.yul\":2204:2205   */\n  dup2\n    /* \"#utility.yul\":2201:2215   */\n  lt\n    /* \"#utility.yul\":2193:2415   */\n  iszero\n  tag_45\n  jumpi\n    /* \"#utility.yul\":2289:2308   */\n  dup8\n  dup6\n  add\n    /* \"#utility.yul\":2283:2309   */\n  mload\n    /* \"#utility.yul\":2268:2310   */\n  dup3\n  sstore\n    /* \"#utility.yul\":2396:2400   */\n  0x20\n    /* \"#utility.yul\":2381:2401   */\n  swap5\n  dup6\n  add\n  swap5\n    /* \"#utility.yul\":2349:2350   */\n  0x01\n    /* \"#utility.yul\":2337:2351   */\n  swap1\n  swap3\n  add\n  swap2\n    /* \"#utility.yul\":2223:2235   */\n  add\n    /* \"#utility.yul\":2193:2415   */\n  jump(tag_43)\ntag_45:\n    /* \"#utility.yul\":2197:2200   */\n  pop\n    /* \"#utility.yul\":2443:2449   */\n  dup5\n    /* \"#utility.yul\":2434:2441   */\n  dup3\n    /* \"#utility.yul\":2431:2450   */\n  lt\n    /* \"#utility.yul\":2428:2629   */\n  iszero\n  tag_46\n  jumpi\n    /* \"#utility.yul\":2504:2523   */\n  dup7\n  dup5\n  add\n    /* \"#utility.yul\":2498:2524   */\n  mload\n  not(0x00)\n    /* \"#utility.yul\":2587:2588   */\n  0x03\n    /* \"#utility.yul\":2583:2597   */\n  dup8\n  swap1\n  shl\n    /* \"#utility.yul\":2599:2602   */\n  0xf8\n    /* \"#utility.yul\":2579:2603   */\n  and\n    /* \"#utility.yul\":2575:2612   */\n  shr\n    /* \"#utility.yul\":2571:2613   */\n  not\n    /* \"#utility.yul\":2556:2614   */\n  and\n    /* \"#utility.yul\":2541:2615   */\n  dup2\n  sstore\n    /* \"#utility.yul\":2428:2629   */\ntag_46:\n  pop\n  pop\n  pop\n  pop\n    /* \"#utility.yul\":2675:2676   */\n  0x01\n    /* \"#utility.yul\":2659:2673   */\n  swap1\n  dup2\n  shl\n    /* \"#utility.yul\":2655:2677   */\n  add\n    /* \"#utility.yul\":2642:2678   */\n  swap1\n  sstore\n  pop\n    /* \"#utility.yul\":1646:2945   */\n  jump\t// out\ntag_17:\n    /* \"contracts/NFT.sol\":259:1000  contract NFT is ERC721URIStorage {... */\n  dataSize(sub_0)\n  dup1\n  dataOffset(sub_0)\n  0x00\n  codecopy\n  0x00\n  return\nstop\n\nsub_0: assembly {\n        /* \"contracts/NFT.sol\":259:1000  contract NFT is ERC721URIStorage {... */\n      mstore(0x40, 0x80)\n      callvalue\n      dup1\n      iszero\n      tag_1\n      jumpi\n      0x00\n      dup1\n      revert\n    tag_1:\n      pop\n      jumpi(tag_2, lt(calldatasize, 0x04))\n      shr(0xe0, calldataload(0x00))\n      dup1\n      0x70a08231\n      gt\n      tag_18\n      jumpi\n      dup1\n      0xc87b56dd\n      gt\n      tag_19\n      jumpi\n      dup1\n      0xc87b56dd\n      eq\n      tag_14\n      jumpi\n      dup1\n      0xd85d3d27\n      eq\n      tag_15\n      jumpi\n      dup1\n      0xe985e9c5\n      eq\n      tag_16\n      jumpi\n      dup1\n      0xef2d1746\n      eq\n      tag_17\n      jumpi\n      0x00\n      dup1\n      revert\n    tag_19:\n      dup1\n      0x70a08231\n      eq\n      tag_10\n      jumpi\n      dup1\n      0x95d89b41\n      eq\n      tag_11\n      jumpi\n      dup1\n      0xa22cb465\n      eq\n      tag_12\n      jumpi\n      dup1\n      0xb88d4fde\n      eq\n      tag_13\n      jumpi\n      0x00\n      dup1\n      revert\n    tag_18:\n      dup1\n      0x095ea7b3\n      gt\n      tag_20\n      jumpi\n      dup1\n      0x095ea7b3\n      eq\n      tag_6\n      jumpi\n      dup1\n      0x23b872dd\n      eq\n      tag_7\n      jumpi\n      dup1\n      0x42842e0e\n      eq\n      tag_8\n      jumpi\n      dup1\n      0x6352211e\n      eq\n      tag_9\n      jumpi\n      0x00\n      dup1\n      revert\n    tag_20:\n      dup1\n      0x01ffc9a7\n      eq\n      tag_3\n      jumpi\n      dup1\n      0x06fdde03\n      eq\n      tag_4\n      jumpi\n      dup1\n      0x081812fc\n      eq\n      tag_5\n      jumpi\n    tag_2:\n      0x00\n      dup1\n      revert\n        /* \"contracts/@openzeppelin/contracts/token/ERC721/ERC721.sol\":1570:1870  function supportsInterface(bytes4 interfaceId) public view virtual override(ERC165, IERC165) returns (bool) {... */\n    tag_3:\n      tag_21\n      tag_22\n      calldatasize\n      0x04\n      tag_23\n      jump\t// in\n    tag_22:\n      tag_24\n      jump\t// in\n    tag_21:\n      mload(0x40)\n        /* \"#utility.yul\":565:579   */\n      swap1\n      iszero\n        /* \"#utility.yul\":558:580   */\n      iszero\n        /* \"#utility.yul\":540:581   */\n      dup2\n      mstore\n        /* \"#utility.yul\":528:530   */\n      0x20\n        /* \"#utility.yul\":513:531   */\n      add\n        /* \"contracts/@openzeppelin/contracts/token/ERC721/ERC721.sol\":1570:1870  function supportsInterface(bytes4 interfaceId) public view virtual override(ERC165, IERC165) returns (bool) {... */\n    tag_25:\n      mload(0x40)\n      dup1\n      swap2\n      sub\n      swap1\n      return\n        /* \"contracts/@openzeppelin/contracts/token/ERC721/ERC721.sol\":2470:2568  function name() public view virtual override returns (string memory) {... */\n    tag_4:\n      tag_27\n      tag_28\n      jump\t// in\n    tag_27:\n      mload(0x40)\n      tag_25\n      swap2\n      swap1\n      tag_30\n      jump\t// in\n        /* \"contracts/@openzeppelin/contracts/token/ERC721/ERC721.sol\":3935:4102  function getApproved(uint256 tokenId) public view virtual override returns (address) {... */\n    tag_5:\n      tag_31\n      tag_32\n      calldatasize\n      0x04\n      tag_33\n      jump\t// in\n    tag_32:\n      tag_34\n      jump\t// in\n    tag_31:\n      mload(0x40)\n      sub(shl(0xa0, 0x01), 0x01)\n        /* \"#utility.yul\":1528:1560   */\n      swap1\n      swap2\n      and\n        /* \"#utility.yul\":1510:1561   */\n      dup2\n      mstore\n        /* \"#utility.yul\":1498:1500   */\n      0x20\n        /* \"#utility.yul\":1483:1501   */\n      add\n        /* \"contracts/@openzeppelin/contracts/token/ERC721/ERC721.sol\":3935:4102  function getApproved(uint256 tokenId) public view virtual override returns (address) {... */\n      tag_25\n        /* \"#utility.yul\":1364:1567   */\n      jump\n        /* \"contracts/@openzeppelin/contracts/token/ERC721/ERC721.sol\":3467:3874  function approve(address to, uint256 tokenId) public virtual override {... */\n    tag_6:\n      tag_37\n      tag_38\n      calldatasize\n      0x04\n      tag_39\n      jump\t// in\n    tag_38:\n      tag_40\n      jump\t// in\n    tag_37:\n      stop\n        /* \"contracts/@openzeppelin/contracts/token/ERC721/ERC721.sol\":4612:4939  function transferFrom(... */\n    tag_7:\n      tag_37\n      tag_42\n      calldatasize\n      0x04\n      tag_43\n      jump\t// in\n    tag_42:\n      tag_44\n      jump\t// in\n        /* \"contracts/@openzeppelin/contracts/token/ERC721/ERC721.sol\":5005:5184  function safeTransferFrom(... */\n    tag_8:\n      tag_37\n      tag_46\n      calldatasize\n      0x04\n      tag_43\n      jump\t// in\n    tag_46:\n      tag_47\n      jump\t// in\n        /* \"contracts/@openzeppelin/contracts/token/ERC721/ERC721.sol\":2190:2408  function ownerOf(uint256 tokenId) public view virtual override returns (address) {... */\n    tag_9:\n      tag_31\n      tag_49\n      calldatasize\n      0x04\n      tag_33\n      jump\t// in\n    tag_49:\n      tag_50\n      jump\t// in\n        /* \"contracts/@openzeppelin/contracts/token/ERC721/ERC721.sol\":1929:2133  function balanceOf(address owner) public view virtual override returns (uint256) {... */\n    tag_10:\n      tag_52\n      tag_53\n      calldatasize\n      0x04\n      tag_54\n      jump\t// in\n    tag_53:\n      tag_55\n      jump\t// in\n    tag_52:\n      mload(0x40)\n        /* \"#utility.yul\":2771:2796   */\n      swap1\n      dup2\n      mstore\n        /* \"#utility.yul\":2759:2761   */\n      0x20\n        /* \"#utility.yul\":2744:2762   */\n      add\n        /* \"contracts/@openzeppelin/contracts/token/ERC721/ERC721.sol\":1929:2133  function balanceOf(address owner) public view virtual override returns (uint256) {... */\n      tag_25\n        /* \"#utility.yul\":2625:2802   */\n      jump\n        /* \"contracts/@openzeppelin/contracts/token/ERC721/ERC721.sol\":2632:2734  function symbol() public view virtual override returns (string memory) {... */\n    tag_11:\n      tag_27\n      tag_59\n      jump\t// in\n        /* \"contracts/@openzeppelin/contracts/token/ERC721/ERC721.sol\":4169:4322  function setApprovalForAll(address operator, bool approved) public virtual override {... */\n    tag_12:\n      tag_37\n      tag_62\n      calldatasize\n      0x04\n      tag_63\n      jump\t// in\n    tag_62:\n      tag_64\n      jump\t// in\n        /* \"contracts/@openzeppelin/contracts/token/ERC721/ERC721.sol\":5250:5565  function safeTransferFrom(... */\n    tag_13:\n      tag_37\n      tag_66\n      calldatasize\n      0x04\n      tag_67\n      jump\t// in\n    tag_66:\n      tag_68\n      jump\t// in\n        /* \"contracts/@openzeppelin/contracts/token/ERC721/extensions/ERC721URIStorage.sol\":482:1090  function tokenURI(uint256 tokenId) public view virtual override returns (string memory) {... */\n    tag_14:\n      tag_27\n      tag_70\n      calldatasize\n      0x04\n      tag_33\n      jump\t// in\n    tag_70:\n      tag_71\n      jump\t// in\n        /* \"contracts/NFT.sol\":567:892  function mint(string memory _tokenURI) public returns (uint256) {... */\n    tag_15:\n      tag_52\n      tag_74\n      calldatasize\n      0x04\n      tag_75\n      jump\t// in\n    tag_74:\n      tag_76\n      jump\t// in\n        /* \"contracts/@openzeppelin/contracts/token/ERC721/ERC721.sol\":4388:4550  function isApprovedForAll(address owner, address operator) public view virtual override returns (bool) {... */\n    tag_16:\n      tag_21\n      tag_79\n      calldatasize\n      0x04\n      tag_80\n      jump\t// in\n    tag_79:\n      tag_81\n      jump\t// in\n        /* \"contracts/NFT.sol\":898:998  function getCurrentToken() public view returns (uint256) {... */\n    tag_17:\n      tag_52\n      tag_84\n      jump\t// in\n        /* \"contracts/@openzeppelin/contracts/token/ERC721/ERC721.sol\":1570:1870  function supportsInterface(bytes4 interfaceId) public view virtual override(ERC165, IERC165) returns (bool) {... */\n    tag_24:\n        /* \"contracts/@openzeppelin/contracts/token/ERC721/ERC721.sol\":1672:1676  bool */\n      0x00\n      not(sub(shl(0xe0, 0x01), 0x01))\n        /* \"contracts/@openzeppelin/contracts/token/ERC721/ERC721.sol\":1707:1747  interfaceId == type(IERC721).interfaceId */\n      dup3\n      and\n      shl(0xe0, 0x80ac58cd)\n      eq\n      dup1\n        /* \"contracts/@openzeppelin/contracts/token/ERC721/ERC721.sol\":1707:1811  interfaceId == type(IERC721).interfaceId ||... */\n      tag_87\n      jumpi\n      pop\n      not(sub(shl(0xe0, 0x01), 0x01))\n        /* \"contracts/@openzeppelin/contracts/token/ERC721/ERC721.sol\":1763:1811  interfaceId == type(IERC721Metadata).interfaceId */\n      dup3\n      and\n      shl(0xe0, 0x5b5e139f)\n      eq\n        /* \"contracts/@openzeppelin/contracts/token/ERC721/ERC721.sol\":1707:1811  interfaceId == type(IERC721).interfaceId ||... */\n    tag_87:\n        /* \"contracts/@openzeppelin/contracts/token/ERC721/ERC721.sol\":1707:1863  interfaceId == type(IERC721).interfaceId ||... */\n      dup1\n      tag_89\n      jumpi\n      pop\n      shl(0xe0, 0x01ffc9a7)\n      not(sub(shl(0xe0, 0x01), 0x01))\n        /* \"contracts/@openzeppelin/contracts/utils/introspection/ERC165.sol\":937:977  interfaceId == type(IERC165).interfaceId */\n      dup4\n      and\n      eq\n        /* \"contracts/@openzeppelin/contracts/token/ERC721/ERC721.sol\":1827:1863  super.supportsInterface(interfaceId) */\n    tag_89:\n        /* \"contracts/@openzeppelin/contracts/token/ERC721/ERC721.sol\":1688:1863  return... */\n      swap3\n        /* \"contracts/@openzeppelin/contracts/token/ERC721/ERC721.sol\":1570:1870  function supportsInterface(bytes4 interfaceId) public view virtual override(ERC165, IERC165) returns (bool) {... */\n      swap2\n      pop\n      pop\n      jump\t// out\n        /* \"contracts/@openzeppelin/contracts/token/ERC721/ERC721.sol\":2470:2568  function name() public view virtual override returns (string memory) {... */\n    tag_28:\n        /* \"contracts/@openzeppelin/contracts/token/ERC721/ERC721.sol\":2524:2537  string memory */\n      0x60\n        /* \"contracts/@openzeppelin/contracts/token/ERC721/ERC721.sol\":2556:2561  _name */\n      0x00\n        /* \"contracts/@openzeppelin/contracts/token/ERC721/ERC721.sol\":2549:2561  return _name */\n      dup1\n      sload\n      tag_92\n      swap1\n      tag_93\n      jump\t// in\n    tag_92:\n      dup1\n      0x1f\n      add\n      0x20\n      dup1\n      swap2\n      div\n      mul\n      0x20\n      add\n      mload(0x40)\n      swap1\n      dup2\n      add\n      0x40\n      mstore\n      dup1\n      swap3\n      swap2\n      swap1\n      dup2\n      dup2\n      mstore\n      0x20\n      add\n      dup3\n      dup1\n      sload\n      tag_94\n      swap1\n      tag_93\n      jump\t// in\n    tag_94:\n      dup1\n      iszero\n      tag_95\n      jumpi\n      dup1\n      0x1f\n      lt\n      tag_96\n      jumpi\n      0x0100\n      dup1\n      dup4\n      sload\n      div\n      mul\n      dup4\n      mstore\n      swap2\n      0x20\n      add\n      swap2\n      jump(tag_95)\n    tag_96:\n      dup3\n      add\n      swap2\n      swap1\n      0x00\n      mstore\n      keccak256(0x00, 0x20)\n      swap1\n    tag_97:\n      dup2\n      sload\n      dup2\n      mstore\n      swap1\n      0x01\n      add\n      swap1\n      0x20\n      add\n      dup1\n      dup4\n      gt\n      tag_97\n      jumpi\n      dup3\n      swap1\n      sub\n      0x1f\n      and\n      dup3\n      add\n      swap2\n    tag_95:\n      pop\n      pop\n      pop\n      pop\n      pop\n      swap1\n      pop\n        /* \"contracts/@openzeppelin/contracts/token/ERC721/ERC721.sol\":2470:2568  function name() public view virtual override returns (string memory) {... */\n      swap1\n      jump\t// out\n        /* \"contracts/@openzeppelin/contracts/token/ERC721/ERC721.sol\":3935:4102  function getApproved(uint256 tokenId) public view virtual override returns (address) {... */\n    tag_34:\n        /* \"contracts/@openzeppelin/contracts/token/ERC721/ERC721.sol\":4011:4018  address */\n      0x00\n        /* \"contracts/@openzeppelin/contracts/token/ERC721/ERC721.sol\":4030:4053  _requireMinted(tokenId) */\n      tag_99\n        /* \"contracts/@openzeppelin/contracts/token/ERC721/ERC721.sol\":4045:4052  tokenId */\n      dup3\n        /* \"contracts/@openzeppelin/contracts/token/ERC721/ERC721.sol\":4030:4044  _requireMinted */\n      tag_100\n        /* \"contracts/@openzeppelin/contracts/token/ERC721/ERC721.sol\":4030:4053  _requireMinted(tokenId) */\n      jump\t// in\n    tag_99:\n      pop\n        /* \"contracts/@openzeppelin/contracts/token/ERC721/ERC721.sol\":4071:4095  _tokenApprovals[tokenId] */\n      0x00\n      swap1\n      dup2\n      mstore\n        /* \"contracts/@openzeppelin/contracts/token/ERC721/ERC721.sol\":4071:4086  _tokenApprovals */\n      0x04\n        /* \"contracts/@openzeppelin/contracts/token/ERC721/ERC721.sol\":4071:4095  _tokenApprovals[tokenId] */\n      0x20\n      mstore\n      0x40\n      swap1\n      keccak256\n      sload\n      sub(shl(0xa0, 0x01), 0x01)\n      and\n      swap1\n        /* \"contracts/@openzeppelin/contracts/token/ERC721/ERC721.sol\":3935:4102  function getApproved(uint256 tokenId) public view virtual override returns (address) {... */\n      jump\t// out\n        /* \"contracts/@openzeppelin/contracts/token/ERC721/ERC721.sol\":3467:3874  function approve(address to, uint256 tokenId) public virtual override {... */\n    tag_40:\n        /* \"contracts/@openzeppelin/contracts/token/ERC721/ERC721.sol\":3547:3560  address owner */\n      0x00\n        /* \"contracts/@openzeppelin/contracts/token/ERC721/ERC721.sol\":3563:3586  ERC721.ownerOf(tokenId) */\n      tag_102\n        /* \"contracts/@openzeppelin/contracts/token/ERC721/ERC721.sol\":3578:3585  tokenId */\n      dup3\n        /* \"contracts/@openzeppelin/contracts/token/ERC721/ERC721.sol\":3563:3577  ERC721.ownerOf */\n      tag_50\n        /* \"contracts/@openzeppelin/contracts/token/ERC721/ERC721.sol\":3563:3586  ERC721.ownerOf(tokenId) */\n      jump\t// in\n    tag_102:\n        /* \"contracts/@openzeppelin/contracts/token/ERC721/ERC721.sol\":3547:3586  address owner = ERC721.ownerOf(tokenId) */\n      swap1\n      pop\n        /* \"contracts/@openzeppelin/contracts/token/ERC721/ERC721.sol\":3610:3615  owner */\n      dup1\n      sub(shl(0xa0, 0x01), 0x01)\n        /* \"contracts/@openzeppelin/contracts/token/ERC721/ERC721.sol\":3604:3615  to != owner */\n      and\n        /* \"contracts/@openzeppelin/contracts/token/ERC721/ERC721.sol\":3604:3606  to */\n      dup4\n      sub(shl(0xa0, 0x01), 0x01)\n        /* \"contracts/@openzeppelin/contracts/token/ERC721/ERC721.sol\":3604:3615  to != owner */\n      and\n      sub\n        /* \"contracts/@openzeppelin/contracts/token/ERC721/ERC721.sol\":3596:3653  require(to != owner, \"ERC721: approval to current owner\") */\n      tag_103\n      jumpi\n      mload(0x40)\n      shl(0xe5, 0x461bcd)\n      dup2\n      mstore\n        /* \"#utility.yul\":6035:6037   */\n      0x20\n        /* \"contracts/@openzeppelin/contracts/token/ERC721/ERC721.sol\":3596:3653  require(to != owner, \"ERC721: approval to current owner\") */\n      0x04\n      dup3\n      add\n        /* \"#utility.yul\":6017:6038   */\n      mstore\n        /* \"#utility.yul\":6074:6076   */\n      0x21\n        /* \"#utility.yul\":6054:6072   */\n      0x24\n      dup3\n      add\n        /* \"#utility.yul\":6047:6077   */\n      mstore\n        /* \"#utility.yul\":6113:6147   */\n      0x4552433732313a20617070726f76616c20746f2063757272656e74206f776e65\n        /* \"#utility.yul\":6093:6111   */\n      0x44\n      dup3\n      add\n        /* \"#utility.yul\":6086:6148   */\n      mstore\n      shl(0xf9, 0x39)\n        /* \"#utility.yul\":6164:6182   */\n      0x64\n      dup3\n      add\n        /* \"#utility.yul\":6157:6188   */\n      mstore\n        /* \"#utility.yul\":6205:6224   */\n      0x84\n      add\n        /* \"contracts/@openzeppelin/contracts/token/ERC721/ERC721.sol\":3596:3653  require(to != owner, \"ERC721: approval to current owner\") */\n    tag_104:\n      mload(0x40)\n      dup1\n      swap2\n      sub\n      swap1\n      revert\n    tag_103:\n        /* \"contracts/@openzeppelin/contracts/utils/Context.sol\":719:729  msg.sender */\n      caller\n      sub(shl(0xa0, 0x01), 0x01)\n        /* \"contracts/@openzeppelin/contracts/token/ERC721/ERC721.sol\":3685:3706  _msgSender() == owner */\n      dup3\n      and\n      eq\n      dup1\n        /* \"contracts/@openzeppelin/contracts/token/ERC721/ERC721.sol\":3685:3747  _msgSender() == owner || isApprovedForAll(owner, _msgSender()) */\n      tag_109\n      jumpi\n      pop\n        /* \"contracts/@openzeppelin/contracts/token/ERC721/ERC721.sol\":3710:3747  isApprovedForAll(owner, _msgSender()) */\n      tag_109\n        /* \"contracts/@openzeppelin/contracts/token/ERC721/ERC721.sol\":3727:3732  owner */\n      dup2\n        /* \"contracts/@openzeppelin/contracts/utils/Context.sol\":719:729  msg.sender */\n      caller\n        /* \"contracts/@openzeppelin/contracts/token/ERC721/ERC721.sol\":4388:4550  function isApprovedForAll(address owner, address operator) public view virtual override returns (bool) {... */\n      tag_81\n      jump\t// in\n        /* \"contracts/@openzeppelin/contracts/token/ERC721/ERC721.sol\":3710:3747  isApprovedForAll(owner, _msgSender()) */\n    tag_109:\n        /* \"contracts/@openzeppelin/contracts/token/ERC721/ERC721.sol\":3664:3835  require(... */\n      tag_111\n      jumpi\n      mload(0x40)\n      shl(0xe5, 0x461bcd)\n      dup2\n      mstore\n        /* \"#utility.yul\":6437:6439   */\n      0x20\n        /* \"contracts/@openzeppelin/contracts/token/ERC721/ERC721.sol\":3664:3835  require(... */\n      0x04\n      dup3\n      add\n        /* \"#utility.yul\":6419:6440   */\n      mstore\n        /* \"#utility.yul\":6476:6478   */\n      0x3e\n        /* \"#utility.yul\":6456:6474   */\n      0x24\n      dup3\n      add\n        /* \"#utility.yul\":6449:6479   */\n      mstore\n        /* \"#utility.yul\":6515:6549   */\n      0x4552433732313a20617070726f76652063616c6c6572206973206e6f7420746f\n        /* \"#utility.yul\":6495:6513   */\n      0x44\n      dup3\n      add\n        /* \"#utility.yul\":6488:6550   */\n      mstore\n        /* \"#utility.yul\":6586:6618   */\n      0x6b656e206f776e6572206e6f7220617070726f76656420666f7220616c6c0000\n        /* \"#utility.yul\":6566:6584   */\n      0x64\n      dup3\n      add\n        /* \"#utility.yul\":6559:6619   */\n      mstore\n        /* \"#utility.yul\":6636:6655   */\n      0x84\n      add\n        /* \"contracts/@openzeppelin/contracts/token/ERC721/ERC721.sol\":3664:3835  require(... */\n      tag_104\n        /* \"#utility.yul\":6235:6661   */\n      jump\n        /* \"contracts/@openzeppelin/contracts/token/ERC721/ERC721.sol\":3664:3835  require(... */\n    tag_111:\n        /* \"contracts/@openzeppelin/contracts/token/ERC721/ERC721.sol\":3846:3867  _approve(to, tokenId) */\n      tag_114\n        /* \"contracts/@openzeppelin/contracts/token/ERC721/ERC721.sol\":3855:3857  to */\n      dup4\n        /* \"contracts/@openzeppelin/contracts/token/ERC721/ERC721.sol\":3859:3866  tokenId */\n      dup4\n        /* \"contracts/@openzeppelin/contracts/token/ERC721/ERC721.sol\":3846:3854  _approve */\n      tag_115\n        /* \"contracts/@openzeppelin/contracts/token/ERC721/ERC721.sol\":3846:3867  _approve(to, tokenId) */\n      jump\t// in\n    tag_114:\n        /* \"contracts/@openzeppelin/contracts/token/ERC721/ERC721.sol\":3537:3874  {... */\n      pop\n        /* \"contracts/@openzeppelin/contracts/token/ERC721/ERC721.sol\":3467:3874  function approve(address to, uint256 tokenId) public virtual override {... */\n      pop\n      pop\n      jump\t// out\n        /* \"contracts/@openzeppelin/contracts/token/ERC721/ERC721.sol\":4612:4939  function transferFrom(... */\n    tag_44:\n        /* \"contracts/@openzeppelin/contracts/token/ERC721/ERC721.sol\":4801:4842  _isApprovedOrOwner(_msgSender(), tokenId) */\n      tag_117\n        /* \"contracts/@openzeppelin/contracts/utils/Context.sol\":719:729  msg.sender */\n      caller\n        /* \"contracts/@openzeppelin/contracts/token/ERC721/ERC721.sol\":4834:4841  tokenId */\n      dup3\n        /* \"contracts/@openzeppelin/contracts/token/ERC721/ERC721.sol\":4801:4819  _isApprovedOrOwner */\n      tag_119\n        /* \"contracts/@openzeppelin/contracts/token/ERC721/ERC721.sol\":4801:4842  _isApprovedOrOwner(_msgSender(), tokenId) */\n      jump\t// in\n    tag_117:\n        /* \"contracts/@openzeppelin/contracts/token/ERC721/ERC721.sol\":4793:4893  require(_isApprovedOrOwner(_msgSender(), tokenId), \"ERC721: caller is not token owner nor approved\") */\n      tag_120\n      jumpi\n      mload(0x40)\n      shl(0xe5, 0x461bcd)\n      dup2\n      mstore\n      0x04\n      add\n      tag_104\n      swap1\n      tag_122\n      jump\t// in\n    tag_120:\n        /* \"contracts/@openzeppelin/contracts/token/ERC721/ERC721.sol\":4904:4932  _transfer(from, to, tokenId) */\n      tag_114\n        /* \"contracts/@openzeppelin/contracts/token/ERC721/ERC721.sol\":4914:4918  from */\n      dup4\n        /* \"contracts/@openzeppelin/contracts/token/ERC721/ERC721.sol\":4920:4922  to */\n      dup4\n        /* \"contracts/@openzeppelin/contracts/token/ERC721/ERC721.sol\":4924:4931  tokenId */\n      dup4\n        /* \"contracts/@openzeppelin/contracts/token/ERC721/ERC721.sol\":4904:4913  _transfer */\n      tag_124\n        /* \"contracts/@openzeppelin/contracts/token/ERC721/ERC721.sol\":4904:4932  _transfer(from, to, tokenId) */\n      jump\t// in\n        /* \"contracts/@openzeppelin/contracts/token/ERC721/ERC721.sol\":5005:5184  function safeTransferFrom(... */\n    tag_47:\n        /* \"contracts/@openzeppelin/contracts/token/ERC721/ERC721.sol\":5138:5177  safeTransferFrom(from, to, tokenId, \"\") */\n      tag_114\n        /* \"contracts/@openzeppelin/contracts/token/ERC721/ERC721.sol\":5155:5159  from */\n      dup4\n        /* \"contracts/@openzeppelin/contracts/token/ERC721/ERC721.sol\":5161:5163  to */\n      dup4\n        /* \"contracts/@openzeppelin/contracts/token/ERC721/ERC721.sol\":5165:5172  tokenId */\n      dup4\n        /* \"contracts/@openzeppelin/contracts/token/ERC721/ERC721.sol\":5138:5177  safeTransferFrom(from, to, tokenId, \"\") */\n      mload(0x40)\n      dup1\n      0x20\n      add\n      0x40\n      mstore\n      dup1\n      0x00\n      dup2\n      mstore\n      pop\n        /* \"contracts/@openzeppelin/contracts/token/ERC721/ERC721.sol\":5138:5154  safeTransferFrom */\n      tag_68\n        /* \"contracts/@openzeppelin/contracts/token/ERC721/ERC721.sol\":5138:5177  safeTransferFrom(from, to, tokenId, \"\") */\n      jump\t// in\n        /* \"contracts/@openzeppelin/contracts/token/ERC721/ERC721.sol\":2190:2408  function ownerOf(uint256 tokenId) public view virtual override returns (address) {... */\n    tag_50:\n        /* \"contracts/@openzeppelin/contracts/token/ERC721/ERC721.sol\":2262:2269  address */\n      0x00\n        /* \"contracts/@openzeppelin/contracts/token/ERC721/ERC721.sol\":2297:2313  _owners[tokenId] */\n      dup2\n      dup2\n      mstore\n        /* \"contracts/@openzeppelin/contracts/token/ERC721/ERC721.sol\":2297:2304  _owners */\n      0x02\n        /* \"contracts/@openzeppelin/contracts/token/ERC721/ERC721.sol\":2297:2313  _owners[tokenId] */\n      0x20\n      mstore\n      0x40\n      dup2\n      keccak256\n      sload\n      sub(shl(0xa0, 0x01), 0x01)\n      and\n      dup1\n        /* \"contracts/@openzeppelin/contracts/token/ERC721/ERC721.sol\":2323:2379  require(owner != address(0), \"ERC721: invalid token ID\") */\n      tag_89\n      jumpi\n      mload(0x40)\n      shl(0xe5, 0x461bcd)\n      dup2\n      mstore\n        /* \"#utility.yul\":7283:7285   */\n      0x20\n        /* \"contracts/@openzeppelin/contracts/token/ERC721/ERC721.sol\":2323:2379  require(owner != address(0), \"ERC721: invalid token ID\") */\n      0x04\n      dup3\n      add\n        /* \"#utility.yul\":7265:7286   */\n      mstore\n        /* \"#utility.yul\":7322:7324   */\n      0x18\n        /* \"#utility.yul\":7302:7320   */\n      0x24\n      dup3\n      add\n        /* \"#utility.yul\":7295:7325   */\n      mstore\n      shl(0x42, 0x115490cdcc8c4e881a5b9d985b1a59081d1bdad95b881251)\n        /* \"#utility.yul\":7341:7359   */\n      0x44\n      dup3\n      add\n        /* \"#utility.yul\":7334:7388   */\n      mstore\n        /* \"#utility.yul\":7405:7423   */\n      0x64\n      add\n        /* \"contracts/@openzeppelin/contracts/token/ERC721/ERC721.sol\":2323:2379  require(owner != address(0), \"ERC721: invalid token ID\") */\n      tag_104\n        /* \"#utility.yul\":7081:7429   */\n      jump\n        /* \"contracts/@openzeppelin/contracts/token/ERC721/ERC721.sol\":1929:2133  function balanceOf(address owner) public view virtual override returns (uint256) {... */\n    tag_55:\n        /* \"contracts/@openzeppelin/contracts/token/ERC721/ERC721.sol\":2001:2008  uint256 */\n      0x00\n      sub(shl(0xa0, 0x01), 0x01)\n        /* \"contracts/@openzeppelin/contracts/token/ERC721/ERC721.sol\":2028:2047  owner != address(0) */\n      dup3\n      and\n        /* \"contracts/@openzeppelin/contracts/token/ERC721/ERC721.sol\":2020:2093  require(owner != address(0), \"ERC721: address zero is not a valid owner\") */\n      tag_132\n      jumpi\n      mload(0x40)\n      shl(0xe5, 0x461bcd)\n      dup2\n      mstore\n        /* \"#utility.yul\":7636:7638   */\n      0x20\n        /* \"contracts/@openzeppelin/contracts/token/ERC721/ERC721.sol\":2020:2093  require(owner != address(0), \"ERC721: address zero is not a valid owner\") */\n      0x04\n      dup3\n      add\n        /* \"#utility.yul\":7618:7639   */\n      mstore\n        /* \"#utility.yul\":7675:7677   */\n      0x29\n        /* \"#utility.yul\":7655:7673   */\n      0x24\n      dup3\n      add\n        /* \"#utility.yul\":7648:7678   */\n      mstore\n        /* \"#utility.yul\":7714:7748   */\n      0x4552433732313a2061646472657373207a65726f206973206e6f742061207661\n        /* \"#utility.yul\":7694:7712   */\n      0x44\n      dup3\n      add\n        /* \"#utility.yul\":7687:7749   */\n      mstore\n      shl(0xb9, 0x3634b21037bbb732b9)\n        /* \"#utility.yul\":7765:7783   */\n      0x64\n      dup3\n      add\n        /* \"#utility.yul\":7758:7797   */\n      mstore\n        /* \"#utility.yul\":7814:7833   */\n      0x84\n      add\n        /* \"contracts/@openzeppelin/contracts/token/ERC721/ERC721.sol\":2020:2093  require(owner != address(0), \"ERC721: address zero is not a valid owner\") */\n      tag_104\n        /* \"#utility.yul\":7434:7839   */\n      jump\n        /* \"contracts/@openzeppelin/contracts/token/ERC721/ERC721.sol\":2020:2093  require(owner != address(0), \"ERC721: address zero is not a valid owner\") */\n    tag_132:\n      pop\n      sub(shl(0xa0, 0x01), 0x01)\n        /* \"contracts/@openzeppelin/contracts/token/ERC721/ERC721.sol\":2110:2126  _balances[owner] */\n      and\n      0x00\n      swap1\n      dup2\n      mstore\n        /* \"contracts/@openzeppelin/contracts/token/ERC721/ERC721.sol\":2110:2119  _balances */\n      0x03\n        /* \"contracts/@openzeppelin/contracts/token/ERC721/ERC721.sol\":2110:2126  _balances[owner] */\n      0x20\n      mstore\n      0x40\n      swap1\n      keccak256\n      sload\n      swap1\n        /* \"contracts/@openzeppelin/contracts/token/ERC721/ERC721.sol\":1929:2133  function balanceOf(address owner) public view virtual override returns (uint256) {... */\n      jump\t// out\n        /* \"contracts/@openzeppelin/contracts/token/ERC721/ERC721.sol\":2632:2734  function symbol() public view virtual override returns (string memory) {... */\n    tag_59:\n        /* \"contracts/@openzeppelin/contracts/token/ERC721/ERC721.sol\":2688:2701  string memory */\n      0x60\n        /* \"contracts/@openzeppelin/contracts/token/ERC721/ERC721.sol\":2720:2727  _symbol */\n      0x01\n        /* \"contracts/@openzeppelin/contracts/token/ERC721/ERC721.sol\":2713:2727  return _symbol */\n      dup1\n      sload\n      tag_92\n      swap1\n      tag_93\n      jump\t// in\n        /* \"contracts/@openzeppelin/contracts/token/ERC721/ERC721.sol\":4169:4322  function setApprovalForAll(address operator, bool approved) public virtual override {... */\n    tag_64:\n        /* \"contracts/@openzeppelin/contracts/token/ERC721/ERC721.sol\":4263:4315  _setApprovalForAll(_msgSender(), operator, approved) */\n      tag_142\n        /* \"contracts/@openzeppelin/contracts/utils/Context.sol\":719:729  msg.sender */\n      caller\n        /* \"contracts/@openzeppelin/contracts/token/ERC721/ERC721.sol\":4296:4304  operator */\n      dup4\n        /* \"contracts/@openzeppelin/contracts/token/ERC721/ERC721.sol\":4306:4314  approved */\n      dup4\n        /* \"contracts/@openzeppelin/contracts/token/ERC721/ERC721.sol\":4263:4281  _setApprovalForAll */\n      tag_144\n        /* \"contracts/@openzeppelin/contracts/token/ERC721/ERC721.sol\":4263:4315  _setApprovalForAll(_msgSender(), operator, approved) */\n      jump\t// in\n    tag_142:\n        /* \"contracts/@openzeppelin/contracts/token/ERC721/ERC721.sol\":4169:4322  function setApprovalForAll(address operator, bool approved) public virtual override {... */\n      pop\n      pop\n      jump\t// out\n        /* \"contracts/@openzeppelin/contracts/token/ERC721/ERC721.sol\":5250:5565  function safeTransferFrom(... */\n    tag_68:\n        /* \"contracts/@openzeppelin/contracts/token/ERC721/ERC721.sol\":5418:5459  _isApprovedOrOwner(_msgSender(), tokenId) */\n      tag_146\n        /* \"contracts/@openzeppelin/contracts/utils/Context.sol\":719:729  msg.sender */\n      caller\n        /* \"contracts/@openzeppelin/contracts/token/ERC721/ERC721.sol\":5451:5458  tokenId */\n      dup4\n        /* \"contracts/@openzeppelin/contracts/token/ERC721/ERC721.sol\":5418:5436  _isApprovedOrOwner */\n      tag_119\n        /* \"contracts/@openzeppelin/contracts/token/ERC721/ERC721.sol\":5418:5459  _isApprovedOrOwner(_msgSender(), tokenId) */\n      jump\t// in\n    tag_146:\n        /* \"contracts/@openzeppelin/contracts/token/ERC721/ERC721.sol\":5410:5510  require(_isApprovedOrOwner(_msgSender(), tokenId), \"ERC721: caller is not token owner nor approved\") */\n      tag_148\n      jumpi\n      mload(0x40)\n      shl(0xe5, 0x461bcd)\n      dup2\n      mstore\n      0x04\n      add\n      tag_104\n      swap1\n      tag_122\n      jump\t// in\n    tag_148:\n        /* \"contracts/@openzeppelin/contracts/token/ERC721/ERC721.sol\":5520:5558  _safeTransfer(from, to, tokenId, data) */\n      tag_150\n        /* \"contracts/@openzeppelin/contracts/token/ERC721/ERC721.sol\":5534:5538  from */\n      dup5\n        /* \"contracts/@openzeppelin/contracts/token/ERC721/ERC721.sol\":5540:5542  to */\n      dup5\n        /* \"contracts/@openzeppelin/contracts/token/ERC721/ERC721.sol\":5544:5551  tokenId */\n      dup5\n        /* \"contracts/@openzeppelin/contracts/token/ERC721/ERC721.sol\":5553:5557  data */\n      dup5\n        /* \"contracts/@openzeppelin/contracts/token/ERC721/ERC721.sol\":5520:5533  _safeTransfer */\n      tag_151\n        /* \"contracts/@openzeppelin/contracts/token/ERC721/ERC721.sol\":5520:5558  _safeTransfer(from, to, tokenId, data) */\n      jump\t// in\n    tag_150:\n        /* \"contracts/@openzeppelin/contracts/token/ERC721/ERC721.sol\":5250:5565  function safeTransferFrom(... */\n      pop\n      pop\n      pop\n      pop\n      jump\t// out\n        /* \"contracts/@openzeppelin/contracts/token/ERC721/extensions/ERC721URIStorage.sol\":482:1090  function tokenURI(uint256 tokenId) public view virtual override returns (string memory) {... */\n    tag_71:\n        /* \"contracts/@openzeppelin/contracts/token/ERC721/extensions/ERC721URIStorage.sol\":555:568  string memory */\n      0x60\n        /* \"contracts/@openzeppelin/contracts/token/ERC721/extensions/ERC721URIStorage.sol\":580:603  _requireMinted(tokenId) */\n      tag_153\n        /* \"contracts/@openzeppelin/contracts/token/ERC721/extensions/ERC721URIStorage.sol\":595:602  tokenId */\n      dup3\n        /* \"contracts/@openzeppelin/contracts/token/ERC721/extensions/ERC721URIStorage.sol\":580:594  _requireMinted */\n      tag_100\n        /* \"contracts/@openzeppelin/contracts/token/ERC721/extensions/ERC721URIStorage.sol\":580:603  _requireMinted(tokenId) */\n      jump\t// in\n    tag_153:\n        /* \"contracts/@openzeppelin/contracts/token/ERC721/extensions/ERC721URIStorage.sol\":614:637  string memory _tokenURI */\n      0x00\n        /* \"contracts/@openzeppelin/contracts/token/ERC721/extensions/ERC721URIStorage.sol\":640:659  _tokenURIs[tokenId] */\n      dup3\n      dup2\n      mstore\n        /* \"contracts/@openzeppelin/contracts/token/ERC721/extensions/ERC721URIStorage.sol\":640:650  _tokenURIs */\n      0x06\n        /* \"contracts/@openzeppelin/contracts/token/ERC721/extensions/ERC721URIStorage.sol\":640:659  _tokenURIs[tokenId] */\n      0x20\n      mstore\n      0x40\n      dup2\n      keccak256\n        /* \"contracts/@openzeppelin/contracts/token/ERC721/extensions/ERC721URIStorage.sol\":614:659  string memory _tokenURI = _tokenURIs[tokenId] */\n      dup1\n      sload\n      tag_154\n      swap1\n      tag_93\n      jump\t// in\n    tag_154:\n      dup1\n      0x1f\n      add\n      0x20\n      dup1\n      swap2\n      div\n      mul\n      0x20\n      add\n      mload(0x40)\n      swap1\n      dup2\n      add\n      0x40\n      mstore\n      dup1\n      swap3\n      swap2\n      swap1\n      dup2\n      dup2\n      mstore\n      0x20\n      add\n      dup3\n      dup1\n      sload\n      tag_155\n      swap1\n      tag_93\n      jump\t// in\n    tag_155:\n      dup1\n      iszero\n      tag_156\n      jumpi\n      dup1\n      0x1f\n      lt\n      tag_157\n      jumpi\n      0x0100\n      dup1\n      dup4\n      sload\n      div\n      mul\n      dup4\n      mstore\n      swap2\n      0x20\n      add\n      swap2\n      jump(tag_156)\n    tag_157:\n      dup3\n      add\n      swap2\n      swap1\n      0x00\n      mstore\n      keccak256(0x00, 0x20)\n      swap1\n    tag_158:\n      dup2\n      sload\n      dup2\n      mstore\n      swap1\n      0x01\n      add\n      swap1\n      0x20\n      add\n      dup1\n      dup4\n      gt\n      tag_158\n      jumpi\n      dup3\n      swap1\n      sub\n      0x1f\n      and\n      dup3\n      add\n      swap2\n    tag_156:\n      pop\n      pop\n      pop\n      pop\n      pop\n      swap1\n      pop\n        /* \"contracts/@openzeppelin/contracts/token/ERC721/extensions/ERC721URIStorage.sol\":669:687  string memory base */\n      0x00\n        /* \"contracts/@openzeppelin/contracts/token/ERC721/extensions/ERC721URIStorage.sol\":690:700  _baseURI() */\n      tag_159\n        /* \"contracts/@openzeppelin/contracts/token/ERC721/ERC721.sol\":3394:3403  return \"\" */\n      0x40\n      dup1\n      mload\n      0x20\n      dup2\n      add\n      swap1\n      swap2\n      mstore\n      0x00\n      dup2\n      mstore\n      swap1\n        /* \"contracts/@openzeppelin/contracts/token/ERC721/ERC721.sol\":3318:3410  function _baseURI() internal view virtual returns (string memory) {... */\n      jump\n        /* \"contracts/@openzeppelin/contracts/token/ERC721/extensions/ERC721URIStorage.sol\":690:700  _baseURI() */\n    tag_159:\n        /* \"contracts/@openzeppelin/contracts/token/ERC721/extensions/ERC721URIStorage.sol\":669:700  string memory base = _baseURI() */\n      swap1\n      pop\n        /* \"contracts/@openzeppelin/contracts/token/ERC721/extensions/ERC721URIStorage.sol\":779:783  base */\n      dup1\n        /* \"contracts/@openzeppelin/contracts/token/ERC721/extensions/ERC721URIStorage.sol\":773:791  bytes(base).length */\n      mload\n        /* \"contracts/@openzeppelin/contracts/token/ERC721/extensions/ERC721URIStorage.sol\":795:796  0 */\n      0x00\n        /* \"contracts/@openzeppelin/contracts/token/ERC721/extensions/ERC721URIStorage.sol\":773:796  bytes(base).length == 0 */\n      sub\n        /* \"contracts/@openzeppelin/contracts/token/ERC721/extensions/ERC721URIStorage.sol\":769:839  if (bytes(base).length == 0) {... */\n      tag_161\n      jumpi\n      pop\n        /* \"contracts/@openzeppelin/contracts/token/ERC721/extensions/ERC721URIStorage.sol\":819:828  _tokenURI */\n      swap3\n        /* \"contracts/@openzeppelin/contracts/token/ERC721/extensions/ERC721URIStorage.sol\":482:1090  function tokenURI(uint256 tokenId) public view virtual override returns (string memory) {... */\n      swap2\n      pop\n      pop\n      jump\t// out\n        /* \"contracts/@openzeppelin/contracts/token/ERC721/extensions/ERC721URIStorage.sol\":769:839  if (bytes(base).length == 0) {... */\n    tag_161:\n        /* \"contracts/@openzeppelin/contracts/token/ERC721/extensions/ERC721URIStorage.sol\":941:964  bytes(_tokenURI).length */\n      dup2\n      mload\n        /* \"contracts/@openzeppelin/contracts/token/ERC721/extensions/ERC721URIStorage.sol\":941:968  bytes(_tokenURI).length > 0 */\n      iszero\n        /* \"contracts/@openzeppelin/contracts/token/ERC721/extensions/ERC721URIStorage.sol\":937:1043  if (bytes(_tokenURI).length > 0) {... */\n      tag_162\n      jumpi\n        /* \"contracts/@openzeppelin/contracts/token/ERC721/extensions/ERC721URIStorage.sol\":1015:1019  base */\n      dup1\n        /* \"contracts/@openzeppelin/contracts/token/ERC721/extensions/ERC721URIStorage.sol\":1021:1030  _tokenURI */\n      dup3\n        /* \"contracts/@openzeppelin/contracts/token/ERC721/extensions/ERC721URIStorage.sol\":998:1031  abi.encodePacked(base, _tokenURI) */\n      add(0x20, mload(0x40))\n      tag_163\n      swap3\n      swap2\n      swap1\n      tag_164\n      jump\t// in\n    tag_163:\n      mload(0x40)\n      0x20\n      dup2\n      dup4\n      sub\n      sub\n      dup2\n      mstore\n      swap1\n      0x40\n      mstore\n        /* \"contracts/@openzeppelin/contracts/token/ERC721/extensions/ERC721URIStorage.sol\":984:1032  return string(abi.encodePacked(base, _tokenURI)) */\n      swap3\n      pop\n      pop\n      pop\n        /* \"contracts/@openzeppelin/contracts/token/ERC721/extensions/ERC721URIStorage.sol\":482:1090  function tokenURI(uint256 tokenId) public view virtual override returns (string memory) {... */\n      swap2\n      swap1\n      pop\n      jump\t// out\n        /* \"contracts/@openzeppelin/contracts/token/ERC721/extensions/ERC721URIStorage.sol\":937:1043  if (bytes(_tokenURI).length > 0) {... */\n    tag_162:\n        /* \"contracts/@openzeppelin/contracts/token/ERC721/extensions/ERC721URIStorage.sol\":1060:1083  super.tokenURI(tokenId) */\n      tag_165\n        /* \"contracts/@openzeppelin/contracts/token/ERC721/extensions/ERC721URIStorage.sol\":1075:1082  tokenId */\n      dup5\n        /* \"contracts/@openzeppelin/contracts/token/ERC721/extensions/ERC721URIStorage.sol\":1060:1074  super.tokenURI */\n      tag_166\n        /* \"contracts/@openzeppelin/contracts/token/ERC721/extensions/ERC721URIStorage.sol\":1060:1083  super.tokenURI(tokenId) */\n      jump\t// in\n    tag_165:\n        /* \"contracts/@openzeppelin/contracts/token/ERC721/extensions/ERC721URIStorage.sol\":1053:1083  return super.tokenURI(tokenId) */\n      swap5\n        /* \"contracts/@openzeppelin/contracts/token/ERC721/extensions/ERC721URIStorage.sol\":482:1090  function tokenURI(uint256 tokenId) public view virtual override returns (string memory) {... */\n      swap4\n      pop\n      pop\n      pop\n      pop\n      jump\t// out\n        /* \"contracts/NFT.sol\":567:892  function mint(string memory _tokenURI) public returns (uint256) {... */\n    tag_76:\n        /* \"contracts/NFT.sol\":622:629  uint256 */\n      0x00\n        /* \"contracts/NFT.sol\":642:659  uint256 newItemId */\n      dup1\n        /* \"contracts/NFT.sol\":662:681  _tokenIds.current() */\n      tag_168\n        /* \"contracts/NFT.sol\":662:671  _tokenIds */\n      0x07\n        /* \"contracts/@openzeppelin/contracts/utils/Counters.sol\":918:932  counter._value */\n      sload\n      swap1\n        /* \"contracts/@openzeppelin/contracts/utils/Counters.sol\":827:939  function current(Counter storage counter) internal view returns (uint256) {... */\n      jump\n        /* \"contracts/NFT.sol\":662:681  _tokenIds.current() */\n    tag_168:\n        /* \"contracts/NFT.sol\":642:681  uint256 newItemId = _tokenIds.current() */\n      swap1\n      pop\n        /* \"contracts/NFT.sol\":691:719  _mint(msg.sender, newItemId) */\n      tag_170\n        /* \"contracts/NFT.sol\":697:707  msg.sender */\n      caller\n        /* \"contracts/NFT.sol\":709:718  newItemId */\n      dup3\n        /* \"contracts/NFT.sol\":691:696  _mint */\n      tag_171\n        /* \"contracts/NFT.sol\":691:719  _mint(msg.sender, newItemId) */\n      jump\t// in\n    tag_170:\n        /* \"contracts/NFT.sol\":730:764  _setTokenURI(newItemId, _tokenURI) */\n      tag_172\n        /* \"contracts/NFT.sol\":743:752  newItemId */\n      dup2\n        /* \"contracts/NFT.sol\":754:763  _tokenURI */\n      dup5\n        /* \"contracts/NFT.sol\":730:742  _setTokenURI */\n      tag_173\n        /* \"contracts/NFT.sol\":730:764  _setTokenURI(newItemId, _tokenURI) */\n      jump\t// in\n    tag_172:\n        /* \"contracts/NFT.sol\":792:811  marketplaceContract */\n      sload(0x08)\n        /* \"contracts/NFT.sol\":774:818  setApprovalForAll(marketplaceContract, true) */\n      tag_174\n      swap1\n      sub(shl(0xa0, 0x01), 0x01)\n        /* \"contracts/NFT.sol\":792:811  marketplaceContract */\n      and\n      0x01\n        /* \"contracts/NFT.sol\":774:791  setApprovalForAll */\n      tag_64\n        /* \"contracts/NFT.sol\":774:818  setApprovalForAll(marketplaceContract, true) */\n      jump\t// in\n    tag_174:\n        /* \"contracts/NFT.sol\":828:849  _tokenIds.increment() */\n      tag_175\n        /* \"contracts/NFT.sol\":828:837  _tokenIds */\n      0x07\n        /* \"contracts/@openzeppelin/contracts/utils/Counters.sol\":1032:1051  counter._value += 1 */\n      dup1\n      sload\n        /* \"contracts/@openzeppelin/contracts/utils/Counters.sol\":1050:1051  1 */\n      0x01\n        /* \"contracts/@openzeppelin/contracts/utils/Counters.sol\":1032:1051  counter._value += 1 */\n      add\n      swap1\n      sstore\n        /* \"contracts/@openzeppelin/contracts/utils/Counters.sol\":945:1068  function increment(Counter storage counter) internal {... */\n      jump\n        /* \"contracts/NFT.sol\":828:849  _tokenIds.increment() */\n    tag_175:\n        /* \"contracts/NFT.sol\":866:875  _tokenIds */\n      0x07\n        /* \"contracts/@openzeppelin/contracts/utils/Counters.sol\":918:932  counter._value */\n      sload\n        /* \"contracts/NFT.sol\":866:885  _tokenIds.current() */\n    tag_177:\n        /* \"contracts/NFT.sol\":859:885  return _tokenIds.current() */\n      swap4\n        /* \"contracts/NFT.sol\":567:892  function mint(string memory _tokenURI) public returns (uint256) {... */\n      swap3\n      pop\n      pop\n      pop\n      jump\t// out\n        /* \"contracts/@openzeppelin/contracts/token/ERC721/ERC721.sol\":4388:4550  function isApprovedForAll(address owner, address operator) public view virtual override returns (bool) {... */\n    tag_81:\n      sub(shl(0xa0, 0x01), 0x01)\n        /* \"contracts/@openzeppelin/contracts/token/ERC721/ERC721.sol\":4508:4533  _operatorApprovals[owner] */\n      swap2\n      dup3\n      and\n        /* \"contracts/@openzeppelin/contracts/token/ERC721/ERC721.sol\":4485:4489  bool */\n      0x00\n        /* \"contracts/@openzeppelin/contracts/token/ERC721/ERC721.sol\":4508:4533  _operatorApprovals[owner] */\n      swap1\n      dup2\n      mstore\n        /* \"contracts/@openzeppelin/contracts/token/ERC721/ERC721.sol\":4508:4526  _operatorApprovals */\n      0x05\n        /* \"contracts/@openzeppelin/contracts/token/ERC721/ERC721.sol\":4508:4533  _operatorApprovals[owner] */\n      0x20\n      swap1\n      dup2\n      mstore\n      0x40\n      dup1\n      dup4\n      keccak256\n        /* \"contracts/@openzeppelin/contracts/token/ERC721/ERC721.sol\":4508:4543  _operatorApprovals[owner][operator] */\n      swap4\n      swap1\n      swap5\n      and\n      dup3\n      mstore\n      swap2\n      swap1\n      swap2\n      mstore\n      keccak256\n      sload\n      0xff\n      and\n      swap1\n        /* \"contracts/@openzeppelin/contracts/token/ERC721/ERC721.sol\":4388:4550  function isApprovedForAll(address owner, address operator) public view virtual override returns (bool) {... */\n      jump\t// out\n        /* \"contracts/NFT.sol\":898:998  function getCurrentToken() public view returns (uint256) {... */\n    tag_84:\n        /* \"contracts/NFT.sol\":946:953  uint256 */\n      0x00\n        /* \"contracts/NFT.sol\":972:991  _tokenIds.current() */\n      tag_180\n        /* \"contracts/NFT.sol\":972:981  _tokenIds */\n      0x07\n        /* \"contracts/@openzeppelin/contracts/utils/Counters.sol\":918:932  counter._value */\n      sload\n      swap1\n        /* \"contracts/@openzeppelin/contracts/utils/Counters.sol\":827:939  function current(Counter storage counter) internal view returns (uint256) {... */\n      jump\n        /* \"contracts/NFT.sol\":972:991  _tokenIds.current() */\n    tag_180:\n        /* \"contracts/NFT.sol\":965:991  return _tokenIds.current() */\n      swap1\n      pop\n        /* \"contracts/NFT.sol\":898:998  function getCurrentToken() public view returns (uint256) {... */\n      swap1\n      jump\t// out\n        /* \"contracts/@openzeppelin/contracts/token/ERC721/ERC721.sol\":11657:11790  function _requireMinted(uint256 tokenId) internal view virtual {... */\n    tag_100:\n        /* \"contracts/@openzeppelin/contracts/token/ERC721/ERC721.sol\":7099:7103  bool */\n      0x00\n        /* \"contracts/@openzeppelin/contracts/token/ERC721/ERC721.sol\":7122:7138  _owners[tokenId] */\n      dup2\n      dup2\n      mstore\n        /* \"contracts/@openzeppelin/contracts/token/ERC721/ERC721.sol\":7122:7129  _owners */\n      0x02\n        /* \"contracts/@openzeppelin/contracts/token/ERC721/ERC721.sol\":7122:7138  _owners[tokenId] */\n      0x20\n      mstore\n      0x40\n      swap1\n      keccak256\n      sload\n      sub(shl(0xa0, 0x01), 0x01)\n      and\n        /* \"contracts/@openzeppelin/contracts/token/ERC721/ERC721.sol\":11730:11783  require(_exists(tokenId), \"ERC721: invalid token ID\") */\n      tag_185\n      jumpi\n      mload(0x40)\n      shl(0xe5, 0x461bcd)\n      dup2\n      mstore\n        /* \"#utility.yul\":7283:7285   */\n      0x20\n        /* \"contracts/@openzeppelin/contracts/token/ERC721/ERC721.sol\":11730:11783  require(_exists(tokenId), \"ERC721: invalid token ID\") */\n      0x04\n      dup3\n      add\n        /* \"#utility.yul\":7265:7286   */\n      mstore\n        /* \"#utility.yul\":7322:7324   */\n      0x18\n        /* \"#utility.yul\":7302:7320   */\n      0x24\n      dup3\n      add\n        /* \"#utility.yul\":7295:7325   */\n      mstore\n      shl(0x42, 0x115490cdcc8c4e881a5b9d985b1a59081d1bdad95b881251)\n        /* \"#utility.yul\":7341:7359   */\n      0x44\n      dup3\n      add\n        /* \"#utility.yul\":7334:7388   */\n      mstore\n        /* \"#utility.yul\":7405:7423   */\n      0x64\n      add\n        /* \"contracts/@openzeppelin/contracts/token/ERC721/ERC721.sol\":11730:11783  require(_exists(tokenId), \"ERC721: invalid token ID\") */\n      tag_104\n        /* \"#utility.yul\":7081:7429   */\n      jump\n        /* \"contracts/@openzeppelin/contracts/token/ERC721/ERC721.sol\":11730:11783  require(_exists(tokenId), \"ERC721: invalid token ID\") */\n    tag_185:\n        /* \"contracts/@openzeppelin/contracts/token/ERC721/ERC721.sol\":11657:11790  function _requireMinted(uint256 tokenId) internal view virtual {... */\n      pop\n      jump\t// out\n        /* \"contracts/@openzeppelin/contracts/token/ERC721/ERC721.sol\":10959:11130  function _approve(address to, uint256 tokenId) internal virtual {... */\n    tag_115:\n        /* \"contracts/@openzeppelin/contracts/token/ERC721/ERC721.sol\":11033:11057  _tokenApprovals[tokenId] */\n      0x00\n      dup2\n      dup2\n      mstore\n        /* \"contracts/@openzeppelin/contracts/token/ERC721/ERC721.sol\":11033:11048  _tokenApprovals */\n      0x04\n        /* \"contracts/@openzeppelin/contracts/token/ERC721/ERC721.sol\":11033:11057  _tokenApprovals[tokenId] */\n      0x20\n      mstore\n      0x40\n      swap1\n      keccak256\n        /* \"contracts/@openzeppelin/contracts/token/ERC721/ERC721.sol\":11033:11062  _tokenApprovals[tokenId] = to */\n      dup1\n      sload\n      not(sub(shl(0xa0, 0x01), 0x01))\n      and\n      sub(shl(0xa0, 0x01), 0x01)\n      dup5\n      and\n      swap1\n      dup2\n      or\n      swap1\n      swap2\n      sstore\n        /* \"contracts/@openzeppelin/contracts/token/ERC721/ERC721.sol\":11033:11057  _tokenApprovals[tokenId] */\n      dup2\n      swap1\n        /* \"contracts/@openzeppelin/contracts/token/ERC721/ERC721.sol\":11086:11109  ERC721.ownerOf(tokenId) */\n      tag_189\n        /* \"contracts/@openzeppelin/contracts/token/ERC721/ERC721.sol\":11033:11057  _tokenApprovals[tokenId] */\n      dup3\n        /* \"contracts/@openzeppelin/contracts/token/ERC721/ERC721.sol\":11086:11100  ERC721.ownerOf */\n      tag_50\n        /* \"contracts/@openzeppelin/contracts/token/ERC721/ERC721.sol\":11086:11109  ERC721.ownerOf(tokenId) */\n      jump\t// in\n    tag_189:\n      sub(shl(0xa0, 0x01), 0x01)\n        /* \"contracts/@openzeppelin/contracts/token/ERC721/ERC721.sol\":11077:11123  Approval(ERC721.ownerOf(tokenId), to, tokenId) */\n      and\n      0x8c5be1e5ebec7d5bd14f71427d1e84f3dd0314c0f7b2291e5b200ac8c7c3b925\n      mload(0x40)\n      mload(0x40)\n      dup1\n      swap2\n      sub\n      swap1\n      log4\n        /* \"contracts/@openzeppelin/contracts/token/ERC721/ERC721.sol\":10959:11130  function _approve(address to, uint256 tokenId) internal virtual {... */\n      pop\n      pop\n      jump\t// out\n        /* \"contracts/@openzeppelin/contracts/token/ERC721/ERC721.sol\":7317:7578  function _isApprovedOrOwner(address spender, uint256 tokenId) internal view virtual returns (bool) {... */\n    tag_119:\n        /* \"contracts/@openzeppelin/contracts/token/ERC721/ERC721.sol\":7410:7414  bool */\n      0x00\n        /* \"contracts/@openzeppelin/contracts/token/ERC721/ERC721.sol\":7426:7439  address owner */\n      dup1\n        /* \"contracts/@openzeppelin/contracts/token/ERC721/ERC721.sol\":7442:7465  ERC721.ownerOf(tokenId) */\n      tag_191\n        /* \"contracts/@openzeppelin/contracts/token/ERC721/ERC721.sol\":7457:7464  tokenId */\n      dup4\n        /* \"contracts/@openzeppelin/contracts/token/ERC721/ERC721.sol\":7442:7456  ERC721.ownerOf */\n      tag_50\n        /* \"contracts/@openzeppelin/contracts/token/ERC721/ERC721.sol\":7442:7465  ERC721.ownerOf(tokenId) */\n      jump\t// in\n    tag_191:\n        /* \"contracts/@openzeppelin/contracts/token/ERC721/ERC721.sol\":7426:7465  address owner = ERC721.ownerOf(tokenId) */\n      swap1\n      pop\n        /* \"contracts/@openzeppelin/contracts/token/ERC721/ERC721.sol\":7494:7499  owner */\n      dup1\n      sub(shl(0xa0, 0x01), 0x01)\n        /* \"contracts/@openzeppelin/contracts/token/ERC721/ERC721.sol\":7483:7499  spender == owner */\n      and\n        /* \"contracts/@openzeppelin/contracts/token/ERC721/ERC721.sol\":7483:7490  spender */\n      dup5\n      sub(shl(0xa0, 0x01), 0x01)\n        /* \"contracts/@openzeppelin/contracts/token/ERC721/ERC721.sol\":7483:7499  spender == owner */\n      and\n      eq\n        /* \"contracts/@openzeppelin/contracts/token/ERC721/ERC721.sol\":7483:7535  spender == owner || isApprovedForAll(owner, spender) */\n      dup1\n      tag_193\n      jumpi\n      pop\n        /* \"contracts/@openzeppelin/contracts/token/ERC721/ERC721.sol\":7503:7535  isApprovedForAll(owner, spender) */\n      tag_193\n        /* \"contracts/@openzeppelin/contracts/token/ERC721/ERC721.sol\":7520:7525  owner */\n      dup2\n        /* \"contracts/@openzeppelin/contracts/token/ERC721/ERC721.sol\":7527:7534  spender */\n      dup6\n        /* \"contracts/@openzeppelin/contracts/token/ERC721/ERC721.sol\":7503:7519  isApprovedForAll */\n      tag_81\n        /* \"contracts/@openzeppelin/contracts/token/ERC721/ERC721.sol\":7503:7535  isApprovedForAll(owner, spender) */\n      jump\t// in\n    tag_193:\n        /* \"contracts/@openzeppelin/contracts/token/ERC721/ERC721.sol\":7483:7570  spender == owner || isApprovedForAll(owner, spender) || getApproved(tokenId) == spender */\n      dup1\n      tag_165\n      jumpi\n      pop\n        /* \"contracts/@openzeppelin/contracts/token/ERC721/ERC721.sol\":7563:7570  spender */\n      dup4\n      sub(shl(0xa0, 0x01), 0x01)\n        /* \"contracts/@openzeppelin/contracts/token/ERC721/ERC721.sol\":7539:7570  getApproved(tokenId) == spender */\n      and\n        /* \"contracts/@openzeppelin/contracts/token/ERC721/ERC721.sol\":7539:7559  getApproved(tokenId) */\n      tag_195\n        /* \"contracts/@openzeppelin/contracts/token/ERC721/ERC721.sol\":7551:7558  tokenId */\n      dup5\n        /* \"contracts/@openzeppelin/contracts/token/ERC721/ERC721.sol\":7539:7550  getApproved */\n      tag_34\n        /* \"contracts/@openzeppelin/contracts/token/ERC721/ERC721.sol\":7539:7559  getApproved(tokenId) */\n      jump\t// in\n    tag_195:\n      sub(shl(0xa0, 0x01), 0x01)\n        /* \"contracts/@openzeppelin/contracts/token/ERC721/ERC721.sol\":7539:7570  getApproved(tokenId) == spender */\n      and\n      eq\n        /* \"contracts/@openzeppelin/contracts/token/ERC721/ERC721.sol\":7475:7571  return (spender == owner || isApprovedForAll(owner, spender) || getApproved(tokenId) == spender) */\n      swap5\n        /* \"contracts/@openzeppelin/contracts/token/ERC721/ERC721.sol\":7317:7578  function _isApprovedOrOwner(address spender, uint256 tokenId) internal view virtual returns (bool) {... */\n      swap4\n      pop\n      pop\n      pop\n      pop\n      jump\t// out\n        /* \"contracts/@openzeppelin/contracts/token/ERC721/ERC721.sol\":10242:10847  function _transfer(... */\n    tag_124:\n        /* \"contracts/@openzeppelin/contracts/token/ERC721/ERC721.sol\":10396:10400  from */\n      dup3\n      sub(shl(0xa0, 0x01), 0x01)\n        /* \"contracts/@openzeppelin/contracts/token/ERC721/ERC721.sol\":10369:10400  ERC721.ownerOf(tokenId) == from */\n      and\n        /* \"contracts/@openzeppelin/contracts/token/ERC721/ERC721.sol\":10369:10392  ERC721.ownerOf(tokenId) */\n      tag_197\n        /* \"contracts/@openzeppelin/contracts/token/ERC721/ERC721.sol\":10384:10391  tokenId */\n      dup3\n        /* \"contracts/@openzeppelin/contracts/token/ERC721/ERC721.sol\":10369:10383  ERC721.ownerOf */\n      tag_50\n        /* \"contracts/@openzeppelin/contracts/token/ERC721/ERC721.sol\":10369:10392  ERC721.ownerOf(tokenId) */\n      jump\t// in\n    tag_197:\n      sub(shl(0xa0, 0x01), 0x01)\n        /* \"contracts/@openzeppelin/contracts/token/ERC721/ERC721.sol\":10369:10400  ERC721.ownerOf(tokenId) == from */\n      and\n      eq\n        /* \"contracts/@openzeppelin/contracts/token/ERC721/ERC721.sol\":10361:10442  require(ERC721.ownerOf(tokenId) == from, \"ERC721: transfer from incorrect owner\") */\n      tag_198\n      jumpi\n      mload(0x40)\n      shl(0xe5, 0x461bcd)\n      dup2\n      mstore\n        /* \"#utility.yul\":8535:8537   */\n      0x20\n        /* \"contracts/@openzeppelin/contracts/token/ERC721/ERC721.sol\":10361:10442  require(ERC721.ownerOf(tokenId) == from, \"ERC721: transfer from incorrect owner\") */\n      0x04\n      dup3\n      add\n        /* \"#utility.yul\":8517:8538   */\n      mstore\n        /* \"#utility.yul\":8574:8576   */\n      0x25\n        /* \"#utility.yul\":8554:8572   */\n      0x24\n      dup3\n      add\n        /* \"#utility.yul\":8547:8577   */\n      mstore\n        /* \"#utility.yul\":8613:8647   */\n      0x4552433732313a207472616e736665722066726f6d20696e636f727265637420\n        /* \"#utility.yul\":8593:8611   */\n      0x44\n      dup3\n      add\n        /* \"#utility.yul\":8586:8648   */\n      mstore\n      shl(0xd9, 0x37bbb732b9)\n        /* \"#utility.yul\":8664:8682   */\n      0x64\n      dup3\n      add\n        /* \"#utility.yul\":8657:8692   */\n      mstore\n        /* \"#utility.yul\":8709:8728   */\n      0x84\n      add\n        /* \"contracts/@openzeppelin/contracts/token/ERC721/ERC721.sol\":10361:10442  require(ERC721.ownerOf(tokenId) == from, \"ERC721: transfer from incorrect owner\") */\n      tag_104\n        /* \"#utility.yul\":8333:8734   */\n      jump\n        /* \"contracts/@openzeppelin/contracts/token/ERC721/ERC721.sol\":10361:10442  require(ERC721.ownerOf(tokenId) == from, \"ERC721: transfer from incorrect owner\") */\n    tag_198:\n      sub(shl(0xa0, 0x01), 0x01)\n        /* \"contracts/@openzeppelin/contracts/token/ERC721/ERC721.sol\":10460:10476  to != address(0) */\n      dup3\n      and\n        /* \"contracts/@openzeppelin/contracts/token/ERC721/ERC721.sol\":10452:10517  require(to != address(0), \"ERC721: transfer to the zero address\") */\n      tag_201\n      jumpi\n      mload(0x40)\n      shl(0xe5, 0x461bcd)\n      dup2\n      mstore\n        /* \"#utility.yul\":8941:8943   */\n      0x20\n        /* \"contracts/@openzeppelin/contracts/token/ERC721/ERC721.sol\":10452:10517  require(to != address(0), \"ERC721: transfer to the zero address\") */\n      0x04\n      dup3\n      add\n        /* \"#utility.yul\":8923:8944   */\n      mstore\n        /* \"#utility.yul\":8980:8982   */\n      0x24\n        /* \"#utility.yul\":8960:8978   */\n      dup1\n      dup3\n      add\n        /* \"#utility.yul\":8953:8983   */\n      mstore\n        /* \"#utility.yul\":9019:9053   */\n      0x4552433732313a207472616e7366657220746f20746865207a65726f20616464\n        /* \"#utility.yul\":8999:9017   */\n      0x44\n      dup3\n      add\n        /* \"#utility.yul\":8992:9054   */\n      mstore\n      shl(0xe0, 0x72657373)\n        /* \"#utility.yul\":9070:9088   */\n      0x64\n      dup3\n      add\n        /* \"#utility.yul\":9063:9097   */\n      mstore\n        /* \"#utility.yul\":9114:9133   */\n      0x84\n      add\n        /* \"contracts/@openzeppelin/contracts/token/ERC721/ERC721.sol\":10452:10517  require(to != address(0), \"ERC721: transfer to the zero address\") */\n      tag_104\n        /* \"#utility.yul\":8739:9139   */\n      jump\n        /* \"contracts/@openzeppelin/contracts/token/ERC721/ERC721.sol\":10452:10517  require(to != address(0), \"ERC721: transfer to the zero address\") */\n    tag_201:\n        /* \"contracts/@openzeppelin/contracts/token/ERC721/ERC721.sol\":10629:10658  _approve(address(0), tokenId) */\n      tag_206\n        /* \"contracts/@openzeppelin/contracts/token/ERC721/ERC721.sol\":10646:10647  0 */\n      0x00\n        /* \"contracts/@openzeppelin/contracts/token/ERC721/ERC721.sol\":10650:10657  tokenId */\n      dup3\n        /* \"contracts/@openzeppelin/contracts/token/ERC721/ERC721.sol\":10629:10637  _approve */\n      tag_115\n        /* \"contracts/@openzeppelin/contracts/token/ERC721/ERC721.sol\":10629:10658  _approve(address(0), tokenId) */\n      jump\t// in\n    tag_206:\n      sub(shl(0xa0, 0x01), 0x01)\n        /* \"contracts/@openzeppelin/contracts/token/ERC721/ERC721.sol\":10669:10684  _balances[from] */\n      dup4\n      and\n      0x00\n      swap1\n      dup2\n      mstore\n        /* \"contracts/@openzeppelin/contracts/token/ERC721/ERC721.sol\":10669:10678  _balances */\n      0x03\n        /* \"contracts/@openzeppelin/contracts/token/ERC721/ERC721.sol\":10669:10684  _balances[from] */\n      0x20\n      mstore\n      0x40\n      dup2\n      keccak256\n        /* \"contracts/@openzeppelin/contracts/token/ERC721/ERC721.sol\":10669:10689  _balances[from] -= 1 */\n      dup1\n      sload\n        /* \"contracts/@openzeppelin/contracts/token/ERC721/ERC721.sol\":10688:10689  1 */\n      0x01\n      swap3\n        /* \"contracts/@openzeppelin/contracts/token/ERC721/ERC721.sol\":10669:10684  _balances[from] */\n      swap1\n        /* \"contracts/@openzeppelin/contracts/token/ERC721/ERC721.sol\":10669:10689  _balances[from] -= 1 */\n      tag_207\n      swap1\n        /* \"contracts/@openzeppelin/contracts/token/ERC721/ERC721.sol\":10688:10689  1 */\n      dup5\n      swap1\n        /* \"contracts/@openzeppelin/contracts/token/ERC721/ERC721.sol\":10669:10689  _balances[from] -= 1 */\n      tag_208\n      jump\t// in\n    tag_207:\n      swap1\n      swap2\n      sstore\n      pop\n      pop\n      sub(shl(0xa0, 0x01), 0x01)\n        /* \"contracts/@openzeppelin/contracts/token/ERC721/ERC721.sol\":10699:10712  _balances[to] */\n      dup3\n      and\n      0x00\n      swap1\n      dup2\n      mstore\n        /* \"contracts/@openzeppelin/contracts/token/ERC721/ERC721.sol\":10699:10708  _balances */\n      0x03\n        /* \"contracts/@openzeppelin/contracts/token/ERC721/ERC721.sol\":10699:10712  _balances[to] */\n      0x20\n      mstore\n      0x40\n      dup2\n      keccak256\n        /* \"contracts/@openzeppelin/contracts/token/ERC721/ERC721.sol\":10699:10717  _balances[to] += 1 */\n      dup1\n      sload\n        /* \"contracts/@openzeppelin/contracts/token/ERC721/ERC721.sol\":10716:10717  1 */\n      0x01\n      swap3\n        /* \"contracts/@openzeppelin/contracts/token/ERC721/ERC721.sol\":10699:10712  _balances[to] */\n      swap1\n        /* \"contracts/@openzeppelin/contracts/token/ERC721/ERC721.sol\":10699:10717  _balances[to] += 1 */\n      tag_209\n      swap1\n        /* \"contracts/@openzeppelin/contracts/token/ERC721/ERC721.sol\":10716:10717  1 */\n      dup5\n      swap1\n        /* \"contracts/@openzeppelin/contracts/token/ERC721/ERC721.sol\":10699:10717  _balances[to] += 1 */\n      tag_210\n      jump\t// in\n    tag_209:\n      swap1\n      swap2\n      sstore\n      pop\n      pop\n        /* \"contracts/@openzeppelin/contracts/token/ERC721/ERC721.sol\":10727:10743  _owners[tokenId] */\n      0x00\n      dup2\n      dup2\n      mstore\n        /* \"contracts/@openzeppelin/contracts/token/ERC721/ERC721.sol\":10727:10734  _owners */\n      0x02\n        /* \"contracts/@openzeppelin/contracts/token/ERC721/ERC721.sol\":10727:10743  _owners[tokenId] */\n      0x20\n      mstore\n      0x40\n      dup1\n      dup3\n      keccak256\n        /* \"contracts/@openzeppelin/contracts/token/ERC721/ERC721.sol\":10727:10748  _owners[tokenId] = to */\n      dup1\n      sload\n      not(sub(shl(0xa0, 0x01), 0x01))\n      and\n      sub(shl(0xa0, 0x01), 0x01)\n      dup7\n      dup2\n      and\n      swap2\n      dup3\n      or\n      swap1\n      swap3\n      sstore\n        /* \"contracts/@openzeppelin/contracts/token/ERC721/ERC721.sol\":10764:10791  Transfer(from, to, tokenId) */\n      swap2\n      mload\n        /* \"contracts/@openzeppelin/contracts/token/ERC721/ERC721.sol\":10727:10743  _owners[tokenId] */\n      dup5\n      swap4\n        /* \"contracts/@openzeppelin/contracts/token/ERC721/ERC721.sol\":10764:10791  Transfer(from, to, tokenId) */\n      swap2\n      dup8\n      and\n      swap2\n      0xddf252ad1be2c89b69c2b068fc378daa952ba7f163c4a11628f55a4df523b3ef\n      swap2\n      log4\n        /* \"contracts/@openzeppelin/contracts/token/ERC721/ERC721.sol\":3537:3874  {... */\n      pop\n        /* \"contracts/@openzeppelin/contracts/token/ERC721/ERC721.sol\":3467:3874  function approve(address to, uint256 tokenId) public virtual override {... */\n      pop\n      pop\n      jump\t// out\n        /* \"contracts/@openzeppelin/contracts/token/ERC721/ERC721.sol\":11266:11573  function _setApprovalForAll(... */\n    tag_144:\n        /* \"contracts/@openzeppelin/contracts/token/ERC721/ERC721.sol\":11416:11424  operator */\n      dup2\n      sub(shl(0xa0, 0x01), 0x01)\n        /* \"contracts/@openzeppelin/contracts/token/ERC721/ERC721.sol\":11407:11424  owner != operator */\n      and\n        /* \"contracts/@openzeppelin/contracts/token/ERC721/ERC721.sol\":11407:11412  owner */\n      dup4\n      sub(shl(0xa0, 0x01), 0x01)\n        /* \"contracts/@openzeppelin/contracts/token/ERC721/ERC721.sol\":11407:11424  owner != operator */\n      and\n      sub\n        /* \"contracts/@openzeppelin/contracts/token/ERC721/ERC721.sol\":11399:11454  require(owner != operator, \"ERC721: approve to caller\") */\n      tag_214\n      jumpi\n      mload(0x40)\n      shl(0xe5, 0x461bcd)\n      dup2\n      mstore\n        /* \"#utility.yul\":9741:9743   */\n      0x20\n        /* \"contracts/@openzeppelin/contracts/token/ERC721/ERC721.sol\":11399:11454  require(owner != operator, \"ERC721: approve to caller\") */\n      0x04\n      dup3\n      add\n        /* \"#utility.yul\":9723:9744   */\n      mstore\n        /* \"#utility.yul\":9780:9782   */\n      0x19\n        /* \"#utility.yul\":9760:9778   */\n      0x24\n      dup3\n      add\n        /* \"#utility.yul\":9753:9783   */\n      mstore\n        /* \"#utility.yul\":9819:9846   */\n      0x4552433732313a20617070726f766520746f2063616c6c657200000000000000\n        /* \"#utility.yul\":9799:9817   */\n      0x44\n      dup3\n      add\n        /* \"#utility.yul\":9792:9847   */\n      mstore\n        /* \"#utility.yul\":9864:9882   */\n      0x64\n      add\n        /* \"contracts/@openzeppelin/contracts/token/ERC721/ERC721.sol\":11399:11454  require(owner != operator, \"ERC721: approve to caller\") */\n      tag_104\n        /* \"#utility.yul\":9539:9888   */\n      jump\n        /* \"contracts/@openzeppelin/contracts/token/ERC721/ERC721.sol\":11399:11454  require(owner != operator, \"ERC721: approve to caller\") */\n    tag_214:\n      sub(shl(0xa0, 0x01), 0x01)\n        /* \"contracts/@openzeppelin/contracts/token/ERC721/ERC721.sol\":11464:11489  _operatorApprovals[owner] */\n      dup4\n      dup2\n      and\n      0x00\n      dup2\n      dup2\n      mstore\n        /* \"contracts/@openzeppelin/contracts/token/ERC721/ERC721.sol\":11464:11482  _operatorApprovals */\n      0x05\n        /* \"contracts/@openzeppelin/contracts/token/ERC721/ERC721.sol\":11464:11489  _operatorApprovals[owner] */\n      0x20\n      swap1\n      dup2\n      mstore\n      0x40\n      dup1\n      dup4\n      keccak256\n        /* \"contracts/@openzeppelin/contracts/token/ERC721/ERC721.sol\":11464:11499  _operatorApprovals[owner][operator] */\n      swap5\n      dup8\n      and\n      dup1\n      dup5\n      mstore\n      swap5\n      dup3\n      mstore\n      swap2\n      dup3\n      swap1\n      keccak256\n        /* \"contracts/@openzeppelin/contracts/token/ERC721/ERC721.sol\":11464:11510  _operatorApprovals[owner][operator] = approved */\n      dup1\n      sload\n      not(0xff)\n      and\n      dup7\n      iszero\n      iszero\n      swap1\n      dup2\n      or\n      swap1\n      swap2\n      sstore\n        /* \"contracts/@openzeppelin/contracts/token/ERC721/ERC721.sol\":11525:11566  ApprovalForAll(owner, operator, approved) */\n      swap2\n      mload\n        /* \"#utility.yul\":540:581   */\n      swap2\n      dup3\n      mstore\n        /* \"contracts/@openzeppelin/contracts/token/ERC721/ERC721.sol\":11525:11566  ApprovalForAll(owner, operator, approved) */\n      0x17307eab39ab6107e8899845ad3d59bd9653f200f220920489ca2b5937696c31\n      swap2\n        /* \"#utility.yul\":513:531   */\n      add\n        /* \"contracts/@openzeppelin/contracts/token/ERC721/ERC721.sol\":11525:11566  ApprovalForAll(owner, operator, approved) */\n      mload(0x40)\n      dup1\n      swap2\n      sub\n      swap1\n      log3\n        /* \"contracts/@openzeppelin/contracts/token/ERC721/ERC721.sol\":11266:11573  function _setApprovalForAll(... */\n      pop\n      pop\n      pop\n      jump\t// out\n        /* \"contracts/@openzeppelin/contracts/token/ERC721/ERC721.sol\":6426:6731  function _safeTransfer(... */\n    tag_151:\n        /* \"contracts/@openzeppelin/contracts/token/ERC721/ERC721.sol\":6576:6604  _transfer(from, to, tokenId) */\n      tag_219\n        /* \"contracts/@openzeppelin/contracts/token/ERC721/ERC721.sol\":6586:6590  from */\n      dup5\n        /* \"contracts/@openzeppelin/contracts/token/ERC721/ERC721.sol\":6592:6594  to */\n      dup5\n        /* \"contracts/@openzeppelin/contracts/token/ERC721/ERC721.sol\":6596:6603  tokenId */\n      dup5\n        /* \"contracts/@openzeppelin/contracts/token/ERC721/ERC721.sol\":6576:6585  _transfer */\n      tag_124\n        /* \"contracts/@openzeppelin/contracts/token/ERC721/ERC721.sol\":6576:6604  _transfer(from, to, tokenId) */\n      jump\t// in\n    tag_219:\n        /* \"contracts/@openzeppelin/contracts/token/ERC721/ERC721.sol\":6622:6669  _checkOnERC721Received(from, to, tokenId, data) */\n      tag_220\n        /* \"contracts/@openzeppelin/contracts/token/ERC721/ERC721.sol\":6645:6649  from */\n      dup5\n        /* \"contracts/@openzeppelin/contracts/token/ERC721/ERC721.sol\":6651:6653  to */\n      dup5\n        /* \"contracts/@openzeppelin/contracts/token/ERC721/ERC721.sol\":6655:6662  tokenId */\n      dup5\n        /* \"contracts/@openzeppelin/contracts/token/ERC721/ERC721.sol\":6664:6668  data */\n      dup5\n        /* \"contracts/@openzeppelin/contracts/token/ERC721/ERC721.sol\":6622:6644  _checkOnERC721Received */\n      tag_221\n        /* \"contracts/@openzeppelin/contracts/token/ERC721/ERC721.sol\":6622:6669  _checkOnERC721Received(from, to, tokenId, data) */\n      jump\t// in\n    tag_220:\n        /* \"contracts/@openzeppelin/contracts/token/ERC721/ERC721.sol\":6614:6724  require(_checkOnERC721Received(from, to, tokenId, data), \"ERC721: transfer to non ERC721Receiver implementer\") */\n      tag_150\n      jumpi\n      mload(0x40)\n      shl(0xe5, 0x461bcd)\n      dup2\n      mstore\n      0x04\n      add\n      tag_104\n      swap1\n      tag_224\n      jump\t// in\n        /* \"contracts/@openzeppelin/contracts/token/ERC721/ERC721.sol\":2800:3076  function tokenURI(uint256 tokenId) public view virtual override returns (string memory) {... */\n    tag_166:\n        /* \"contracts/@openzeppelin/contracts/token/ERC721/ERC721.sol\":2873:2886  string memory */\n      0x60\n        /* \"contracts/@openzeppelin/contracts/token/ERC721/ERC721.sol\":2898:2921  _requireMinted(tokenId) */\n      tag_227\n        /* \"contracts/@openzeppelin/contracts/token/ERC721/ERC721.sol\":2913:2920  tokenId */\n      dup3\n        /* \"contracts/@openzeppelin/contracts/token/ERC721/ERC721.sol\":2898:2912  _requireMinted */\n      tag_100\n        /* \"contracts/@openzeppelin/contracts/token/ERC721/ERC721.sol\":2898:2921  _requireMinted(tokenId) */\n      jump\t// in\n    tag_227:\n        /* \"contracts/@openzeppelin/contracts/token/ERC721/ERC721.sol\":2932:2953  string memory baseURI */\n      0x00\n        /* \"contracts/@openzeppelin/contracts/token/ERC721/ERC721.sol\":2956:2966  _baseURI() */\n      tag_228\n        /* \"contracts/@openzeppelin/contracts/token/ERC721/ERC721.sol\":3394:3403  return \"\" */\n      0x40\n      dup1\n      mload\n      0x20\n      dup2\n      add\n      swap1\n      swap2\n      mstore\n      0x00\n      dup2\n      mstore\n      swap1\n        /* \"contracts/@openzeppelin/contracts/token/ERC721/ERC721.sol\":3318:3410  function _baseURI() internal view virtual returns (string memory) {... */\n      jump\n        /* \"contracts/@openzeppelin/contracts/token/ERC721/ERC721.sol\":2956:2966  _baseURI() */\n    tag_228:\n        /* \"contracts/@openzeppelin/contracts/token/ERC721/ERC721.sol\":2932:2966  string memory baseURI = _baseURI() */\n      swap1\n      pop\n        /* \"contracts/@openzeppelin/contracts/token/ERC721/ERC721.sol\":3007:3008  0 */\n      0x00\n        /* \"contracts/@openzeppelin/contracts/token/ERC721/ERC721.sol\":2989:2996  baseURI */\n      dup2\n        /* \"contracts/@openzeppelin/contracts/token/ERC721/ERC721.sol\":2983:3004  bytes(baseURI).length */\n      mload\n        /* \"contracts/@openzeppelin/contracts/token/ERC721/ERC721.sol\":2983:3008  bytes(baseURI).length > 0 */\n      gt\n        /* \"contracts/@openzeppelin/contracts/token/ERC721/ERC721.sol\":2983:3069  bytes(baseURI).length > 0 ? string(abi.encodePacked(baseURI, tokenId.toString())) : \"\" */\n      tag_229\n      jumpi\n      mload(0x40)\n      dup1\n      0x20\n      add\n      0x40\n      mstore\n      dup1\n      0x00\n      dup2\n      mstore\n      pop\n      jump(tag_177)\n    tag_229:\n        /* \"contracts/@openzeppelin/contracts/token/ERC721/ERC721.sol\":3035:3042  baseURI */\n      dup1\n        /* \"contracts/@openzeppelin/contracts/token/ERC721/ERC721.sol\":3044:3062  tokenId.toString() */\n      tag_231\n        /* \"contracts/@openzeppelin/contracts/token/ERC721/ERC721.sol\":3044:3051  tokenId */\n      dup5\n        /* \"contracts/@openzeppelin/contracts/token/ERC721/ERC721.sol\":3044:3060  tokenId.toString */\n      tag_232\n        /* \"contracts/@openzeppelin/contracts/token/ERC721/ERC721.sol\":3044:3062  tokenId.toString() */\n      jump\t// in\n    tag_231:\n        /* \"contracts/@openzeppelin/contracts/token/ERC721/ERC721.sol\":3018:3063  abi.encodePacked(baseURI, tokenId.toString()) */\n      add(0x20, mload(0x40))\n      tag_233\n      swap3\n      swap2\n      swap1\n      tag_164\n      jump\t// in\n    tag_233:\n      mload(0x40)\n      0x20\n      dup2\n      dup4\n      sub\n      sub\n      dup2\n      mstore\n      swap1\n      0x40\n      mstore\n        /* \"contracts/@openzeppelin/contracts/token/ERC721/ERC721.sol\":2976:3069  return bytes(baseURI).length > 0 ? string(abi.encodePacked(baseURI, tokenId.toString())) : \"\" */\n      swap4\n        /* \"contracts/@openzeppelin/contracts/token/ERC721/ERC721.sol\":2800:3076  function tokenURI(uint256 tokenId) public view virtual override returns (string memory) {... */\n      swap3\n      pop\n      pop\n      pop\n      jump\t// out\n        /* \"contracts/@openzeppelin/contracts/token/ERC721/ERC721.sol\":8868:9295  function _mint(address to, uint256 tokenId) internal virtual {... */\n    tag_171:\n      sub(shl(0xa0, 0x01), 0x01)\n        /* \"contracts/@openzeppelin/contracts/token/ERC721/ERC721.sol\":8947:8963  to != address(0) */\n      dup3\n      and\n        /* \"contracts/@openzeppelin/contracts/token/ERC721/ERC721.sol\":8939:9000  require(to != address(0), \"ERC721: mint to the zero address\") */\n      tag_236\n      jumpi\n      mload(0x40)\n      shl(0xe5, 0x461bcd)\n      dup2\n      mstore\n        /* \"#utility.yul\":10514:10516   */\n      0x20\n        /* \"contracts/@openzeppelin/contracts/token/ERC721/ERC721.sol\":8939:9000  require(to != address(0), \"ERC721: mint to the zero address\") */\n      0x04\n      dup3\n      add\n        /* \"#utility.yul\":10496:10517   */\n      dup2\n      swap1\n      mstore\n        /* \"#utility.yul\":10533:10551   */\n      0x24\n      dup3\n      add\n        /* \"#utility.yul\":10526:10556   */\n      mstore\n        /* \"#utility.yul\":10592:10626   */\n      0x4552433732313a206d696e7420746f20746865207a65726f2061646472657373\n        /* \"#utility.yul\":10572:10590   */\n      0x44\n      dup3\n      add\n        /* \"#utility.yul\":10565:10627   */\n      mstore\n        /* \"#utility.yul\":10644:10662   */\n      0x64\n      add\n        /* \"contracts/@openzeppelin/contracts/token/ERC721/ERC721.sol\":8939:9000  require(to != address(0), \"ERC721: mint to the zero address\") */\n      tag_104\n        /* \"#utility.yul\":10312:10668   */\n      jump\n        /* \"contracts/@openzeppelin/contracts/token/ERC721/ERC721.sol\":8939:9000  require(to != address(0), \"ERC721: mint to the zero address\") */\n    tag_236:\n        /* \"contracts/@openzeppelin/contracts/token/ERC721/ERC721.sol\":7099:7103  bool */\n      0x00\n        /* \"contracts/@openzeppelin/contracts/token/ERC721/ERC721.sol\":7122:7138  _owners[tokenId] */\n      dup2\n      dup2\n      mstore\n        /* \"contracts/@openzeppelin/contracts/token/ERC721/ERC721.sol\":7122:7129  _owners */\n      0x02\n        /* \"contracts/@openzeppelin/contracts/token/ERC721/ERC721.sol\":7122:7138  _owners[tokenId] */\n      0x20\n      mstore\n      0x40\n      swap1\n      keccak256\n      sload\n      sub(shl(0xa0, 0x01), 0x01)\n      and\n        /* \"contracts/@openzeppelin/contracts/token/ERC721/ERC721.sol\":7122:7152  _owners[tokenId] != address(0) */\n      iszero\n        /* \"contracts/@openzeppelin/contracts/token/ERC721/ERC721.sol\":9010:9068  require(!_exists(tokenId), \"ERC721: token already minted\") */\n      tag_240\n      jumpi\n      mload(0x40)\n      shl(0xe5, 0x461bcd)\n      dup2\n      mstore\n        /* \"#utility.yul\":10875:10877   */\n      0x20\n        /* \"contracts/@openzeppelin/contracts/token/ERC721/ERC721.sol\":9010:9068  require(!_exists(tokenId), \"ERC721: token already minted\") */\n      0x04\n      dup3\n      add\n        /* \"#utility.yul\":10857:10878   */\n      mstore\n        /* \"#utility.yul\":10914:10916   */\n      0x1c\n        /* \"#utility.yul\":10894:10912   */\n      0x24\n      dup3\n      add\n        /* \"#utility.yul\":10887:10917   */\n      mstore\n        /* \"#utility.yul\":10953:10983   */\n      0x4552433732313a20746f6b656e20616c7265616479206d696e74656400000000\n        /* \"#utility.yul\":10933:10951   */\n      0x44\n      dup3\n      add\n        /* \"#utility.yul\":10926:10984   */\n      mstore\n        /* \"#utility.yul\":11001:11019   */\n      0x64\n      add\n        /* \"contracts/@openzeppelin/contracts/token/ERC721/ERC721.sol\":9010:9068  require(!_exists(tokenId), \"ERC721: token already minted\") */\n      tag_104\n        /* \"#utility.yul\":10673:11025   */\n      jump\n        /* \"contracts/@openzeppelin/contracts/token/ERC721/ERC721.sol\":9010:9068  require(!_exists(tokenId), \"ERC721: token already minted\") */\n    tag_240:\n      sub(shl(0xa0, 0x01), 0x01)\n        /* \"contracts/@openzeppelin/contracts/token/ERC721/ERC721.sol\":9135:9148  _balances[to] */\n      dup3\n      and\n      0x00\n      swap1\n      dup2\n      mstore\n        /* \"contracts/@openzeppelin/contracts/token/ERC721/ERC721.sol\":9135:9144  _balances */\n      0x03\n        /* \"contracts/@openzeppelin/contracts/token/ERC721/ERC721.sol\":9135:9148  _balances[to] */\n      0x20\n      mstore\n      0x40\n      dup2\n      keccak256\n        /* \"contracts/@openzeppelin/contracts/token/ERC721/ERC721.sol\":9135:9153  _balances[to] += 1 */\n      dup1\n      sload\n        /* \"contracts/@openzeppelin/contracts/token/ERC721/ERC721.sol\":9152:9153  1 */\n      0x01\n      swap3\n        /* \"contracts/@openzeppelin/contracts/token/ERC721/ERC721.sol\":9135:9148  _balances[to] */\n      swap1\n        /* \"contracts/@openzeppelin/contracts/token/ERC721/ERC721.sol\":9135:9153  _balances[to] += 1 */\n      tag_244\n      swap1\n        /* \"contracts/@openzeppelin/contracts/token/ERC721/ERC721.sol\":9152:9153  1 */\n      dup5\n      swap1\n        /* \"contracts/@openzeppelin/contracts/token/ERC721/ERC721.sol\":9135:9153  _balances[to] += 1 */\n      tag_210\n      jump\t// in\n    tag_244:\n      swap1\n      swap2\n      sstore\n      pop\n      pop\n        /* \"contracts/@openzeppelin/contracts/token/ERC721/ERC721.sol\":9163:9179  _owners[tokenId] */\n      0x00\n      dup2\n      dup2\n      mstore\n        /* \"contracts/@openzeppelin/contracts/token/ERC721/ERC721.sol\":9163:9170  _owners */\n      0x02\n        /* \"contracts/@openzeppelin/contracts/token/ERC721/ERC721.sol\":9163:9179  _owners[tokenId] */\n      0x20\n      mstore\n      0x40\n      dup1\n      dup3\n      keccak256\n        /* \"contracts/@openzeppelin/contracts/token/ERC721/ERC721.sol\":9163:9184  _owners[tokenId] = to */\n      dup1\n      sload\n      not(sub(shl(0xa0, 0x01), 0x01))\n      and\n      sub(shl(0xa0, 0x01), 0x01)\n      dup7\n      and\n      swap1\n      dup2\n      or\n      swap1\n      swap2\n      sstore\n        /* \"contracts/@openzeppelin/contracts/token/ERC721/ERC721.sol\":9200:9233  Transfer(address(0), to, tokenId) */\n      swap1\n      mload\n        /* \"contracts/@openzeppelin/contracts/token/ERC721/ERC721.sol\":9163:9179  _owners[tokenId] */\n      dup4\n      swap3\n      swap1\n        /* \"contracts/@openzeppelin/contracts/token/ERC721/ERC721.sol\":9200:9233  Transfer(address(0), to, tokenId) */\n      0xddf252ad1be2c89b69c2b068fc378daa952ba7f163c4a11628f55a4df523b3ef\n      swap1\n        /* \"contracts/@openzeppelin/contracts/token/ERC721/ERC721.sol\":9163:9179  _owners[tokenId] */\n      dup3\n      swap1\n        /* \"contracts/@openzeppelin/contracts/token/ERC721/ERC721.sol\":9200:9233  Transfer(address(0), to, tokenId) */\n      log4\n        /* \"contracts/@openzeppelin/contracts/token/ERC721/ERC721.sol\":4169:4322  function setApprovalForAll(address operator, bool approved) public virtual override {... */\n      pop\n      pop\n      jump\t// out\n        /* \"contracts/@openzeppelin/contracts/token/ERC721/extensions/ERC721URIStorage.sol\":1237:1451  function _setTokenURI(uint256 tokenId, string memory _tokenURI) internal virtual {... */\n    tag_173:\n        /* \"contracts/@openzeppelin/contracts/token/ERC721/ERC721.sol\":7099:7103  bool */\n      0x00\n        /* \"contracts/@openzeppelin/contracts/token/ERC721/ERC721.sol\":7122:7138  _owners[tokenId] */\n      dup3\n      dup2\n      mstore\n        /* \"contracts/@openzeppelin/contracts/token/ERC721/ERC721.sol\":7122:7129  _owners */\n      0x02\n        /* \"contracts/@openzeppelin/contracts/token/ERC721/ERC721.sol\":7122:7138  _owners[tokenId] */\n      0x20\n      mstore\n      0x40\n      swap1\n      keccak256\n      sload\n      sub(shl(0xa0, 0x01), 0x01)\n      and\n        /* \"contracts/@openzeppelin/contracts/token/ERC721/extensions/ERC721URIStorage.sol\":1328:1403  require(_exists(tokenId), \"ERC721URIStorage: URI set of nonexistent token\") */\n      tag_248\n      jumpi\n      mload(0x40)\n      shl(0xe5, 0x461bcd)\n      dup2\n      mstore\n        /* \"#utility.yul\":11232:11234   */\n      0x20\n        /* \"contracts/@openzeppelin/contracts/token/ERC721/extensions/ERC721URIStorage.sol\":1328:1403  require(_exists(tokenId), \"ERC721URIStorage: URI set of nonexistent token\") */\n      0x04\n      dup3\n      add\n        /* \"#utility.yul\":11214:11235   */\n      mstore\n        /* \"#utility.yul\":11271:11273   */\n      0x2e\n        /* \"#utility.yul\":11251:11269   */\n      0x24\n      dup3\n      add\n        /* \"#utility.yul\":11244:11274   */\n      mstore\n        /* \"#utility.yul\":11310:11344   */\n      0x45524337323155524953746f726167653a2055524920736574206f66206e6f6e\n        /* \"#utility.yul\":11290:11308   */\n      0x44\n      dup3\n      add\n        /* \"#utility.yul\":11283:11345   */\n      mstore\n      shl(0x91, 0x32bc34b9ba32b73a103a37b5b2b7)\n        /* \"#utility.yul\":11361:11379   */\n      0x64\n      dup3\n      add\n        /* \"#utility.yul\":11354:11398   */\n      mstore\n        /* \"#utility.yul\":11415:11434   */\n      0x84\n      add\n        /* \"contracts/@openzeppelin/contracts/token/ERC721/extensions/ERC721URIStorage.sol\":1328:1403  require(_exists(tokenId), \"ERC721URIStorage: URI set of nonexistent token\") */\n      tag_104\n        /* \"#utility.yul\":11030:11440   */\n      jump\n        /* \"contracts/@openzeppelin/contracts/token/ERC721/extensions/ERC721URIStorage.sol\":1328:1403  require(_exists(tokenId), \"ERC721URIStorage: URI set of nonexistent token\") */\n    tag_248:\n        /* \"contracts/@openzeppelin/contracts/token/ERC721/extensions/ERC721URIStorage.sol\":1413:1432  _tokenURIs[tokenId] */\n      0x00\n      dup3\n      dup2\n      mstore\n        /* \"contracts/@openzeppelin/contracts/token/ERC721/extensions/ERC721URIStorage.sol\":1413:1423  _tokenURIs */\n      0x06\n        /* \"contracts/@openzeppelin/contracts/token/ERC721/extensions/ERC721URIStorage.sol\":1413:1432  _tokenURIs[tokenId] */\n      0x20\n      mstore\n      0x40\n      swap1\n      keccak256\n        /* \"contracts/@openzeppelin/contracts/token/ERC721/extensions/ERC721URIStorage.sol\":1413:1444  _tokenURIs[tokenId] = _tokenURI */\n      tag_114\n        /* \"contracts/@openzeppelin/contracts/token/ERC721/extensions/ERC721URIStorage.sol\":1435:1444  _tokenURI */\n      dup3\n        /* \"contracts/@openzeppelin/contracts/token/ERC721/extensions/ERC721URIStorage.sol\":1413:1432  _tokenURIs[tokenId] */\n      dup3\n        /* \"contracts/@openzeppelin/contracts/token/ERC721/extensions/ERC721URIStorage.sol\":1413:1444  _tokenURIs[tokenId] = _tokenURI */\n      tag_252\n      jump\t// in\n        /* \"contracts/@openzeppelin/contracts/token/ERC721/ERC721.sol\":12342:13173  function _checkOnERC721Received(... */\n    tag_221:\n        /* \"contracts/@openzeppelin/contracts/token/ERC721/ERC721.sol\":12491:12495  bool */\n      0x00\n      sub(shl(0xa0, 0x01), 0x01)\n        /* \"contracts/@openzeppelin/contracts/token/ERC721/ERC721.sol\":12511:12524  to.isContract */\n      dup5\n      and\n        /* \"contracts/@openzeppelin/contracts/utils/Address.sol\":1465:1484  account.code.length */\n      extcodesize\n        /* \"contracts/@openzeppelin/contracts/utils/Address.sol\":1465:1488  account.code.length > 0 */\n      iszero\n        /* \"contracts/@openzeppelin/contracts/token/ERC721/ERC721.sol\":12507:13167  if (to.isContract()) {... */\n      tag_260\n      jumpi\n        /* \"contracts/@openzeppelin/contracts/token/ERC721/ERC721.sol\":12546:12617  IERC721Receiver(to).onERC721Received(_msgSender(), from, tokenId, data) */\n      mload(0x40)\n      shl(0xe1, 0x0a85bd01)\n      dup2\n      mstore\n      sub(shl(0xa0, 0x01), 0x01)\n        /* \"contracts/@openzeppelin/contracts/token/ERC721/ERC721.sol\":12546:12582  IERC721Receiver(to).onERC721Received */\n      dup6\n      and\n      swap1\n      0x150b7a02\n      swap1\n        /* \"contracts/@openzeppelin/contracts/token/ERC721/ERC721.sol\":12546:12617  IERC721Receiver(to).onERC721Received(_msgSender(), from, tokenId, data) */\n      tag_262\n      swap1\n        /* \"contracts/@openzeppelin/contracts/utils/Context.sol\":719:729  msg.sender */\n      caller\n      swap1\n        /* \"contracts/@openzeppelin/contracts/token/ERC721/ERC721.sol\":12597:12601  from */\n      dup10\n      swap1\n        /* \"contracts/@openzeppelin/contracts/token/ERC721/ERC721.sol\":12603:12610  tokenId */\n      dup9\n      swap1\n        /* \"contracts/@openzeppelin/contracts/token/ERC721/ERC721.sol\":12612:12616  data */\n      dup9\n      swap1\n        /* \"contracts/@openzeppelin/contracts/token/ERC721/ERC721.sol\":12546:12617  IERC721Receiver(to).onERC721Received(_msgSender(), from, tokenId, data) */\n      0x04\n      add\n      tag_263\n      jump\t// in\n    tag_262:\n      0x20\n      mload(0x40)\n      dup1\n      dup4\n      sub\n      dup2\n      0x00\n      dup8\n      gas\n      call\n      swap3\n      pop\n      pop\n      pop\n      dup1\n      iszero\n      tag_264\n      jumpi\n      pop\n      0x40\n      dup1\n      mload\n      0x1f\n      returndatasize\n      swap1\n      dup2\n      add\n      not(0x1f)\n      and\n      dup3\n      add\n      swap1\n      swap3\n      mstore\n      tag_265\n      swap2\n      dup2\n      add\n      swap1\n      tag_266\n      jump\t// in\n    tag_265:\n      0x01\n    tag_264:\n        /* \"contracts/@openzeppelin/contracts/token/ERC721/ERC721.sol\":12542:13115  try IERC721Receiver(to).onERC721Received(_msgSender(), from, tokenId, data) returns (bytes4 retval) {... */\n      tag_267\n      jumpi\n      returndatasize\n      dup1\n      dup1\n      iszero\n      tag_272\n      jumpi\n      mload(0x40)\n      swap2\n      pop\n      and(add(returndatasize, 0x3f), not(0x1f))\n      dup3\n      add\n      0x40\n      mstore\n      returndatasize\n      dup3\n      mstore\n      returndatasize\n      0x00\n      0x20\n      dup5\n      add\n      returndatacopy\n      jump(tag_271)\n    tag_272:\n      0x60\n      swap2\n      pop\n    tag_271:\n      pop\n        /* \"contracts/@openzeppelin/contracts/token/ERC721/ERC721.sol\":12784:12790  reason */\n      dup1\n        /* \"contracts/@openzeppelin/contracts/token/ERC721/ERC721.sol\":12784:12797  reason.length */\n      mload\n        /* \"contracts/@openzeppelin/contracts/token/ERC721/ERC721.sol\":12801:12802  0 */\n      0x00\n        /* \"contracts/@openzeppelin/contracts/token/ERC721/ERC721.sol\":12784:12802  reason.length == 0 */\n      sub\n        /* \"contracts/@openzeppelin/contracts/token/ERC721/ERC721.sol\":12780:13101  if (reason.length == 0) {... */\n      tag_273\n      jumpi\n        /* \"contracts/@openzeppelin/contracts/token/ERC721/ERC721.sol\":12826:12886  revert(\"ERC721: transfer to non ERC721Receiver implementer\") */\n      mload(0x40)\n      shl(0xe5, 0x461bcd)\n      dup2\n      mstore\n      0x04\n      add\n      tag_104\n      swap1\n      tag_224\n      jump\t// in\n        /* \"contracts/@openzeppelin/contracts/token/ERC721/ERC721.sol\":12780:13101  if (reason.length == 0) {... */\n    tag_273:\n        /* \"contracts/@openzeppelin/contracts/token/ERC721/ERC721.sol\":13053:13059  reason */\n      dup1\n        /* \"contracts/@openzeppelin/contracts/token/ERC721/ERC721.sol\":13047:13060  mload(reason) */\n      mload\n        /* \"contracts/@openzeppelin/contracts/token/ERC721/ERC721.sol\":13038:13044  reason */\n      dup2\n        /* \"contracts/@openzeppelin/contracts/token/ERC721/ERC721.sol\":13034:13036  32 */\n      0x20\n        /* \"contracts/@openzeppelin/contracts/token/ERC721/ERC721.sol\":13030:13045  add(32, reason) */\n      add\n        /* \"contracts/@openzeppelin/contracts/token/ERC721/ERC721.sol\":13023:13061  revert(add(32, reason), mload(reason)) */\n      revert\n        /* \"contracts/@openzeppelin/contracts/token/ERC721/ERC721.sol\":12542:13115  try IERC721Receiver(to).onERC721Received(_msgSender(), from, tokenId, data) returns (bytes4 retval) {... */\n    tag_267:\n      not(sub(shl(0xe0, 0x01), 0x01))\n        /* \"contracts/@openzeppelin/contracts/token/ERC721/ERC721.sol\":12667:12718  retval == IERC721Receiver.onERC721Received.selector */\n      and\n      shl(0xe1, 0x0a85bd01)\n      eq\n      swap1\n      pop\n        /* \"contracts/@openzeppelin/contracts/token/ERC721/ERC721.sol\":12660:12718  return retval == IERC721Receiver.onERC721Received.selector */\n      jump(tag_165)\n        /* \"contracts/@openzeppelin/contracts/token/ERC721/ERC721.sol\":12507:13167  if (to.isContract()) {... */\n    tag_260:\n      pop\n        /* \"contracts/@openzeppelin/contracts/token/ERC721/ERC721.sol\":13152:13156  true */\n      0x01\n        /* \"contracts/@openzeppelin/contracts/token/ERC721/ERC721.sol\":12342:13173  function _checkOnERC721Received(... */\n      swap5\n      swap4\n      pop\n      pop\n      pop\n      pop\n      jump\t// out\n        /* \"contracts/@openzeppelin/contracts/utils/Strings.sol\":392:1095  function toString(uint256 value) internal pure returns (string memory) {... */\n    tag_232:\n        /* \"contracts/@openzeppelin/contracts/utils/Strings.sol\":448:461  string memory */\n      0x60\n        /* \"contracts/@openzeppelin/contracts/utils/Strings.sol\":665:670  value */\n      dup2\n        /* \"contracts/@openzeppelin/contracts/utils/Strings.sol\":674:675  0 */\n      0x00\n        /* \"contracts/@openzeppelin/contracts/utils/Strings.sol\":665:675  value == 0 */\n      sub\n        /* \"contracts/@openzeppelin/contracts/utils/Strings.sol\":661:712  if (value == 0) {... */\n      tag_279\n      jumpi\n      pop\n      pop\n        /* \"contracts/@openzeppelin/contracts/utils/Strings.sol\":691:701  return \"0\" */\n      0x40\n      dup1\n      mload\n      dup1\n      dup3\n      add\n      swap1\n      swap2\n      mstore\n      0x01\n      dup2\n      mstore\n      shl(0xfc, 0x03)\n      0x20\n      dup3\n      add\n      mstore\n      swap1\n        /* \"contracts/@openzeppelin/contracts/utils/Strings.sol\":392:1095  function toString(uint256 value) internal pure returns (string memory) {... */\n      jump\t// out\n        /* \"contracts/@openzeppelin/contracts/utils/Strings.sol\":661:712  if (value == 0) {... */\n    tag_279:\n        /* \"contracts/@openzeppelin/contracts/utils/Strings.sol\":736:741  value */\n      dup2\n        /* \"contracts/@openzeppelin/contracts/utils/Strings.sol\":721:733  uint256 temp */\n      0x00\n        /* \"contracts/@openzeppelin/contracts/utils/Strings.sol\":775:850  while (temp != 0) {... */\n    tag_280:\n        /* \"contracts/@openzeppelin/contracts/utils/Strings.sol\":782:791  temp != 0 */\n      dup2\n      iszero\n        /* \"contracts/@openzeppelin/contracts/utils/Strings.sol\":775:850  while (temp != 0) {... */\n      tag_281\n      jumpi\n        /* \"contracts/@openzeppelin/contracts/utils/Strings.sol\":807:815  digits++ */\n      dup1\n      tag_282\n      dup2\n      tag_283\n      jump\t// in\n    tag_282:\n      swap2\n      pop\n        /* \"contracts/@openzeppelin/contracts/utils/Strings.sol\":829:839  temp /= 10 */\n      tag_284\n      swap1\n      pop\n        /* \"contracts/@openzeppelin/contracts/utils/Strings.sol\":837:839  10 */\n      0x0a\n        /* \"contracts/@openzeppelin/contracts/utils/Strings.sol\":829:839  temp /= 10 */\n      dup4\n      tag_285\n      jump\t// in\n    tag_284:\n      swap2\n      pop\n        /* \"contracts/@openzeppelin/contracts/utils/Strings.sol\":775:850  while (temp != 0) {... */\n      jump(tag_280)\n    tag_281:\n        /* \"contracts/@openzeppelin/contracts/utils/Strings.sol\":859:878  bytes memory buffer */\n      0x00\n        /* \"contracts/@openzeppelin/contracts/utils/Strings.sol\":891:897  digits */\n      dup2\n        /* \"contracts/@openzeppelin/contracts/utils/Strings.sol\":881:898  new bytes(digits) */\n      0xffffffffffffffff\n      dup2\n      gt\n      iszero\n      tag_287\n      jumpi\n      tag_287\n      tag_288\n      jump\t// in\n    tag_287:\n      mload(0x40)\n      swap1\n      dup1\n      dup3\n      mstore\n      dup1\n      0x1f\n      add\n      not(0x1f)\n      and\n      0x20\n      add\n      dup3\n      add\n      0x40\n      mstore\n      dup1\n      iszero\n      tag_289\n      jumpi\n      0x20\n      dup3\n      add\n      dup2\n      dup1\n      calldatasize\n      dup4\n      calldatacopy\n      add\n      swap1\n      pop\n    tag_289:\n      pop\n        /* \"contracts/@openzeppelin/contracts/utils/Strings.sol\":859:898  bytes memory buffer = new bytes(digits) */\n      swap1\n      pop\n        /* \"contracts/@openzeppelin/contracts/utils/Strings.sol\":908:1058  while (value != 0) {... */\n    tag_290:\n        /* \"contracts/@openzeppelin/contracts/utils/Strings.sol\":915:925  value != 0 */\n      dup5\n      iszero\n        /* \"contracts/@openzeppelin/contracts/utils/Strings.sol\":908:1058  while (value != 0) {... */\n      tag_165\n      jumpi\n        /* \"contracts/@openzeppelin/contracts/utils/Strings.sol\":941:952  digits -= 1 */\n      tag_292\n        /* \"contracts/@openzeppelin/contracts/utils/Strings.sol\":951:952  1 */\n      0x01\n        /* \"contracts/@openzeppelin/contracts/utils/Strings.sol\":941:952  digits -= 1 */\n      dup4\n      tag_208\n      jump\t// in\n    tag_292:\n      swap2\n      pop\n        /* \"contracts/@openzeppelin/contracts/utils/Strings.sol\":1009:1019  value % 10 */\n      tag_293\n        /* \"contracts/@openzeppelin/contracts/utils/Strings.sol\":1017:1019  10 */\n      0x0a\n        /* \"contracts/@openzeppelin/contracts/utils/Strings.sol\":1009:1014  value */\n      dup7\n        /* \"contracts/@openzeppelin/contracts/utils/Strings.sol\":1009:1019  value % 10 */\n      tag_294\n      jump\t// in\n    tag_293:\n        /* \"contracts/@openzeppelin/contracts/utils/Strings.sol\":996:1020  48 + uint256(value % 10) */\n      tag_295\n      swap1\n        /* \"contracts/@openzeppelin/contracts/utils/Strings.sol\":996:998  48 */\n      0x30\n        /* \"contracts/@openzeppelin/contracts/utils/Strings.sol\":996:1020  48 + uint256(value % 10) */\n      tag_210\n      jump\t// in\n    tag_295:\n        /* \"contracts/@openzeppelin/contracts/utils/Strings.sol\":983:1022  bytes1(uint8(48 + uint256(value % 10))) */\n      0xf8\n      shl\n        /* \"contracts/@openzeppelin/contracts/utils/Strings.sol\":966:972  buffer */\n      dup2\n        /* \"contracts/@openzeppelin/contracts/utils/Strings.sol\":973:979  digits */\n      dup4\n        /* \"contracts/@openzeppelin/contracts/utils/Strings.sol\":966:980  buffer[digits] */\n      dup2\n      mload\n      dup2\n      lt\n      tag_297\n      jumpi\n      tag_297\n      tag_298\n      jump\t// in\n    tag_297:\n      0x20\n      add\n      add\n        /* \"contracts/@openzeppelin/contracts/utils/Strings.sol\":966:1022  buffer[digits] = bytes1(uint8(48 + uint256(value % 10))) */\n      swap1\n      not(sub(shl(0xf8, 0x01), 0x01))\n      and\n      swap1\n      dup2\n      0x00\n      byte\n      swap1\n      mstore8\n      pop\n        /* \"contracts/@openzeppelin/contracts/utils/Strings.sol\":1036:1047  value /= 10 */\n      tag_299\n        /* \"contracts/@openzeppelin/contracts/utils/Strings.sol\":1045:1047  10 */\n      0x0a\n        /* \"contracts/@openzeppelin/contracts/utils/Strings.sol\":1036:1047  value /= 10 */\n      dup7\n      tag_285\n      jump\t// in\n    tag_299:\n      swap5\n      pop\n        /* \"contracts/@openzeppelin/contracts/utils/Strings.sol\":908:1058  while (value != 0) {... */\n      jump(tag_290)\n        /* \"#utility.yul\":14:145   */\n    tag_301:\n      not(sub(shl(0xe0, 0x01), 0x01))\n        /* \"#utility.yul\":88:120   */\n      dup2\n      and\n        /* \"#utility.yul\":78:121   */\n      dup2\n      eq\n        /* \"#utility.yul\":68:139   */\n      tag_185\n      jumpi\n        /* \"#utility.yul\":135:136   */\n      0x00\n        /* \"#utility.yul\":132:133   */\n      dup1\n        /* \"#utility.yul\":125:137   */\n      revert\n        /* \"#utility.yul\":150:395   */\n    tag_23:\n        /* \"#utility.yul\":208:214   */\n      0x00\n        /* \"#utility.yul\":261:263   */\n      0x20\n        /* \"#utility.yul\":249:258   */\n      dup3\n        /* \"#utility.yul\":240:247   */\n      dup5\n        /* \"#utility.yul\":236:259   */\n      sub\n        /* \"#utility.yul\":232:264   */\n      slt\n        /* \"#utility.yul\":229:281   */\n      iszero\n      tag_315\n      jumpi\n        /* \"#utility.yul\":277:278   */\n      0x00\n        /* \"#utility.yul\":274:275   */\n      dup1\n        /* \"#utility.yul\":267:279   */\n      revert\n        /* \"#utility.yul\":229:281   */\n    tag_315:\n        /* \"#utility.yul\":316:325   */\n      dup2\n        /* \"#utility.yul\":303:326   */\n      calldataload\n        /* \"#utility.yul\":335:365   */\n      tag_177\n        /* \"#utility.yul\":359:364   */\n      dup2\n        /* \"#utility.yul\":335:365   */\n      tag_301\n      jump\t// in\n        /* \"#utility.yul\":592:892   */\n    tag_302:\n        /* \"#utility.yul\":645:648   */\n      0x00\n        /* \"#utility.yul\":683:688   */\n      dup2\n        /* \"#utility.yul\":677:689   */\n      mload\n        /* \"#utility.yul\":710:716   */\n      dup1\n        /* \"#utility.yul\":705:708   */\n      dup5\n        /* \"#utility.yul\":698:717   */\n      mstore\n        /* \"#utility.yul\":766:772   */\n      dup1\n        /* \"#utility.yul\":759:763   */\n      0x20\n        /* \"#utility.yul\":752:757   */\n      dup5\n        /* \"#utility.yul\":748:764   */\n      add\n        /* \"#utility.yul\":741:745   */\n      0x20\n        /* \"#utility.yul\":736:739   */\n      dup7\n        /* \"#utility.yul\":732:746   */\n      add\n        /* \"#utility.yul\":726:773   */\n      mcopy\n        /* \"#utility.yul\":818:819   */\n      0x00\n        /* \"#utility.yul\":811:815   */\n      0x20\n        /* \"#utility.yul\":802:808   */\n      dup3\n        /* \"#utility.yul\":797:800   */\n      dup7\n        /* \"#utility.yul\":793:809   */\n      add\n        /* \"#utility.yul\":789:816   */\n      add\n        /* \"#utility.yul\":782:820   */\n      mstore\n        /* \"#utility.yul\":881:885   */\n      0x20\n        /* \"#utility.yul\":874:876   */\n      0x1f\n        /* \"#utility.yul\":870:877   */\n      not\n        /* \"#utility.yul\":865:867   */\n      0x1f\n        /* \"#utility.yul\":857:863   */\n      dup4\n        /* \"#utility.yul\":853:868   */\n      add\n        /* \"#utility.yul\":849:878   */\n      and\n        /* \"#utility.yul\":844:847   */\n      dup6\n        /* \"#utility.yul\":840:879   */\n      add\n        /* \"#utility.yul\":836:886   */\n      add\n        /* \"#utility.yul\":829:886   */\n      swap2\n      pop\n      pop\n        /* \"#utility.yul\":592:892   */\n      swap3\n      swap2\n      pop\n      pop\n      jump\t// out\n        /* \"#utility.yul\":897:1128   */\n    tag_30:\n        /* \"#utility.yul\":1046:1048   */\n      0x20\n        /* \"#utility.yul\":1035:1044   */\n      dup2\n        /* \"#utility.yul\":1028:1049   */\n      mstore\n        /* \"#utility.yul\":1009:1013   */\n      0x00\n        /* \"#utility.yul\":1066:1122   */\n      tag_177\n        /* \"#utility.yul\":1118:1120   */\n      0x20\n        /* \"#utility.yul\":1107:1116   */\n      dup4\n        /* \"#utility.yul\":1103:1121   */\n      add\n        /* \"#utility.yul\":1095:1101   */\n      dup5\n        /* \"#utility.yul\":1066:1122   */\n      tag_302\n      jump\t// in\n        /* \"#utility.yul\":1133:1359   */\n    tag_33:\n        /* \"#utility.yul\":1192:1198   */\n      0x00\n        /* \"#utility.yul\":1245:1247   */\n      0x20\n        /* \"#utility.yul\":1233:1242   */\n      dup3\n        /* \"#utility.yul\":1224:1231   */\n      dup5\n        /* \"#utility.yul\":1220:1243   */\n      sub\n        /* \"#utility.yul\":1216:1248   */\n      slt\n        /* \"#utility.yul\":1213:1265   */\n      iszero\n      tag_322\n      jumpi\n        /* \"#utility.yul\":1261:1262   */\n      0x00\n        /* \"#utility.yul\":1258:1259   */\n      dup1\n        /* \"#utility.yul\":1251:1263   */\n      revert\n        /* \"#utility.yul\":1213:1265   */\n    tag_322:\n      pop\n        /* \"#utility.yul\":1306:1329   */\n      calldataload\n      swap2\n        /* \"#utility.yul\":1133:1359   */\n      swap1\n      pop\n      jump\t// out\n        /* \"#utility.yul\":1572:1745   */\n    tag_303:\n        /* \"#utility.yul\":1640:1660   */\n      dup1\n      calldataload\n      sub(shl(0xa0, 0x01), 0x01)\n        /* \"#utility.yul\":1689:1720   */\n      dup2\n      and\n        /* \"#utility.yul\":1679:1721   */\n      dup2\n      eq\n        /* \"#utility.yul\":1669:1739   */\n      tag_325\n      jumpi\n        /* \"#utility.yul\":1735:1736   */\n      0x00\n        /* \"#utility.yul\":1732:1733   */\n      dup1\n        /* \"#utility.yul\":1725:1737   */\n      revert\n        /* \"#utility.yul\":1669:1739   */\n    tag_325:\n        /* \"#utility.yul\":1572:1745   */\n      swap2\n      swap1\n      pop\n      jump\t// out\n        /* \"#utility.yul\":1750:2050   */\n    tag_39:\n        /* \"#utility.yul\":1818:1824   */\n      0x00\n        /* \"#utility.yul\":1826:1832   */\n      dup1\n        /* \"#utility.yul\":1879:1881   */\n      0x40\n        /* \"#utility.yul\":1867:1876   */\n      dup4\n        /* \"#utility.yul\":1858:1865   */\n      dup6\n        /* \"#utility.yul\":1854:1877   */\n      sub\n        /* \"#utility.yul\":1850:1882   */\n      slt\n        /* \"#utility.yul\":1847:1899   */\n      iszero\n      tag_327\n      jumpi\n        /* \"#utility.yul\":1895:1896   */\n      0x00\n        /* \"#utility.yul\":1892:1893   */\n      dup1\n        /* \"#utility.yul\":1885:1897   */\n      revert\n        /* \"#utility.yul\":1847:1899   */\n    tag_327:\n        /* \"#utility.yul\":1918:1947   */\n      tag_328\n        /* \"#utility.yul\":1937:1946   */\n      dup4\n        /* \"#utility.yul\":1918:1947   */\n      tag_303\n      jump\t// in\n    tag_328:\n        /* \"#utility.yul\":1908:1947   */\n      swap5\n        /* \"#utility.yul\":2016:2018   */\n      0x20\n        /* \"#utility.yul\":2001:2019   */\n      swap4\n      swap1\n      swap4\n      add\n        /* \"#utility.yul\":1988:2020   */\n      calldataload\n      swap4\n      pop\n      pop\n      pop\n        /* \"#utility.yul\":1750:2050   */\n      jump\t// out\n        /* \"#utility.yul\":2055:2429   */\n    tag_43:\n        /* \"#utility.yul\":2132:2138   */\n      0x00\n        /* \"#utility.yul\":2140:2146   */\n      dup1\n        /* \"#utility.yul\":2148:2154   */\n      0x00\n        /* \"#utility.yul\":2201:2203   */\n      0x60\n        /* \"#utility.yul\":2189:2198   */\n      dup5\n        /* \"#utility.yul\":2180:2187   */\n      dup7\n        /* \"#utility.yul\":2176:2199   */\n      sub\n        /* \"#utility.yul\":2172:2204   */\n      slt\n        /* \"#utility.yul\":2169:2221   */\n      iszero\n      tag_330\n      jumpi\n        /* \"#utility.yul\":2217:2218   */\n      0x00\n        /* \"#utility.yul\":2214:2215   */\n      dup1\n        /* \"#utility.yul\":2207:2219   */\n      revert\n        /* \"#utility.yul\":2169:2221   */\n    tag_330:\n        /* \"#utility.yul\":2240:2269   */\n      tag_331\n        /* \"#utility.yul\":2259:2268   */\n      dup5\n        /* \"#utility.yul\":2240:2269   */\n      tag_303\n      jump\t// in\n    tag_331:\n        /* \"#utility.yul\":2230:2269   */\n      swap3\n      pop\n        /* \"#utility.yul\":2288:2326   */\n      tag_332\n        /* \"#utility.yul\":2322:2324   */\n      0x20\n        /* \"#utility.yul\":2311:2320   */\n      dup6\n        /* \"#utility.yul\":2307:2325   */\n      add\n        /* \"#utility.yul\":2288:2326   */\n      tag_303\n      jump\t// in\n    tag_332:\n        /* \"#utility.yul\":2055:2429   */\n      swap3\n      swap6\n        /* \"#utility.yul\":2278:2326   */\n      swap3\n      swap5\n      pop\n      pop\n      pop\n        /* \"#utility.yul\":2395:2397   */\n      0x40\n        /* \"#utility.yul\":2380:2398   */\n      swap2\n      swap1\n      swap2\n      add\n        /* \"#utility.yul\":2367:2399   */\n      calldataload\n      swap1\n        /* \"#utility.yul\":2055:2429   */\n      jump\t// out\n        /* \"#utility.yul\":2434:2620   */\n    tag_54:\n        /* \"#utility.yul\":2493:2499   */\n      0x00\n        /* \"#utility.yul\":2546:2548   */\n      0x20\n        /* \"#utility.yul\":2534:2543   */\n      dup3\n        /* \"#utility.yul\":2525:2532   */\n      dup5\n        /* \"#utility.yul\":2521:2544   */\n      sub\n        /* \"#utility.yul\":2517:2549   */\n      slt\n        /* \"#utility.yul\":2514:2566   */\n      iszero\n      tag_334\n      jumpi\n        /* \"#utility.yul\":2562:2563   */\n      0x00\n        /* \"#utility.yul\":2559:2560   */\n      dup1\n        /* \"#utility.yul\":2552:2564   */\n      revert\n        /* \"#utility.yul\":2514:2566   */\n    tag_334:\n        /* \"#utility.yul\":2585:2614   */\n      tag_177\n        /* \"#utility.yul\":2604:2613   */\n      dup3\n        /* \"#utility.yul\":2585:2614   */\n      tag_303\n      jump\t// in\n        /* \"#utility.yul\":2807:3154   */\n    tag_63:\n        /* \"#utility.yul\":2872:2878   */\n      0x00\n        /* \"#utility.yul\":2880:2886   */\n      dup1\n        /* \"#utility.yul\":2933:2935   */\n      0x40\n        /* \"#utility.yul\":2921:2930   */\n      dup4\n        /* \"#utility.yul\":2912:2919   */\n      dup6\n        /* \"#utility.yul\":2908:2931   */\n      sub\n        /* \"#utility.yul\":2904:2936   */\n      slt\n        /* \"#utility.yul\":2901:2953   */\n      iszero\n      tag_338\n      jumpi\n        /* \"#utility.yul\":2949:2950   */\n      0x00\n        /* \"#utility.yul\":2946:2947   */\n      dup1\n        /* \"#utility.yul\":2939:2951   */\n      revert\n        /* \"#utility.yul\":2901:2953   */\n    tag_338:\n        /* \"#utility.yul\":2972:3001   */\n      tag_339\n        /* \"#utility.yul\":2991:3000   */\n      dup4\n        /* \"#utility.yul\":2972:3001   */\n      tag_303\n      jump\t// in\n    tag_339:\n        /* \"#utility.yul\":2962:3001   */\n      swap2\n      pop\n        /* \"#utility.yul\":3051:3053   */\n      0x20\n        /* \"#utility.yul\":3040:3049   */\n      dup4\n        /* \"#utility.yul\":3036:3054   */\n      add\n        /* \"#utility.yul\":3023:3055   */\n      calldataload\n        /* \"#utility.yul\":3098:3103   */\n      dup1\n        /* \"#utility.yul\":3091:3104   */\n      iszero\n        /* \"#utility.yul\":3084:3105   */\n      iszero\n        /* \"#utility.yul\":3077:3082   */\n      dup2\n        /* \"#utility.yul\":3074:3106   */\n      eq\n        /* \"#utility.yul\":3064:3124   */\n      tag_340\n      jumpi\n        /* \"#utility.yul\":3120:3121   */\n      0x00\n        /* \"#utility.yul\":3117:3118   */\n      dup1\n        /* \"#utility.yul\":3110:3122   */\n      revert\n        /* \"#utility.yul\":3064:3124   */\n    tag_340:\n        /* \"#utility.yul\":3143:3148   */\n      dup1\n        /* \"#utility.yul\":3133:3148   */\n      swap2\n      pop\n      pop\n        /* \"#utility.yul\":2807:3154   */\n      swap3\n      pop\n      swap3\n      swap1\n      pop\n      jump\t// out\n        /* \"#utility.yul\":3159:3286   */\n    tag_288:\n        /* \"#utility.yul\":3220:3230   */\n      0x4e487b71\n        /* \"#utility.yul\":3215:3218   */\n      0xe0\n        /* \"#utility.yul\":3211:3231   */\n      shl\n        /* \"#utility.yul\":3208:3209   */\n      0x00\n        /* \"#utility.yul\":3201:3232   */\n      mstore\n        /* \"#utility.yul\":3251:3255   */\n      0x41\n        /* \"#utility.yul\":3248:3249   */\n      0x04\n        /* \"#utility.yul\":3241:3256   */\n      mstore\n        /* \"#utility.yul\":3275:3279   */\n      0x24\n        /* \"#utility.yul\":3272:3273   */\n      0x00\n        /* \"#utility.yul\":3265:3280   */\n      revert\n        /* \"#utility.yul\":3291:4006   */\n    tag_304:\n        /* \"#utility.yul\":3355:3360   */\n      0x00\n        /* \"#utility.yul\":3387:3388   */\n      dup1\n        /* \"#utility.yul\":3411:3429   */\n      0xffffffffffffffff\n        /* \"#utility.yul\":3403:3409   */\n      dup5\n        /* \"#utility.yul\":3400:3430   */\n      gt\n        /* \"#utility.yul\":3397:3453   */\n      iszero\n      tag_344\n      jumpi\n        /* \"#utility.yul\":3433:3451   */\n      tag_344\n      tag_288\n      jump\t// in\n    tag_344:\n      pop\n        /* \"#utility.yul\":3588:3590   */\n      0x40\n        /* \"#utility.yul\":3582:3591   */\n      mload\n      not(0x1f)\n        /* \"#utility.yul\":3501:3503   */\n      0x1f\n        /* \"#utility.yul\":3480:3495   */\n      dup6\n      add\n        /* \"#utility.yul\":3476:3505   */\n      dup2\n      and\n        /* \"#utility.yul\":3646:3648   */\n      0x3f\n        /* \"#utility.yul\":3634:3649   */\n      add\n        /* \"#utility.yul\":3630:3659   */\n      and\n        /* \"#utility.yul\":3618:3660   */\n      dup2\n      add\n        /* \"#utility.yul\":3711:3733   */\n      dup2\n      dup2\n      lt\n        /* \"#utility.yul\":3690:3708   */\n      0xffffffffffffffff\n        /* \"#utility.yul\":3675:3709   */\n      dup3\n      gt\n        /* \"#utility.yul\":3672:3734   */\n      or\n        /* \"#utility.yul\":3669:3757   */\n      iszero\n      tag_346\n      jumpi\n        /* \"#utility.yul\":3737:3755   */\n      tag_346\n      tag_288\n      jump\t// in\n    tag_346:\n        /* \"#utility.yul\":3773:3775   */\n      0x40\n        /* \"#utility.yul\":3766:3788   */\n      mstore\n        /* \"#utility.yul\":3821:3843   */\n      dup4\n      dup2\n      mstore\n        /* \"#utility.yul\":3806:3812   */\n      swap1\n      pop\n      dup1\n        /* \"#utility.yul\":3858:3874   */\n      dup3\n      dup5\n      add\n        /* \"#utility.yul\":3855:3880   */\n      dup6\n      lt\n        /* \"#utility.yul\":3852:3897   */\n      iszero\n      tag_347\n      jumpi\n        /* \"#utility.yul\":3893:3894   */\n      0x00\n        /* \"#utility.yul\":3890:3891   */\n      dup1\n        /* \"#utility.yul\":3883:3895   */\n      revert\n        /* \"#utility.yul\":3852:3897   */\n    tag_347:\n        /* \"#utility.yul\":3943:3949   */\n      dup4\n        /* \"#utility.yul\":3938:3941   */\n      dup4\n        /* \"#utility.yul\":3931:3935   */\n      0x20\n        /* \"#utility.yul\":3923:3929   */\n      dup4\n        /* \"#utility.yul\":3919:3936   */\n      add\n        /* \"#utility.yul\":3906:3950   */\n      calldatacopy\n        /* \"#utility.yul\":3998:3999   */\n      0x00\n        /* \"#utility.yul\":3991:3995   */\n      0x20\n        /* \"#utility.yul\":3982:3988   */\n      dup6\n        /* \"#utility.yul\":3974:3980   */\n      dup4\n        /* \"#utility.yul\":3970:3989   */\n      add\n        /* \"#utility.yul\":3966:3996   */\n      add\n        /* \"#utility.yul\":3959:4000   */\n      mstore\n      pop\n        /* \"#utility.yul\":3291:4006   */\n      swap4\n      swap3\n      pop\n      pop\n      pop\n      jump\t// out\n        /* \"#utility.yul\":4011:4723   */\n    tag_67:\n        /* \"#utility.yul\":4106:4112   */\n      0x00\n        /* \"#utility.yul\":4114:4120   */\n      dup1\n        /* \"#utility.yul\":4122:4128   */\n      0x00\n        /* \"#utility.yul\":4130:4136   */\n      dup1\n        /* \"#utility.yul\":4183:4186   */\n      0x80\n        /* \"#utility.yul\":4171:4180   */\n      dup6\n        /* \"#utility.yul\":4162:4169   */\n      dup8\n        /* \"#utility.yul\":4158:4181   */\n      sub\n        /* \"#utility.yul\":4154:4187   */\n      slt\n        /* \"#utility.yul\":4151:4204   */\n      iszero\n      tag_349\n      jumpi\n        /* \"#utility.yul\":4200:4201   */\n      0x00\n        /* \"#utility.yul\":4197:4198   */\n      dup1\n        /* \"#utility.yul\":4190:4202   */\n      revert\n        /* \"#utility.yul\":4151:4204   */\n    tag_349:\n        /* \"#utility.yul\":4223:4252   */\n      tag_350\n        /* \"#utility.yul\":4242:4251   */\n      dup6\n        /* \"#utility.yul\":4223:4252   */\n      tag_303\n      jump\t// in\n    tag_350:\n        /* \"#utility.yul\":4213:4252   */\n      swap4\n      pop\n        /* \"#utility.yul\":4271:4309   */\n      tag_351\n        /* \"#utility.yul\":4305:4307   */\n      0x20\n        /* \"#utility.yul\":4294:4303   */\n      dup7\n        /* \"#utility.yul\":4290:4308   */\n      add\n        /* \"#utility.yul\":4271:4309   */\n      tag_303\n      jump\t// in\n    tag_351:\n        /* \"#utility.yul\":4261:4309   */\n      swap3\n      pop\n        /* \"#utility.yul\":4378:4380   */\n      0x40\n        /* \"#utility.yul\":4363:4381   */\n      dup6\n      add\n        /* \"#utility.yul\":4350:4382   */\n      calldataload\n      swap2\n      pop\n        /* \"#utility.yul\":4457:4459   */\n      0x60\n        /* \"#utility.yul\":4442:4460   */\n      dup6\n      add\n        /* \"#utility.yul\":4429:4461   */\n      calldataload\n        /* \"#utility.yul\":4484:4502   */\n      0xffffffffffffffff\n        /* \"#utility.yul\":4473:4503   */\n      dup2\n      gt\n        /* \"#utility.yul\":4470:4520   */\n      iszero\n      tag_352\n      jumpi\n        /* \"#utility.yul\":4516:4517   */\n      0x00\n        /* \"#utility.yul\":4513:4514   */\n      dup1\n        /* \"#utility.yul\":4506:4518   */\n      revert\n        /* \"#utility.yul\":4470:4520   */\n    tag_352:\n        /* \"#utility.yul\":4539:4561   */\n      dup6\n      add\n        /* \"#utility.yul\":4592:4596   */\n      0x1f\n        /* \"#utility.yul\":4584:4597   */\n      dup2\n      add\n        /* \"#utility.yul\":4580:4607   */\n      dup8\n      sgt\n        /* \"#utility.yul\":4570:4625   */\n      tag_353\n      jumpi\n        /* \"#utility.yul\":4621:4622   */\n      0x00\n        /* \"#utility.yul\":4618:4619   */\n      dup1\n        /* \"#utility.yul\":4611:4623   */\n      revert\n        /* \"#utility.yul\":4570:4625   */\n    tag_353:\n        /* \"#utility.yul\":4644:4717   */\n      tag_354\n        /* \"#utility.yul\":4709:4716   */\n      dup8\n        /* \"#utility.yul\":4704:4706   */\n      dup3\n        /* \"#utility.yul\":4691:4707   */\n      calldataload\n        /* \"#utility.yul\":4686:4688   */\n      0x20\n        /* \"#utility.yul\":4682:4684   */\n      dup5\n        /* \"#utility.yul\":4678:4689   */\n      add\n        /* \"#utility.yul\":4644:4717   */\n      tag_304\n      jump\t// in\n    tag_354:\n        /* \"#utility.yul\":4634:4717   */\n      swap2\n      pop\n      pop\n        /* \"#utility.yul\":4011:4723   */\n      swap3\n      swap6\n      swap2\n      swap5\n      pop\n      swap3\n      pop\n      jump\t// out\n        /* \"#utility.yul\":4728:5178   */\n    tag_75:\n        /* \"#utility.yul\":4797:4803   */\n      0x00\n        /* \"#utility.yul\":4850:4852   */\n      0x20\n        /* \"#utility.yul\":4838:4847   */\n      dup3\n        /* \"#utility.yul\":4829:4836   */\n      dup5\n        /* \"#utility.yul\":4825:4848   */\n      sub\n        /* \"#utility.yul\":4821:4853   */\n      slt\n        /* \"#utility.yul\":4818:4870   */\n      iszero\n      tag_356\n      jumpi\n        /* \"#utility.yul\":4866:4867   */\n      0x00\n        /* \"#utility.yul\":4863:4864   */\n      dup1\n        /* \"#utility.yul\":4856:4868   */\n      revert\n        /* \"#utility.yul\":4818:4870   */\n    tag_356:\n        /* \"#utility.yul\":4906:4915   */\n      dup2\n        /* \"#utility.yul\":4893:4916   */\n      calldataload\n        /* \"#utility.yul\":4939:4957   */\n      0xffffffffffffffff\n        /* \"#utility.yul\":4931:4937   */\n      dup2\n        /* \"#utility.yul\":4928:4958   */\n      gt\n        /* \"#utility.yul\":4925:4975   */\n      iszero\n      tag_357\n      jumpi\n        /* \"#utility.yul\":4971:4972   */\n      0x00\n        /* \"#utility.yul\":4968:4969   */\n      dup1\n        /* \"#utility.yul\":4961:4973   */\n      revert\n        /* \"#utility.yul\":4925:4975   */\n    tag_357:\n        /* \"#utility.yul\":4994:5016   */\n      dup3\n      add\n        /* \"#utility.yul\":5047:5051   */\n      0x1f\n        /* \"#utility.yul\":5039:5052   */\n      dup2\n      add\n        /* \"#utility.yul\":5035:5062   */\n      dup5\n      sgt\n        /* \"#utility.yul\":5025:5080   */\n      tag_358\n      jumpi\n        /* \"#utility.yul\":5076:5077   */\n      0x00\n        /* \"#utility.yul\":5073:5074   */\n      dup1\n        /* \"#utility.yul\":5066:5078   */\n      revert\n        /* \"#utility.yul\":5025:5080   */\n    tag_358:\n        /* \"#utility.yul\":5099:5172   */\n      tag_165\n        /* \"#utility.yul\":5164:5171   */\n      dup5\n        /* \"#utility.yul\":5159:5161   */\n      dup3\n        /* \"#utility.yul\":5146:5162   */\n      calldataload\n        /* \"#utility.yul\":5141:5143   */\n      0x20\n        /* \"#utility.yul\":5137:5139   */\n      dup5\n        /* \"#utility.yul\":5133:5144   */\n      add\n        /* \"#utility.yul\":5099:5172   */\n      tag_304\n      jump\t// in\n        /* \"#utility.yul\":5183:5443   */\n    tag_80:\n        /* \"#utility.yul\":5251:5257   */\n      0x00\n        /* \"#utility.yul\":5259:5265   */\n      dup1\n        /* \"#utility.yul\":5312:5314   */\n      0x40\n        /* \"#utility.yul\":5300:5309   */\n      dup4\n        /* \"#utility.yul\":5291:5298   */\n      dup6\n        /* \"#utility.yul\":5287:5310   */\n      sub\n        /* \"#utility.yul\":5283:5315   */\n      slt\n        /* \"#utility.yul\":5280:5332   */\n      iszero\n      tag_361\n      jumpi\n        /* \"#utility.yul\":5328:5329   */\n      0x00\n        /* \"#utility.yul\":5325:5326   */\n      dup1\n        /* \"#utility.yul\":5318:5330   */\n      revert\n        /* \"#utility.yul\":5280:5332   */\n    tag_361:\n        /* \"#utility.yul\":5351:5380   */\n      tag_362\n        /* \"#utility.yul\":5370:5379   */\n      dup4\n        /* \"#utility.yul\":5351:5380   */\n      tag_303\n      jump\t// in\n    tag_362:\n        /* \"#utility.yul\":5341:5380   */\n      swap2\n      pop\n        /* \"#utility.yul\":5399:5437   */\n      tag_363\n        /* \"#utility.yul\":5433:5435   */\n      0x20\n        /* \"#utility.yul\":5422:5431   */\n      dup5\n        /* \"#utility.yul\":5418:5436   */\n      add\n        /* \"#utility.yul\":5399:5437   */\n      tag_303\n      jump\t// in\n    tag_363:\n        /* \"#utility.yul\":5389:5437   */\n      swap1\n      pop\n        /* \"#utility.yul\":5183:5443   */\n      swap3\n      pop\n      swap3\n      swap1\n      pop\n      jump\t// out\n        /* \"#utility.yul\":5448:5828   */\n    tag_93:\n        /* \"#utility.yul\":5527:5528   */\n      0x01\n        /* \"#utility.yul\":5523:5535   */\n      dup2\n      dup2\n      shr\n      swap1\n        /* \"#utility.yul\":5570:5582   */\n      dup3\n      and\n      dup1\n        /* \"#utility.yul\":5591:5652   */\n      tag_365\n      jumpi\n        /* \"#utility.yul\":5645:5649   */\n      0x7f\n        /* \"#utility.yul\":5637:5643   */\n      dup3\n        /* \"#utility.yul\":5633:5650   */\n      and\n        /* \"#utility.yul\":5623:5650   */\n      swap2\n      pop\n        /* \"#utility.yul\":5591:5652   */\n    tag_365:\n        /* \"#utility.yul\":5698:5700   */\n      0x20\n        /* \"#utility.yul\":5690:5696   */\n      dup3\n        /* \"#utility.yul\":5687:5701   */\n      lt\n        /* \"#utility.yul\":5667:5685   */\n      dup2\n        /* \"#utility.yul\":5664:5702   */\n      sub\n        /* \"#utility.yul\":5661:5822   */\n      tag_366\n      jumpi\n        /* \"#utility.yul\":5744:5754   */\n      0x4e487b71\n        /* \"#utility.yul\":5739:5742   */\n      0xe0\n        /* \"#utility.yul\":5735:5755   */\n      shl\n        /* \"#utility.yul\":5732:5733   */\n      0x00\n        /* \"#utility.yul\":5725:5756   */\n      mstore\n        /* \"#utility.yul\":5779:5783   */\n      0x22\n        /* \"#utility.yul\":5776:5777   */\n      0x04\n        /* \"#utility.yul\":5769:5784   */\n      mstore\n        /* \"#utility.yul\":5807:5811   */\n      0x24\n        /* \"#utility.yul\":5804:5805   */\n      0x00\n        /* \"#utility.yul\":5797:5812   */\n      revert\n        /* \"#utility.yul\":5661:5822   */\n    tag_366:\n      pop\n        /* \"#utility.yul\":5448:5828   */\n      swap2\n      swap1\n      pop\n      jump\t// out\n        /* \"#utility.yul\":6666:7076   */\n    tag_122:\n        /* \"#utility.yul\":6868:6870   */\n      0x20\n        /* \"#utility.yul\":6850:6871   */\n      dup1\n      dup3\n      mstore\n        /* \"#utility.yul\":6907:6909   */\n      0x2e\n        /* \"#utility.yul\":6887:6905   */\n      swap1\n      dup3\n      add\n        /* \"#utility.yul\":6880:6910   */\n      mstore\n        /* \"#utility.yul\":6946:6980   */\n      0x4552433732313a2063616c6c6572206973206e6f7420746f6b656e206f776e65\n        /* \"#utility.yul\":6941:6943   */\n      0x40\n        /* \"#utility.yul\":6926:6944   */\n      dup3\n      add\n        /* \"#utility.yul\":6919:6981   */\n      mstore\n      shl(0x92, 0x1c881b9bdc88185c1c1c9bdd9959)\n        /* \"#utility.yul\":7012:7014   */\n      0x60\n        /* \"#utility.yul\":6997:7015   */\n      dup3\n      add\n        /* \"#utility.yul\":6990:7034   */\n      mstore\n        /* \"#utility.yul\":7066:7069   */\n      0x80\n        /* \"#utility.yul\":7051:7070   */\n      add\n      swap1\n        /* \"#utility.yul\":6666:7076   */\n      jump\t// out\n        /* \"#utility.yul\":7844:8056   */\n    tag_305:\n        /* \"#utility.yul\":7886:7889   */\n      0x00\n        /* \"#utility.yul\":7924:7929   */\n      dup2\n        /* \"#utility.yul\":7918:7930   */\n      mload\n        /* \"#utility.yul\":7968:7974   */\n      dup1\n        /* \"#utility.yul\":7961:7965   */\n      0x20\n        /* \"#utility.yul\":7954:7959   */\n      dup5\n        /* \"#utility.yul\":7950:7966   */\n      add\n        /* \"#utility.yul\":7945:7948   */\n      dup6\n        /* \"#utility.yul\":7939:7975   */\n      mcopy\n        /* \"#utility.yul\":8030:8031   */\n      0x00\n        /* \"#utility.yul\":7994:8010   */\n      swap4\n      add\n        /* \"#utility.yul\":8019:8032   */\n      swap3\n      dup4\n      mstore\n      pop\n        /* \"#utility.yul\":7994:8010   */\n      swap1\n      swap2\n        /* \"#utility.yul\":7844:8056   */\n      swap1\n      pop\n      jump\t// out\n        /* \"#utility.yul\":8061:8328   */\n    tag_164:\n        /* \"#utility.yul\":8240:8243   */\n      0x00\n        /* \"#utility.yul\":8265:8322   */\n      tag_165\n        /* \"#utility.yul\":8291:8321   */\n      tag_375\n        /* \"#utility.yul\":8317:8320   */\n      dup4\n        /* \"#utility.yul\":8309:8315   */\n      dup7\n        /* \"#utility.yul\":8291:8321   */\n      tag_305\n      jump\t// in\n    tag_375:\n        /* \"#utility.yul\":8283:8289   */\n      dup5\n        /* \"#utility.yul\":8265:8322   */\n      tag_305\n      jump\t// in\n        /* \"#utility.yul\":9144:9271   */\n    tag_306:\n        /* \"#utility.yul\":9205:9215   */\n      0x4e487b71\n        /* \"#utility.yul\":9200:9203   */\n      0xe0\n        /* \"#utility.yul\":9196:9216   */\n      shl\n        /* \"#utility.yul\":9193:9194   */\n      0x00\n        /* \"#utility.yul\":9186:9217   */\n      mstore\n        /* \"#utility.yul\":9236:9240   */\n      0x11\n        /* \"#utility.yul\":9233:9234   */\n      0x04\n        /* \"#utility.yul\":9226:9241   */\n      mstore\n        /* \"#utility.yul\":9260:9264   */\n      0x24\n        /* \"#utility.yul\":9257:9258   */\n      0x00\n        /* \"#utility.yul\":9250:9265   */\n      revert\n        /* \"#utility.yul\":9276:9404   */\n    tag_208:\n        /* \"#utility.yul\":9343:9352   */\n      dup2\n      dup2\n      sub\n        /* \"#utility.yul\":9364:9375   */\n      dup2\n      dup2\n      gt\n        /* \"#utility.yul\":9361:9398   */\n      iszero\n      tag_89\n      jumpi\n        /* \"#utility.yul\":9378:9396   */\n      tag_89\n      tag_306\n      jump\t// in\n        /* \"#utility.yul\":9409:9534   */\n    tag_210:\n        /* \"#utility.yul\":9474:9483   */\n      dup1\n      dup3\n      add\n        /* \"#utility.yul\":9495:9505   */\n      dup1\n      dup3\n      gt\n        /* \"#utility.yul\":9492:9528   */\n      iszero\n      tag_89\n      jumpi\n        /* \"#utility.yul\":9508:9526   */\n      tag_89\n      tag_306\n      jump\t// in\n        /* \"#utility.yul\":9893:10307   */\n    tag_224:\n        /* \"#utility.yul\":10095:10097   */\n      0x20\n        /* \"#utility.yul\":10077:10098   */\n      dup1\n      dup3\n      mstore\n        /* \"#utility.yul\":10134:10136   */\n      0x32\n        /* \"#utility.yul\":10114:10132   */\n      swap1\n      dup3\n      add\n        /* \"#utility.yul\":10107:10137   */\n      mstore\n        /* \"#utility.yul\":10173:10207   */\n      0x4552433732313a207472616e7366657220746f206e6f6e204552433732315265\n        /* \"#utility.yul\":10168:10170   */\n      0x40\n        /* \"#utility.yul\":10153:10171   */\n      dup3\n      add\n        /* \"#utility.yul\":10146:10208   */\n      mstore\n      shl(0x71, 0x31b2b4bb32b91034b6b83632b6b2b73a32b9)\n        /* \"#utility.yul\":10239:10241   */\n      0x60\n        /* \"#utility.yul\":10224:10242   */\n      dup3\n      add\n        /* \"#utility.yul\":10217:10265   */\n      mstore\n        /* \"#utility.yul\":10297:10300   */\n      0x80\n        /* \"#utility.yul\":10282:10301   */\n      add\n      swap1\n        /* \"#utility.yul\":9893:10307   */\n      jump\t// out\n        /* \"#utility.yul\":11571:12089   */\n    tag_308:\n        /* \"#utility.yul\":11673:11675   */\n      0x1f\n        /* \"#utility.yul\":11668:11671   */\n      dup3\n        /* \"#utility.yul\":11665:11676   */\n      gt\n        /* \"#utility.yul\":11662:12083   */\n      iszero\n      tag_114\n      jumpi\n        /* \"#utility.yul\":11709:11714   */\n      dup1\n        /* \"#utility.yul\":11706:11707   */\n      0x00\n        /* \"#utility.yul\":11699:11715   */\n      mstore\n        /* \"#utility.yul\":11753:11757   */\n      0x20\n        /* \"#utility.yul\":11750:11751   */\n      0x00\n        /* \"#utility.yul\":11740:11758   */\n      keccak256\n        /* \"#utility.yul\":11823:11825   */\n      0x1f\n        /* \"#utility.yul\":11811:11821   */\n      dup5\n        /* \"#utility.yul\":11807:11826   */\n      add\n        /* \"#utility.yul\":11804:11805   */\n      0x05\n        /* \"#utility.yul\":11800:11827   */\n      shr\n        /* \"#utility.yul\":11794:11798   */\n      dup2\n        /* \"#utility.yul\":11790:11828   */\n      add\n        /* \"#utility.yul\":11859:11863   */\n      0x20\n        /* \"#utility.yul\":11847:11857   */\n      dup6\n        /* \"#utility.yul\":11844:11864   */\n      lt\n        /* \"#utility.yul\":11841:11888   */\n      iszero\n      tag_393\n      jumpi\n      pop\n        /* \"#utility.yul\":11882:11886   */\n      dup1\n        /* \"#utility.yul\":11841:11888   */\n    tag_393:\n        /* \"#utility.yul\":11937:11939   */\n      0x1f\n        /* \"#utility.yul\":11932:11935   */\n      dup5\n        /* \"#utility.yul\":11928:11940   */\n      add\n        /* \"#utility.yul\":11925:11926   */\n      0x05\n        /* \"#utility.yul\":11921:11941   */\n      shr\n        /* \"#utility.yul\":11915:11919   */\n      dup3\n        /* \"#utility.yul\":11911:11942   */\n      add\n        /* \"#utility.yul\":11901:11942   */\n      swap2\n      pop\n        /* \"#utility.yul\":11992:12073   */\n    tag_394:\n        /* \"#utility.yul\":12010:12012   */\n      dup2\n        /* \"#utility.yul\":12003:12008   */\n      dup2\n        /* \"#utility.yul\":12000:12013   */\n      lt\n        /* \"#utility.yul\":11992:12073   */\n      iszero\n      tag_396\n      jumpi\n        /* \"#utility.yul\":12069:12070   */\n      0x00\n        /* \"#utility.yul\":12055:12071   */\n      dup2\n      sstore\n        /* \"#utility.yul\":12036:12037   */\n      0x01\n        /* \"#utility.yul\":12025:12038   */\n      add\n        /* \"#utility.yul\":11992:12073   */\n      jump(tag_394)\n    tag_396:\n        /* \"#utility.yul\":11996:11999   */\n      pop\n      pop\n        /* \"#utility.yul\":11571:12089   */\n      pop\n      pop\n      pop\n      jump\t// out\n        /* \"#utility.yul\":12265:13564   */\n    tag_252:\n        /* \"#utility.yul\":12391:12394   */\n      dup2\n        /* \"#utility.yul\":12385:12395   */\n      mload\n        /* \"#utility.yul\":12418:12436   */\n      0xffffffffffffffff\n        /* \"#utility.yul\":12410:12416   */\n      dup2\n        /* \"#utility.yul\":12407:12437   */\n      gt\n        /* \"#utility.yul\":12404:12460   */\n      iszero\n      tag_400\n      jumpi\n        /* \"#utility.yul\":12440:12458   */\n      tag_400\n      tag_288\n      jump\t// in\n    tag_400:\n        /* \"#utility.yul\":12469:12566   */\n      tag_401\n        /* \"#utility.yul\":12559:12565   */\n      dup2\n        /* \"#utility.yul\":12519:12557   */\n      tag_402\n        /* \"#utility.yul\":12551:12555   */\n      dup5\n        /* \"#utility.yul\":12545:12556   */\n      sload\n        /* \"#utility.yul\":12519:12557   */\n      tag_93\n      jump\t// in\n    tag_402:\n        /* \"#utility.yul\":12513:12517   */\n      dup5\n        /* \"#utility.yul\":12469:12566   */\n      tag_308\n      jump\t// in\n    tag_401:\n        /* \"#utility.yul\":12615:12619   */\n      0x20\n        /* \"#utility.yul\":12646:12648   */\n      0x1f\n        /* \"#utility.yul\":12635:12649   */\n      dup3\n      gt\n        /* \"#utility.yul\":12663:12664   */\n      0x01\n        /* \"#utility.yul\":12658:13307   */\n      dup2\n      eq\n      tag_404\n      jumpi\n        /* \"#utility.yul\":13351:13352   */\n      0x00\n        /* \"#utility.yul\":13368:13374   */\n      dup4\n        /* \"#utility.yul\":13365:13454   */\n      iszero\n      tag_405\n      jumpi\n      pop\n        /* \"#utility.yul\":13420:13439   */\n      dup5\n      dup3\n      add\n        /* \"#utility.yul\":13414:13440   */\n      mload\n        /* \"#utility.yul\":13365:13454   */\n    tag_405:\n      not(0x00)\n        /* \"#utility.yul\":12222:12223   */\n      0x03\n        /* \"#utility.yul\":12218:12229   */\n      dup6\n      swap1\n      shl\n        /* \"#utility.yul\":12214:12238   */\n      shr\n        /* \"#utility.yul\":12210:12239   */\n      not\n        /* \"#utility.yul\":12200:12240   */\n      and\n        /* \"#utility.yul\":12246:12247   */\n      0x01\n        /* \"#utility.yul\":12242:12253   */\n      dup5\n      swap1\n      shl\n        /* \"#utility.yul\":12197:12254   */\n      or\n        /* \"#utility.yul\":13467:13548   */\n      dup5\n      sstore\n        /* \"#utility.yul\":12628:13558   */\n      jump(tag_396)\n        /* \"#utility.yul\":12658:13307   */\n    tag_404:\n        /* \"#utility.yul\":11518:11519   */\n      0x00\n        /* \"#utility.yul\":11511:11525   */\n      dup5\n      dup2\n      mstore\n        /* \"#utility.yul\":11555:11559   */\n      0x20\n        /* \"#utility.yul\":11542:11560   */\n      dup2\n      keccak256\n      not(0x1f)\n        /* \"#utility.yul\":12694:12714   */\n      dup6\n      and\n      swap2\n        /* \"#utility.yul\":12812:13034   */\n    tag_408:\n        /* \"#utility.yul\":12826:12833   */\n      dup3\n        /* \"#utility.yul\":12823:12824   */\n      dup2\n        /* \"#utility.yul\":12820:12834   */\n      lt\n        /* \"#utility.yul\":12812:13034   */\n      iszero\n      tag_410\n      jumpi\n        /* \"#utility.yul\":12908:12927   */\n      dup8\n      dup6\n      add\n        /* \"#utility.yul\":12902:12928   */\n      mload\n        /* \"#utility.yul\":12887:12929   */\n      dup3\n      sstore\n        /* \"#utility.yul\":13015:13019   */\n      0x20\n        /* \"#utility.yul\":13000:13020   */\n      swap5\n      dup6\n      add\n      swap5\n        /* \"#utility.yul\":12968:12969   */\n      0x01\n        /* \"#utility.yul\":12956:12970   */\n      swap1\n      swap3\n      add\n      swap2\n        /* \"#utility.yul\":12842:12854   */\n      add\n        /* \"#utility.yul\":12812:13034   */\n      jump(tag_408)\n    tag_410:\n        /* \"#utility.yul\":12816:12819   */\n      pop\n        /* \"#utility.yul\":13062:13068   */\n      dup5\n        /* \"#utility.yul\":13053:13060   */\n      dup3\n        /* \"#utility.yul\":13050:13069   */\n      lt\n        /* \"#utility.yul\":13047:13248   */\n      iszero\n      tag_411\n      jumpi\n        /* \"#utility.yul\":13123:13142   */\n      dup7\n      dup5\n      add\n        /* \"#utility.yul\":13117:13143   */\n      mload\n      not(0x00)\n        /* \"#utility.yul\":13206:13207   */\n      0x03\n        /* \"#utility.yul\":13202:13216   */\n      dup8\n      swap1\n      shl\n        /* \"#utility.yul\":13218:13221   */\n      0xf8\n        /* \"#utility.yul\":13198:13222   */\n      and\n        /* \"#utility.yul\":13194:13231   */\n      shr\n        /* \"#utility.yul\":13190:13232   */\n      not\n        /* \"#utility.yul\":13175:13233   */\n      and\n        /* \"#utility.yul\":13160:13234   */\n      dup2\n      sstore\n        /* \"#utility.yul\":13047:13248   */\n    tag_411:\n      pop\n      pop\n      pop\n      pop\n        /* \"#utility.yul\":13294:13295   */\n      0x01\n        /* \"#utility.yul\":13278:13292   */\n      swap1\n      dup2\n      shl\n        /* \"#utility.yul\":13274:13296   */\n      add\n        /* \"#utility.yul\":13261:13297   */\n      swap1\n      sstore\n      pop\n        /* \"#utility.yul\":12265:13564   */\n      jump\t// out\n        /* \"#utility.yul\":13569:14065   */\n    tag_263:\n      sub(shl(0xa0, 0x01), 0x01)\n        /* \"#utility.yul\":13800:13832   */\n      dup6\n      dup2\n      and\n        /* \"#utility.yul\":13782:13833   */\n      dup3\n      mstore\n        /* \"#utility.yul\":13869:13901   */\n      dup5\n      and\n        /* \"#utility.yul\":13864:13866   */\n      0x20\n        /* \"#utility.yul\":13849:13867   */\n      dup3\n      add\n        /* \"#utility.yul\":13842:13902   */\n      mstore\n        /* \"#utility.yul\":13933:13935   */\n      0x40\n        /* \"#utility.yul\":13918:13936   */\n      dup2\n      add\n        /* \"#utility.yul\":13911:13945   */\n      dup4\n      swap1\n      mstore\n        /* \"#utility.yul\":13981:13984   */\n      0x80\n        /* \"#utility.yul\":13976:13978   */\n      0x60\n        /* \"#utility.yul\":13961:13979   */\n      dup3\n      add\n        /* \"#utility.yul\":13954:13985   */\n      dup2\n      swap1\n      mstore\n      0x00\n      swap1\n        /* \"#utility.yul\":14002:14059   */\n      tag_413\n      swap1\n        /* \"#utility.yul\":14039:14058   */\n      dup4\n      add\n        /* \"#utility.yul\":14031:14037   */\n      dup5\n        /* \"#utility.yul\":14002:14059   */\n      tag_302\n      jump\t// in\n    tag_413:\n        /* \"#utility.yul\":13994:14059   */\n      swap7\n        /* \"#utility.yul\":13569:14065   */\n      swap6\n      pop\n      pop\n      pop\n      pop\n      pop\n      pop\n      jump\t// out\n        /* \"#utility.yul\":14070:14319   */\n    tag_266:\n        /* \"#utility.yul\":14139:14145   */\n      0x00\n        /* \"#utility.yul\":14192:14194   */\n      0x20\n        /* \"#utility.yul\":14180:14189   */\n      dup3\n        /* \"#utility.yul\":14171:14178   */\n      dup5\n        /* \"#utility.yul\":14167:14190   */\n      sub\n        /* \"#utility.yul\":14163:14195   */\n      slt\n        /* \"#utility.yul\":14160:14212   */\n      iszero\n      tag_415\n      jumpi\n        /* \"#utility.yul\":14208:14209   */\n      0x00\n        /* \"#utility.yul\":14205:14206   */\n      dup1\n        /* \"#utility.yul\":14198:14210   */\n      revert\n        /* \"#utility.yul\":14160:14212   */\n    tag_415:\n        /* \"#utility.yul\":14240:14249   */\n      dup2\n        /* \"#utility.yul\":14234:14250   */\n      mload\n        /* \"#utility.yul\":14259:14289   */\n      tag_177\n        /* \"#utility.yul\":14283:14288   */\n      dup2\n        /* \"#utility.yul\":14259:14289   */\n      tag_301\n      jump\t// in\n        /* \"#utility.yul\":14324:14459   */\n    tag_283:\n        /* \"#utility.yul\":14363:14366   */\n      0x00\n        /* \"#utility.yul\":14384:14401   */\n      0x01\n      dup3\n      add\n        /* \"#utility.yul\":14381:14424   */\n      tag_419\n      jumpi\n        /* \"#utility.yul\":14404:14422   */\n      tag_419\n      tag_306\n      jump\t// in\n    tag_419:\n      pop\n        /* \"#utility.yul\":14451:14452   */\n      0x01\n        /* \"#utility.yul\":14440:14453   */\n      add\n      swap1\n        /* \"#utility.yul\":14324:14459   */\n      jump\t// out\n        /* \"#utility.yul\":14464:14591   */\n    tag_310:\n        /* \"#utility.yul\":14525:14535   */\n      0x4e487b71\n        /* \"#utility.yul\":14520:14523   */\n      0xe0\n        /* \"#utility.yul\":14516:14536   */\n      shl\n        /* \"#utility.yul\":14513:14514   */\n      0x00\n        /* \"#utility.yul\":14506:14537   */\n      mstore\n        /* \"#utility.yul\":14556:14560   */\n      0x12\n        /* \"#utility.yul\":14553:14554   */\n      0x04\n        /* \"#utility.yul\":14546:14561   */\n      mstore\n        /* \"#utility.yul\":14580:14584   */\n      0x24\n        /* \"#utility.yul\":14577:14578   */\n      0x00\n        /* \"#utility.yul\":14570:14585   */\n      revert\n        /* \"#utility.yul\":14596:14716   */\n    tag_285:\n        /* \"#utility.yul\":14636:14637   */\n      0x00\n        /* \"#utility.yul\":14662:14663   */\n      dup3\n        /* \"#utility.yul\":14652:14687   */\n      tag_423\n      jumpi\n        /* \"#utility.yul\":14667:14685   */\n      tag_423\n      tag_310\n      jump\t// in\n    tag_423:\n      pop\n        /* \"#utility.yul\":14701:14710   */\n      div\n      swap1\n        /* \"#utility.yul\":14596:14716   */\n      jump\t// out\n        /* \"#utility.yul\":14721:14833   */\n    tag_294:\n        /* \"#utility.yul\":14753:14754   */\n      0x00\n        /* \"#utility.yul\":14779:14780   */\n      dup3\n        /* \"#utility.yul\":14769:14804   */\n      tag_426\n      jumpi\n        /* \"#utility.yul\":14784:14802   */\n      tag_426\n      tag_310\n      jump\t// in\n    tag_426:\n      pop\n        /* \"#utility.yul\":14818:14827   */\n      mod\n      swap1\n        /* \"#utility.yul\":14721:14833   */\n      jump\t// out\n        /* \"#utility.yul\":14838:14965   */\n    tag_298:\n        /* \"#utility.yul\":14899:14909   */\n      0x4e487b71\n        /* \"#utility.yul\":14894:14897   */\n      0xe0\n        /* \"#utility.yul\":14890:14910   */\n      shl\n        /* \"#utility.yul\":14887:14888   */\n      0x00\n        /* \"#utility.yul\":14880:14911   */\n      mstore\n        /* \"#utility.yul\":14930:14934   */\n      0x32\n        /* \"#utility.yul\":14927:14928   */\n      0x04\n        /* \"#utility.yul\":14920:14935   */\n      mstore\n        /* \"#utility.yul\":14954:14958   */\n      0x24\n        /* \"#utility.yul\":14951:14952   */\n      0x00\n        /* \"#utility.yul\":14944:14959   */\n      revert\n\n    auxdata: 0xa2646970667358221220bd3a9d29df046757b2dd9bbb14c33b894334c9de3df63255c281d7b0024c90bb64736f6c634300081a0033\n}\n",
				"bytecode": {
					"linkReferences": {},
					"object": "608060405234801561000f575f80fd5b506040516117b53803806117b583398101604081905261002e916100b6565b6040518060400160405280600d81526020016c02134b93937b1b1b79027232a1609d1b81525060405180604001604052806005815260200164109493919560da1b815250815f9081610080919061017b565b50600161008d828261017b565b5050600880546001600160a01b0319166001600160a01b03939093169290921790915550610235565b5f602082840312156100c6575f80fd5b81516001600160a01b03811681146100dc575f80fd5b9392505050565b634e487b7160e01b5f52604160045260245ffd5b600181811c9082168061010b57607f821691505b60208210810361012957634e487b7160e01b5f52602260045260245ffd5b50919050565b601f82111561017657805f5260205f20601f840160051c810160208510156101545750805b601f840160051c820191505b81811015610173575f8155600101610160565b50505b505050565b81516001600160401b03811115610194576101946100e3565b6101a8816101a284546100f7565b8461012f565b6020601f8211600181146101da575f83156101c35750848201515b5f19600385901b1c1916600184901b178455610173565b5f84815260208120601f198516915b8281101561020957878501518255602094850194600190920191016101e9565b508482101561022657868401515f19600387901b60f8161c191681555b50505050600190811b01905550565b611573806102425f395ff3fe608060405234801561000f575f80fd5b50600436106100f0575f3560e01c806370a0823111610093578063c87b56dd11610063578063c87b56dd146101f9578063d85d3d271461020c578063e985e9c51461021f578063ef2d174614610232575f80fd5b806370a08231146101aa57806395d89b41146101cb578063a22cb465146101d3578063b88d4fde146101e6575f80fd5b8063095ea7b3116100ce578063095ea7b31461015c57806323b872dd1461017157806342842e0e146101845780636352211e14610197575f80fd5b806301ffc9a7146100f457806306fdde031461011c578063081812fc14610131575b5f80fd5b610107610102366004610f84565b61023a565b60405190151581526020015b60405180910390f35b61012461028b565b6040516101139190610fcd565b61014461013f366004610fdf565b61031a565b6040516001600160a01b039091168152602001610113565b61016f61016a366004611011565b61033f565b005b61016f61017f366004611039565b610458565b61016f610192366004611039565b610489565b6101446101a5366004610fdf565b6104a3565b6101bd6101b8366004611073565b610502565b604051908152602001610113565b610124610586565b61016f6101e136600461108c565b610595565b61016f6101f4366004611150565b6105a4565b610124610207366004610fdf565b6105dc565b6101bd61021a3660046111c7565b6106e6565b61010761022d36600461120c565b610737565b6101bd610764565b5f6001600160e01b031982166380ac58cd60e01b148061026a57506001600160e01b03198216635b5e139f60e01b145b8061028557506301ffc9a760e01b6001600160e01b03198316145b92915050565b60605f80546102999061123d565b80601f01602080910402602001604051908101604052809291908181526020018280546102c59061123d565b80156103105780601f106102e757610100808354040283529160200191610310565b820191905f5260205f20905b8154815290600101906020018083116102f357829003601f168201915b5050505050905090565b5f61032482610773565b505f908152600460205260409020546001600160a01b031690565b5f610349826104a3565b9050806001600160a01b0316836001600160a01b0316036103bb5760405162461bcd60e51b815260206004820152602160248201527f4552433732313a20617070726f76616c20746f2063757272656e74206f776e656044820152603960f91b60648201526084015b60405180910390fd5b336001600160a01b03821614806103d757506103d78133610737565b6104495760405162461bcd60e51b815260206004820152603e60248201527f4552433732313a20617070726f76652063616c6c6572206973206e6f7420746f60448201527f6b656e206f776e6572206e6f7220617070726f76656420666f7220616c6c000060648201526084016103b2565b61045383836107d4565b505050565b6104623382610841565b61047e5760405162461bcd60e51b81526004016103b290611275565b61045383838361089e565b61045383838360405180602001604052805f8152506105a4565b5f818152600260205260408120546001600160a01b0316806102855760405162461bcd60e51b8152602060048201526018602482015277115490cdcc8c4e881a5b9d985b1a59081d1bdad95b88125160421b60448201526064016103b2565b5f6001600160a01b03821661056b5760405162461bcd60e51b815260206004820152602960248201527f4552433732313a2061646472657373207a65726f206973206e6f7420612076616044820152683634b21037bbb732b960b91b60648201526084016103b2565b506001600160a01b03165f9081526003602052604090205490565b6060600180546102999061123d565b6105a0338383610a36565b5050565b6105ae3383610841565b6105ca5760405162461bcd60e51b81526004016103b290611275565b6105d684848484610b03565b50505050565b60606105e782610773565b5f82815260066020526040812080546105ff9061123d565b80601f016020809104026020016040519081016040528092919081815260200182805461062b9061123d565b80156106765780601f1061064d57610100808354040283529160200191610676565b820191905f5260205f20905b81548152906001019060200180831161065957829003601f168201915b505050505090505f61069260408051602081019091525f815290565b905080515f036106a3575092915050565b8151156106d55780826040516020016106bd9291906112da565b60405160208183030381529060405292505050919050565b6106de84610b36565b949350505050565b5f806106f160075490565b90506106fd3382610ba5565b6107078184610ce4565b60085461071e906001600160a01b03166001610595565b61072c600780546001019055565b6007545b9392505050565b6001600160a01b039182165f90815260056020908152604080832093909416825291909152205460ff1690565b5f61076e60075490565b905090565b5f818152600260205260409020546001600160a01b03166107d15760405162461bcd60e51b8152602060048201526018602482015277115490cdcc8c4e881a5b9d985b1a59081d1bdad95b88125160421b60448201526064016103b2565b50565b5f81815260046020526040902080546001600160a01b0319166001600160a01b0384169081179091558190610808826104a3565b6001600160a01b03167f8c5be1e5ebec7d5bd14f71427d1e84f3dd0314c0f7b2291e5b200ac8c7c3b92560405160405180910390a45050565b5f8061084c836104a3565b9050806001600160a01b0316846001600160a01b0316148061087357506108738185610737565b806106de5750836001600160a01b031661088c8461031a565b6001600160a01b031614949350505050565b826001600160a01b03166108b1826104a3565b6001600160a01b0316146109155760405162461bcd60e51b815260206004820152602560248201527f4552433732313a207472616e736665722066726f6d20696e636f72726563742060448201526437bbb732b960d91b60648201526084016103b2565b6001600160a01b0382166109775760405162461bcd60e51b8152602060048201526024808201527f4552433732313a207472616e7366657220746f20746865207a65726f206164646044820152637265737360e01b60648201526084016103b2565b6109815f826107d4565b6001600160a01b0383165f9081526003602052604081208054600192906109a9908490611302565b90915550506001600160a01b0382165f9081526003602052604081208054600192906109d6908490611315565b90915550505f8181526002602052604080822080546001600160a01b0319166001600160a01b0386811691821790925591518493918716917fddf252ad1be2c89b69c2b068fc378daa952ba7f163c4a11628f55a4df523b3ef91a4505050565b816001600160a01b0316836001600160a01b031603610a975760405162461bcd60e51b815260206004820152601960248201527f4552433732313a20617070726f766520746f2063616c6c65720000000000000060448201526064016103b2565b6001600160a01b038381165f81815260056020908152604080832094871680845294825291829020805460ff191686151590811790915591519182527f17307eab39ab6107e8899845ad3d59bd9653f200f220920489ca2b5937696c31910160405180910390a3505050565b610b0e84848461089e565b610b1a84848484610d75565b6105d65760405162461bcd60e51b81526004016103b290611328565b6060610b4182610773565b5f610b5660408051602081019091525f815290565b90505f815111610b745760405180602001604052805f815250610730565b80610b7e84610e72565b604051602001610b8f9291906112da565b6040516020818303038152906040529392505050565b6001600160a01b038216610bfb5760405162461bcd60e51b815260206004820181905260248201527f4552433732313a206d696e7420746f20746865207a65726f206164647265737360448201526064016103b2565b5f818152600260205260409020546001600160a01b031615610c5f5760405162461bcd60e51b815260206004820152601c60248201527f4552433732313a20746f6b656e20616c7265616479206d696e7465640000000060448201526064016103b2565b6001600160a01b0382165f908152600360205260408120805460019290610c87908490611315565b90915550505f8181526002602052604080822080546001600160a01b0319166001600160a01b03861690811790915590518392907fddf252ad1be2c89b69c2b068fc378daa952ba7f163c4a11628f55a4df523b3ef908290a45050565b5f828152600260205260409020546001600160a01b0316610d5e5760405162461bcd60e51b815260206004820152602e60248201527f45524337323155524953746f726167653a2055524920736574206f66206e6f6e60448201526d32bc34b9ba32b73a103a37b5b2b760911b60648201526084016103b2565b5f82815260066020526040902061045382826113c5565b5f6001600160a01b0384163b15610e6757604051630a85bd0160e11b81526001600160a01b0385169063150b7a0290610db8903390899088908890600401611480565b6020604051808303815f875af1925050508015610df2575060408051601f3d908101601f19168201909252610def918101906114bc565b60015b610e4d573d808015610e1f576040519150601f19603f3d011682016040523d82523d5f602084013e610e24565b606091505b5080515f03610e455760405162461bcd60e51b81526004016103b290611328565b805181602001fd5b6001600160e01b031916630a85bd0160e11b1490506106de565b506001949350505050565b6060815f03610e985750506040805180820190915260018152600360fc1b602082015290565b815f5b8115610ec15780610eab816114d7565b9150610eba9050600a83611503565b9150610e9b565b5f8167ffffffffffffffff811115610edb57610edb6110c5565b6040519080825280601f01601f191660200182016040528015610f05576020820181803683370190505b5090505b84156106de57610f1a600183611302565b9150610f27600a86611516565b610f32906030611315565b60f81b818381518110610f4757610f47611529565b60200101906001600160f81b03191690815f1a905350610f68600a86611503565b9450610f09565b6001600160e01b0319811681146107d1575f80fd5b5f60208284031215610f94575f80fd5b813561073081610f6f565b5f81518084528060208401602086015e5f602082860101526020601f19601f83011685010191505092915050565b602081525f6107306020830184610f9f565b5f60208284031215610fef575f80fd5b5035919050565b80356001600160a01b038116811461100c575f80fd5b919050565b5f8060408385031215611022575f80fd5b61102b83610ff6565b946020939093013593505050565b5f805f6060848603121561104b575f80fd5b61105484610ff6565b925061106260208501610ff6565b929592945050506040919091013590565b5f60208284031215611083575f80fd5b61073082610ff6565b5f806040838503121561109d575f80fd5b6110a683610ff6565b9150602083013580151581146110ba575f80fd5b809150509250929050565b634e487b7160e01b5f52604160045260245ffd5b5f8067ffffffffffffffff8411156110f3576110f36110c5565b50604051601f19601f85018116603f0116810181811067ffffffffffffffff82111715611122576111226110c5565b604052838152905080828401851015611139575f80fd5b838360208301375f60208583010152509392505050565b5f805f8060808587031215611163575f80fd5b61116c85610ff6565b935061117a60208601610ff6565b925060408501359150606085013567ffffffffffffffff81111561119c575f80fd5b8501601f810187136111ac575f80fd5b6111bb878235602084016110d9565b91505092959194509250565b5f602082840312156111d7575f80fd5b813567ffffffffffffffff8111156111ed575f80fd5b8201601f810184136111fd575f80fd5b6106de848235602084016110d9565b5f806040838503121561121d575f80fd5b61122683610ff6565b915061123460208401610ff6565b90509250929050565b600181811c9082168061125157607f821691505b60208210810361126f57634e487b7160e01b5f52602260045260245ffd5b50919050565b6020808252602e908201527f4552433732313a2063616c6c6572206973206e6f7420746f6b656e206f776e6560408201526d1c881b9bdc88185c1c1c9bdd995960921b606082015260800190565b5f81518060208401855e5f93019283525090919050565b5f6106de6112e883866112c3565b846112c3565b634e487b7160e01b5f52601160045260245ffd5b81810381811115610285576102856112ee565b80820180821115610285576102856112ee565b60208082526032908201527f4552433732313a207472616e7366657220746f206e6f6e20455243373231526560408201527131b2b4bb32b91034b6b83632b6b2b73a32b960711b606082015260800190565b601f82111561045357805f5260205f20601f840160051c8101602085101561139f5750805b601f840160051c820191505b818110156113be575f81556001016113ab565b5050505050565b815167ffffffffffffffff8111156113df576113df6110c5565b6113f3816113ed845461123d565b8461137a565b6020601f821160018114611425575f831561140e5750848201515b5f19600385901b1c1916600184901b1784556113be565b5f84815260208120601f198516915b828110156114545787850151825560209485019460019092019101611434565b508482101561147157868401515f19600387901b60f8161c191681555b50505050600190811b01905550565b6001600160a01b03858116825284166020820152604081018390526080606082018190525f906114b290830184610f9f565b9695505050505050565b5f602082840312156114cc575f80fd5b815161073081610f6f565b5f600182016114e8576114e86112ee565b5060010190565b634e487b7160e01b5f52601260045260245ffd5b5f82611511576115116114ef565b500490565b5f82611524576115246114ef565b500690565b634e487b7160e01b5f52603260045260245ffdfea2646970667358221220bd3a9d29df046757b2dd9bbb14c33b894334c9de3df63255c281d7b0024c90bb64736f6c634300081a0033",
					"opcodes": "PUSH1 0x80 PUSH1 0x40 MSTORE CALLVALUE DUP1 ISZERO PUSH2 0xF JUMPI PUSH0 DUP1 REVERT JUMPDEST POP PUSH1 0x40 MLOAD PUSH2 0x17B5 CODESIZE SUB DUP1 PUSH2 0x17B5 DUP4 CODECOPY DUP2 ADD PUSH1 0x40 DUP2 SWAP1 MSTORE PUSH2 0x2E SWAP2 PUSH2 0xB6 JUMP JUMPDEST PUSH1 0x40 MLOAD DUP1 PUSH1 0x40 ADD PUSH1 0x40 MSTORE DUP1 PUSH1 0xD DUP2 MSTORE PUSH1 0x20 ADD PUSH13 0x2134B93937B1B1B79027232A1 PUSH1 0x9D SHL DUP2 MSTORE POP PUSH1 0x40 MLOAD DUP1 PUSH1 0x40 ADD PUSH1 0x40 MSTORE DUP1 PUSH1 0x5 DUP2 MSTORE PUSH1 0x20 ADD PUSH5 0x1094939195 PUSH1 0xDA SHL DUP2 MSTORE POP DUP2 PUSH0 SWAP1 DUP2 PUSH2 0x80 SWAP2 SWAP1 PUSH2 0x17B JUMP JUMPDEST POP PUSH1 0x1 PUSH2 0x8D DUP3 DUP3 PUSH2 0x17B JUMP JUMPDEST POP POP PUSH1 0x8 DUP1 SLOAD PUSH1 0x1 PUSH1 0x1 PUSH1 0xA0 SHL SUB NOT AND PUSH1 0x1 PUSH1 0x1 PUSH1 0xA0 SHL SUB SWAP4 SWAP1 SWAP4 AND SWAP3 SWAP1 SWAP3 OR SWAP1 SWAP2 SSTORE POP PUSH2 0x235 JUMP JUMPDEST PUSH0 PUSH1 0x20 DUP3 DUP5 SUB SLT ISZERO PUSH2 0xC6 JUMPI PUSH0 DUP1 REVERT JUMPDEST DUP2 MLOAD PUSH1 0x1 PUSH1 0x1 PUSH1 0xA0 SHL SUB DUP2 AND DUP2 EQ PUSH2 0xDC JUMPI PUSH0 DUP1 REVERT JUMPDEST SWAP4 SWAP3 POP POP POP JUMP JUMPDEST PUSH4 0x4E487B71 PUSH1 0xE0 SHL PUSH0 MSTORE PUSH1 0x41 PUSH1 0x4 MSTORE PUSH1 0x24 PUSH0 REVERT JUMPDEST PUSH1 0x1 DUP2 DUP2 SHR SWAP1 DUP3 AND DUP1 PUSH2 0x10B JUMPI PUSH1 0x7F DUP3 AND SWAP2 POP JUMPDEST PUSH1 0x20 DUP3 LT DUP2 SUB PUSH2 0x129 JUMPI PUSH4 0x4E487B71 PUSH1 0xE0 SHL PUSH0 MSTORE PUSH1 0x22 PUSH1 0x4 MSTORE PUSH1 0x24 PUSH0 REVERT JUMPDEST POP SWAP2 SWAP1 POP JUMP JUMPDEST PUSH1 0x1F DUP3 GT ISZERO PUSH2 0x176 JUMPI DUP1 PUSH0 MSTORE PUSH1 0x20 PUSH0 KECCAK256 PUSH1 0x1F DUP5 ADD PUSH1 0x5 SHR DUP2 ADD PUSH1 0x20 DUP6 LT ISZERO PUSH2 0x154 JUMPI POP DUP1 JUMPDEST PUSH1 0x1F DUP5 ADD PUSH1 0x5 SHR DUP3 ADD SWAP2 POP JUMPDEST DUP2 DUP2 LT ISZERO PUSH2 0x173 JUMPI PUSH0 DUP2 SSTORE PUSH1 0x1 ADD PUSH2 0x160 JUMP JUMPDEST POP POP JUMPDEST POP POP POP JUMP JUMPDEST DUP2 MLOAD PUSH1 0x1 PUSH1 0x1 PUSH1 0x40 SHL SUB DUP2 GT ISZERO PUSH2 0x194 JUMPI PUSH2 0x194 PUSH2 0xE3 JUMP JUMPDEST PUSH2 0x1A8 DUP2 PUSH2 0x1A2 DUP5 SLOAD PUSH2 0xF7 JUMP JUMPDEST DUP5 PUSH2 0x12F JUMP JUMPDEST PUSH1 0x20 PUSH1 0x1F DUP3 GT PUSH1 0x1 DUP2 EQ PUSH2 0x1DA JUMPI PUSH0 DUP4 ISZERO PUSH2 0x1C3 JUMPI POP DUP5 DUP3 ADD MLOAD JUMPDEST PUSH0 NOT PUSH1 0x3 DUP6 SWAP1 SHL SHR NOT AND PUSH1 0x1 DUP5 SWAP1 SHL OR DUP5 SSTORE PUSH2 0x173 JUMP JUMPDEST PUSH0 DUP5 DUP2 MSTORE PUSH1 0x20 DUP2 KECCAK256 PUSH1 0x1F NOT DUP6 AND SWAP2 JUMPDEST DUP3 DUP2 LT ISZERO PUSH2 0x209 JUMPI DUP8 DUP6 ADD MLOAD DUP3 SSTORE PUSH1 0x20 SWAP5 DUP6 ADD SWAP5 PUSH1 0x1 SWAP1 SWAP3 ADD SWAP2 ADD PUSH2 0x1E9 JUMP JUMPDEST POP DUP5 DUP3 LT ISZERO PUSH2 0x226 JUMPI DUP7 DUP5 ADD MLOAD PUSH0 NOT PUSH1 0x3 DUP8 SWAP1 SHL PUSH1 0xF8 AND SHR NOT AND DUP2 SSTORE JUMPDEST POP POP POP POP PUSH1 0x1 SWAP1 DUP2 SHL ADD SWAP1 SSTORE POP JUMP JUMPDEST PUSH2 0x1573 DUP1 PUSH2 0x242 PUSH0 CODECOPY PUSH0 RETURN INVALID PUSH1 0x80 PUSH1 0x40 MSTORE CALLVALUE DUP1 ISZERO PUSH2 0xF JUMPI PUSH0 DUP1 REVERT JUMPDEST POP PUSH1 0x4 CALLDATASIZE LT PUSH2 0xF0 JUMPI PUSH0 CALLDATALOAD PUSH1 0xE0 SHR DUP1 PUSH4 0x70A08231 GT PUSH2 0x93 JUMPI DUP1 PUSH4 0xC87B56DD GT PUSH2 0x63 JUMPI DUP1 PUSH4 0xC87B56DD EQ PUSH2 0x1F9 JUMPI DUP1 PUSH4 0xD85D3D27 EQ PUSH2 0x20C JUMPI DUP1 PUSH4 0xE985E9C5 EQ PUSH2 0x21F JUMPI DUP1 PUSH4 0xEF2D1746 EQ PUSH2 0x232 JUMPI PUSH0 DUP1 REVERT JUMPDEST DUP1 PUSH4 0x70A08231 EQ PUSH2 0x1AA JUMPI DUP1 PUSH4 0x95D89B41 EQ PUSH2 0x1CB JUMPI DUP1 PUSH4 0xA22CB465 EQ PUSH2 0x1D3 JUMPI DUP1 PUSH4 0xB88D4FDE EQ PUSH2 0x1E6 JUMPI PUSH0 DUP1 REVERT JUMPDEST DUP1 PUSH4 0x95EA7B3 GT PUSH2 0xCE JUMPI DUP1 PUSH4 0x95EA7B3 EQ PUSH2 0x15C JUMPI DUP1 PUSH4 0x23B872DD EQ PUSH2 0x171 JUMPI DUP1 PUSH4 0x42842E0E EQ PUSH2 0x184 JUMPI DUP1 PUSH4 0x6352211E EQ PUSH2 0x197 JUMPI PUSH0 DUP1 REVERT JUMPDEST DUP1 PUSH4 0x1FFC9A7 EQ PUSH2 0xF4 JUMPI DUP1 PUSH4 0x6FDDE03 EQ PUSH2 0x11C JUMPI DUP1 PUSH4 0x81812FC EQ PUSH2 0x131 JUMPI JUMPDEST PUSH0 DUP1 REVERT JUMPDEST PUSH2 0x107 PUSH2 0x102 CALLDATASIZE PUSH1 0x4 PUSH2 0xF84 JUMP JUMPDEST PUSH2 0x23A JUMP JUMPDEST PUSH1 0x40 MLOAD SWAP1 ISZERO ISZERO DUP2 MSTORE PUSH1 0x20 ADD JUMPDEST PUSH1 0x40 MLOAD DUP1 SWAP2 SUB SWAP1 RETURN JUMPDEST PUSH2 0x124 PUSH2 0x28B JUMP JUMPDEST PUSH1 0x40 MLOAD PUSH2 0x113 SWAP2 SWAP1 PUSH2 0xFCD JUMP JUMPDEST PUSH2 0x144 PUSH2 0x13F CALLDATASIZE PUSH1 0x4 PUSH2 0xFDF JUMP JUMPDEST PUSH2 0x31A JUMP JUMPDEST PUSH1 0x40 MLOAD PUSH1 0x1 PUSH1 0x1 PUSH1 0xA0 SHL SUB SWAP1 SWAP2 AND DUP2 MSTORE PUSH1 0x20 ADD PUSH2 0x113 JUMP JUMPDEST PUSH2 0x16F PUSH2 0x16A CALLDATASIZE PUSH1 0x4 PUSH2 0x1011 JUMP JUMPDEST PUSH2 0x33F JUMP JUMPDEST STOP JUMPDEST PUSH2 0x16F PUSH2 0x17F CALLDATASIZE PUSH1 0x4 PUSH2 0x1039 JUMP JUMPDEST PUSH2 0x458 JUMP JUMPDEST PUSH2 0x16F PUSH2 0x192 CALLDATASIZE PUSH1 0x4 PUSH2 0x1039 JUMP JUMPDEST PUSH2 0x489 JUMP JUMPDEST PUSH2 0x144 PUSH2 0x1A5 CALLDATASIZE PUSH1 0x4 PUSH2 0xFDF JUMP JUMPDEST PUSH2 0x4A3 JUMP JUMPDEST PUSH2 0x1BD PUSH2 0x1B8 CALLDATASIZE PUSH1 0x4 PUSH2 0x1073 JUMP JUMPDEST PUSH2 0x502 JUMP JUMPDEST PUSH1 0x40 MLOAD SWAP1 DUP2 MSTORE PUSH1 0x20 ADD PUSH2 0x113 JUMP JUMPDEST PUSH2 0x124 PUSH2 0x586 JUMP JUMPDEST PUSH2 0x16F PUSH2 0x1E1 CALLDATASIZE PUSH1 0x4 PUSH2 0x108C JUMP JUMPDEST PUSH2 0x595 JUMP JUMPDEST PUSH2 0x16F PUSH2 0x1F4 CALLDATASIZE PUSH1 0x4 PUSH2 0x1150 JUMP JUMPDEST PUSH2 0x5A4 JUMP JUMPDEST PUSH2 0x124 PUSH2 0x207 CALLDATASIZE PUSH1 0x4 PUSH2 0xFDF JUMP JUMPDEST PUSH2 0x5DC JUMP JUMPDEST PUSH2 0x1BD PUSH2 0x21A CALLDATASIZE PUSH1 0x4 PUSH2 0x11C7 JUMP JUMPDEST PUSH2 0x6E6 JUMP JUMPDEST PUSH2 0x107 PUSH2 0x22D CALLDATASIZE PUSH1 0x4 PUSH2 0x120C JUMP JUMPDEST PUSH2 0x737 JUMP JUMPDEST PUSH2 0x1BD PUSH2 0x764 JUMP JUMPDEST PUSH0 PUSH1 0x1 PUSH1 0x1 PUSH1 0xE0 SHL SUB NOT DUP3 AND PUSH4 0x80AC58CD PUSH1 0xE0 SHL EQ DUP1 PUSH2 0x26A JUMPI POP PUSH1 0x1 PUSH1 0x1 PUSH1 0xE0 SHL SUB NOT DUP3 AND PUSH4 0x5B5E139F PUSH1 0xE0 SHL EQ JUMPDEST DUP1 PUSH2 0x285 JUMPI POP PUSH4 0x1FFC9A7 PUSH1 0xE0 SHL PUSH1 0x1 PUSH1 0x1 PUSH1 0xE0 SHL SUB NOT DUP4 AND EQ JUMPDEST SWAP3 SWAP2 POP POP JUMP JUMPDEST PUSH1 0x60 PUSH0 DUP1 SLOAD PUSH2 0x299 SWAP1 PUSH2 0x123D JUMP JUMPDEST DUP1 PUSH1 0x1F ADD PUSH1 0x20 DUP1 SWAP2 DIV MUL PUSH1 0x20 ADD PUSH1 0x40 MLOAD SWAP1 DUP2 ADD PUSH1 0x40 MSTORE DUP1 SWAP3 SWAP2 SWAP1 DUP2 DUP2 MSTORE PUSH1 0x20 ADD DUP3 DUP1 SLOAD PUSH2 0x2C5 SWAP1 PUSH2 0x123D JUMP JUMPDEST DUP1 ISZERO PUSH2 0x310 JUMPI DUP1 PUSH1 0x1F LT PUSH2 0x2E7 JUMPI PUSH2 0x100 DUP1 DUP4 SLOAD DIV MUL DUP4 MSTORE SWAP2 PUSH1 0x20 ADD SWAP2 PUSH2 0x310 JUMP JUMPDEST DUP3 ADD SWAP2 SWAP1 PUSH0 MSTORE PUSH1 0x20 PUSH0 KECCAK256 SWAP1 JUMPDEST DUP2 SLOAD DUP2 MSTORE SWAP1 PUSH1 0x1 ADD SWAP1 PUSH1 0x20 ADD DUP1 DUP4 GT PUSH2 0x2F3 JUMPI DUP3 SWAP1 SUB PUSH1 0x1F AND DUP3 ADD SWAP2 JUMPDEST POP POP POP POP POP SWAP1 POP SWAP1 JUMP JUMPDEST PUSH0 PUSH2 0x324 DUP3 PUSH2 0x773 JUMP JUMPDEST POP PUSH0 SWAP1 DUP2 MSTORE PUSH1 0x4 PUSH1 0x20 MSTORE PUSH1 0x40 SWAP1 KECCAK256 SLOAD PUSH1 0x1 PUSH1 0x1 PUSH1 0xA0 SHL SUB AND SWAP1 JUMP JUMPDEST PUSH0 PUSH2 0x349 DUP3 PUSH2 0x4A3 JUMP JUMPDEST SWAP1 POP DUP1 PUSH1 0x1 PUSH1 0x1 PUSH1 0xA0 SHL SUB AND DUP4 PUSH1 0x1 PUSH1 0x1 PUSH1 0xA0 SHL SUB AND SUB PUSH2 0x3BB JUMPI PUSH1 0x40 MLOAD PUSH3 0x461BCD PUSH1 0xE5 SHL DUP2 MSTORE PUSH1 0x20 PUSH1 0x4 DUP3 ADD MSTORE PUSH1 0x21 PUSH1 0x24 DUP3 ADD MSTORE PUSH32 0x4552433732313A20617070726F76616C20746F2063757272656E74206F776E65 PUSH1 0x44 DUP3 ADD MSTORE PUSH1 0x39 PUSH1 0xF9 SHL PUSH1 0x64 DUP3 ADD MSTORE PUSH1 0x84 ADD JUMPDEST PUSH1 0x40 MLOAD DUP1 SWAP2 SUB SWAP1 REVERT JUMPDEST CALLER PUSH1 0x1 PUSH1 0x1 PUSH1 0xA0 SHL SUB DUP3 AND EQ DUP1 PUSH2 0x3D7 JUMPI POP PUSH2 0x3D7 DUP2 CALLER PUSH2 0x737 JUMP JUMPDEST PUSH2 0x449 JUMPI PUSH1 0x40 MLOAD PUSH3 0x461BCD PUSH1 0xE5 SHL DUP2 MSTORE PUSH1 0x20 PUSH1 0x4 DUP3 ADD MSTORE PUSH1 0x3E PUSH1 0x24 DUP3 ADD MSTORE PUSH32 0x4552433732313A20617070726F76652063616C6C6572206973206E6F7420746F PUSH1 0x44 DUP3 ADD MSTORE PUSH32 0x6B656E206F776E6572206E6F7220617070726F76656420666F7220616C6C0000 PUSH1 0x64 DUP3 ADD MSTORE PUSH1 0x84 ADD PUSH2 0x3B2 JUMP JUMPDEST PUSH2 0x453 DUP4 DUP4 PUSH2 0x7D4 JUMP JUMPDEST POP POP POP JUMP JUMPDEST PUSH2 0x462 CALLER DUP3 PUSH2 0x841 JUMP JUMPDEST PUSH2 0x47E JUMPI PUSH1 0x40 MLOAD PUSH3 0x461BCD PUSH1 0xE5 SHL DUP2 MSTORE PUSH1 0x4 ADD PUSH2 0x3B2 SWAP1 PUSH2 0x1275 JUMP JUMPDEST PUSH2 0x453 DUP4 DUP4 DUP4 PUSH2 0x89E JUMP JUMPDEST PUSH2 0x453 DUP4 DUP4 DUP4 PUSH1 0x40 MLOAD DUP1 PUSH1 0x20 ADD PUSH1 0x40 MSTORE DUP1 PUSH0 DUP2 MSTORE POP PUSH2 0x5A4 JUMP JUMPDEST PUSH0 DUP2 DUP2 MSTORE PUSH1 0x2 PUSH1 0x20 MSTORE PUSH1 0x40 DUP2 KECCAK256 SLOAD PUSH1 0x1 PUSH1 0x1 PUSH1 0xA0 SHL SUB AND DUP1 PUSH2 0x285 JUMPI PUSH1 0x40 MLOAD PUSH3 0x461BCD PUSH1 0xE5 SHL DUP2 MSTORE PUSH1 0x20 PUSH1 0x4 DUP3 ADD MSTORE PUSH1 0x18 PUSH1 0x24 DUP3 ADD MSTORE PUSH24 0x115490CDCC8C4E881A5B9D985B1A59081D1BDAD95B881251 PUSH1 0x42 SHL PUSH1 0x44 DUP3 ADD MSTORE PUSH1 0x64 ADD PUSH2 0x3B2 JUMP JUMPDEST PUSH0 PUSH1 0x1 PUSH1 0x1 PUSH1 0xA0 SHL SUB DUP3 AND PUSH2 0x56B JUMPI PUSH1 0x40 MLOAD PUSH3 0x461BCD PUSH1 0xE5 SHL DUP2 MSTORE PUSH1 0x20 PUSH1 0x4 DUP3 ADD MSTORE PUSH1 0x29 PUSH1 0x24 DUP3 ADD MSTORE PUSH32 0x4552433732313A2061646472657373207A65726F206973206E6F742061207661 PUSH1 0x44 DUP3 ADD MSTORE PUSH9 0x3634B21037BBB732B9 PUSH1 0xB9 SHL PUSH1 0x64 DUP3 ADD MSTORE PUSH1 0x84 ADD PUSH2 0x3B2 JUMP JUMPDEST POP PUSH1 0x1 PUSH1 0x1 PUSH1 0xA0 SHL SUB AND PUSH0 SWAP1 DUP2 MSTORE PUSH1 0x3 PUSH1 0x20 MSTORE PUSH1 0x40 SWAP1 KECCAK256 SLOAD SWAP1 JUMP JUMPDEST PUSH1 0x60 PUSH1 0x1 DUP1 SLOAD PUSH2 0x299 SWAP1 PUSH2 0x123D JUMP JUMPDEST PUSH2 0x5A0 CALLER DUP4 DUP4 PUSH2 0xA36 JUMP JUMPDEST POP POP JUMP JUMPDEST PUSH2 0x5AE CALLER DUP4 PUSH2 0x841 JUMP JUMPDEST PUSH2 0x5CA JUMPI PUSH1 0x40 MLOAD PUSH3 0x461BCD PUSH1 0xE5 SHL DUP2 MSTORE PUSH1 0x4 ADD PUSH2 0x3B2 SWAP1 PUSH2 0x1275 JUMP JUMPDEST PUSH2 0x5D6 DUP5 DUP5 DUP5 DUP5 PUSH2 0xB03 JUMP JUMPDEST POP POP POP POP JUMP JUMPDEST PUSH1 0x60 PUSH2 0x5E7 DUP3 PUSH2 0x773 JUMP JUMPDEST PUSH0 DUP3 DUP2 MSTORE PUSH1 0x6 PUSH1 0x20 MSTORE PUSH1 0x40 DUP2 KECCAK256 DUP1 SLOAD PUSH2 0x5FF SWAP1 PUSH2 0x123D JUMP JUMPDEST DUP1 PUSH1 0x1F ADD PUSH1 0x20 DUP1 SWAP2 DIV MUL PUSH1 0x20 ADD PUSH1 0x40 MLOAD SWAP1 DUP2 ADD PUSH1 0x40 MSTORE DUP1 SWAP3 SWAP2 SWAP1 DUP2 DUP2 MSTORE PUSH1 0x20 ADD DUP3 DUP1 SLOAD PUSH2 0x62B SWAP1 PUSH2 0x123D JUMP JUMPDEST DUP1 ISZERO PUSH2 0x676 JUMPI DUP1 PUSH1 0x1F LT PUSH2 0x64D JUMPI PUSH2 0x100 DUP1 DUP4 SLOAD DIV MUL DUP4 MSTORE SWAP2 PUSH1 0x20 ADD SWAP2 PUSH2 0x676 JUMP JUMPDEST DUP3 ADD SWAP2 SWAP1 PUSH0 MSTORE PUSH1 0x20 PUSH0 KECCAK256 SWAP1 JUMPDEST DUP2 SLOAD DUP2 MSTORE SWAP1 PUSH1 0x1 ADD SWAP1 PUSH1 0x20 ADD DUP1 DUP4 GT PUSH2 0x659 JUMPI DUP3 SWAP1 SUB PUSH1 0x1F AND DUP3 ADD SWAP2 JUMPDEST POP POP POP POP POP SWAP1 POP PUSH0 PUSH2 0x692 PUSH1 0x40 DUP1 MLOAD PUSH1 0x20 DUP2 ADD SWAP1 SWAP2 MSTORE PUSH0 DUP2 MSTORE SWAP1 JUMP JUMPDEST SWAP1 POP DUP1 MLOAD PUSH0 SUB PUSH2 0x6A3 JUMPI POP SWAP3 SWAP2 POP POP JUMP JUMPDEST DUP2 MLOAD ISZERO PUSH2 0x6D5 JUMPI DUP1 DUP3 PUSH1 0x40 MLOAD PUSH1 0x20 ADD PUSH2 0x6BD SWAP3 SWAP2 SWAP1 PUSH2 0x12DA JUMP JUMPDEST PUSH1 0x40 MLOAD PUSH1 0x20 DUP2 DUP4 SUB SUB DUP2 MSTORE SWAP1 PUSH1 0x40 MSTORE SWAP3 POP POP POP SWAP2 SWAP1 POP JUMP JUMPDEST PUSH2 0x6DE DUP5 PUSH2 0xB36 JUMP JUMPDEST SWAP5 SWAP4 POP POP POP POP JUMP JUMPDEST PUSH0 DUP1 PUSH2 0x6F1 PUSH1 0x7 SLOAD SWAP1 JUMP JUMPDEST SWAP1 POP PUSH2 0x6FD CALLER DUP3 PUSH2 0xBA5 JUMP JUMPDEST PUSH2 0x707 DUP2 DUP5 PUSH2 0xCE4 JUMP JUMPDEST PUSH1 0x8 SLOAD PUSH2 0x71E SWAP1 PUSH1 0x1 PUSH1 0x1 PUSH1 0xA0 SHL SUB AND PUSH1 0x1 PUSH2 0x595 JUMP JUMPDEST PUSH2 0x72C PUSH1 0x7 DUP1 SLOAD PUSH1 0x1 ADD SWAP1 SSTORE JUMP JUMPDEST PUSH1 0x7 SLOAD JUMPDEST SWAP4 SWAP3 POP POP POP JUMP JUMPDEST PUSH1 0x1 PUSH1 0x1 PUSH1 0xA0 SHL SUB SWAP2 DUP3 AND PUSH0 SWAP1 DUP2 MSTORE PUSH1 0x5 PUSH1 0x20 SWAP1 DUP2 MSTORE PUSH1 0x40 DUP1 DUP4 KECCAK256 SWAP4 SWAP1 SWAP5 AND DUP3 MSTORE SWAP2 SWAP1 SWAP2 MSTORE KECCAK256 SLOAD PUSH1 0xFF AND SWAP1 JUMP JUMPDEST PUSH0 PUSH2 0x76E PUSH1 0x7 SLOAD SWAP1 JUMP JUMPDEST SWAP1 POP SWAP1 JUMP JUMPDEST PUSH0 DUP2 DUP2 MSTORE PUSH1 0x2 PUSH1 0x20 MSTORE PUSH1 0x40 SWAP1 KECCAK256 SLOAD PUSH1 0x1 PUSH1 0x1 PUSH1 0xA0 SHL SUB AND PUSH2 0x7D1 JUMPI PUSH1 0x40 MLOAD PUSH3 0x461BCD PUSH1 0xE5 SHL DUP2 MSTORE PUSH1 0x20 PUSH1 0x4 DUP3 ADD MSTORE PUSH1 0x18 PUSH1 0x24 DUP3 ADD MSTORE PUSH24 0x115490CDCC8C4E881A5B9D985B1A59081D1BDAD95B881251 PUSH1 0x42 SHL PUSH1 0x44 DUP3 ADD MSTORE PUSH1 0x64 ADD PUSH2 0x3B2 JUMP JUMPDEST POP JUMP JUMPDEST PUSH0 DUP2 DUP2 MSTORE PUSH1 0x4 PUSH1 0x20 MSTORE PUSH1 0x40 SWAP1 KECCAK256 DUP1 SLOAD PUSH1 0x1 PUSH1 0x1 PUSH1 0xA0 SHL SUB NOT AND PUSH1 0x1 PUSH1 0x1 PUSH1 0xA0 SHL SUB DUP5 AND SWAP1 DUP2 OR SWAP1 SWAP2 SSTORE DUP2 SWAP1 PUSH2 0x808 DUP3 PUSH2 0x4A3 JUMP JUMPDEST PUSH1 0x1 PUSH1 0x1 PUSH1 0xA0 SHL SUB AND PUSH32 0x8C5BE1E5EBEC7D5BD14F71427D1E84F3DD0314C0F7B2291E5B200AC8C7C3B925 PUSH1 0x40 MLOAD PUSH1 0x40 MLOAD DUP1 SWAP2 SUB SWAP1 LOG4 POP POP JUMP JUMPDEST PUSH0 DUP1 PUSH2 0x84C DUP4 PUSH2 0x4A3 JUMP JUMPDEST SWAP1 POP DUP1 PUSH1 0x1 PUSH1 0x1 PUSH1 0xA0 SHL SUB AND DUP5 PUSH1 0x1 PUSH1 0x1 PUSH1 0xA0 SHL SUB AND EQ DUP1 PUSH2 0x873 JUMPI POP PUSH2 0x873 DUP2 DUP6 PUSH2 0x737 JUMP JUMPDEST DUP1 PUSH2 0x6DE JUMPI POP DUP4 PUSH1 0x1 PUSH1 0x1 PUSH1 0xA0 SHL SUB AND PUSH2 0x88C DUP5 PUSH2 0x31A JUMP JUMPDEST PUSH1 0x1 PUSH1 0x1 PUSH1 0xA0 SHL SUB AND EQ SWAP5 SWAP4 POP POP POP POP JUMP JUMPDEST DUP3 PUSH1 0x1 PUSH1 0x1 PUSH1 0xA0 SHL SUB AND PUSH2 0x8B1 DUP3 PUSH2 0x4A3 JUMP JUMPDEST PUSH1 0x1 PUSH1 0x1 PUSH1 0xA0 SHL SUB AND EQ PUSH2 0x915 JUMPI PUSH1 0x40 MLOAD PUSH3 0x461BCD PUSH1 0xE5 SHL DUP2 MSTORE PUSH1 0x20 PUSH1 0x4 DUP3 ADD MSTORE PUSH1 0x25 PUSH1 0x24 DUP3 ADD MSTORE PUSH32 0x4552433732313A207472616E736665722066726F6D20696E636F727265637420 PUSH1 0x44 DUP3 ADD MSTORE PUSH5 0x37BBB732B9 PUSH1 0xD9 SHL PUSH1 0x64 DUP3 ADD MSTORE PUSH1 0x84 ADD PUSH2 0x3B2 JUMP JUMPDEST PUSH1 0x1 PUSH1 0x1 PUSH1 0xA0 SHL SUB DUP3 AND PUSH2 0x977 JUMPI PUSH1 0x40 MLOAD PUSH3 0x461BCD PUSH1 0xE5 SHL DUP2 MSTORE PUSH1 0x20 PUSH1 0x4 DUP3 ADD MSTORE PUSH1 0x24 DUP1 DUP3 ADD MSTORE PUSH32 0x4552433732313A207472616E7366657220746F20746865207A65726F20616464 PUSH1 0x44 DUP3 ADD MSTORE PUSH4 0x72657373 PUSH1 0xE0 SHL PUSH1 0x64 DUP3 ADD MSTORE PUSH1 0x84 ADD PUSH2 0x3B2 JUMP JUMPDEST PUSH2 0x981 PUSH0 DUP3 PUSH2 0x7D4 JUMP JUMPDEST PUSH1 0x1 PUSH1 0x1 PUSH1 0xA0 SHL SUB DUP4 AND PUSH0 SWAP1 DUP2 MSTORE PUSH1 0x3 PUSH1 0x20 MSTORE PUSH1 0x40 DUP2 KECCAK256 DUP1 SLOAD PUSH1 0x1 SWAP3 SWAP1 PUSH2 0x9A9 SWAP1 DUP5 SWAP1 PUSH2 0x1302 JUMP JUMPDEST SWAP1 SWAP2 SSTORE POP POP PUSH1 0x1 PUSH1 0x1 PUSH1 0xA0 SHL SUB DUP3 AND PUSH0 SWAP1 DUP2 MSTORE PUSH1 0x3 PUSH1 0x20 MSTORE PUSH1 0x40 DUP2 KECCAK256 DUP1 SLOAD PUSH1 0x1 SWAP3 SWAP1 PUSH2 0x9D6 SWAP1 DUP5 SWAP1 PUSH2 0x1315 JUMP JUMPDEST SWAP1 SWAP2 SSTORE POP POP PUSH0 DUP2 DUP2 MSTORE PUSH1 0x2 PUSH1 0x20 MSTORE PUSH1 0x40 DUP1 DUP3 KECCAK256 DUP1 SLOAD PUSH1 0x1 PUSH1 0x1 PUSH1 0xA0 SHL SUB NOT AND PUSH1 0x1 PUSH1 0x1 PUSH1 0xA0 SHL SUB DUP7 DUP2 AND SWAP2 DUP3 OR SWAP1 SWAP3 SSTORE SWAP2 MLOAD DUP5 SWAP4 SWAP2 DUP8 AND SWAP2 PUSH32 0xDDF252AD1BE2C89B69C2B068FC378DAA952BA7F163C4A11628F55A4DF523B3EF SWAP2 LOG4 POP POP POP JUMP JUMPDEST DUP2 PUSH1 0x1 PUSH1 0x1 PUSH1 0xA0 SHL SUB AND DUP4 PUSH1 0x1 PUSH1 0x1 PUSH1 0xA0 SHL SUB AND SUB PUSH2 0xA97 JUMPI PUSH1 0x40 MLOAD PUSH3 0x461BCD PUSH1 0xE5 SHL DUP2 MSTORE PUSH1 0x20 PUSH1 0x4 DUP3 ADD MSTORE PUSH1 0x19 PUSH1 0x24 DUP3 ADD MSTORE PUSH32 0x4552433732313A20617070726F766520746F2063616C6C657200000000000000 PUSH1 0x44 DUP3 ADD MSTORE PUSH1 0x64 ADD PUSH2 0x3B2 JUMP JUMPDEST PUSH1 0x1 PUSH1 0x1 PUSH1 0xA0 SHL SUB DUP4 DUP2 AND PUSH0 DUP2 DUP2 MSTORE PUSH1 0x5 PUSH1 0x20 SWAP1 DUP2 MSTORE PUSH1 0x40 DUP1 DUP4 KECCAK256 SWAP5 DUP8 AND DUP1 DUP5 MSTORE SWAP5 DUP3 MSTORE SWAP2 DUP3 SWAP1 KECCAK256 DUP1 SLOAD PUSH1 0xFF NOT AND DUP7 ISZERO ISZERO SWAP1 DUP2 OR SWAP1 SWAP2 SSTORE SWAP2 MLOAD SWAP2 DUP3 MSTORE PUSH32 0x17307EAB39AB6107E8899845AD3D59BD9653F200F220920489CA2B5937696C31 SWAP2 ADD PUSH1 0x40 MLOAD DUP1 SWAP2 SUB SWAP1 LOG3 POP POP POP JUMP JUMPDEST PUSH2 0xB0E DUP5 DUP5 DUP5 PUSH2 0x89E JUMP JUMPDEST PUSH2 0xB1A DUP5 DUP5 DUP5 DUP5 PUSH2 0xD75 JUMP JUMPDEST PUSH2 0x5D6 JUMPI PUSH1 0x40 MLOAD PUSH3 0x461BCD PUSH1 0xE5 SHL DUP2 MSTORE PUSH1 0x4 ADD PUSH2 0x3B2 SWAP1 PUSH2 0x1328 JUMP JUMPDEST PUSH1 0x60 PUSH2 0xB41 DUP3 PUSH2 0x773 JUMP JUMPDEST PUSH0 PUSH2 0xB56 PUSH1 0x40 DUP1 MLOAD PUSH1 0x20 DUP2 ADD SWAP1 SWAP2 MSTORE PUSH0 DUP2 MSTORE SWAP1 JUMP JUMPDEST SWAP1 POP PUSH0 DUP2 MLOAD GT PUSH2 0xB74 JUMPI PUSH1 0x40 MLOAD DUP1 PUSH1 0x20 ADD PUSH1 0x40 MSTORE DUP1 PUSH0 DUP2 MSTORE POP PUSH2 0x730 JUMP JUMPDEST DUP1 PUSH2 0xB7E DUP5 PUSH2 0xE72 JUMP JUMPDEST PUSH1 0x40 MLOAD PUSH1 0x20 ADD PUSH2 0xB8F SWAP3 SWAP2 SWAP1 PUSH2 0x12DA JUMP JUMPDEST PUSH1 0x40 MLOAD PUSH1 0x20 DUP2 DUP4 SUB SUB DUP2 MSTORE SWAP1 PUSH1 0x40 MSTORE SWAP4 SWAP3 POP POP POP JUMP JUMPDEST PUSH1 0x1 PUSH1 0x1 PUSH1 0xA0 SHL SUB DUP3 AND PUSH2 0xBFB JUMPI PUSH1 0x40 MLOAD PUSH3 0x461BCD PUSH1 0xE5 SHL DUP2 MSTORE PUSH1 0x20 PUSH1 0x4 DUP3 ADD DUP2 SWAP1 MSTORE PUSH1 0x24 DUP3 ADD MSTORE PUSH32 0x4552433732313A206D696E7420746F20746865207A65726F2061646472657373 PUSH1 0x44 DUP3 ADD MSTORE PUSH1 0x64 ADD PUSH2 0x3B2 JUMP JUMPDEST PUSH0 DUP2 DUP2 MSTORE PUSH1 0x2 PUSH1 0x20 MSTORE PUSH1 0x40 SWAP1 KECCAK256 SLOAD PUSH1 0x1 PUSH1 0x1 PUSH1 0xA0 SHL SUB AND ISZERO PUSH2 0xC5F JUMPI PUSH1 0x40 MLOAD PUSH3 0x461BCD PUSH1 0xE5 SHL DUP2 MSTORE PUSH1 0x20 PUSH1 0x4 DUP3 ADD MSTORE PUSH1 0x1C PUSH1 0x24 DUP3 ADD MSTORE PUSH32 0x4552433732313A20746F6B656E20616C7265616479206D696E74656400000000 PUSH1 0x44 DUP3 ADD MSTORE PUSH1 0x64 ADD PUSH2 0x3B2 JUMP JUMPDEST PUSH1 0x1 PUSH1 0x1 PUSH1 0xA0 SHL SUB DUP3 AND PUSH0 SWAP1 DUP2 MSTORE PUSH1 0x3 PUSH1 0x20 MSTORE PUSH1 0x40 DUP2 KECCAK256 DUP1 SLOAD PUSH1 0x1 SWAP3 SWAP1 PUSH2 0xC87 SWAP1 DUP5 SWAP1 PUSH2 0x1315 JUMP JUMPDEST SWAP1 SWAP2 SSTORE POP POP PUSH0 DUP2 DUP2 MSTORE PUSH1 0x2 PUSH1 0x20 MSTORE PUSH1 0x40 DUP1 DUP3 KECCAK256 DUP1 SLOAD PUSH1 0x1 PUSH1 0x1 PUSH1 0xA0 SHL SUB NOT AND PUSH1 0x1 PUSH1 0x1 PUSH1 0xA0 SHL SUB DUP7 AND SWAP1 DUP2 OR SWAP1 SWAP2 SSTORE SWAP1 MLOAD DUP4 SWAP3 SWAP1 PUSH32 0xDDF252AD1BE2C89B69C2B068FC378DAA952BA7F163C4A11628F55A4DF523B3EF SWAP1 DUP3 SWAP1 LOG4 POP POP JUMP JUMPDEST PUSH0 DUP3 DUP2 MSTORE PUSH1 0x2 PUSH1 0x20 MSTORE PUSH1 0x40 SWAP1 KECCAK256 SLOAD PUSH1 0x1 PUSH1 0x1 PUSH1 0xA0 SHL SUB AND PUSH2 0xD5E JUMPI PUSH1 0x40 MLOAD PUSH3 0x461BCD PUSH1 0xE5 SHL DUP2 MSTORE PUSH1 0x20 PUSH1 0x4 DUP3 ADD MSTORE PUSH1 0x2E PUSH1 0x24 DUP3 ADD MSTORE PUSH32 0x45524337323155524953746F726167653A2055524920736574206F66206E6F6E PUSH1 0x44 DUP3 ADD MSTORE PUSH14 0x32BC34B9BA32B73A103A37B5B2B7 PUSH1 0x91 SHL PUSH1 0x64 DUP3 ADD MSTORE PUSH1 0x84 ADD PUSH2 0x3B2 JUMP JUMPDEST PUSH0 DUP3 DUP2 MSTORE PUSH1 0x6 PUSH1 0x20 MSTORE PUSH1 0x40 SWAP1 KECCAK256 PUSH2 0x453 DUP3 DUP3 PUSH2 0x13C5 JUMP JUMPDEST PUSH0 PUSH1 0x1 PUSH1 0x1 PUSH1 0xA0 SHL SUB DUP5 AND EXTCODESIZE ISZERO PUSH2 0xE67 JUMPI PUSH1 0x40 MLOAD PUSH4 0xA85BD01 PUSH1 0xE1 SHL DUP2 MSTORE PUSH1 0x1 PUSH1 0x1 PUSH1 0xA0 SHL SUB DUP6 AND SWAP1 PUSH4 0x150B7A02 SWAP1 PUSH2 0xDB8 SWAP1 CALLER SWAP1 DUP10 SWAP1 DUP9 SWAP1 DUP9 SWAP1 PUSH1 0x4 ADD PUSH2 0x1480 JUMP JUMPDEST PUSH1 0x20 PUSH1 0x40 MLOAD DUP1 DUP4 SUB DUP2 PUSH0 DUP8 GAS CALL SWAP3 POP POP POP DUP1 ISZERO PUSH2 0xDF2 JUMPI POP PUSH1 0x40 DUP1 MLOAD PUSH1 0x1F RETURNDATASIZE SWAP1 DUP2 ADD PUSH1 0x1F NOT AND DUP3 ADD SWAP1 SWAP3 MSTORE PUSH2 0xDEF SWAP2 DUP2 ADD SWAP1 PUSH2 0x14BC JUMP JUMPDEST PUSH1 0x1 JUMPDEST PUSH2 0xE4D JUMPI RETURNDATASIZE DUP1 DUP1 ISZERO PUSH2 0xE1F JUMPI PUSH1 0x40 MLOAD SWAP2 POP PUSH1 0x1F NOT PUSH1 0x3F RETURNDATASIZE ADD AND DUP3 ADD PUSH1 0x40 MSTORE RETURNDATASIZE DUP3 MSTORE RETURNDATASIZE PUSH0 PUSH1 0x20 DUP5 ADD RETURNDATACOPY PUSH2 0xE24 JUMP JUMPDEST PUSH1 0x60 SWAP2 POP JUMPDEST POP DUP1 MLOAD PUSH0 SUB PUSH2 0xE45 JUMPI PUSH1 0x40 MLOAD PUSH3 0x461BCD PUSH1 0xE5 SHL DUP2 MSTORE PUSH1 0x4 ADD PUSH2 0x3B2 SWAP1 PUSH2 0x1328 JUMP JUMPDEST DUP1 MLOAD DUP2 PUSH1 0x20 ADD REVERT JUMPDEST PUSH1 0x1 PUSH1 0x1 PUSH1 0xE0 SHL SUB NOT AND PUSH4 0xA85BD01 PUSH1 0xE1 SHL EQ SWAP1 POP PUSH2 0x6DE JUMP JUMPDEST POP PUSH1 0x1 SWAP5 SWAP4 POP POP POP POP JUMP JUMPDEST PUSH1 0x60 DUP2 PUSH0 SUB PUSH2 0xE98 JUMPI POP POP PUSH1 0x40 DUP1 MLOAD DUP1 DUP3 ADD SWAP1 SWAP2 MSTORE PUSH1 0x1 DUP2 MSTORE PUSH1 0x3 PUSH1 0xFC SHL PUSH1 0x20 DUP3 ADD MSTORE SWAP1 JUMP JUMPDEST DUP2 PUSH0 JUMPDEST DUP2 ISZERO PUSH2 0xEC1 JUMPI DUP1 PUSH2 0xEAB DUP2 PUSH2 0x14D7 JUMP JUMPDEST SWAP2 POP PUSH2 0xEBA SWAP1 POP PUSH1 0xA DUP4 PUSH2 0x1503 JUMP JUMPDEST SWAP2 POP PUSH2 0xE9B JUMP JUMPDEST PUSH0 DUP2 PUSH8 0xFFFFFFFFFFFFFFFF DUP2 GT ISZERO PUSH2 0xEDB JUMPI PUSH2 0xEDB PUSH2 0x10C5 JUMP JUMPDEST PUSH1 0x40 MLOAD SWAP1 DUP1 DUP3 MSTORE DUP1 PUSH1 0x1F ADD PUSH1 0x1F NOT AND PUSH1 0x20 ADD DUP3 ADD PUSH1 0x40 MSTORE DUP1 ISZERO PUSH2 0xF05 JUMPI PUSH1 0x20 DUP3 ADD DUP2 DUP1 CALLDATASIZE DUP4 CALLDATACOPY ADD SWAP1 POP JUMPDEST POP SWAP1 POP JUMPDEST DUP5 ISZERO PUSH2 0x6DE JUMPI PUSH2 0xF1A PUSH1 0x1 DUP4 PUSH2 0x1302 JUMP JUMPDEST SWAP2 POP PUSH2 0xF27 PUSH1 0xA DUP7 PUSH2 0x1516 JUMP JUMPDEST PUSH2 0xF32 SWAP1 PUSH1 0x30 PUSH2 0x1315 JUMP JUMPDEST PUSH1 0xF8 SHL DUP2 DUP4 DUP2 MLOAD DUP2 LT PUSH2 0xF47 JUMPI PUSH2 0xF47 PUSH2 0x1529 JUMP JUMPDEST PUSH1 0x20 ADD ADD SWAP1 PUSH1 0x1 PUSH1 0x1 PUSH1 0xF8 SHL SUB NOT AND SWAP1 DUP2 PUSH0 BYTE SWAP1 MSTORE8 POP PUSH2 0xF68 PUSH1 0xA DUP7 PUSH2 0x1503 JUMP JUMPDEST SWAP5 POP PUSH2 0xF09 JUMP JUMPDEST PUSH1 0x1 PUSH1 0x1 PUSH1 0xE0 SHL SUB NOT DUP2 AND DUP2 EQ PUSH2 0x7D1 JUMPI PUSH0 DUP1 REVERT JUMPDEST PUSH0 PUSH1 0x20 DUP3 DUP5 SUB SLT ISZERO PUSH2 0xF94 JUMPI PUSH0 DUP1 REVERT JUMPDEST DUP2 CALLDATALOAD PUSH2 0x730 DUP2 PUSH2 0xF6F JUMP JUMPDEST PUSH0 DUP2 MLOAD DUP1 DUP5 MSTORE DUP1 PUSH1 0x20 DUP5 ADD PUSH1 0x20 DUP7 ADD MCOPY PUSH0 PUSH1 0x20 DUP3 DUP7 ADD ADD MSTORE PUSH1 0x20 PUSH1 0x1F NOT PUSH1 0x1F DUP4 ADD AND DUP6 ADD ADD SWAP2 POP POP SWAP3 SWAP2 POP POP JUMP JUMPDEST PUSH1 0x20 DUP2 MSTORE PUSH0 PUSH2 0x730 PUSH1 0x20 DUP4 ADD DUP5 PUSH2 0xF9F JUMP JUMPDEST PUSH0 PUSH1 0x20 DUP3 DUP5 SUB SLT ISZERO PUSH2 0xFEF JUMPI PUSH0 DUP1 REVERT JUMPDEST POP CALLDATALOAD SWAP2 SWAP1 POP JUMP JUMPDEST DUP1 CALLDATALOAD PUSH1 0x1 PUSH1 0x1 PUSH1 0xA0 SHL SUB DUP2 AND DUP2 EQ PUSH2 0x100C JUMPI PUSH0 DUP1 REVERT JUMPDEST SWAP2 SWAP1 POP JUMP JUMPDEST PUSH0 DUP1 PUSH1 0x40 DUP4 DUP6 SUB SLT ISZERO PUSH2 0x1022 JUMPI PUSH0 DUP1 REVERT JUMPDEST PUSH2 0x102B DUP4 PUSH2 0xFF6 JUMP JUMPDEST SWAP5 PUSH1 0x20 SWAP4 SWAP1 SWAP4 ADD CALLDATALOAD SWAP4 POP POP POP JUMP JUMPDEST PUSH0 DUP1 PUSH0 PUSH1 0x60 DUP5 DUP7 SUB SLT ISZERO PUSH2 0x104B JUMPI PUSH0 DUP1 REVERT JUMPDEST PUSH2 0x1054 DUP5 PUSH2 0xFF6 JUMP JUMPDEST SWAP3 POP PUSH2 0x1062 PUSH1 0x20 DUP6 ADD PUSH2 0xFF6 JUMP JUMPDEST SWAP3 SWAP6 SWAP3 SWAP5 POP POP POP PUSH1 0x40 SWAP2 SWAP1 SWAP2 ADD CALLDATALOAD SWAP1 JUMP JUMPDEST PUSH0 PUSH1 0x20 DUP3 DUP5 SUB SLT ISZERO PUSH2 0x1083 JUMPI PUSH0 DUP1 REVERT JUMPDEST PUSH2 0x730 DUP3 PUSH2 0xFF6 JUMP JUMPDEST PUSH0 DUP1 PUSH1 0x40 DUP4 DUP6 SUB SLT ISZERO PUSH2 0x109D JUMPI PUSH0 DUP1 REVERT JUMPDEST PUSH2 0x10A6 DUP4 PUSH2 0xFF6 JUMP JUMPDEST SWAP2 POP PUSH1 0x20 DUP4 ADD CALLDATALOAD DUP1 ISZERO ISZERO DUP2 EQ PUSH2 0x10BA JUMPI PUSH0 DUP1 REVERT JUMPDEST DUP1 SWAP2 POP POP SWAP3 POP SWAP3 SWAP1 POP JUMP JUMPDEST PUSH4 0x4E487B71 PUSH1 0xE0 SHL PUSH0 MSTORE PUSH1 0x41 PUSH1 0x4 MSTORE PUSH1 0x24 PUSH0 REVERT JUMPDEST PUSH0 DUP1 PUSH8 0xFFFFFFFFFFFFFFFF DUP5 GT ISZERO PUSH2 0x10F3 JUMPI PUSH2 0x10F3 PUSH2 0x10C5 JUMP JUMPDEST POP PUSH1 0x40 MLOAD PUSH1 0x1F NOT PUSH1 0x1F DUP6 ADD DUP2 AND PUSH1 0x3F ADD AND DUP2 ADD DUP2 DUP2 LT PUSH8 0xFFFFFFFFFFFFFFFF DUP3 GT OR ISZERO PUSH2 0x1122 JUMPI PUSH2 0x1122 PUSH2 0x10C5 JUMP JUMPDEST PUSH1 0x40 MSTORE DUP4 DUP2 MSTORE SWAP1 POP DUP1 DUP3 DUP5 ADD DUP6 LT ISZERO PUSH2 0x1139 JUMPI PUSH0 DUP1 REVERT JUMPDEST DUP4 DUP4 PUSH1 0x20 DUP4 ADD CALLDATACOPY PUSH0 PUSH1 0x20 DUP6 DUP4 ADD ADD MSTORE POP SWAP4 SWAP3 POP POP POP JUMP JUMPDEST PUSH0 DUP1 PUSH0 DUP1 PUSH1 0x80 DUP6 DUP8 SUB SLT ISZERO PUSH2 0x1163 JUMPI PUSH0 DUP1 REVERT JUMPDEST PUSH2 0x116C DUP6 PUSH2 0xFF6 JUMP JUMPDEST SWAP4 POP PUSH2 0x117A PUSH1 0x20 DUP7 ADD PUSH2 0xFF6 JUMP JUMPDEST SWAP3 POP PUSH1 0x40 DUP6 ADD CALLDATALOAD SWAP2 POP PUSH1 0x60 DUP6 ADD CALLDATALOAD PUSH8 0xFFFFFFFFFFFFFFFF DUP2 GT ISZERO PUSH2 0x119C JUMPI PUSH0 DUP1 REVERT JUMPDEST DUP6 ADD PUSH1 0x1F DUP2 ADD DUP8 SGT PUSH2 0x11AC JUMPI PUSH0 DUP1 REVERT JUMPDEST PUSH2 0x11BB DUP8 DUP3 CALLDATALOAD PUSH1 0x20 DUP5 ADD PUSH2 0x10D9 JUMP JUMPDEST SWAP2 POP POP SWAP3 SWAP6 SWAP2 SWAP5 POP SWAP3 POP JUMP JUMPDEST PUSH0 PUSH1 0x20 DUP3 DUP5 SUB SLT ISZERO PUSH2 0x11D7 JUMPI PUSH0 DUP1 REVERT JUMPDEST DUP2 CALLDATALOAD PUSH8 0xFFFFFFFFFFFFFFFF DUP2 GT ISZERO PUSH2 0x11ED JUMPI PUSH0 DUP1 REVERT JUMPDEST DUP3 ADD PUSH1 0x1F DUP2 ADD DUP5 SGT PUSH2 0x11FD JUMPI PUSH0 DUP1 REVERT JUMPDEST PUSH2 0x6DE DUP5 DUP3 CALLDATALOAD PUSH1 0x20 DUP5 ADD PUSH2 0x10D9 JUMP JUMPDEST PUSH0 DUP1 PUSH1 0x40 DUP4 DUP6 SUB SLT ISZERO PUSH2 0x121D JUMPI PUSH0 DUP1 REVERT JUMPDEST PUSH2 0x1226 DUP4 PUSH2 0xFF6 JUMP JUMPDEST SWAP2 POP PUSH2 0x1234 PUSH1 0x20 DUP5 ADD PUSH2 0xFF6 JUMP JUMPDEST SWAP1 POP SWAP3 POP SWAP3 SWAP1 POP JUMP JUMPDEST PUSH1 0x1 DUP2 DUP2 SHR SWAP1 DUP3 AND DUP1 PUSH2 0x1251 JUMPI PUSH1 0x7F DUP3 AND SWAP2 POP JUMPDEST PUSH1 0x20 DUP3 LT DUP2 SUB PUSH2 0x126F JUMPI PUSH4 0x4E487B71 PUSH1 0xE0 SHL PUSH0 MSTORE PUSH1 0x22 PUSH1 0x4 MSTORE PUSH1 0x24 PUSH0 REVERT JUMPDEST POP SWAP2 SWAP1 POP JUMP JUMPDEST PUSH1 0x20 DUP1 DUP3 MSTORE PUSH1 0x2E SWAP1 DUP3 ADD MSTORE PUSH32 0x4552433732313A2063616C6C6572206973206E6F7420746F6B656E206F776E65 PUSH1 0x40 DUP3 ADD MSTORE PUSH14 0x1C881B9BDC88185C1C1C9BDD9959 PUSH1 0x92 SHL PUSH1 0x60 DUP3 ADD MSTORE PUSH1 0x80 ADD SWAP1 JUMP JUMPDEST PUSH0 DUP2 MLOAD DUP1 PUSH1 0x20 DUP5 ADD DUP6 MCOPY PUSH0 SWAP4 ADD SWAP3 DUP4 MSTORE POP SWAP1 SWAP2 SWAP1 POP JUMP JUMPDEST PUSH0 PUSH2 0x6DE PUSH2 0x12E8 DUP4 DUP7 PUSH2 0x12C3 JUMP JUMPDEST DUP5 PUSH2 0x12C3 JUMP JUMPDEST PUSH4 0x4E487B71 PUSH1 0xE0 SHL PUSH0 MSTORE PUSH1 0x11 PUSH1 0x4 MSTORE PUSH1 0x24 PUSH0 REVERT JUMPDEST DUP2 DUP2 SUB DUP2 DUP2 GT ISZERO PUSH2 0x285 JUMPI PUSH2 0x285 PUSH2 0x12EE JUMP JUMPDEST DUP1 DUP3 ADD DUP1 DUP3 GT ISZERO PUSH2 0x285 JUMPI PUSH2 0x285 PUSH2 0x12EE JUMP JUMPDEST PUSH1 0x20 DUP1 DUP3 MSTORE PUSH1 0x32 SWAP1 DUP3 ADD MSTORE PUSH32 0x4552433732313A207472616E7366657220746F206E6F6E204552433732315265 PUSH1 0x40 DUP3 ADD MSTORE PUSH18 0x31B2B4BB32B91034B6B83632B6B2B73A32B9 PUSH1 0x71 SHL PUSH1 0x60 DUP3 ADD MSTORE PUSH1 0x80 ADD SWAP1 JUMP JUMPDEST PUSH1 0x1F DUP3 GT ISZERO PUSH2 0x453 JUMPI DUP1 PUSH0 MSTORE PUSH1 0x20 PUSH0 KECCAK256 PUSH1 0x1F DUP5 ADD PUSH1 0x5 SHR DUP2 ADD PUSH1 0x20 DUP6 LT ISZERO PUSH2 0x139F JUMPI POP DUP1 JUMPDEST PUSH1 0x1F DUP5 ADD PUSH1 0x5 SHR DUP3 ADD SWAP2 POP JUMPDEST DUP2 DUP2 LT ISZERO PUSH2 0x13BE JUMPI PUSH0 DUP2 SSTORE PUSH1 0x1 ADD PUSH2 0x13AB JUMP JUMPDEST POP POP POP POP POP JUMP JUMPDEST DUP2 MLOAD PUSH8 0xFFFFFFFFFFFFFFFF DUP2 GT ISZERO PUSH2 0x13DF JUMPI PUSH2 0x13DF PUSH2 0x10C5 JUMP JUMPDEST PUSH2 0x13F3 DUP2 PUSH2 0x13ED DUP5 SLOAD PUSH2 0x123D JUMP JUMPDEST DUP5 PUSH2 0x137A JUMP JUMPDEST PUSH1 0x20 PUSH1 0x1F DUP3 GT PUSH1 0x1 DUP2 EQ PUSH2 0x1425 JUMPI PUSH0 DUP4 ISZERO PUSH2 0x140E JUMPI POP DUP5 DUP3 ADD MLOAD JUMPDEST PUSH0 NOT PUSH1 0x3 DUP6 SWAP1 SHL SHR NOT AND PUSH1 0x1 DUP5 SWAP1 SHL OR DUP5 SSTORE PUSH2 0x13BE JUMP JUMPDEST PUSH0 DUP5 DUP2 MSTORE PUSH1 0x20 DUP2 KECCAK256 PUSH1 0x1F NOT DUP6 AND SWAP2 JUMPDEST DUP3 DUP2 LT ISZERO PUSH2 0x1454 JUMPI DUP8 DUP6 ADD MLOAD DUP3 SSTORE PUSH1 0x20 SWAP5 DUP6 ADD SWAP5 PUSH1 0x1 SWAP1 SWAP3 ADD SWAP2 ADD PUSH2 0x1434 JUMP JUMPDEST POP DUP5 DUP3 LT ISZERO PUSH2 0x1471 JUMPI DUP7 DUP5 ADD MLOAD PUSH0 NOT PUSH1 0x3 DUP8 SWAP1 SHL PUSH1 0xF8 AND SHR NOT AND DUP2 SSTORE JUMPDEST POP POP POP POP PUSH1 0x1 SWAP1 DUP2 SHL ADD SWAP1 SSTORE POP JUMP JUMPDEST PUSH1 0x1 PUSH1 0x1 PUSH1 0xA0 SHL SUB DUP6 DUP2 AND DUP3 MSTORE DUP5 AND PUSH1 0x20 DUP3 ADD MSTORE PUSH1 0x40 DUP2 ADD DUP4 SWAP1 MSTORE PUSH1 0x80 PUSH1 0x60 DUP3 ADD DUP2 SWAP1 MSTORE PUSH0 SWAP1 PUSH2 0x14B2 SWAP1 DUP4 ADD DUP5 PUSH2 0xF9F JUMP JUMPDEST SWAP7 SWAP6 POP POP POP POP POP POP JUMP JUMPDEST PUSH0 PUSH1 0x20 DUP3 DUP5 SUB SLT ISZERO PUSH2 0x14CC JUMPI PUSH0 DUP1 REVERT JUMPDEST DUP2 MLOAD PUSH2 0x730 DUP2 PUSH2 0xF6F JUMP JUMPDEST PUSH0 PUSH1 0x1 DUP3 ADD PUSH2 0x14E8 JUMPI PUSH2 0x14E8 PUSH2 0x12EE JUMP JUMPDEST POP PUSH1 0x1 ADD SWAP1 JUMP JUMPDEST PUSH4 0x4E487B71 PUSH1 0xE0 SHL PUSH0 MSTORE PUSH1 0x12 PUSH1 0x4 MSTORE PUSH1 0x24 PUSH0 REVERT JUMPDEST PUSH0 DUP3 PUSH2 0x1511 JUMPI PUSH2 0x1511 PUSH2 0x14EF JUMP JUMPDEST POP DIV SWAP1 JUMP JUMPDEST PUSH0 DUP3 PUSH2 0x1524 JUMPI PUSH2 0x1524 PUSH2 0x14EF JUMP JUMPDEST POP MOD SWAP1 JUMP JUMPDEST PUSH4 0x4E487B71 PUSH1 0xE0 SHL PUSH0 MSTORE PUSH1 0x32 PUSH1 0x4 MSTORE PUSH1 0x24 PUSH0 REVERT INVALID LOG2 PUSH5 0x6970667358 0x22 SLT KECCAK256 0xBD GASPRICE SWAP14 0x29 0xDF DIV PUSH8 0x57B2DD9BBB14C33B DUP10 NUMBER CALLVALUE 0xC9 0xDE RETURNDATASIZE 0xF6 ORIGIN SSTORE 0xC2 DUP2 0xD7 0xB0 MUL 0x4C SWAP1 0xBB PUSH5 0x736F6C6343 STOP ADDMOD BYTE STOP CALLER "
				},
				"gasEstimates": {
					"creation": {
						"codeDepositCost": "1098200",
						"executionCost": "infinite",
						"totalCost": "infinite"
					},
					"external": {
						"approve(address,uint256)": "infinite",
						"balanceOf(address)": "2608",
						"getApproved(uint256)": "4787",
						"getCurrentToken()": "2416",
						"isApprovedForAll(address,address)": "infinite",
						"mint(string)": "infinite",
						"name()": "infinite",
						"ownerOf(uint256)": "2624",
						"safeTransferFrom(address,address,uint256)": "infinite",
						"safeTransferFrom(address,address,uint256,bytes)": "infinite",
						"setApprovalForAll(address,bool)": "26747",
						"supportsInterface(bytes4)": "531",
						"symbol()": "infinite",
						"tokenURI(uint256)": "infinite",
						"transferFrom(address,address,uint256)": "infinite"
					}
				},
				"methodIdentifiers": {
					"approve(address,uint256)": "095ea7b3",
					"balanceOf(address)": "70a08231",
					"getApproved(uint256)": "081812fc",
					"getCurrentToken()": "ef2d1746",
					"isApprovedForAll(address,address)": "e985e9c5",
					"mint(string)": "d85d3d27",
					"name()": "06fdde03",
					"ownerOf(uint256)": "6352211e",
					"safeTransferFrom(address,address,uint256)": "42842e0e",
					"safeTransferFrom(address,address,uint256,bytes)": "b88d4fde",
					"setApprovalForAll(address,bool)": "a22cb465",
					"supportsInterface(bytes4)": "01ffc9a7",
					"symbol()": "95d89b41",
					"tokenURI(uint256)": "c87b56dd",
					"transferFrom(address,address,uint256)": "23b872dd"
				}
			},
			"storageLayout": {
				"storage": [
					{
						"astId": 25,
						"contract": "contracts/NFT.sol:NFT",
						"label": "_name",
						"offset": 0,
						"slot": "0",
						"type": "t_string_storage"
					},
					{
						"astId": 27,
						"contract": "contracts/NFT.sol:NFT",
						"label": "_symbol",
						"offset": 0,
						"slot": "1",
						"type": "t_string_storage"
					},
					{
						"astId": 31,
						"contract": "contracts/NFT.sol:NFT",
						"label": "_owners",
						"offset": 0,
						"slot": "2",
						"type": "t_mapping(t_uint256,t_address)"
					},
					{
						"astId": 35,
						"contract": "contracts/NFT.sol:NFT",
						"label": "_balances",
						"offset": 0,
						"slot": "3",
						"type": "t_mapping(t_address,t_uint256)"
					},
					{
						"astId": 39,
						"contract": "contracts/NFT.sol:NFT",
						"label": "_tokenApprovals",
						"offset": 0,
						"slot": "4",
						"type": "t_mapping(t_uint256,t_address)"
					},
					{
						"astId": 45,
						"contract": "contracts/NFT.sol:NFT",
						"label": "_operatorApprovals",
						"offset": 0,
						"slot": "5",
						"type": "t_mapping(t_address,t_mapping(t_address,t_bool))"
					},
					{
						"astId": 1013,
						"contract": "contracts/NFT.sol:NFT",
						"label": "_tokenURIs",
						"offset": 0,
						"slot": "6",
						"type": "t_mapping(t_uint256,t_string_storage)"
					},
					{
						"astId": 1819,
						"contract": "contracts/NFT.sol:NFT",
						"label": "_tokenIds",
						"offset": 0,
						"slot": "7",
						"type": "t_struct(Counter)1475_storage"
					},
					{
						"astId": 1821,
						"contract": "contracts/NFT.sol:NFT",
						"label": "marketplaceContract",
						"offset": 0,
						"slot": "8",
						"type": "t_address"
					}
				],
				"types": {
					"t_address": {
						"encoding": "inplace",
						"label": "address",
						"numberOfBytes": "20"
					},
					"t_bool": {
						"encoding": "inplace",
						"label": "bool",
						"numberOfBytes": "1"
					},
					"t_mapping(t_address,t_bool)": {
						"encoding": "mapping",
						"key": "t_address",
						"label": "mapping(address => bool)",
						"numberOfBytes": "32",
						"value": "t_bool"
					},
					"t_mapping(t_address,t_mapping(t_address,t_bool))": {
						"encoding": "mapping",
						"key": "t_address",
						"label": "mapping(address => mapping(address => bool))",
						"numberOfBytes": "32",
						"value": "t_mapping(t_address,t_bool)"
					},
					"t_mapping(t_address,t_uint256)": {
						"encoding": "mapping",
						"key": "t_address",
						"label": "mapping(address => uint256)",
						"numberOfBytes": "32",
						"value": "t_uint256"
					},
					"t_mapping(t_uint256,t_address)": {
						"encoding": "mapping",
						"key": "t_uint256",
						"label": "mapping(uint256 => address)",
						"numberOfBytes": "32",
						"value": "t_address"
					},
					"t_mapping(t_uint256,t_string_storage)": {
						"encoding": "mapping",
						"key": "t_uint256",
						"label": "mapping(uint256 => string)",
						"numberOfBytes": "32",
						"value": "t_string_storage"
					},
					"t_string_storage": {
						"encoding": "bytes",
						"label": "string",
						"numberOfBytes": "32"
					},
					"t_struct(Counter)1475_storage": {
						"encoding": "inplace",
						"label": "struct Counters.Counter",
						"members": [
							{
								"astId": 1474,
								"contract": "contracts/NFT.sol:NFT",
								"label": "_value",
								"offset": 0,
								"slot": "0",
								"type": "t_uint256"
							}
						],
						"numberOfBytes": "32"
					},
					"t_uint256": {
						"encoding": "inplace",
						"label": "uint256",
						"numberOfBytes": "32"
					}
				}
			},
			"userdoc": {
				"kind": "user",
				"methods": {},
				"version": 1
			}
		}
	}
}