{
	"contracts/Marketplace.sol": {
		"Marketplace": {
			"abi": [
				{
					"inputs": [],
					"stateMutability": "nonpayable",
					"type": "constructor"
				},
				{
					"anonymous": false,
					"inputs": [
						{
							"indexed": false,
							"internalType": "address",
							"name": "nftContract",
							"type": "address"
						},
						{
							"indexed": false,
							"internalType": "uint256",
							"name": "tokenId",
							"type": "uint256"
						},
						{
							"indexed": false,
							"internalType": "address",
							"name": "seller",
							"type": "address"
						},
						{
							"indexed": false,
							"internalType": "address",
							"name": "owner",
							"type": "address"
						},
						{
							"indexed": false,
							"internalType": "uint256",
							"name": "price",
							"type": "uint256"
						}
					],
					"name": "NFTListed",
					"type": "event"
				},
				{
					"anonymous": false,
					"inputs": [
						{
							"indexed": false,
							"internalType": "address",
							"name": "nftContract",
							"type": "address"
						},
						{
							"indexed": false,
							"internalType": "uint256",
							"name": "tokenId",
							"type": "uint256"
						},
						{
							"indexed": false,
							"internalType": "address",
							"name": "seller",
							"type": "address"
						},
						{
							"indexed": false,
							"internalType": "address",
							"name": "owner",
							"type": "address"
						},
						{
							"indexed": false,
							"internalType": "uint256",
							"name": "price",
							"type": "uint256"
						}
					],
					"name": "NFTSold",
					"type": "event"
				},
				{
					"inputs": [],
					"name": "LISTING_FEE",
					"outputs": [
						{
							"internalType": "uint256",
							"name": "",
							"type": "uint256"
						}
					],
					"stateMutability": "view",
					"type": "function"
				},
				{
					"inputs": [
						{
							"internalType": "address",
							"name": "_nftContract",
							"type": "address"
						},
						{
							"internalType": "uint256",
							"name": "_tokenId",
							"type": "uint256"
						}
					],
					"name": "buyNFT",
					"outputs": [],
					"stateMutability": "payable",
					"type": "function"
				},
				{
					"inputs": [],
					"name": "getItemsCount",
					"outputs": [
						{
							"internalType": "uint256",
							"name": "",
							"type": "uint256"
						}
					],
					"stateMutability": "view",
					"type": "function"
				},
				{
					"inputs": [],
					"name": "getItemsSold",
					"outputs": [
						{
							"internalType": "uint256",
							"name": "",
							"type": "uint256"
						}
					],
					"stateMutability": "view",
					"type": "function"
				},
				{
					"inputs": [],
					"name": "getMarketPlaceBalance",
					"outputs": [
						{
							"internalType": "uint256",
							"name": "",
							"type": "uint256"
						}
					],
					"stateMutability": "view",
					"type": "function"
				},
				{
					"inputs": [
						{
							"internalType": "uint256",
							"name": "_tokenId",
							"type": "uint256"
						}
					],
					"name": "getTokenForId",
					"outputs": [
						{
							"components": [
								{
									"internalType": "address",
									"name": "nftContract",
									"type": "address"
								},
								{
									"internalType": "uint256",
									"name": "tokenId",
									"type": "uint256"
								},
								{
									"internalType": "address payable",
									"name": "seller",
									"type": "address"
								},
								{
									"internalType": "address payable",
									"name": "owner",
									"type": "address"
								},
								{
									"internalType": "string",
									"name": "tokenURI",
									"type": "string"
								},
								{
									"internalType": "string",
									"name": "name",
									"type": "string"
								},
								{
									"internalType": "uint256",
									"name": "price",
									"type": "uint256"
								},
								{
									"internalType": "bool",
									"name": "isListed",
									"type": "bool"
								}
							],
							"internalType": "struct Marketplace.Token",
							"name": "",
							"type": "tuple"
						}
					],
					"stateMutability": "view",
					"type": "function"
				},
				{
					"inputs": [
						{
							"internalType": "address",
							"name": "_nftContract",
							"type": "address"
						},
						{
							"internalType": "uint256",
							"name": "_tokenId",
							"type": "uint256"
						},
						{
							"internalType": "string",
							"name": "_name",
							"type": "string"
						},
						{
							"internalType": "string",
							"name": "_tokenURI",
							"type": "string"
						},
						{
							"internalType": "uint256",
							"name": "_price",
							"type": "uint256"
						}
					],
					"name": "listNFT",
					"outputs": [],
					"stateMutability": "payable",
					"type": "function"
				},
				{
					"inputs": [
						{
							"internalType": "address",
							"name": "_nftContract",
							"type": "address"
						},
						{
							"internalType": "uint256",
							"name": "_tokenId",
							"type": "uint256"
						},
						{
							"internalType": "uint256",
							"name": "_newPrice",
							"type": "uint256"
						}
					],
					"name": "resellNFT",
					"outputs": [],
					"stateMutability": "payable",
					"type": "function"
				}
			],
			"devdoc": {
				"kind": "dev",
				"methods": {},
				"version": 1
			},
			"evm": {
				"assembly": "    /* \"contracts/Marketplace.sol\":238:3803  contract Marketplace is ReentrancyGuard {... */\n  mstore(0x40, 0x80)\n    /* \"contracts/Marketplace.sol\":426:438  0.0001 ether */\n  0x5af3107a4000\n    /* \"contracts/Marketplace.sol\":397:438  uint256 public LISTING_FEE = 0.0001 ether */\n  0x03\n  sstore\n    /* \"contracts/Marketplace.sol\":1008:1067  constructor() {... */\n  callvalue\n  dup1\n  iszero\n  tag_1\n  jumpi\n  0x00\n  dup1\n  revert\ntag_1:\n  pop\n    /* \"contracts/@openzeppelin/contracts/security/ReentrancyGuard.sol\":1701:1702  1 */\n  0x01\n    /* \"contracts/@openzeppelin/contracts/security/ReentrancyGuard.sol\":1806:1813  _status */\n  0x00\n    /* \"contracts/@openzeppelin/contracts/security/ReentrancyGuard.sol\":1806:1828  _status = _NOT_ENTERED */\n  sstore\n    /* \"contracts/Marketplace.sol\":1028:1040  _marketOwner */\n  0x04\n    /* \"contracts/Marketplace.sol\":1028:1062  _marketOwner = payable(msg.sender) */\n  dup1\n  sload\n  not(sub(shl(0xa0, 0x01), 0x01))\n  and\n    /* \"contracts/Marketplace.sol\":1051:1061  msg.sender */\n  caller\n    /* \"contracts/Marketplace.sol\":1028:1062  _marketOwner = payable(msg.sender) */\n  or\n  swap1\n  sstore\n    /* \"contracts/Marketplace.sol\":238:3803  contract Marketplace is ReentrancyGuard {... */\n  dataSize(sub_0)\n  dup1\n  dataOffset(sub_0)\n  0x00\n  codecopy\n  0x00\n  return\nstop\n\nsub_0: assembly {\n        /* \"contracts/Marketplace.sol\":238:3803  contract Marketplace is ReentrancyGuard {... */\n      mstore(0x40, 0x80)\n      jumpi(tag_1, lt(calldatasize, 0x04))\n      shr(0xe0, calldataload(0x00))\n      dup1\n      0xa82ba76f\n      gt\n      tag_10\n      jumpi\n      dup1\n      0xa82ba76f\n      eq\n      tag_6\n      jumpi\n      dup1\n      0xb4c49d09\n      eq\n      tag_7\n      jumpi\n      dup1\n      0xc4b15141\n      eq\n      tag_8\n      jumpi\n      dup1\n      0xeb9597d1\n      eq\n      tag_9\n      jumpi\n      0x00\n      dup1\n      revert\n    tag_10:\n      dup1\n      0x04935694\n      eq\n      tag_2\n      jumpi\n      dup1\n      0x2444a8a6\n      eq\n      tag_3\n      jumpi\n      dup1\n      0x2b86ae38\n      eq\n      tag_4\n      jumpi\n      dup1\n      0x512dd020\n      eq\n      tag_5\n      jumpi\n    tag_1:\n      0x00\n      dup1\n      revert\n        /* \"contracts/Marketplace.sol\":2587:3273  function resellNFT(address _nftContract, uint256 _tokenId, uint256 _newPrice) public payable nonReentrant {... */\n    tag_2:\n      tag_11\n      tag_12\n      calldatasize\n      0x04\n      tag_13\n      jump\t// in\n    tag_12:\n      tag_14\n      jump\t// in\n    tag_11:\n      stop\n        /* \"contracts/Marketplace.sol\":3277:3395  function getTokenForId(uint256 _tokenId) public view returns (Token memory) {... */\n    tag_3:\n      callvalue\n      dup1\n      iszero\n      tag_15\n      jumpi\n      0x00\n      dup1\n      revert\n    tag_15:\n      pop\n      tag_16\n      tag_17\n      calldatasize\n      0x04\n      tag_18\n      jump\t// in\n    tag_17:\n      tag_19\n      jump\t// in\n    tag_16:\n      mload(0x40)\n      tag_20\n      swap2\n      swap1\n      tag_21\n      jump\t// in\n    tag_20:\n      mload(0x40)\n      dup1\n      swap2\n      sub\n      swap1\n      return\n        /* \"contracts/Marketplace.sol\":397:438  uint256 public LISTING_FEE = 0.0001 ether */\n    tag_4:\n      callvalue\n      dup1\n      iszero\n      tag_22\n      jumpi\n      0x00\n      dup1\n      revert\n    tag_22:\n      pop\n      tag_23\n      sload(0x03)\n      dup2\n      jump\n    tag_23:\n      mload(0x40)\n        /* \"#utility.yul\":2640:2665   */\n      swap1\n      dup2\n      mstore\n        /* \"#utility.yul\":2628:2630   */\n      0x20\n        /* \"#utility.yul\":2613:2631   */\n      add\n        /* \"contracts/Marketplace.sol\":397:438  uint256 public LISTING_FEE = 0.0001 ether */\n      tag_20\n        /* \"#utility.yul\":2494:2671   */\n      jump\n        /* \"contracts/Marketplace.sol\":3608:3703  function getItemsCount() public view returns(uint256) {... */\n    tag_5:\n      callvalue\n      dup1\n      iszero\n      tag_27\n      jumpi\n      0x00\n      dup1\n      revert\n    tag_27:\n      pop\n      tag_23\n      tag_29\n      jump\t// in\n        /* \"contracts/Marketplace.sol\":1834:2534  function buyNFT(address _nftContract, uint256 _tokenId) public payable nonReentrant {... */\n    tag_6:\n      tag_11\n      tag_32\n      calldatasize\n      0x04\n      tag_33\n      jump\t// in\n    tag_32:\n      tag_34\n      jump\t// in\n        /* \"contracts/Marketplace.sol\":3400:3603  function getMarketPlaceBalance() public view returns(uint256) {... */\n    tag_7:\n      callvalue\n      dup1\n      iszero\n      tag_35\n      jumpi\n      0x00\n      dup1\n      revert\n    tag_35:\n      pop\n        /* \"contracts/Marketplace.sol\":3576:3597  address(this).balance */\n      selfbalance\n        /* \"contracts/Marketplace.sol\":3400:3603  function getMarketPlaceBalance() public view returns(uint256) {... */\n      jump(tag_23)\n        /* \"contracts/Marketplace.sol\":3707:3801  function getItemsSold() public view returns(uint256) {... */\n    tag_8:\n      callvalue\n      dup1\n      iszero\n      tag_39\n      jumpi\n      0x00\n      dup1\n      revert\n    tag_39:\n      pop\n      tag_23\n      tag_41\n      jump\t// in\n        /* \"contracts/Marketplace.sol\":1109:1815  function listNFT(address _nftContract, uint256 _tokenId, string memory _name, string memory _tokenURI, uint256 _price) public payable nonReentrant {... */\n    tag_9:\n      tag_11\n      tag_44\n      calldatasize\n      0x04\n      tag_45\n      jump\t// in\n    tag_44:\n      tag_46\n      jump\t// in\n        /* \"contracts/Marketplace.sol\":2587:3273  function resellNFT(address _nftContract, uint256 _tokenId, uint256 _newPrice) public payable nonReentrant {... */\n    tag_14:\n        /* \"contracts/@openzeppelin/contracts/security/ReentrancyGuard.sol\":1744:1745  2 */\n      0x02\n        /* \"contracts/@openzeppelin/contracts/security/ReentrancyGuard.sol\":2325:2332  _status */\n      sload(0x00)\n        /* \"contracts/@openzeppelin/contracts/security/ReentrancyGuard.sol\":2325:2344  _status != _ENTERED */\n      sub\n        /* \"contracts/@openzeppelin/contracts/security/ReentrancyGuard.sol\":2317:2380  require(_status != _ENTERED, \"ReentrancyGuard: reentrant call\") */\n      tag_48\n      jumpi\n      mload(0x40)\n      shl(0xe5, 0x461bcd)\n      dup2\n      mstore\n      0x04\n      add\n      tag_49\n      swap1\n      tag_50\n      jump\t// in\n    tag_49:\n      mload(0x40)\n      dup1\n      swap2\n      sub\n      swap1\n      revert\n    tag_48:\n        /* \"contracts/@openzeppelin/contracts/security/ReentrancyGuard.sol\":1744:1745  2 */\n      0x02\n        /* \"contracts/@openzeppelin/contracts/security/ReentrancyGuard.sol\":2455:2462  _status */\n      0x00\n        /* \"contracts/@openzeppelin/contracts/security/ReentrancyGuard.sol\":2455:2473  _status = _ENTERED */\n      swap1\n      dup2\n      sstore\n        /* \"contracts/Marketplace.sol\":2715:2754  IERC721(_nftContract).ownerOf(_tokenId) */\n      mload(0x40)\n      shl(0xe1, 0x31a9108f)\n      dup2\n      mstore\n      0x04\n      dup2\n      add\n        /* \"#utility.yul\":2640:2665   */\n      dup5\n      swap1\n      mstore\n      sub(shl(0xa0, 0x01), 0x01)\n        /* \"contracts/Marketplace.sol\":2715:2744  IERC721(_nftContract).ownerOf */\n      dup6\n      and\n      swap1\n      0x6352211e\n      swap1\n        /* \"#utility.yul\":2613:2631   */\n      0x24\n      add\n        /* \"contracts/Marketplace.sol\":2715:2754  IERC721(_nftContract).ownerOf(_tokenId) */\n      0x20\n      mload(0x40)\n      dup1\n      dup4\n      sub\n      dup2\n      dup7\n      gas\n      staticcall\n      iszero\n      dup1\n      iszero\n      tag_54\n      jumpi\n      returndatasize\n      0x00\n      dup1\n      returndatacopy\n      revert(0x00, returndatasize)\n    tag_54:\n      pop\n      pop\n      pop\n      pop\n      mload(0x40)\n      returndatasize\n      not(0x1f)\n      0x1f\n      dup3\n      add\n      and\n      dup3\n      add\n      dup1\n      0x40\n      mstore\n      pop\n      dup2\n      add\n      swap1\n      tag_55\n      swap2\n      swap1\n      tag_56\n      jump\t// in\n    tag_55:\n        /* \"contracts/Marketplace.sol\":2699:2754  address owner = IERC721(_nftContract).ownerOf(_tokenId) */\n      swap1\n      pop\n        /* \"contracts/Marketplace.sol\":2781:2792  LISTING_FEE */\n      sload(0x03)\n        /* \"contracts/Marketplace.sol\":2768:2777  msg.value */\n      callvalue\n        /* \"contracts/Marketplace.sol\":2768:2792  msg.value == LISTING_FEE */\n      eq\n        /* \"contracts/Marketplace.sol\":2760:2829  require(msg.value == LISTING_FEE, \"Not enough ether for listing fee\") */\n      tag_57\n      jumpi\n      mload(0x40)\n      shl(0xe5, 0x461bcd)\n      dup2\n      mstore\n        /* \"#utility.yul\":5649:5651   */\n      0x20\n        /* \"contracts/Marketplace.sol\":2760:2829  require(msg.value == LISTING_FEE, \"Not enough ether for listing fee\") */\n      0x04\n      dup3\n      add\n        /* \"#utility.yul\":5631:5652   */\n      dup2\n      swap1\n      mstore\n        /* \"#utility.yul\":5668:5686   */\n      0x24\n      dup3\n      add\n        /* \"#utility.yul\":5661:5691   */\n      mstore\n        /* \"#utility.yul\":5727:5761   */\n      0x4e6f7420656e6f75676820657468657220666f72206c697374696e6720666565\n        /* \"#utility.yul\":5707:5725   */\n      0x44\n      dup3\n      add\n        /* \"#utility.yul\":5700:5762   */\n      mstore\n        /* \"#utility.yul\":5779:5797   */\n      0x64\n      add\n        /* \"contracts/Marketplace.sol\":2760:2829  require(msg.value == LISTING_FEE, \"Not enough ether for listing fee\") */\n      tag_49\n        /* \"#utility.yul\":5447:5803   */\n      jump\n        /* \"contracts/Marketplace.sol\":2760:2829  require(msg.value == LISTING_FEE, \"Not enough ether for listing fee\") */\n    tag_57:\n        /* \"contracts/Marketplace.sol\":2855:2856  0 */\n      0x00\n        /* \"contracts/Marketplace.sol\":2843:2852  _newPrice */\n      dup3\n        /* \"contracts/Marketplace.sol\":2843:2856  _newPrice > 0 */\n      gt\n        /* \"contracts/Marketplace.sol\":2835:2889  require(_newPrice > 0, \"Price must be at least 1 wei\") */\n      tag_60\n      jumpi\n      mload(0x40)\n      shl(0xe5, 0x461bcd)\n      dup2\n      mstore\n        /* \"#utility.yul\":6010:6012   */\n      0x20\n        /* \"contracts/Marketplace.sol\":2835:2889  require(_newPrice > 0, \"Price must be at least 1 wei\") */\n      0x04\n      dup3\n      add\n        /* \"#utility.yul\":5992:6013   */\n      mstore\n        /* \"#utility.yul\":6049:6051   */\n      0x1c\n        /* \"#utility.yul\":6029:6047   */\n      0x24\n      dup3\n      add\n        /* \"#utility.yul\":6022:6052   */\n      mstore\n        /* \"#utility.yul\":6088:6118   */\n      0x5072696365206d757374206265206174206c6561737420312077656900000000\n        /* \"#utility.yul\":6068:6086   */\n      0x44\n      dup3\n      add\n        /* \"#utility.yul\":6061:6119   */\n      mstore\n        /* \"#utility.yul\":6136:6154   */\n      0x64\n      add\n        /* \"contracts/Marketplace.sol\":2835:2889  require(_newPrice > 0, \"Price must be at least 1 wei\") */\n      tag_49\n        /* \"#utility.yul\":5808:6160   */\n      jump\n        /* \"contracts/Marketplace.sol\":2835:2889  require(_newPrice > 0, \"Price must be at least 1 wei\") */\n    tag_60:\n        /* \"contracts/Marketplace.sol\":2896:2962  IERC721(_nftContract).transferFrom(owner, address(this), _tokenId) */\n      mload(0x40)\n      shl(0xe0, 0x23b872dd)\n      dup2\n      mstore\n      sub(shl(0xa0, 0x01), 0x01)\n        /* \"#utility.yul\":6385:6417   */\n      dup3\n      dup2\n      and\n        /* \"contracts/Marketplace.sol\":2896:2962  IERC721(_nftContract).transferFrom(owner, address(this), _tokenId) */\n      0x04\n      dup4\n      add\n        /* \"#utility.yul\":6367:6418   */\n      mstore\n        /* \"contracts/Marketplace.sol\":2946:2950  this */\n      address\n        /* \"#utility.yul\":6434:6452   */\n      0x24\n      dup4\n      add\n        /* \"#utility.yul\":6427:6487   */\n      mstore\n        /* \"#utility.yul\":6503:6521   */\n      0x44\n      dup3\n      add\n        /* \"#utility.yul\":6496:6530   */\n      dup6\n      swap1\n      mstore\n        /* \"contracts/Marketplace.sol\":2896:2930  IERC721(_nftContract).transferFrom */\n      dup6\n      and\n      swap1\n      0x23b872dd\n      swap1\n        /* \"#utility.yul\":6340:6358   */\n      0x64\n      add\n        /* \"contracts/Marketplace.sol\":2896:2962  IERC721(_nftContract).transferFrom(owner, address(this), _tokenId) */\n      0x00\n      mload(0x40)\n      dup1\n      dup4\n      sub\n      dup2\n      0x00\n      dup8\n      dup1\n      extcodesize\n      iszero\n      dup1\n      iszero\n      tag_65\n      jumpi\n      0x00\n      dup1\n      revert\n    tag_65:\n      pop\n      gas\n      call\n      iszero\n      dup1\n      iszero\n      tag_67\n      jumpi\n      returndatasize\n      0x00\n      dup1\n      returndatacopy\n      revert(0x00, returndatasize)\n    tag_67:\n      pop\n      pop\n      pop\n        /* \"contracts/Marketplace.sol\":2969:2986  Token storage nft */\n      0x00\n        /* \"contracts/Marketplace.sol\":2989:3009  _idToToken[_tokenId] */\n      dup5\n      dup2\n      mstore\n        /* \"contracts/Marketplace.sol\":2989:2999  _idToToken */\n      0x05\n        /* \"contracts/Marketplace.sol\":2989:3009  _idToToken[_tokenId] */\n      0x20\n      mstore\n      0x40\n      swap1\n      keccak256\n        /* \"contracts/Marketplace.sol\":3015:3025  nft.seller */\n      0x02\n      dup2\n      add\n        /* \"contracts/Marketplace.sol\":3015:3047  nft.seller = payable(msg.sender) */\n      dup1\n      sload\n      not(sub(shl(0xa0, 0x01), 0x01))\n      swap1\n      dup2\n      and\n        /* \"contracts/Marketplace.sol\":3036:3046  msg.sender */\n      caller\n        /* \"contracts/Marketplace.sol\":3015:3047  nft.seller = payable(msg.sender) */\n      or\n      swap1\n      swap2\n      sstore\n        /* \"contracts/Marketplace.sol\":3053:3062  nft.owner */\n      0x03\n      dup3\n      add\n        /* \"contracts/Marketplace.sol\":3053:3087  nft.owner = payable(address(this)) */\n      dup1\n      sload\n      swap1\n      swap2\n      and\n        /* \"contracts/Marketplace.sol\":3081:3085  this */\n      address\n        /* \"contracts/Marketplace.sol\":3053:3087  nft.owner = payable(address(this)) */\n      or\n      swap1\n      sstore\n        /* \"contracts/Marketplace.sol\":3093:3105  nft.isListed */\n      0x07\n      dup2\n      add\n        /* \"contracts/Marketplace.sol\":3093:3112  nft.isListed = true */\n      dup1\n      sload\n      not(0xff)\n      and\n        /* \"contracts/Marketplace.sol\":3015:3047  nft.seller = payable(msg.sender) */\n      0x01\n        /* \"contracts/Marketplace.sol\":3093:3112  nft.isListed = true */\n      swap1\n      dup2\n      or\n      swap1\n      swap2\n      sstore\n        /* \"contracts/Marketplace.sol\":3118:3127  nft.price */\n      0x06\n      dup3\n      add\n        /* \"contracts/Marketplace.sol\":3118:3139  nft.price = _newPrice */\n      dup6\n      swap1\n      sstore\n        /* \"contracts/Marketplace.sol\":2989:3009  _idToToken[_tokenId] */\n      swap1\n      swap2\n      pop\n        /* \"contracts/Marketplace.sol\":3167:3188  _nftsSold.decrement() */\n      tag_68\n      swap1\n        /* \"contracts/Marketplace.sol\":3167:3186  _nftsSold.decrement */\n      tag_69\n        /* \"contracts/Marketplace.sol\":3167:3188  _nftsSold.decrement() */\n      jump\t// in\n    tag_68:\n        /* \"contracts/Marketplace.sol\":3199:3270  NFTListed(_nftContract, _tokenId, msg.sender, address(this), _newPrice) */\n      0xa0c6c0d02d86fdacecbaa5fdf5894bab204e31a778250474108540733a9b8d19\n        /* \"contracts/Marketplace.sol\":3209:3221  _nftContract */\n      dup6\n        /* \"contracts/Marketplace.sol\":3223:3231  _tokenId */\n      dup6\n        /* \"contracts/Marketplace.sol\":3233:3243  msg.sender */\n      caller\n        /* \"contracts/Marketplace.sol\":3253:3257  this */\n      address\n        /* \"contracts/Marketplace.sol\":3260:3269  _newPrice */\n      dup8\n        /* \"contracts/Marketplace.sol\":3199:3270  NFTListed(_nftContract, _tokenId, msg.sender, address(this), _newPrice) */\n      mload(0x40)\n      tag_70\n      swap6\n      swap5\n      swap4\n      swap3\n      swap2\n      swap1\n      tag_71\n      jump\t// in\n    tag_70:\n      mload(0x40)\n      dup1\n      swap2\n      sub\n      swap1\n      log1\n      pop\n      pop\n        /* \"contracts/@openzeppelin/contracts/security/ReentrancyGuard.sol\":1701:1702  1 */\n      0x01\n        /* \"contracts/@openzeppelin/contracts/security/ReentrancyGuard.sol\":2628:2635  _status */\n      0x00\n        /* \"contracts/@openzeppelin/contracts/security/ReentrancyGuard.sol\":2628:2650  _status = _NOT_ENTERED */\n      sstore\n      pop\n      pop\n      pop\n        /* \"contracts/Marketplace.sol\":2587:3273  function resellNFT(address _nftContract, uint256 _tokenId, uint256 _newPrice) public payable nonReentrant {... */\n      jump\t// out\n        /* \"contracts/Marketplace.sol\":3277:3395  function getTokenForId(uint256 _tokenId) public view returns (Token memory) {... */\n    tag_19:\n      0x40\n      dup1\n      mload\n      0x0100\n      dup2\n      add\n      dup3\n      mstore\n      0x00\n      dup1\n      dup3\n      mstore\n      0x20\n      dup3\n      add\n      dup2\n      swap1\n      mstore\n      swap2\n      dup2\n      add\n      dup3\n      swap1\n      mstore\n      0x60\n      dup1\n      dup3\n      add\n      dup4\n      swap1\n      mstore\n      0x80\n      dup3\n      add\n      dup2\n      swap1\n      mstore\n      0xa0\n      dup3\n      add\n      mstore\n      0xc0\n      dup2\n      add\n      dup3\n      swap1\n      mstore\n      0xe0\n      dup2\n      add\n      swap2\n      swap1\n      swap2\n      mstore\n        /* \"contracts/Marketplace.sol\":3369:3389  _idToToken[_tokenId] */\n      0x00\n      dup3\n      dup2\n      mstore\n        /* \"contracts/Marketplace.sol\":3369:3379  _idToToken */\n      0x05\n        /* \"contracts/Marketplace.sol\":3369:3389  _idToToken[_tokenId] */\n      0x20\n      swap1\n      dup2\n      mstore\n      0x40\n      swap2\n      dup3\n      swap1\n      keccak256\n        /* \"contracts/Marketplace.sol\":3362:3389  return _idToToken[_tokenId] */\n      dup3\n      mload\n      0x0100\n      dup2\n      add\n      dup5\n      mstore\n      dup2\n      sload\n      sub(shl(0xa0, 0x01), 0x01)\n      swap1\n      dup2\n      and\n      dup3\n      mstore\n      0x01\n      dup4\n      add\n      sload\n      swap4\n      dup3\n      add\n      swap4\n      swap1\n      swap4\n      mstore\n      0x02\n      dup3\n      add\n      sload\n      dup4\n      and\n      swap4\n      dup2\n      add\n      swap4\n      swap1\n      swap4\n      mstore\n      0x03\n      dup2\n      add\n      sload\n      swap1\n      swap2\n      and\n      0x60\n      dup4\n      add\n      mstore\n      0x04\n      dup2\n      add\n      dup1\n      sload\n      0x80\n      dup5\n      add\n      swap2\n      swap1\n      tag_75\n      swap1\n      tag_76\n      jump\t// in\n    tag_75:\n      dup1\n      0x1f\n      add\n      0x20\n      dup1\n      swap2\n      div\n      mul\n      0x20\n      add\n      mload(0x40)\n      swap1\n      dup2\n      add\n      0x40\n      mstore\n      dup1\n      swap3\n      swap2\n      swap1\n      dup2\n      dup2\n      mstore\n      0x20\n      add\n      dup3\n      dup1\n      sload\n      tag_77\n      swap1\n      tag_76\n      jump\t// in\n    tag_77:\n      dup1\n      iszero\n      tag_78\n      jumpi\n      dup1\n      0x1f\n      lt\n      tag_79\n      jumpi\n      0x0100\n      dup1\n      dup4\n      sload\n      div\n      mul\n      dup4\n      mstore\n      swap2\n      0x20\n      add\n      swap2\n      jump(tag_78)\n    tag_79:\n      dup3\n      add\n      swap2\n      swap1\n      0x00\n      mstore\n      keccak256(0x00, 0x20)\n      swap1\n    tag_80:\n      dup2\n      sload\n      dup2\n      mstore\n      swap1\n      0x01\n      add\n      swap1\n      0x20\n      add\n      dup1\n      dup4\n      gt\n      tag_80\n      jumpi\n      dup3\n      swap1\n      sub\n      0x1f\n      and\n      dup3\n      add\n      swap2\n    tag_78:\n      pop\n      pop\n      pop\n      pop\n      pop\n      dup2\n      mstore\n      0x20\n      add\n      0x05\n      dup3\n      add\n      dup1\n      sload\n      tag_81\n      swap1\n      tag_76\n      jump\t// in\n    tag_81:\n      dup1\n      0x1f\n      add\n      0x20\n      dup1\n      swap2\n      div\n      mul\n      0x20\n      add\n      mload(0x40)\n      swap1\n      dup2\n      add\n      0x40\n      mstore\n      dup1\n      swap3\n      swap2\n      swap1\n      dup2\n      dup2\n      mstore\n      0x20\n      add\n      dup3\n      dup1\n      sload\n      tag_82\n      swap1\n      tag_76\n      jump\t// in\n    tag_82:\n      dup1\n      iszero\n      tag_83\n      jumpi\n      dup1\n      0x1f\n      lt\n      tag_84\n      jumpi\n      0x0100\n      dup1\n      dup4\n      sload\n      div\n      mul\n      dup4\n      mstore\n      swap2\n      0x20\n      add\n      swap2\n      jump(tag_83)\n    tag_84:\n      dup3\n      add\n      swap2\n      swap1\n      0x00\n      mstore\n      keccak256(0x00, 0x20)\n      swap1\n    tag_85:\n      dup2\n      sload\n      dup2\n      mstore\n      swap1\n      0x01\n      add\n      swap1\n      0x20\n      add\n      dup1\n      dup4\n      gt\n      tag_85\n      jumpi\n      dup3\n      swap1\n      sub\n      0x1f\n      and\n      dup3\n      add\n      swap2\n    tag_83:\n      pop\n      pop\n      pop\n      swap2\n      dup4\n      mstore\n      pop\n      pop\n      0x06\n      dup3\n      add\n      sload\n      0x20\n      dup3\n      add\n      mstore\n      0x07\n      swap1\n      swap2\n      add\n      sload\n      0xff\n      and\n      iszero\n      iszero\n      0x40\n      swap1\n      swap2\n      add\n      mstore\n      swap3\n        /* \"contracts/Marketplace.sol\":3277:3395  function getTokenForId(uint256 _tokenId) public view returns (Token memory) {... */\n      swap2\n      pop\n      pop\n      jump\t// out\n        /* \"contracts/Marketplace.sol\":3608:3703  function getItemsCount() public view returns(uint256) {... */\n    tag_29:\n        /* \"contracts/Marketplace.sol\":3653:3660  uint256 */\n      0x00\n        /* \"contracts/Marketplace.sol\":3678:3697  _nftCount.current() */\n      tag_87\n        /* \"contracts/Marketplace.sol\":3678:3687  _nftCount */\n      0x02\n        /* \"contracts/@openzeppelin/contracts/utils/Counters.sol\":918:932  counter._value */\n      sload\n      swap1\n        /* \"contracts/@openzeppelin/contracts/utils/Counters.sol\":827:939  function current(Counter storage counter) internal view returns (uint256) {... */\n      jump\n        /* \"contracts/Marketplace.sol\":3678:3697  _nftCount.current() */\n    tag_87:\n        /* \"contracts/Marketplace.sol\":3671:3697  return _nftCount.current() */\n      swap1\n      pop\n        /* \"contracts/Marketplace.sol\":3608:3703  function getItemsCount() public view returns(uint256) {... */\n      swap1\n      jump\t// out\n        /* \"contracts/Marketplace.sol\":1834:2534  function buyNFT(address _nftContract, uint256 _tokenId) public payable nonReentrant {... */\n    tag_34:\n        /* \"contracts/@openzeppelin/contracts/security/ReentrancyGuard.sol\":1744:1745  2 */\n      0x02\n        /* \"contracts/@openzeppelin/contracts/security/ReentrancyGuard.sol\":2325:2332  _status */\n      sload(0x00)\n        /* \"contracts/@openzeppelin/contracts/security/ReentrancyGuard.sol\":2325:2344  _status != _ENTERED */\n      sub\n        /* \"contracts/@openzeppelin/contracts/security/ReentrancyGuard.sol\":2317:2380  require(_status != _ENTERED, \"ReentrancyGuard: reentrant call\") */\n      tag_90\n      jumpi\n      mload(0x40)\n      shl(0xe5, 0x461bcd)\n      dup2\n      mstore\n      0x04\n      add\n      tag_49\n      swap1\n      tag_50\n      jump\t// in\n    tag_90:\n        /* \"contracts/@openzeppelin/contracts/security/ReentrancyGuard.sol\":1744:1745  2 */\n      0x02\n        /* \"contracts/@openzeppelin/contracts/security/ReentrancyGuard.sol\":2455:2462  _status */\n      0x00\n        /* \"contracts/@openzeppelin/contracts/security/ReentrancyGuard.sol\":2455:2473  _status = _ENTERED */\n      swap1\n      dup2\n      sstore\n        /* \"contracts/Marketplace.sol\":1940:1979  IERC721(_nftContract).ownerOf(_tokenId) */\n      mload(0x40)\n      shl(0xe1, 0x31a9108f)\n      dup2\n      mstore\n      0x04\n      dup2\n      add\n        /* \"#utility.yul\":2640:2665   */\n      dup4\n      swap1\n      mstore\n      sub(shl(0xa0, 0x01), 0x01)\n        /* \"contracts/Marketplace.sol\":1940:1969  IERC721(_nftContract).ownerOf */\n      dup5\n      and\n      swap1\n      0x6352211e\n      swap1\n        /* \"#utility.yul\":2613:2631   */\n      0x24\n      add\n        /* \"contracts/Marketplace.sol\":1940:1979  IERC721(_nftContract).ownerOf(_tokenId) */\n      0x20\n      mload(0x40)\n      dup1\n      dup4\n      sub\n      dup2\n      dup7\n      gas\n      staticcall\n      iszero\n      dup1\n      iszero\n      tag_95\n      jumpi\n      returndatasize\n      0x00\n      dup1\n      returndatacopy\n      revert(0x00, returndatasize)\n    tag_95:\n      pop\n      pop\n      pop\n      pop\n      mload(0x40)\n      returndatasize\n      not(0x1f)\n      0x1f\n      dup3\n      add\n      and\n      dup3\n      add\n      dup1\n      0x40\n      mstore\n      pop\n      dup2\n      add\n      swap1\n      tag_96\n      swap2\n      swap1\n      tag_56\n      jump\t// in\n    tag_96:\n        /* \"contracts/Marketplace.sol\":1985:2002  Token storage nft */\n      0x00\n        /* \"contracts/Marketplace.sol\":2005:2025  _idToToken[_tokenId] */\n      dup4\n      dup2\n      mstore\n        /* \"contracts/Marketplace.sol\":2005:2015  _idToToken */\n      0x05\n        /* \"contracts/Marketplace.sol\":2005:2025  _idToToken[_tokenId] */\n      0x20\n      mstore\n      0x40\n      swap1\n      keccak256\n        /* \"contracts/Marketplace.sol\":2052:2061  nft.price */\n      0x06\n      dup2\n      add\n      sload\n        /* \"contracts/Marketplace.sol\":1924:1979  address owner = IERC721(_nftContract).ownerOf(_tokenId) */\n      swap2\n      swap3\n      pop\n        /* \"contracts/Marketplace.sol\":2005:2025  _idToToken[_tokenId] */\n      swap1\n        /* \"contracts/Marketplace.sol\":2039:2048  msg.value */\n      callvalue\n        /* \"contracts/Marketplace.sol\":2039:2061  msg.value >= nft.price */\n      lt\n      iszero\n        /* \"contracts/Marketplace.sol\":2031:2104  require(msg.value >= nft.price, \"Not enough ether to cover asking price\") */\n      tag_97\n      jumpi\n      mload(0x40)\n      shl(0xe5, 0x461bcd)\n      dup2\n      mstore\n        /* \"#utility.yul\":7674:7676   */\n      0x20\n        /* \"contracts/Marketplace.sol\":2031:2104  require(msg.value >= nft.price, \"Not enough ether to cover asking price\") */\n      0x04\n      dup3\n      add\n        /* \"#utility.yul\":7656:7677   */\n      mstore\n        /* \"#utility.yul\":7713:7715   */\n      0x26\n        /* \"#utility.yul\":7693:7711   */\n      0x24\n      dup3\n      add\n        /* \"#utility.yul\":7686:7716   */\n      mstore\n        /* \"#utility.yul\":7752:7786   */\n      0x4e6f7420656e6f75676820657468657220746f20636f7665722061736b696e67\n        /* \"#utility.yul\":7732:7750   */\n      0x44\n      dup3\n      add\n        /* \"#utility.yul\":7725:7787   */\n      mstore\n      shl(0xd0, 0x207072696365)\n        /* \"#utility.yul\":7803:7821   */\n      0x64\n      dup3\n      add\n        /* \"#utility.yul\":7796:7832   */\n      mstore\n        /* \"#utility.yul\":7849:7868   */\n      0x84\n      add\n        /* \"contracts/Marketplace.sol\":2031:2104  require(msg.value >= nft.price, \"Not enough ether to cover asking price\") */\n      tag_49\n        /* \"#utility.yul\":7472:7874   */\n      jump\n        /* \"contracts/Marketplace.sol\":2031:2104  require(msg.value >= nft.price, \"Not enough ether to cover asking price\") */\n    tag_97:\n        /* \"contracts/Marketplace.sol\":2168:2178  nft.seller */\n      0x02\n      dup2\n      add\n      sload\n        /* \"contracts/Marketplace.sol\":2160:2199  payable(nft.seller).transfer(msg.value) */\n      mload(0x40)\n        /* \"contracts/Marketplace.sol\":2143:2153  msg.sender */\n      caller\n      swap2\n      sub(shl(0xa0, 0x01), 0x01)\n        /* \"contracts/Marketplace.sol\":2168:2178  nft.seller */\n      and\n      swap1\n        /* \"contracts/Marketplace.sol\":2189:2198  msg.value */\n      callvalue\n        /* \"contracts/Marketplace.sol\":2160:2199  payable(nft.seller).transfer(msg.value) */\n      dup1\n      iszero\n      0x08fc\n      mul\n      swap2\n        /* \"contracts/Marketplace.sol\":2111:2132  address payable buyer */\n      0x00\n        /* \"contracts/Marketplace.sol\":2160:2199  payable(nft.seller).transfer(msg.value) */\n      dup2\n        /* \"contracts/Marketplace.sol\":2111:2132  address payable buyer */\n      dup2\n        /* \"contracts/Marketplace.sol\":2160:2199  payable(nft.seller).transfer(msg.value) */\n      dup2\n        /* \"contracts/Marketplace.sol\":2189:2198  msg.value */\n      dup6\n        /* \"contracts/Marketplace.sol\":2168:2178  nft.seller */\n      dup9\n        /* \"contracts/Marketplace.sol\":2160:2199  payable(nft.seller).transfer(msg.value) */\n      dup9\n      call\n      swap4\n      pop\n      pop\n      pop\n      pop\n      iszero\n      dup1\n      iszero\n      tag_101\n      jumpi\n      returndatasize\n      0x00\n      dup1\n      returndatacopy\n      revert(0x00, returndatasize)\n    tag_101:\n      pop\n        /* \"contracts/Marketplace.sol\":2261:2272  nft.tokenId */\n      0x01\n      dup3\n      add\n      sload\n        /* \"contracts/Marketplace.sol\":2207:2273  IERC721(_nftContract).transferFrom(owner, msg.sender, nft.tokenId) */\n      mload(0x40)\n      shl(0xe0, 0x23b872dd)\n      dup2\n      mstore\n      sub(shl(0xa0, 0x01), 0x01)\n        /* \"#utility.yul\":6385:6417   */\n      dup6\n      dup2\n      and\n        /* \"contracts/Marketplace.sol\":2207:2273  IERC721(_nftContract).transferFrom(owner, msg.sender, nft.tokenId) */\n      0x04\n      dup4\n      add\n        /* \"#utility.yul\":6367:6418   */\n      mstore\n        /* \"contracts/Marketplace.sol\":2249:2259  msg.sender */\n      caller\n        /* \"#utility.yul\":6434:6452   */\n      0x24\n      dup4\n      add\n        /* \"#utility.yul\":6427:6487   */\n      mstore\n        /* \"#utility.yul\":6503:6521   */\n      0x44\n      dup3\n      add\n        /* \"#utility.yul\":6496:6530   */\n      swap3\n      swap1\n      swap3\n      mstore\n        /* \"contracts/Marketplace.sol\":2207:2241  IERC721(_nftContract).transferFrom */\n      swap1\n      dup7\n      and\n      swap1\n      0x23b872dd\n      swap1\n        /* \"#utility.yul\":6340:6358   */\n      0x64\n      add\n        /* \"contracts/Marketplace.sol\":2207:2273  IERC721(_nftContract).transferFrom(owner, msg.sender, nft.tokenId) */\n      0x00\n      mload(0x40)\n      dup1\n      dup4\n      sub\n      dup2\n      0x00\n      dup8\n      dup1\n      extcodesize\n      iszero\n      dup1\n      iszero\n      tag_103\n      jumpi\n      0x00\n      dup1\n      revert\n    tag_103:\n      pop\n      gas\n      call\n      iszero\n      dup1\n      iszero\n      tag_105\n      jumpi\n      returndatasize\n      0x00\n      dup1\n      returndatacopy\n      revert(0x00, returndatasize)\n    tag_105:\n      pop\n      pop\n        /* \"contracts/Marketplace.sol\":2279:2336  IERC721(_nftContract).setApprovalForAll(msg.sender, true) */\n      mload(0x40)\n      shl(0xe0, 0xa22cb465)\n      dup2\n      mstore\n        /* \"contracts/Marketplace.sol\":2319:2329  msg.sender */\n      caller\n        /* \"contracts/Marketplace.sol\":2279:2336  IERC721(_nftContract).setApprovalForAll(msg.sender, true) */\n      0x04\n      dup3\n      add\n        /* \"#utility.yul\":8047:8098   */\n      mstore\n        /* \"contracts/Marketplace.sol\":2331:2335  true */\n      0x01\n        /* \"#utility.yul\":8114:8132   */\n      0x24\n      dup3\n      add\n        /* \"#utility.yul\":8107:8157   */\n      mstore\n      sub(shl(0xa0, 0x01), 0x01)\n        /* \"contracts/Marketplace.sol\":2279:2318  IERC721(_nftContract).setApprovalForAll */\n      dup9\n      and\n      swap3\n      pop\n      0xa22cb465\n      swap2\n      pop\n        /* \"#utility.yul\":8020:8038   */\n      0x44\n      add\n        /* \"contracts/Marketplace.sol\":2279:2336  IERC721(_nftContract).setApprovalForAll(msg.sender, true) */\n      0x00\n      mload(0x40)\n      dup1\n      dup4\n      sub\n      dup2\n      0x00\n      dup8\n      dup1\n      extcodesize\n      iszero\n      dup1\n      iszero\n      tag_108\n      jumpi\n      0x00\n      dup1\n      revert\n    tag_108:\n      pop\n      gas\n      call\n      iszero\n      dup1\n      iszero\n      tag_110\n      jumpi\n      returndatasize\n      0x00\n      dup1\n      returndatacopy\n      revert(0x00, returndatasize)\n    tag_110:\n      pop\n      pop\n        /* \"contracts/Marketplace.sol\":2343:2355  _marketOwner */\n      sload(0x04)\n        /* \"contracts/Marketplace.sol\":2365:2376  LISTING_FEE */\n      sload(0x03)\n        /* \"contracts/Marketplace.sol\":2343:2377  _marketOwner.transfer(LISTING_FEE) */\n      mload(0x40)\n      sub(shl(0xa0, 0x01), 0x01)\n        /* \"contracts/Marketplace.sol\":2343:2355  _marketOwner */\n      swap1\n      swap3\n      and\n      swap4\n      pop\n        /* \"contracts/Marketplace.sol\":2343:2377  _marketOwner.transfer(LISTING_FEE) */\n      dup1\n      iszero\n      0x08fc\n      mul\n      swap3\n      pop\n        /* \"contracts/Marketplace.sol\":2365:2376  LISTING_FEE */\n      swap1\n        /* \"contracts/Marketplace.sol\":2343:2355  _marketOwner */\n      0x00\n        /* \"contracts/Marketplace.sol\":2343:2377  _marketOwner.transfer(LISTING_FEE) */\n      dup2\n        /* \"contracts/Marketplace.sol\":2343:2355  _marketOwner */\n      dup2\n        /* \"contracts/Marketplace.sol\":2343:2377  _marketOwner.transfer(LISTING_FEE) */\n      dup2\n        /* \"contracts/Marketplace.sol\":2365:2376  LISTING_FEE */\n      dup6\n        /* \"contracts/Marketplace.sol\":2343:2355  _marketOwner */\n      dup9\n        /* \"contracts/Marketplace.sol\":2343:2377  _marketOwner.transfer(LISTING_FEE) */\n      dup9\n      call\n      swap4\n      pop\n      pop\n      pop\n      pop\n      iszero\n      dup1\n      iszero\n      tag_112\n      jumpi\n      returndatasize\n      0x00\n      dup1\n      returndatacopy\n      revert(0x00, returndatasize)\n    tag_112:\n      pop\n        /* \"contracts/Marketplace.sol\":2383:2392  nft.owner */\n      0x03\n      dup3\n      add\n        /* \"contracts/Marketplace.sol\":2383:2400  nft.owner = buyer */\n      dup1\n      sload\n      not(sub(shl(0xa0, 0x01), 0x01))\n      and\n      sub(shl(0xa0, 0x01), 0x01)\n      dup4\n      and\n      or\n      swap1\n      sstore\n        /* \"contracts/Marketplace.sol\":2406:2418  nft.isListed */\n      0x07\n      dup3\n      add\n        /* \"contracts/Marketplace.sol\":2406:2426  nft.isListed = false */\n      dup1\n      sload\n      not(0xff)\n      and\n      swap1\n      sstore\n      0x01\n        /* \"contracts/@openzeppelin/contracts/utils/Counters.sol\":1032:1051  counter._value += 1 */\n      dup1\n      sload\n      dup2\n      add\n      swap1\n      sstore\n        /* \"contracts/Marketplace.sol\":2487:2498  nft.tokenId */\n      0x01\n      dup3\n      add\n      sload\n        /* \"contracts/Marketplace.sol\":2500:2510  nft.seller */\n      0x02\n      dup4\n      add\n      sload\n        /* \"contracts/Marketplace.sol\":2465:2529  NFTSold(_nftContract, nft.tokenId, nft.seller, buyer, msg.value) */\n      mload(0x40)\n      0x16f1dbd97e6bf646d429ed186cce832f1f7fd9907814293b83181e9970ab7bd2\n      swap3\n      tag_70\n      swap3\n        /* \"contracts/Marketplace.sol\":2473:2485  _nftContract */\n      dup10\n      swap3\n      sub(shl(0xa0, 0x01), 0x01)\n        /* \"contracts/Marketplace.sol\":2500:2510  nft.seller */\n      swap1\n      swap2\n      and\n      swap1\n        /* \"contracts/Marketplace.sol\":2512:2517  buyer */\n      dup7\n      swap1\n        /* \"contracts/Marketplace.sol\":2519:2528  msg.value */\n      callvalue\n      swap1\n        /* \"contracts/Marketplace.sol\":2465:2529  NFTSold(_nftContract, nft.tokenId, nft.seller, buyer, msg.value) */\n      tag_71\n      jump\t// in\n        /* \"contracts/Marketplace.sol\":3707:3801  function getItemsSold() public view returns(uint256) {... */\n    tag_41:\n        /* \"contracts/Marketplace.sol\":3751:3758  uint256 */\n      0x00\n        /* \"contracts/Marketplace.sol\":3776:3795  _nftsSold.current() */\n      tag_87\n        /* \"contracts/Marketplace.sol\":3776:3785  _nftsSold */\n      0x01\n        /* \"contracts/@openzeppelin/contracts/utils/Counters.sol\":918:932  counter._value */\n      sload\n      swap1\n        /* \"contracts/@openzeppelin/contracts/utils/Counters.sol\":827:939  function current(Counter storage counter) internal view returns (uint256) {... */\n      jump\n        /* \"contracts/Marketplace.sol\":1109:1815  function listNFT(address _nftContract, uint256 _tokenId, string memory _name, string memory _tokenURI, uint256 _price) public payable nonReentrant {... */\n    tag_46:\n        /* \"contracts/@openzeppelin/contracts/security/ReentrancyGuard.sol\":1744:1745  2 */\n      0x02\n        /* \"contracts/@openzeppelin/contracts/security/ReentrancyGuard.sol\":2325:2332  _status */\n      sload(0x00)\n        /* \"contracts/@openzeppelin/contracts/security/ReentrancyGuard.sol\":2325:2344  _status != _ENTERED */\n      sub\n        /* \"contracts/@openzeppelin/contracts/security/ReentrancyGuard.sol\":2317:2380  require(_status != _ENTERED, \"ReentrancyGuard: reentrant call\") */\n      tag_121\n      jumpi\n      mload(0x40)\n      shl(0xe5, 0x461bcd)\n      dup2\n      mstore\n      0x04\n      add\n      tag_49\n      swap1\n      tag_50\n      jump\t// in\n    tag_121:\n        /* \"contracts/@openzeppelin/contracts/security/ReentrancyGuard.sol\":1744:1745  2 */\n      0x02\n        /* \"contracts/@openzeppelin/contracts/security/ReentrancyGuard.sol\":2455:2462  _status */\n      0x00\n        /* \"contracts/@openzeppelin/contracts/security/ReentrancyGuard.sol\":2455:2473  _status = _ENTERED */\n      sstore\n        /* \"contracts/Marketplace.sol\":1270:1280  _price > 0 */\n      dup1\n        /* \"contracts/Marketplace.sol\":1262:1313  require(_price > 0, \"Price must be at least 1 wei\") */\n      tag_124\n      jumpi\n      mload(0x40)\n      shl(0xe5, 0x461bcd)\n      dup2\n      mstore\n        /* \"#utility.yul\":6010:6012   */\n      0x20\n        /* \"contracts/Marketplace.sol\":1262:1313  require(_price > 0, \"Price must be at least 1 wei\") */\n      0x04\n      dup3\n      add\n        /* \"#utility.yul\":5992:6013   */\n      mstore\n        /* \"#utility.yul\":6049:6051   */\n      0x1c\n        /* \"#utility.yul\":6029:6047   */\n      0x24\n      dup3\n      add\n        /* \"#utility.yul\":6022:6052   */\n      mstore\n        /* \"#utility.yul\":6088:6118   */\n      0x5072696365206d757374206265206174206c6561737420312077656900000000\n        /* \"#utility.yul\":6068:6086   */\n      0x44\n      dup3\n      add\n        /* \"#utility.yul\":6061:6119   */\n      mstore\n        /* \"#utility.yul\":6136:6154   */\n      0x64\n      add\n        /* \"contracts/Marketplace.sol\":1262:1313  require(_price > 0, \"Price must be at least 1 wei\") */\n      tag_49\n        /* \"#utility.yul\":5808:6160   */\n      jump\n        /* \"contracts/Marketplace.sol\":1262:1313  require(_price > 0, \"Price must be at least 1 wei\") */\n    tag_124:\n        /* \"contracts/Marketplace.sol\":1340:1351  LISTING_FEE */\n      sload(0x03)\n        /* \"contracts/Marketplace.sol\":1327:1336  msg.value */\n      callvalue\n        /* \"contracts/Marketplace.sol\":1327:1351  msg.value == LISTING_FEE */\n      eq\n        /* \"contracts/Marketplace.sol\":1319:1388  require(msg.value == LISTING_FEE, \"Not enough ether for listing fee\") */\n      tag_126\n      jumpi\n      mload(0x40)\n      shl(0xe5, 0x461bcd)\n      dup2\n      mstore\n        /* \"#utility.yul\":5649:5651   */\n      0x20\n        /* \"contracts/Marketplace.sol\":1319:1388  require(msg.value == LISTING_FEE, \"Not enough ether for listing fee\") */\n      0x04\n      dup3\n      add\n        /* \"#utility.yul\":5631:5652   */\n      dup2\n      swap1\n      mstore\n        /* \"#utility.yul\":5668:5686   */\n      0x24\n      dup3\n      add\n        /* \"#utility.yul\":5661:5691   */\n      mstore\n        /* \"#utility.yul\":5727:5761   */\n      0x4e6f7420656e6f75676820657468657220666f72206c697374696e6720666565\n        /* \"#utility.yul\":5707:5725   */\n      0x44\n      dup3\n      add\n        /* \"#utility.yul\":5700:5762   */\n      mstore\n        /* \"#utility.yul\":5779:5797   */\n      0x64\n      add\n        /* \"contracts/Marketplace.sol\":1319:1388  require(msg.value == LISTING_FEE, \"Not enough ether for listing fee\") */\n      tag_49\n        /* \"#utility.yul\":5447:5803   */\n      jump\n        /* \"contracts/Marketplace.sol\":1319:1388  require(msg.value == LISTING_FEE, \"Not enough ether for listing fee\") */\n    tag_126:\n        /* \"contracts/Marketplace.sol\":1395:1466  IERC721(_nftContract).transferFrom(msg.sender, address(this), _tokenId) */\n      mload(0x40)\n      shl(0xe0, 0x23b872dd)\n      dup2\n      mstore\n        /* \"contracts/Marketplace.sol\":1430:1440  msg.sender */\n      caller\n        /* \"contracts/Marketplace.sol\":1395:1466  IERC721(_nftContract).transferFrom(msg.sender, address(this), _tokenId) */\n      0x04\n      dup3\n      add\n        /* \"#utility.yul\":6367:6418   */\n      mstore\n        /* \"contracts/Marketplace.sol\":1450:1454  this */\n      address\n        /* \"#utility.yul\":6434:6452   */\n      0x24\n      dup3\n      add\n        /* \"#utility.yul\":6427:6487   */\n      mstore\n        /* \"#utility.yul\":6503:6521   */\n      0x44\n      dup2\n      add\n        /* \"#utility.yul\":6496:6530   */\n      dup6\n      swap1\n      mstore\n      sub(shl(0xa0, 0x01), 0x01)\n        /* \"contracts/Marketplace.sol\":1395:1429  IERC721(_nftContract).transferFrom */\n      dup7\n      and\n      swap1\n      0x23b872dd\n      swap1\n        /* \"#utility.yul\":6340:6358   */\n      0x64\n      add\n        /* \"contracts/Marketplace.sol\":1395:1466  IERC721(_nftContract).transferFrom(msg.sender, address(this), _tokenId) */\n      0x00\n      mload(0x40)\n      dup1\n      dup4\n      sub\n      dup2\n      0x00\n      dup8\n      dup1\n      extcodesize\n      iszero\n      dup1\n      iszero\n      tag_129\n      jumpi\n      0x00\n      dup1\n      revert\n    tag_129:\n      pop\n      gas\n      call\n      iszero\n      dup1\n      iszero\n      tag_131\n      jumpi\n      returndatasize\n      0x00\n      dup1\n      returndatacopy\n      revert(0x00, returndatasize)\n    tag_131:\n      pop\n      pop\n      pop\n      pop\n        /* \"contracts/Marketplace.sol\":1477:1498  _nftCount.increment() */\n      tag_132\n        /* \"contracts/Marketplace.sol\":1477:1486  _nftCount */\n      0x02\n        /* \"contracts/@openzeppelin/contracts/utils/Counters.sol\":1032:1051  counter._value += 1 */\n      dup1\n      sload\n        /* \"contracts/@openzeppelin/contracts/utils/Counters.sol\":1050:1051  1 */\n      0x01\n        /* \"contracts/@openzeppelin/contracts/utils/Counters.sol\":1032:1051  counter._value += 1 */\n      add\n      swap1\n      sstore\n        /* \"contracts/@openzeppelin/contracts/utils/Counters.sol\":945:1068  function increment(Counter storage counter) internal {... */\n      jump\n        /* \"contracts/Marketplace.sol\":1477:1498  _nftCount.increment() */\n    tag_132:\n        /* \"contracts/Marketplace.sol\":1528:1732  Token(... */\n      0x40\n      dup1\n      mload\n      0x0100\n      dup2\n      add\n      dup3\n      mstore\n      sub(shl(0xa0, 0x01), 0x01)\n      dup1\n      dup9\n      and\n      dup3\n      mstore\n      0x20\n      dup1\n      dup4\n      add\n      dup9\n      dup2\n      mstore\n        /* \"contracts/Marketplace.sol\":1586:1596  msg.sender */\n      caller\n        /* \"contracts/Marketplace.sol\":1528:1732  Token(... */\n      dup5\n      dup7\n      add\n      swap1\n      dup2\n      mstore\n        /* \"contracts/Marketplace.sol\":1621:1625  this */\n      address\n        /* \"contracts/Marketplace.sol\":1528:1732  Token(... */\n      0x60\n      dup7\n      add\n      swap1\n      dup2\n      mstore\n      0x80\n      dup7\n      add\n      dup10\n      dup2\n      mstore\n      0xa0\n      dup8\n      add\n      dup12\n      swap1\n      mstore\n      0xc0\n      dup8\n      add\n      dup10\n      swap1\n      mstore\n        /* \"contracts/Marketplace.sol\":1722:1726  true */\n      0x01\n        /* \"contracts/Marketplace.sol\":1528:1732  Token(... */\n      0xe0\n      dup9\n      add\n      dup2\n      swap1\n      mstore\n      0x00\n        /* \"contracts/Marketplace.sol\":1505:1525  _idToToken[_tokenId] */\n      dup14\n      dup2\n      mstore\n        /* \"contracts/Marketplace.sol\":1505:1515  _idToToken */\n      0x05\n        /* \"contracts/Marketplace.sol\":1505:1525  _idToToken[_tokenId] */\n      swap1\n      swap7\n      mstore\n      swap8\n      swap1\n      swap5\n      keccak256\n        /* \"contracts/Marketplace.sol\":1505:1732  _idToToken[_tokenId] = Token(... */\n      dup7\n      mload\n      dup2\n      sload\n      swap1\n      dup8\n      and\n      not(sub(shl(0xa0, 0x01), 0x01))\n      swap2\n      dup3\n      and\n      or\n      dup3\n      sstore\n      swap4\n      mload\n      swap8\n      dup2\n      add\n      swap8\n      swap1\n      swap8\n      sstore\n      swap1\n      mload\n      0x02\n      dup8\n      add\n      dup1\n      sload\n      swap2\n      dup7\n      and\n      swap2\n      dup5\n      and\n      swap2\n      swap1\n      swap2\n      or\n      swap1\n      sstore\n      mload\n      0x03\n      dup7\n      add\n      dup1\n      sload\n      swap2\n      swap1\n      swap5\n      and\n      swap2\n      and\n      or\n      swap1\n      swap2\n      sstore\n      mload\n        /* \"contracts/Marketplace.sol\":1528:1732  Token(... */\n      swap1\n      swap2\n        /* \"contracts/Marketplace.sol\":1505:1525  _idToToken[_tokenId] */\n      swap1\n        /* \"contracts/Marketplace.sol\":1505:1732  _idToToken[_tokenId] = Token(... */\n      0x04\n      dup3\n      add\n      swap1\n      tag_133\n      swap1\n      dup3\n      tag_134\n      jump\t// in\n    tag_133:\n      pop\n      0xa0\n      dup3\n      add\n      mload\n      0x05\n      dup3\n      add\n      swap1\n      tag_135\n      swap1\n      dup3\n      tag_134\n      jump\t// in\n    tag_135:\n      pop\n      0xc0\n      dup3\n      add\n      mload\n      0x06\n      dup3\n      add\n      sstore\n      0xe0\n      swap1\n      swap2\n      add\n      mload\n      0x07\n      swap1\n      swap2\n      add\n      dup1\n      sload\n      not(0xff)\n      and\n      swap2\n      iszero\n      iszero\n      swap2\n      swap1\n      swap2\n      or\n      swap1\n      sstore\n        /* \"contracts/Marketplace.sol\":1744:1812  NFTListed(_nftContract, _tokenId, msg.sender, address(this), _price) */\n      mload(0x40)\n      0xa0c6c0d02d86fdacecbaa5fdf5894bab204e31a778250474108540733a9b8d19\n      swap1\n      tag_70\n      swap1\n        /* \"contracts/Marketplace.sol\":1754:1766  _nftContract */\n      dup8\n      swap1\n        /* \"contracts/Marketplace.sol\":1768:1776  _tokenId */\n      dup8\n      swap1\n        /* \"contracts/Marketplace.sol\":1778:1788  msg.sender */\n      caller\n      swap1\n        /* \"contracts/Marketplace.sol\":1798:1802  this */\n      address\n      swap1\n        /* \"contracts/Marketplace.sol\":1805:1811  _price */\n      dup8\n      swap1\n        /* \"contracts/Marketplace.sol\":1744:1812  NFTListed(_nftContract, _tokenId, msg.sender, address(this), _price) */\n      tag_71\n      jump\t// in\n        /* \"contracts/@openzeppelin/contracts/utils/Counters.sol\":1074:1303  function decrement(Counter storage counter) internal {... */\n    tag_69:\n        /* \"contracts/@openzeppelin/contracts/utils/Counters.sol\":1153:1167  counter._value */\n      dup1\n      sload\n        /* \"contracts/@openzeppelin/contracts/utils/Counters.sol\":1185:1194  value > 0 */\n      dup1\n        /* \"contracts/@openzeppelin/contracts/utils/Counters.sol\":1177:1226  require(value > 0, \"Counter: decrement overflow\") */\n      tag_138\n      jumpi\n      mload(0x40)\n      shl(0xe5, 0x461bcd)\n      dup2\n      mstore\n        /* \"#utility.yul\":11056:11058   */\n      0x20\n        /* \"contracts/@openzeppelin/contracts/utils/Counters.sol\":1177:1226  require(value > 0, \"Counter: decrement overflow\") */\n      0x04\n      dup3\n      add\n        /* \"#utility.yul\":11038:11059   */\n      mstore\n        /* \"#utility.yul\":11095:11097   */\n      0x1b\n        /* \"#utility.yul\":11075:11093   */\n      0x24\n      dup3\n      add\n        /* \"#utility.yul\":11068:11098   */\n      mstore\n        /* \"#utility.yul\":11134:11163   */\n      0x436f756e7465723a2064656372656d656e74206f766572666c6f770000000000\n        /* \"#utility.yul\":11114:11132   */\n      0x44\n      dup3\n      add\n        /* \"#utility.yul\":11107:11164   */\n      mstore\n        /* \"#utility.yul\":11181:11199   */\n      0x64\n      add\n        /* \"contracts/@openzeppelin/contracts/utils/Counters.sol\":1177:1226  require(value > 0, \"Counter: decrement overflow\") */\n      tag_49\n        /* \"#utility.yul\":10854:11205   */\n      jump\n        /* \"contracts/@openzeppelin/contracts/utils/Counters.sol\":1177:1226  require(value > 0, \"Counter: decrement overflow\") */\n    tag_138:\n      not(0x00)\n        /* \"contracts/@openzeppelin/contracts/utils/Counters.sol\":1277:1286  value - 1 */\n      add\n        /* \"contracts/@openzeppelin/contracts/utils/Counters.sol\":1260:1286  counter._value = value - 1 */\n      swap1\n      sstore\n        /* \"contracts/@openzeppelin/contracts/utils/Counters.sol\":1074:1303  function decrement(Counter storage counter) internal {... */\n      jump\t// out\n        /* \"#utility.yul\":14:145   */\n    tag_143:\n      sub(shl(0xa0, 0x01), 0x01)\n        /* \"#utility.yul\":89:120   */\n      dup2\n      and\n        /* \"#utility.yul\":79:121   */\n      dup2\n      eq\n        /* \"#utility.yul\":69:139   */\n      tag_154\n      jumpi\n        /* \"#utility.yul\":135:136   */\n      0x00\n        /* \"#utility.yul\":132:133   */\n      dup1\n        /* \"#utility.yul\":125:137   */\n      revert\n        /* \"#utility.yul\":69:139   */\n    tag_154:\n        /* \"#utility.yul\":14:145   */\n      pop\n      jump\t// out\n        /* \"#utility.yul\":150:637   */\n    tag_13:\n        /* \"#utility.yul\":227:233   */\n      0x00\n        /* \"#utility.yul\":235:241   */\n      dup1\n        /* \"#utility.yul\":243:249   */\n      0x00\n        /* \"#utility.yul\":296:298   */\n      0x60\n        /* \"#utility.yul\":284:293   */\n      dup5\n        /* \"#utility.yul\":275:282   */\n      dup7\n        /* \"#utility.yul\":271:294   */\n      sub\n        /* \"#utility.yul\":267:299   */\n      slt\n        /* \"#utility.yul\":264:316   */\n      iszero\n      tag_156\n      jumpi\n        /* \"#utility.yul\":312:313   */\n      0x00\n        /* \"#utility.yul\":309:310   */\n      dup1\n        /* \"#utility.yul\":302:314   */\n      revert\n        /* \"#utility.yul\":264:316   */\n    tag_156:\n        /* \"#utility.yul\":351:360   */\n      dup4\n        /* \"#utility.yul\":338:361   */\n      calldataload\n        /* \"#utility.yul\":370:401   */\n      tag_157\n        /* \"#utility.yul\":395:400   */\n      dup2\n        /* \"#utility.yul\":370:401   */\n      tag_143\n      jump\t// in\n    tag_157:\n        /* \"#utility.yul\":420:425   */\n      swap6\n        /* \"#utility.yul\":498:500   */\n      0x20\n        /* \"#utility.yul\":483:501   */\n      dup6\n      add\n        /* \"#utility.yul\":470:502   */\n      calldataload\n      swap6\n      pop\n        /* \"#utility.yul\":601:603   */\n      0x40\n        /* \"#utility.yul\":586:604   */\n      swap1\n      swap5\n      add\n        /* \"#utility.yul\":573:605   */\n      calldataload\n      swap4\n        /* \"#utility.yul\":150:637   */\n      swap3\n      pop\n      pop\n      pop\n      jump\t// out\n        /* \"#utility.yul\":642:868   */\n    tag_18:\n        /* \"#utility.yul\":701:707   */\n      0x00\n        /* \"#utility.yul\":754:756   */\n      0x20\n        /* \"#utility.yul\":742:751   */\n      dup3\n        /* \"#utility.yul\":733:740   */\n      dup5\n        /* \"#utility.yul\":729:752   */\n      sub\n        /* \"#utility.yul\":725:757   */\n      slt\n        /* \"#utility.yul\":722:774   */\n      iszero\n      tag_159\n      jumpi\n        /* \"#utility.yul\":770:771   */\n      0x00\n        /* \"#utility.yul\":767:768   */\n      dup1\n        /* \"#utility.yul\":760:772   */\n      revert\n        /* \"#utility.yul\":722:774   */\n    tag_159:\n      pop\n        /* \"#utility.yul\":815:838   */\n      calldataload\n      swap2\n        /* \"#utility.yul\":642:868   */\n      swap1\n      pop\n      jump\t// out\n        /* \"#utility.yul\":982:1271   */\n    tag_145:\n        /* \"#utility.yul\":1024:1027   */\n      0x00\n        /* \"#utility.yul\":1062:1067   */\n      dup2\n        /* \"#utility.yul\":1056:1068   */\n      mload\n        /* \"#utility.yul\":1089:1095   */\n      dup1\n        /* \"#utility.yul\":1084:1087   */\n      dup5\n        /* \"#utility.yul\":1077:1096   */\n      mstore\n        /* \"#utility.yul\":1145:1151   */\n      dup1\n        /* \"#utility.yul\":1138:1142   */\n      0x20\n        /* \"#utility.yul\":1131:1136   */\n      dup5\n        /* \"#utility.yul\":1127:1143   */\n      add\n        /* \"#utility.yul\":1120:1124   */\n      0x20\n        /* \"#utility.yul\":1115:1118   */\n      dup7\n        /* \"#utility.yul\":1111:1125   */\n      add\n        /* \"#utility.yul\":1105:1152   */\n      mcopy\n        /* \"#utility.yul\":1197:1198   */\n      0x00\n        /* \"#utility.yul\":1190:1194   */\n      0x20\n        /* \"#utility.yul\":1181:1187   */\n      dup3\n        /* \"#utility.yul\":1176:1179   */\n      dup7\n        /* \"#utility.yul\":1172:1188   */\n      add\n        /* \"#utility.yul\":1168:1195   */\n      add\n        /* \"#utility.yul\":1161:1199   */\n      mstore\n        /* \"#utility.yul\":1260:1264   */\n      0x20\n        /* \"#utility.yul\":1253:1255   */\n      0x1f\n        /* \"#utility.yul\":1249:1256   */\n      not\n        /* \"#utility.yul\":1244:1246   */\n      0x1f\n        /* \"#utility.yul\":1236:1242   */\n      dup4\n        /* \"#utility.yul\":1232:1247   */\n      add\n        /* \"#utility.yul\":1228:1257   */\n      and\n        /* \"#utility.yul\":1223:1226   */\n      dup6\n        /* \"#utility.yul\":1219:1258   */\n      add\n        /* \"#utility.yul\":1215:1265   */\n      add\n        /* \"#utility.yul\":1208:1265   */\n      swap2\n      pop\n      pop\n        /* \"#utility.yul\":982:1271   */\n      swap3\n      swap2\n      pop\n      pop\n      jump\t// out\n        /* \"#utility.yul\":1372:2489   */\n    tag_21:\n        /* \"#utility.yul\":1547:1549   */\n      0x20\n        /* \"#utility.yul\":1536:1545   */\n      dup2\n        /* \"#utility.yul\":1529:1550   */\n      mstore\n        /* \"#utility.yul\":1622:1623   */\n      0x01\n        /* \"#utility.yul\":1618:1619   */\n      dup1\n        /* \"#utility.yul\":1613:1616   */\n      0xa0\n        /* \"#utility.yul\":1609:1620   */\n      shl\n        /* \"#utility.yul\":1605:1624   */\n      sub\n        /* \"#utility.yul\":1596:1602   */\n      dup3\n        /* \"#utility.yul\":1590:1603   */\n      mload\n        /* \"#utility.yul\":1586:1625   */\n      and\n        /* \"#utility.yul\":1581:1583   */\n      0x20\n        /* \"#utility.yul\":1570:1579   */\n      dup3\n        /* \"#utility.yul\":1566:1584   */\n      add\n        /* \"#utility.yul\":1559:1626   */\n      mstore\n        /* \"#utility.yul\":1680:1682   */\n      0x20\n        /* \"#utility.yul\":1672:1678   */\n      dup3\n        /* \"#utility.yul\":1668:1683   */\n      add\n        /* \"#utility.yul\":1662:1684   */\n      mload\n        /* \"#utility.yul\":1657:1659   */\n      0x40\n        /* \"#utility.yul\":1646:1655   */\n      dup3\n        /* \"#utility.yul\":1642:1660   */\n      add\n        /* \"#utility.yul\":1635:1685   */\n      mstore\n        /* \"#utility.yul\":1510:1514   */\n      0x00\n        /* \"#utility.yul\":1732:1734   */\n      0x40\n        /* \"#utility.yul\":1724:1730   */\n      dup4\n        /* \"#utility.yul\":1720:1735   */\n      add\n        /* \"#utility.yul\":1714:1736   */\n      mload\n        /* \"#utility.yul\":1745:1797   */\n      tag_164\n        /* \"#utility.yul\":1793:1795   */\n      0x60\n        /* \"#utility.yul\":1782:1791   */\n      dup5\n        /* \"#utility.yul\":1778:1796   */\n      add\n        /* \"#utility.yul\":1764:1776   */\n      dup3\n      sub(shl(0xa0, 0x01), 0x01)\n        /* \"#utility.yul\":939:970   */\n      and\n        /* \"#utility.yul\":927:971   */\n      swap1\n      mstore\n        /* \"#utility.yul\":873:977   */\n      jump\n        /* \"#utility.yul\":1745:1797   */\n    tag_164:\n      pop\n        /* \"#utility.yul\":1846:1848   */\n      0x60\n        /* \"#utility.yul\":1834:1849   */\n      dup4\n      add\n        /* \"#utility.yul\":1828:1850   */\n      mload\n      sub(shl(0xa0, 0x01), 0x01)\n        /* \"#utility.yul\":939:970   */\n      dup2\n      and\n        /* \"#utility.yul\":1909:1912   */\n      0x80\n        /* \"#utility.yul\":1894:1913   */\n      dup5\n      add\n        /* \"#utility.yul\":927:971   */\n      mstore\n        /* \"#utility.yul\":1859:1914   */\n      pop\n        /* \"#utility.yul\":1963:1966   */\n      0x80\n        /* \"#utility.yul\":1955:1961   */\n      dup4\n        /* \"#utility.yul\":1951:1967   */\n      add\n        /* \"#utility.yul\":1945:1968   */\n      mload\n        /* \"#utility.yul\":2005:2011   */\n      0x0100\n        /* \"#utility.yul\":1999:2002   */\n      0xa0\n        /* \"#utility.yul\":1988:1997   */\n      dup5\n        /* \"#utility.yul\":1984:2003   */\n      add\n        /* \"#utility.yul\":1977:2012   */\n      mstore\n        /* \"#utility.yul\":2035:2089   */\n      tag_166\n        /* \"#utility.yul\":2084:2087   */\n      0x0120\n        /* \"#utility.yul\":2073:2082   */\n      dup5\n        /* \"#utility.yul\":2069:2088   */\n      add\n        /* \"#utility.yul\":2053:2067   */\n      dup3\n        /* \"#utility.yul\":2035:2089   */\n      tag_145\n      jump\t// in\n    tag_166:\n        /* \"#utility.yul\":2021:2089   */\n      swap1\n      pop\n        /* \"#utility.yul\":2138:2141   */\n      0xa0\n        /* \"#utility.yul\":2130:2136   */\n      dup5\n        /* \"#utility.yul\":2126:2142   */\n      add\n        /* \"#utility.yul\":2120:2143   */\n      mload\n        /* \"#utility.yul\":2212:2214   */\n      0x1f\n        /* \"#utility.yul\":2208:2215   */\n      not\n        /* \"#utility.yul\":2196:2205   */\n      dup5\n        /* \"#utility.yul\":2188:2194   */\n      dup4\n        /* \"#utility.yul\":2184:2206   */\n      sub\n        /* \"#utility.yul\":2180:2216   */\n      add\n        /* \"#utility.yul\":2174:2177   */\n      0xc0\n        /* \"#utility.yul\":2163:2172   */\n      dup6\n        /* \"#utility.yul\":2159:2178   */\n      add\n        /* \"#utility.yul\":2152:2217   */\n      mstore\n        /* \"#utility.yul\":2240:2281   */\n      tag_167\n        /* \"#utility.yul\":2274:2280   */\n      dup3\n        /* \"#utility.yul\":2258:2272   */\n      dup3\n        /* \"#utility.yul\":2240:2281   */\n      tag_145\n      jump\t// in\n    tag_167:\n        /* \"#utility.yul\":2226:2281   */\n      swap2\n      pop\n      pop\n        /* \"#utility.yul\":2336:2339   */\n      0xc0\n        /* \"#utility.yul\":2328:2334   */\n      dup5\n        /* \"#utility.yul\":2324:2340   */\n      add\n        /* \"#utility.yul\":2318:2341   */\n      mload\n        /* \"#utility.yul\":2312:2315   */\n      0xe0\n        /* \"#utility.yul\":2301:2310   */\n      dup5\n        /* \"#utility.yul\":2297:2316   */\n      add\n        /* \"#utility.yul\":2290:2342   */\n      mstore\n        /* \"#utility.yul\":2391:2394   */\n      0xe0\n        /* \"#utility.yul\":2383:2389   */\n      dup5\n        /* \"#utility.yul\":2379:2395   */\n      add\n        /* \"#utility.yul\":2373:2396   */\n      mload\n        /* \"#utility.yul\":2405:2460   */\n      tag_168\n        /* \"#utility.yul\":2452:2458   */\n      0x0100\n        /* \"#utility.yul\":2441:2450   */\n      dup6\n        /* \"#utility.yul\":2437:2459   */\n      add\n        /* \"#utility.yul\":2421:2435   */\n      dup3\n        /* \"#utility.yul\":1346:1359   */\n      iszero\n        /* \"#utility.yul\":1339:1360   */\n      iszero\n        /* \"#utility.yul\":1327:1361   */\n      swap1\n      mstore\n        /* \"#utility.yul\":1276:1367   */\n      jump\n        /* \"#utility.yul\":2405:2460   */\n    tag_168:\n      pop\n        /* \"#utility.yul\":2477:2483   */\n      swap4\n        /* \"#utility.yul\":1372:2489   */\n      swap3\n      pop\n      pop\n      pop\n      jump\t// out\n        /* \"#utility.yul\":2676:3043   */\n    tag_33:\n        /* \"#utility.yul\":2744:2750   */\n      0x00\n        /* \"#utility.yul\":2752:2758   */\n      dup1\n        /* \"#utility.yul\":2805:2807   */\n      0x40\n        /* \"#utility.yul\":2793:2802   */\n      dup4\n        /* \"#utility.yul\":2784:2791   */\n      dup6\n        /* \"#utility.yul\":2780:2803   */\n      sub\n        /* \"#utility.yul\":2776:2808   */\n      slt\n        /* \"#utility.yul\":2773:2825   */\n      iszero\n      tag_171\n      jumpi\n        /* \"#utility.yul\":2821:2822   */\n      0x00\n        /* \"#utility.yul\":2818:2819   */\n      dup1\n        /* \"#utility.yul\":2811:2823   */\n      revert\n        /* \"#utility.yul\":2773:2825   */\n    tag_171:\n        /* \"#utility.yul\":2860:2869   */\n      dup3\n        /* \"#utility.yul\":2847:2870   */\n      calldataload\n        /* \"#utility.yul\":2879:2910   */\n      tag_172\n        /* \"#utility.yul\":2904:2909   */\n      dup2\n        /* \"#utility.yul\":2879:2910   */\n      tag_143\n      jump\t// in\n    tag_172:\n        /* \"#utility.yul\":2929:2934   */\n      swap5\n        /* \"#utility.yul\":3007:3009   */\n      0x20\n        /* \"#utility.yul\":2992:3010   */\n      swap4\n      swap1\n      swap4\n      add\n        /* \"#utility.yul\":2979:3011   */\n      calldataload\n      swap4\n      pop\n      pop\n      pop\n        /* \"#utility.yul\":2676:3043   */\n      jump\t// out\n        /* \"#utility.yul\":3048:3175   */\n    tag_147:\n        /* \"#utility.yul\":3109:3119   */\n      0x4e487b71\n        /* \"#utility.yul\":3104:3107   */\n      0xe0\n        /* \"#utility.yul\":3100:3120   */\n      shl\n        /* \"#utility.yul\":3097:3098   */\n      0x00\n        /* \"#utility.yul\":3090:3121   */\n      mstore\n        /* \"#utility.yul\":3140:3144   */\n      0x41\n        /* \"#utility.yul\":3137:3138   */\n      0x04\n        /* \"#utility.yul\":3130:3145   */\n      mstore\n        /* \"#utility.yul\":3164:3168   */\n      0x24\n        /* \"#utility.yul\":3161:3162   */\n      0x00\n        /* \"#utility.yul\":3154:3169   */\n      revert\n        /* \"#utility.yul\":3180:3906   */\n    tag_148:\n        /* \"#utility.yul\":3223:3228   */\n      0x00\n        /* \"#utility.yul\":3276:3279   */\n      dup3\n        /* \"#utility.yul\":3269:3273   */\n      0x1f\n        /* \"#utility.yul\":3261:3267   */\n      dup4\n        /* \"#utility.yul\":3257:3274   */\n      add\n        /* \"#utility.yul\":3253:3280   */\n      slt\n        /* \"#utility.yul\":3243:3298   */\n      tag_175\n      jumpi\n        /* \"#utility.yul\":3294:3295   */\n      0x00\n        /* \"#utility.yul\":3291:3292   */\n      dup1\n        /* \"#utility.yul\":3284:3296   */\n      revert\n        /* \"#utility.yul\":3243:3298   */\n    tag_175:\n        /* \"#utility.yul\":3334:3340   */\n      dup2\n        /* \"#utility.yul\":3321:3341   */\n      calldataload\n        /* \"#utility.yul\":3364:3382   */\n      0xffffffffffffffff\n        /* \"#utility.yul\":3356:3362   */\n      dup2\n        /* \"#utility.yul\":3353:3383   */\n      gt\n        /* \"#utility.yul\":3350:3406   */\n      iszero\n      tag_177\n      jumpi\n        /* \"#utility.yul\":3386:3404   */\n      tag_177\n      tag_147\n      jump\t// in\n    tag_177:\n        /* \"#utility.yul\":3435:3437   */\n      0x40\n        /* \"#utility.yul\":3429:3438   */\n      mload\n        /* \"#utility.yul\":3527:3529   */\n      0x1f\n        /* \"#utility.yul\":3489:3506   */\n      dup3\n      add\n      not(0x1f)\n        /* \"#utility.yul\":3485:3516   */\n      swap1\n      dup2\n      and\n        /* \"#utility.yul\":3518:3520   */\n      0x3f\n        /* \"#utility.yul\":3481:3521   */\n      add\n        /* \"#utility.yul\":3477:3531   */\n      and\n        /* \"#utility.yul\":3465:3532   */\n      dup2\n      add\n        /* \"#utility.yul\":3562:3580   */\n      0xffffffffffffffff\n        /* \"#utility.yul\":3547:3581   */\n      dup2\n      gt\n        /* \"#utility.yul\":3583:3605   */\n      dup3\n      dup3\n      lt\n        /* \"#utility.yul\":3544:3606   */\n      or\n        /* \"#utility.yul\":3541:3629   */\n      iszero\n      tag_179\n      jumpi\n        /* \"#utility.yul\":3609:3627   */\n      tag_179\n      tag_147\n      jump\t// in\n    tag_179:\n        /* \"#utility.yul\":3645:3647   */\n      0x40\n        /* \"#utility.yul\":3638:3660   */\n      mstore\n        /* \"#utility.yul\":3669:3691   */\n      dup2\n      dup2\n      mstore\n        /* \"#utility.yul\":3710:3729   */\n      dup4\n      dup3\n      add\n        /* \"#utility.yul\":3731:3735   */\n      0x20\n        /* \"#utility.yul\":3706:3736   */\n      add\n        /* \"#utility.yul\":3703:3742   */\n      dup6\n      lt\n        /* \"#utility.yul\":3700:3759   */\n      iszero\n      tag_180\n      jumpi\n        /* \"#utility.yul\":3755:3756   */\n      0x00\n        /* \"#utility.yul\":3752:3753   */\n      dup1\n        /* \"#utility.yul\":3745:3757   */\n      revert\n        /* \"#utility.yul\":3700:3759   */\n    tag_180:\n        /* \"#utility.yul\":3819:3825   */\n      dup2\n        /* \"#utility.yul\":3812:3816   */\n      0x20\n        /* \"#utility.yul\":3804:3810   */\n      dup6\n        /* \"#utility.yul\":3800:3817   */\n      add\n        /* \"#utility.yul\":3793:3797   */\n      0x20\n        /* \"#utility.yul\":3785:3791   */\n      dup4\n        /* \"#utility.yul\":3781:3798   */\n      add\n        /* \"#utility.yul\":3768:3826   */\n      calldatacopy\n        /* \"#utility.yul\":3874:3875   */\n      0x00\n        /* \"#utility.yul\":3846:3865   */\n      swap2\n      dup2\n      add\n        /* \"#utility.yul\":3867:3871   */\n      0x20\n        /* \"#utility.yul\":3842:3872   */\n      add\n        /* \"#utility.yul\":3835:3876   */\n      swap2\n      swap1\n      swap2\n      mstore\n        /* \"#utility.yul\":3850:3856   */\n      swap4\n        /* \"#utility.yul\":3180:3906   */\n      swap3\n      pop\n      pop\n      pop\n      jump\t// out\n        /* \"#utility.yul\":3911:4826   */\n    tag_45:\n        /* \"#utility.yul\":4026:4032   */\n      0x00\n        /* \"#utility.yul\":4034:4040   */\n      dup1\n        /* \"#utility.yul\":4042:4048   */\n      0x00\n        /* \"#utility.yul\":4050:4056   */\n      dup1\n        /* \"#utility.yul\":4058:4064   */\n      0x00\n        /* \"#utility.yul\":4111:4114   */\n      0xa0\n        /* \"#utility.yul\":4099:4108   */\n      dup7\n        /* \"#utility.yul\":4090:4097   */\n      dup9\n        /* \"#utility.yul\":4086:4109   */\n      sub\n        /* \"#utility.yul\":4082:4115   */\n      slt\n        /* \"#utility.yul\":4079:4132   */\n      iszero\n      tag_182\n      jumpi\n        /* \"#utility.yul\":4128:4129   */\n      0x00\n        /* \"#utility.yul\":4125:4126   */\n      dup1\n        /* \"#utility.yul\":4118:4130   */\n      revert\n        /* \"#utility.yul\":4079:4132   */\n    tag_182:\n        /* \"#utility.yul\":4167:4176   */\n      dup6\n        /* \"#utility.yul\":4154:4177   */\n      calldataload\n        /* \"#utility.yul\":4186:4217   */\n      tag_183\n        /* \"#utility.yul\":4211:4216   */\n      dup2\n        /* \"#utility.yul\":4186:4217   */\n      tag_143\n      jump\t// in\n    tag_183:\n        /* \"#utility.yul\":4236:4241   */\n      swap5\n      pop\n        /* \"#utility.yul\":4314:4316   */\n      0x20\n        /* \"#utility.yul\":4299:4317   */\n      dup7\n      add\n        /* \"#utility.yul\":4286:4318   */\n      calldataload\n      swap4\n      pop\n        /* \"#utility.yul\":4395:4397   */\n      0x40\n        /* \"#utility.yul\":4380:4398   */\n      dup7\n      add\n        /* \"#utility.yul\":4367:4399   */\n      calldataload\n        /* \"#utility.yul\":4422:4440   */\n      0xffffffffffffffff\n        /* \"#utility.yul\":4411:4441   */\n      dup2\n      gt\n        /* \"#utility.yul\":4408:4458   */\n      iszero\n      tag_184\n      jumpi\n        /* \"#utility.yul\":4454:4455   */\n      0x00\n        /* \"#utility.yul\":4451:4452   */\n      dup1\n        /* \"#utility.yul\":4444:4456   */\n      revert\n        /* \"#utility.yul\":4408:4458   */\n    tag_184:\n        /* \"#utility.yul\":4477:4527   */\n      tag_185\n        /* \"#utility.yul\":4519:4526   */\n      dup9\n        /* \"#utility.yul\":4510:4516   */\n      dup3\n        /* \"#utility.yul\":4499:4508   */\n      dup10\n        /* \"#utility.yul\":4495:4517   */\n      add\n        /* \"#utility.yul\":4477:4527   */\n      tag_148\n      jump\t// in\n    tag_185:\n        /* \"#utility.yul\":4467:4527   */\n      swap4\n      pop\n      pop\n        /* \"#utility.yul\":4580:4582   */\n      0x60\n        /* \"#utility.yul\":4569:4578   */\n      dup7\n        /* \"#utility.yul\":4565:4583   */\n      add\n        /* \"#utility.yul\":4552:4584   */\n      calldataload\n        /* \"#utility.yul\":4609:4627   */\n      0xffffffffffffffff\n        /* \"#utility.yul\":4599:4607   */\n      dup2\n        /* \"#utility.yul\":4596:4628   */\n      gt\n        /* \"#utility.yul\":4593:4645   */\n      iszero\n      tag_186\n      jumpi\n        /* \"#utility.yul\":4641:4642   */\n      0x00\n        /* \"#utility.yul\":4638:4639   */\n      dup1\n        /* \"#utility.yul\":4631:4643   */\n      revert\n        /* \"#utility.yul\":4593:4645   */\n    tag_186:\n        /* \"#utility.yul\":4664:4716   */\n      tag_187\n        /* \"#utility.yul\":4708:4715   */\n      dup9\n        /* \"#utility.yul\":4697:4705   */\n      dup3\n        /* \"#utility.yul\":4686:4695   */\n      dup10\n        /* \"#utility.yul\":4682:4706   */\n      add\n        /* \"#utility.yul\":4664:4716   */\n      tag_148\n      jump\t// in\n    tag_187:\n        /* \"#utility.yul\":3911:4826   */\n      swap6\n      swap9\n      swap5\n      swap8\n      pop\n      swap3\n      swap6\n        /* \"#utility.yul\":4789:4792   */\n      0x80\n        /* \"#utility.yul\":4774:4793   */\n      add\n        /* \"#utility.yul\":4761:4794   */\n      calldataload\n      swap4\n        /* \"#utility.yul\":3911:4826   */\n      swap3\n      pop\n      pop\n      pop\n      jump\t// out\n        /* \"#utility.yul\":4831:5186   */\n    tag_50:\n        /* \"#utility.yul\":5033:5035   */\n      0x20\n        /* \"#utility.yul\":5015:5036   */\n      dup1\n      dup3\n      mstore\n        /* \"#utility.yul\":5072:5074   */\n      0x1f\n        /* \"#utility.yul\":5052:5070   */\n      swap1\n      dup3\n      add\n        /* \"#utility.yul\":5045:5075   */\n      mstore\n        /* \"#utility.yul\":5111:5144   */\n      0x5265656e7472616e637947756172643a207265656e7472616e742063616c6c00\n        /* \"#utility.yul\":5106:5108   */\n      0x40\n        /* \"#utility.yul\":5091:5109   */\n      dup3\n      add\n        /* \"#utility.yul\":5084:5145   */\n      mstore\n        /* \"#utility.yul\":5177:5179   */\n      0x60\n        /* \"#utility.yul\":5162:5180   */\n      add\n      swap1\n        /* \"#utility.yul\":4831:5186   */\n      jump\t// out\n        /* \"#utility.yul\":5191:5442   */\n    tag_56:\n        /* \"#utility.yul\":5261:5267   */\n      0x00\n        /* \"#utility.yul\":5314:5316   */\n      0x20\n        /* \"#utility.yul\":5302:5311   */\n      dup3\n        /* \"#utility.yul\":5293:5300   */\n      dup5\n        /* \"#utility.yul\":5289:5312   */\n      sub\n        /* \"#utility.yul\":5285:5317   */\n      slt\n        /* \"#utility.yul\":5282:5334   */\n      iszero\n      tag_190\n      jumpi\n        /* \"#utility.yul\":5330:5331   */\n      0x00\n        /* \"#utility.yul\":5327:5328   */\n      dup1\n        /* \"#utility.yul\":5320:5332   */\n      revert\n        /* \"#utility.yul\":5282:5334   */\n    tag_190:\n        /* \"#utility.yul\":5362:5371   */\n      dup2\n        /* \"#utility.yul\":5356:5372   */\n      mload\n        /* \"#utility.yul\":5381:5412   */\n      tag_191\n        /* \"#utility.yul\":5406:5411   */\n      dup2\n        /* \"#utility.yul\":5381:5412   */\n      tag_143\n      jump\t// in\n    tag_191:\n        /* \"#utility.yul\":5431:5436   */\n      swap4\n        /* \"#utility.yul\":5191:5442   */\n      swap3\n      pop\n      pop\n      pop\n      jump\t// out\n        /* \"#utility.yul\":6541:7082   */\n    tag_71:\n      sub(shl(0xa0, 0x01), 0x01)\n        /* \"#utility.yul\":6818:6850   */\n      swap6\n      dup7\n      and\n        /* \"#utility.yul\":6800:6851   */\n      dup2\n      mstore\n        /* \"#utility.yul\":6882:6884   */\n      0x20\n        /* \"#utility.yul\":6867:6885   */\n      dup2\n      add\n        /* \"#utility.yul\":6860:6894   */\n      swap5\n      swap1\n      swap5\n      mstore\n        /* \"#utility.yul\":6930:6962   */\n      swap2\n      dup5\n      and\n        /* \"#utility.yul\":6925:6927   */\n      0x40\n        /* \"#utility.yul\":6910:6928   */\n      dup5\n      add\n        /* \"#utility.yul\":6903:6963   */\n      mstore\n        /* \"#utility.yul\":6999:7031   */\n      swap1\n      swap3\n      and\n        /* \"#utility.yul\":6994:6996   */\n      0x60\n        /* \"#utility.yul\":6979:6997   */\n      dup3\n      add\n        /* \"#utility.yul\":6972:7032   */\n      mstore\n        /* \"#utility.yul\":7063:7066   */\n      0x80\n        /* \"#utility.yul\":7048:7067   */\n      dup2\n      add\n        /* \"#utility.yul\":7041:7076   */\n      swap2\n      swap1\n      swap2\n      mstore\n        /* \"#utility.yul\":6787:6790   */\n      0xa0\n        /* \"#utility.yul\":6772:6791   */\n      add\n      swap1\n        /* \"#utility.yul\":6541:7082   */\n      jump\t// out\n        /* \"#utility.yul\":7087:7467   */\n    tag_76:\n        /* \"#utility.yul\":7166:7167   */\n      0x01\n        /* \"#utility.yul\":7162:7174   */\n      dup2\n      dup2\n      shr\n      swap1\n        /* \"#utility.yul\":7209:7221   */\n      dup3\n      and\n      dup1\n        /* \"#utility.yul\":7230:7291   */\n      tag_197\n      jumpi\n        /* \"#utility.yul\":7284:7288   */\n      0x7f\n        /* \"#utility.yul\":7276:7282   */\n      dup3\n        /* \"#utility.yul\":7272:7289   */\n      and\n        /* \"#utility.yul\":7262:7289   */\n      swap2\n      pop\n        /* \"#utility.yul\":7230:7291   */\n    tag_197:\n        /* \"#utility.yul\":7337:7339   */\n      0x20\n        /* \"#utility.yul\":7329:7335   */\n      dup3\n        /* \"#utility.yul\":7326:7340   */\n      lt\n        /* \"#utility.yul\":7306:7324   */\n      dup2\n        /* \"#utility.yul\":7303:7341   */\n      sub\n        /* \"#utility.yul\":7300:7461   */\n      tag_198\n      jumpi\n        /* \"#utility.yul\":7383:7393   */\n      0x4e487b71\n        /* \"#utility.yul\":7378:7381   */\n      0xe0\n        /* \"#utility.yul\":7374:7394   */\n      shl\n        /* \"#utility.yul\":7371:7372   */\n      0x00\n        /* \"#utility.yul\":7364:7395   */\n      mstore\n        /* \"#utility.yul\":7418:7422   */\n      0x22\n        /* \"#utility.yul\":7415:7416   */\n      0x04\n        /* \"#utility.yul\":7408:7423   */\n      mstore\n        /* \"#utility.yul\":7446:7450   */\n      0x24\n        /* \"#utility.yul\":7443:7444   */\n      0x00\n        /* \"#utility.yul\":7436:7451   */\n      revert\n        /* \"#utility.yul\":7300:7461   */\n    tag_198:\n      pop\n        /* \"#utility.yul\":7087:7467   */\n      swap2\n      swap1\n      pop\n      jump\t// out\n        /* \"#utility.yul\":8856:9374   */\n    tag_150:\n        /* \"#utility.yul\":8958:8960   */\n      0x1f\n        /* \"#utility.yul\":8953:8956   */\n      dup3\n        /* \"#utility.yul\":8950:8961   */\n      gt\n        /* \"#utility.yul\":8947:9368   */\n      iszero\n      tag_204\n      jumpi\n        /* \"#utility.yul\":8994:8999   */\n      dup1\n        /* \"#utility.yul\":8991:8992   */\n      0x00\n        /* \"#utility.yul\":8984:9000   */\n      mstore\n        /* \"#utility.yul\":9038:9042   */\n      0x20\n        /* \"#utility.yul\":9035:9036   */\n      0x00\n        /* \"#utility.yul\":9025:9043   */\n      keccak256\n        /* \"#utility.yul\":9108:9110   */\n      0x1f\n        /* \"#utility.yul\":9096:9106   */\n      dup5\n        /* \"#utility.yul\":9092:9111   */\n      add\n        /* \"#utility.yul\":9089:9090   */\n      0x05\n        /* \"#utility.yul\":9085:9112   */\n      shr\n        /* \"#utility.yul\":9079:9083   */\n      dup2\n        /* \"#utility.yul\":9075:9113   */\n      add\n        /* \"#utility.yul\":9144:9148   */\n      0x20\n        /* \"#utility.yul\":9132:9142   */\n      dup6\n        /* \"#utility.yul\":9129:9149   */\n      lt\n        /* \"#utility.yul\":9126:9173   */\n      iszero\n      tag_205\n      jumpi\n      pop\n        /* \"#utility.yul\":9167:9171   */\n      dup1\n        /* \"#utility.yul\":9126:9173   */\n    tag_205:\n        /* \"#utility.yul\":9222:9224   */\n      0x1f\n        /* \"#utility.yul\":9217:9220   */\n      dup5\n        /* \"#utility.yul\":9213:9225   */\n      add\n        /* \"#utility.yul\":9210:9211   */\n      0x05\n        /* \"#utility.yul\":9206:9226   */\n      shr\n        /* \"#utility.yul\":9200:9204   */\n      dup3\n        /* \"#utility.yul\":9196:9227   */\n      add\n        /* \"#utility.yul\":9186:9227   */\n      swap2\n      pop\n        /* \"#utility.yul\":9277:9358   */\n    tag_206:\n        /* \"#utility.yul\":9295:9297   */\n      dup2\n        /* \"#utility.yul\":9288:9293   */\n      dup2\n        /* \"#utility.yul\":9285:9298   */\n      lt\n        /* \"#utility.yul\":9277:9358   */\n      iszero\n      tag_208\n      jumpi\n        /* \"#utility.yul\":9354:9355   */\n      0x00\n        /* \"#utility.yul\":9340:9356   */\n      dup2\n      sstore\n        /* \"#utility.yul\":9321:9322   */\n      0x01\n        /* \"#utility.yul\":9310:9323   */\n      add\n        /* \"#utility.yul\":9277:9358   */\n      jump(tag_206)\n    tag_208:\n        /* \"#utility.yul\":9281:9284   */\n      pop\n      pop\n        /* \"#utility.yul\":8947:9368   */\n    tag_204:\n        /* \"#utility.yul\":8856:9374   */\n      pop\n      pop\n      pop\n      jump\t// out\n        /* \"#utility.yul\":9550:10849   */\n    tag_134:\n        /* \"#utility.yul\":9676:9679   */\n      dup2\n        /* \"#utility.yul\":9670:9680   */\n      mload\n        /* \"#utility.yul\":9703:9721   */\n      0xffffffffffffffff\n        /* \"#utility.yul\":9695:9701   */\n      dup2\n        /* \"#utility.yul\":9692:9722   */\n      gt\n        /* \"#utility.yul\":9689:9745   */\n      iszero\n      tag_212\n      jumpi\n        /* \"#utility.yul\":9725:9743   */\n      tag_212\n      tag_147\n      jump\t// in\n    tag_212:\n        /* \"#utility.yul\":9754:9851   */\n      tag_213\n        /* \"#utility.yul\":9844:9850   */\n      dup2\n        /* \"#utility.yul\":9804:9842   */\n      tag_214\n        /* \"#utility.yul\":9836:9840   */\n      dup5\n        /* \"#utility.yul\":9830:9841   */\n      sload\n        /* \"#utility.yul\":9804:9842   */\n      tag_76\n      jump\t// in\n    tag_214:\n        /* \"#utility.yul\":9798:9802   */\n      dup5\n        /* \"#utility.yul\":9754:9851   */\n      tag_150\n      jump\t// in\n    tag_213:\n        /* \"#utility.yul\":9900:9904   */\n      0x20\n        /* \"#utility.yul\":9931:9933   */\n      0x1f\n        /* \"#utility.yul\":9920:9934   */\n      dup3\n      gt\n        /* \"#utility.yul\":9948:9949   */\n      0x01\n        /* \"#utility.yul\":9943:10592   */\n      dup2\n      eq\n      tag_216\n      jumpi\n        /* \"#utility.yul\":10636:10637   */\n      0x00\n        /* \"#utility.yul\":10653:10659   */\n      dup4\n        /* \"#utility.yul\":10650:10739   */\n      iszero\n      tag_217\n      jumpi\n      pop\n        /* \"#utility.yul\":10705:10724   */\n      dup5\n      dup3\n      add\n        /* \"#utility.yul\":10699:10725   */\n      mload\n        /* \"#utility.yul\":10650:10739   */\n    tag_217:\n      not(0x00)\n        /* \"#utility.yul\":9507:9508   */\n      0x03\n        /* \"#utility.yul\":9503:9514   */\n      dup6\n      swap1\n      shl\n        /* \"#utility.yul\":9499:9523   */\n      shr\n        /* \"#utility.yul\":9495:9524   */\n      not\n        /* \"#utility.yul\":9485:9525   */\n      and\n        /* \"#utility.yul\":9531:9532   */\n      0x01\n        /* \"#utility.yul\":9527:9538   */\n      dup5\n      swap1\n      shl\n        /* \"#utility.yul\":9482:9539   */\n      or\n        /* \"#utility.yul\":10752:10833   */\n      dup5\n      sstore\n        /* \"#utility.yul\":9913:10843   */\n      jump(tag_208)\n        /* \"#utility.yul\":9943:10592   */\n    tag_216:\n        /* \"#utility.yul\":8803:8804   */\n      0x00\n        /* \"#utility.yul\":8796:8810   */\n      dup5\n      dup2\n      mstore\n        /* \"#utility.yul\":8840:8844   */\n      0x20\n        /* \"#utility.yul\":8827:8845   */\n      dup2\n      keccak256\n      not(0x1f)\n        /* \"#utility.yul\":9979:9999   */\n      dup6\n      and\n      swap2\n        /* \"#utility.yul\":10097:10319   */\n    tag_220:\n        /* \"#utility.yul\":10111:10118   */\n      dup3\n        /* \"#utility.yul\":10108:10109   */\n      dup2\n        /* \"#utility.yul\":10105:10119   */\n      lt\n        /* \"#utility.yul\":10097:10319   */\n      iszero\n      tag_222\n      jumpi\n        /* \"#utility.yul\":10193:10212   */\n      dup8\n      dup6\n      add\n        /* \"#utility.yul\":10187:10213   */\n      mload\n        /* \"#utility.yul\":10172:10214   */\n      dup3\n      sstore\n        /* \"#utility.yul\":10300:10304   */\n      0x20\n        /* \"#utility.yul\":10285:10305   */\n      swap5\n      dup6\n      add\n      swap5\n        /* \"#utility.yul\":10253:10254   */\n      0x01\n        /* \"#utility.yul\":10241:10255   */\n      swap1\n      swap3\n      add\n      swap2\n        /* \"#utility.yul\":10127:10139   */\n      add\n        /* \"#utility.yul\":10097:10319   */\n      jump(tag_220)\n    tag_222:\n        /* \"#utility.yul\":10101:10104   */\n      pop\n        /* \"#utility.yul\":10347:10353   */\n      dup5\n        /* \"#utility.yul\":10338:10345   */\n      dup3\n        /* \"#utility.yul\":10335:10354   */\n      lt\n        /* \"#utility.yul\":10332:10533   */\n      iszero\n      tag_223\n      jumpi\n        /* \"#utility.yul\":10408:10427   */\n      dup7\n      dup5\n      add\n        /* \"#utility.yul\":10402:10428   */\n      mload\n      not(0x00)\n        /* \"#utility.yul\":10491:10492   */\n      0x03\n        /* \"#utility.yul\":10487:10501   */\n      dup8\n      swap1\n      shl\n        /* \"#utility.yul\":10503:10506   */\n      0xf8\n        /* \"#utility.yul\":10483:10507   */\n      and\n        /* \"#utility.yul\":10479:10516   */\n      shr\n        /* \"#utility.yul\":10475:10517   */\n      not\n        /* \"#utility.yul\":10460:10518   */\n      and\n        /* \"#utility.yul\":10445:10519   */\n      dup2\n      sstore\n        /* \"#utility.yul\":10332:10533   */\n    tag_223:\n      pop\n      pop\n      pop\n      pop\n        /* \"#utility.yul\":10579:10580   */\n      0x01\n        /* \"#utility.yul\":10563:10577   */\n      swap1\n      dup2\n      shl\n        /* \"#utility.yul\":10559:10581   */\n      add\n        /* \"#utility.yul\":10546:10582   */\n      swap1\n      sstore\n      pop\n        /* \"#utility.yul\":9550:10849   */\n      jump\t// out\n\n    auxdata: 0xa2646970667358221220ebfbc94408d22e38221cca7aefa9c414b1c5343593f4e6ead41109f3a84ab84964736f6c634300081a0033\n}\n",
				"bytecode": {
					"linkReferences": {},
					"object": "6080604052655af3107a40006003553480156018575f80fd5b5060015f55600480546001600160a01b03191633179055610f608061003c5f395ff3fe608060405260043610610079575f3560e01c8063a82ba76f1161004c578063a82ba76f146100fe578063b4c49d0914610111578063c4b1514114610123578063eb9597d114610137575f80fd5b8063049356941461007d5780632444a8a6146100925780632b86ae38146100c7578063512dd020146100ea575b5f80fd5b61009061008b366004610ae9565b61014a565b005b34801561009d575f80fd5b506100b16100ac366004610b1b565b610385565b6040516100be9190610b60565b60405180910390f35b3480156100d2575f80fd5b506100dc60035481565b6040519081526020016100be565b3480156100f5575f80fd5b506100dc610559565b61009061010c366004610c0f565b610568565b34801561011c575f80fd5b50476100dc565b34801561012e575f80fd5b506100dc61081d565b610090610145366004610cd8565b610827565b60025f54036101745760405162461bcd60e51b815260040161016b90610d5f565b60405180910390fd5b60025f9081556040516331a9108f60e11b8152600481018490526001600160a01b03851690636352211e90602401602060405180830381865afa1580156101bd573d5f803e3d5ffd5b505050506040513d601f19601f820116820180604052508101906101e19190610d96565b905060035434146102345760405162461bcd60e51b815260206004820181905260248201527f4e6f7420656e6f75676820657468657220666f72206c697374696e6720666565604482015260640161016b565b5f82116102835760405162461bcd60e51b815260206004820152601c60248201527f5072696365206d757374206265206174206c6561737420312077656900000000604482015260640161016b565b6040516323b872dd60e01b81526001600160a01b038281166004830152306024830152604482018590528516906323b872dd906064015f604051808303815f87803b1580156102d0575f80fd5b505af11580156102e2573d5f803e3d5ffd5b5050505f8481526005602052604090206002810180546001600160a01b031990811633179091556003820180549091163017905560078101805460ff191660019081179091556006820185905590915061033b90610a7c565b7fa0c6c0d02d86fdacecbaa5fdf5894bab204e31a778250474108540733a9b8d198585333087604051610372959493929190610db8565b60405180910390a1505060015f55505050565b60408051610100810182525f8082526020820181905291810182905260608082018390526080820181905260a082015260c0810182905260e08101919091525f8281526005602090815260409182902082516101008101845281546001600160a01b03908116825260018301549382019390935260028201548316938101939093526003810154909116606083015260048101805460808401919061042990610deb565b80601f016020809104026020016040519081016040528092919081815260200182805461045590610deb565b80156104a05780601f10610477576101008083540402835291602001916104a0565b820191905f5260205f20905b81548152906001019060200180831161048357829003601f168201915b505050505081526020016005820180546104b990610deb565b80601f01602080910402602001604051908101604052809291908181526020018280546104e590610deb565b80156105305780601f1061050757610100808354040283529160200191610530565b820191905f5260205f20905b81548152906001019060200180831161051357829003601f168201915b50505091835250506006820154602082015260079091015460ff16151560409091015292915050565b5f61056360025490565b905090565b60025f54036105895760405162461bcd60e51b815260040161016b90610d5f565b60025f9081556040516331a9108f60e11b8152600481018390526001600160a01b03841690636352211e90602401602060405180830381865afa1580156105d2573d5f803e3d5ffd5b505050506040513d601f19601f820116820180604052508101906105f69190610d96565b5f83815260056020526040902060068101549192509034101561066a5760405162461bcd60e51b815260206004820152602660248201527f4e6f7420656e6f75676820657468657220746f20636f7665722061736b696e6760448201526520707269636560d01b606482015260840161016b565b600281015460405133916001600160a01b0316903480156108fc02915f818181858888f193505050501580156106a2573d5f803e3d5ffd5b5060018201546040516323b872dd60e01b81526001600160a01b0385811660048301523360248301526044820192909252908616906323b872dd906064015f604051808303815f87803b1580156106f7575f80fd5b505af1158015610709573d5f803e3d5ffd5b505060405163a22cb46560e01b8152336004820152600160248201526001600160a01b038816925063a22cb46591506044015f604051808303815f87803b158015610752575f80fd5b505af1158015610764573d5f803e3d5ffd5b50506004546003546040516001600160a01b03909216935080156108fc029250905f818181858888f193505050501580156107a1573d5f803e3d5ffd5b506003820180546001600160a01b0319166001600160a01b03831617905560078201805460ff191690556001805481019055600182015460028301546040517f16f1dbd97e6bf646d429ed186cce832f1f7fd9907814293b83181e9970ab7bd2926103729289926001600160a01b039091169086903490610db8565b5f61056360015490565b60025f54036108485760405162461bcd60e51b815260040161016b90610d5f565b60025f55806108995760405162461bcd60e51b815260206004820152601c60248201527f5072696365206d757374206265206174206c6561737420312077656900000000604482015260640161016b565b60035434146108ea5760405162461bcd60e51b815260206004820181905260248201527f4e6f7420656e6f75676820657468657220666f72206c697374696e6720666565604482015260640161016b565b6040516323b872dd60e01b8152336004820152306024820152604481018590526001600160a01b038616906323b872dd906064015f604051808303815f87803b158015610935575f80fd5b505af1158015610947573d5f803e3d5ffd5b50505050610959600280546001019055565b60408051610100810182526001600160a01b03808816825260208083018881523384860190815230606086019081526080860189815260a087018b905260c08701899052600160e088018190525f8d8152600590965297909420865181549087166001600160a01b031991821617825593519781019790975590516002870180549186169184169190911790555160038601805491909416911617909155519091906004820190610a0a9082610e6f565b5060a08201516005820190610a1f9082610e6f565b5060c0820151600682015560e0909101516007909101805460ff19169115159190911790556040517fa0c6c0d02d86fdacecbaa5fdf5894bab204e31a778250474108540733a9b8d19906103729087908790339030908790610db8565b805480610acb5760405162461bcd60e51b815260206004820152601b60248201527f436f756e7465723a2064656372656d656e74206f766572666c6f770000000000604482015260640161016b565b5f19019055565b6001600160a01b0381168114610ae6575f80fd5b50565b5f805f60608486031215610afb575f80fd5b8335610b0681610ad2565b95602085013595506040909401359392505050565b5f60208284031215610b2b575f80fd5b5035919050565b5f81518084528060208401602086015e5f602082860101526020601f19601f83011685010191505092915050565b6020815260018060a01b038251166020820152602082015160408201525f6040830151610b9860608401826001600160a01b03169052565b5060608301516001600160a01b038116608084015250608083015161010060a0840152610bc9610120840182610b32565b905060a0840151601f198483030160c0850152610be68282610b32565b91505060c084015160e084015260e0840151610c0761010085018215159052565b509392505050565b5f8060408385031215610c20575f80fd5b8235610c2b81610ad2565b946020939093013593505050565b634e487b7160e01b5f52604160045260245ffd5b5f82601f830112610c5c575f80fd5b813567ffffffffffffffff811115610c7657610c76610c39565b604051601f8201601f19908116603f0116810167ffffffffffffffff81118282101715610ca557610ca5610c39565b604052818152838201602001851015610cbc575f80fd5b816020850160208301375f918101602001919091529392505050565b5f805f805f60a08688031215610cec575f80fd5b8535610cf781610ad2565b945060208601359350604086013567ffffffffffffffff811115610d19575f80fd5b610d2588828901610c4d565b935050606086013567ffffffffffffffff811115610d41575f80fd5b610d4d88828901610c4d565b95989497509295608001359392505050565b6020808252601f908201527f5265656e7472616e637947756172643a207265656e7472616e742063616c6c00604082015260600190565b5f60208284031215610da6575f80fd5b8151610db181610ad2565b9392505050565b6001600160a01b039586168152602081019490945291841660408401529092166060820152608081019190915260a00190565b600181811c90821680610dff57607f821691505b602082108103610e1d57634e487b7160e01b5f52602260045260245ffd5b50919050565b601f821115610e6a57805f5260205f20601f840160051c81016020851015610e485750805b601f840160051c820191505b81811015610e67575f8155600101610e54565b50505b505050565b815167ffffffffffffffff811115610e8957610e89610c39565b610e9d81610e978454610deb565b84610e23565b6020601f821160018114610ecf575f8315610eb85750848201515b5f19600385901b1c1916600184901b178455610e67565b5f84815260208120601f198516915b82811015610efe5787850151825560209485019460019092019101610ede565b5084821015610f1b57868401515f19600387901b60f8161c191681555b50505050600190811b0190555056fea2646970667358221220ebfbc94408d22e38221cca7aefa9c414b1c5343593f4e6ead41109f3a84ab84964736f6c634300081a0033",
					"opcodes": "PUSH1 0x80 PUSH1 0x40 MSTORE PUSH6 0x5AF3107A4000 PUSH1 0x3 SSTORE CALLVALUE DUP1 ISZERO PUSH1 0x18 JUMPI PUSH0 DUP1 REVERT JUMPDEST POP PUSH1 0x1 PUSH0 SSTORE PUSH1 0x4 DUP1 SLOAD PUSH1 0x1 PUSH1 0x1 PUSH1 0xA0 SHL SUB NOT AND CALLER OR SWAP1 SSTORE PUSH2 0xF60 DUP1 PUSH2 0x3C PUSH0 CODECOPY PUSH0 RETURN INVALID PUSH1 0x80 PUSH1 0x40 MSTORE PUSH1 0x4 CALLDATASIZE LT PUSH2 0x79 JUMPI PUSH0 CALLDATALOAD PUSH1 0xE0 SHR DUP1 PUSH4 0xA82BA76F GT PUSH2 0x4C JUMPI DUP1 PUSH4 0xA82BA76F EQ PUSH2 0xFE JUMPI DUP1 PUSH4 0xB4C49D09 EQ PUSH2 0x111 JUMPI DUP1 PUSH4 0xC4B15141 EQ PUSH2 0x123 JUMPI DUP1 PUSH4 0xEB9597D1 EQ PUSH2 0x137 JUMPI PUSH0 DUP1 REVERT JUMPDEST DUP1 PUSH4 0x4935694 EQ PUSH2 0x7D JUMPI DUP1 PUSH4 0x2444A8A6 EQ PUSH2 0x92 JUMPI DUP1 PUSH4 0x2B86AE38 EQ PUSH2 0xC7 JUMPI DUP1 PUSH4 0x512DD020 EQ PUSH2 0xEA JUMPI JUMPDEST PUSH0 DUP1 REVERT JUMPDEST PUSH2 0x90 PUSH2 0x8B CALLDATASIZE PUSH1 0x4 PUSH2 0xAE9 JUMP JUMPDEST PUSH2 0x14A JUMP JUMPDEST STOP JUMPDEST CALLVALUE DUP1 ISZERO PUSH2 0x9D JUMPI PUSH0 DUP1 REVERT JUMPDEST POP PUSH2 0xB1 PUSH2 0xAC CALLDATASIZE PUSH1 0x4 PUSH2 0xB1B JUMP JUMPDEST PUSH2 0x385 JUMP JUMPDEST PUSH1 0x40 MLOAD PUSH2 0xBE SWAP2 SWAP1 PUSH2 0xB60 JUMP JUMPDEST PUSH1 0x40 MLOAD DUP1 SWAP2 SUB SWAP1 RETURN JUMPDEST CALLVALUE DUP1 ISZERO PUSH2 0xD2 JUMPI PUSH0 DUP1 REVERT JUMPDEST POP PUSH2 0xDC PUSH1 0x3 SLOAD DUP2 JUMP JUMPDEST PUSH1 0x40 MLOAD SWAP1 DUP2 MSTORE PUSH1 0x20 ADD PUSH2 0xBE JUMP JUMPDEST CALLVALUE DUP1 ISZERO PUSH2 0xF5 JUMPI PUSH0 DUP1 REVERT JUMPDEST POP PUSH2 0xDC PUSH2 0x559 JUMP JUMPDEST PUSH2 0x90 PUSH2 0x10C CALLDATASIZE PUSH1 0x4 PUSH2 0xC0F JUMP JUMPDEST PUSH2 0x568 JUMP JUMPDEST CALLVALUE DUP1 ISZERO PUSH2 0x11C JUMPI PUSH0 DUP1 REVERT JUMPDEST POP SELFBALANCE PUSH2 0xDC JUMP JUMPDEST CALLVALUE DUP1 ISZERO PUSH2 0x12E JUMPI PUSH0 DUP1 REVERT JUMPDEST POP PUSH2 0xDC PUSH2 0x81D JUMP JUMPDEST PUSH2 0x90 PUSH2 0x145 CALLDATASIZE PUSH1 0x4 PUSH2 0xCD8 JUMP JUMPDEST PUSH2 0x827 JUMP JUMPDEST PUSH1 0x2 PUSH0 SLOAD SUB PUSH2 0x174 JUMPI PUSH1 0x40 MLOAD PUSH3 0x461BCD PUSH1 0xE5 SHL DUP2 MSTORE PUSH1 0x4 ADD PUSH2 0x16B SWAP1 PUSH2 0xD5F JUMP JUMPDEST PUSH1 0x40 MLOAD DUP1 SWAP2 SUB SWAP1 REVERT JUMPDEST PUSH1 0x2 PUSH0 SWAP1 DUP2 SSTORE PUSH1 0x40 MLOAD PUSH4 0x31A9108F PUSH1 0xE1 SHL DUP2 MSTORE PUSH1 0x4 DUP2 ADD DUP5 SWAP1 MSTORE PUSH1 0x1 PUSH1 0x1 PUSH1 0xA0 SHL SUB DUP6 AND SWAP1 PUSH4 0x6352211E SWAP1 PUSH1 0x24 ADD PUSH1 0x20 PUSH1 0x40 MLOAD DUP1 DUP4 SUB DUP2 DUP7 GAS STATICCALL ISZERO DUP1 ISZERO PUSH2 0x1BD JUMPI RETURNDATASIZE PUSH0 DUP1 RETURNDATACOPY RETURNDATASIZE PUSH0 REVERT JUMPDEST POP POP POP POP PUSH1 0x40 MLOAD RETURNDATASIZE PUSH1 0x1F NOT PUSH1 0x1F DUP3 ADD AND DUP3 ADD DUP1 PUSH1 0x40 MSTORE POP DUP2 ADD SWAP1 PUSH2 0x1E1 SWAP2 SWAP1 PUSH2 0xD96 JUMP JUMPDEST SWAP1 POP PUSH1 0x3 SLOAD CALLVALUE EQ PUSH2 0x234 JUMPI PUSH1 0x40 MLOAD PUSH3 0x461BCD PUSH1 0xE5 SHL DUP2 MSTORE PUSH1 0x20 PUSH1 0x4 DUP3 ADD DUP2 SWAP1 MSTORE PUSH1 0x24 DUP3 ADD MSTORE PUSH32 0x4E6F7420656E6F75676820657468657220666F72206C697374696E6720666565 PUSH1 0x44 DUP3 ADD MSTORE PUSH1 0x64 ADD PUSH2 0x16B JUMP JUMPDEST PUSH0 DUP3 GT PUSH2 0x283 JUMPI PUSH1 0x40 MLOAD PUSH3 0x461BCD PUSH1 0xE5 SHL DUP2 MSTORE PUSH1 0x20 PUSH1 0x4 DUP3 ADD MSTORE PUSH1 0x1C PUSH1 0x24 DUP3 ADD MSTORE PUSH32 0x5072696365206D757374206265206174206C6561737420312077656900000000 PUSH1 0x44 DUP3 ADD MSTORE PUSH1 0x64 ADD PUSH2 0x16B JUMP JUMPDEST PUSH1 0x40 MLOAD PUSH4 0x23B872DD PUSH1 0xE0 SHL DUP2 MSTORE PUSH1 0x1 PUSH1 0x1 PUSH1 0xA0 SHL SUB DUP3 DUP2 AND PUSH1 0x4 DUP4 ADD MSTORE ADDRESS PUSH1 0x24 DUP4 ADD MSTORE PUSH1 0x44 DUP3 ADD DUP6 SWAP1 MSTORE DUP6 AND SWAP1 PUSH4 0x23B872DD SWAP1 PUSH1 0x64 ADD PUSH0 PUSH1 0x40 MLOAD DUP1 DUP4 SUB DUP2 PUSH0 DUP8 DUP1 EXTCODESIZE ISZERO DUP1 ISZERO PUSH2 0x2D0 JUMPI PUSH0 DUP1 REVERT JUMPDEST POP GAS CALL ISZERO DUP1 ISZERO PUSH2 0x2E2 JUMPI RETURNDATASIZE PUSH0 DUP1 RETURNDATACOPY RETURNDATASIZE PUSH0 REVERT JUMPDEST POP POP POP PUSH0 DUP5 DUP2 MSTORE PUSH1 0x5 PUSH1 0x20 MSTORE PUSH1 0x40 SWAP1 KECCAK256 PUSH1 0x2 DUP2 ADD DUP1 SLOAD PUSH1 0x1 PUSH1 0x1 PUSH1 0xA0 SHL SUB NOT SWAP1 DUP2 AND CALLER OR SWAP1 SWAP2 SSTORE PUSH1 0x3 DUP3 ADD DUP1 SLOAD SWAP1 SWAP2 AND ADDRESS OR SWAP1 SSTORE PUSH1 0x7 DUP2 ADD DUP1 SLOAD PUSH1 0xFF NOT AND PUSH1 0x1 SWAP1 DUP2 OR SWAP1 SWAP2 SSTORE PUSH1 0x6 DUP3 ADD DUP6 SWAP1 SSTORE SWAP1 SWAP2 POP PUSH2 0x33B SWAP1 PUSH2 0xA7C JUMP JUMPDEST PUSH32 0xA0C6C0D02D86FDACECBAA5FDF5894BAB204E31A778250474108540733A9B8D19 DUP6 DUP6 CALLER ADDRESS DUP8 PUSH1 0x40 MLOAD PUSH2 0x372 SWAP6 SWAP5 SWAP4 SWAP3 SWAP2 SWAP1 PUSH2 0xDB8 JUMP JUMPDEST PUSH1 0x40 MLOAD DUP1 SWAP2 SUB SWAP1 LOG1 POP POP PUSH1 0x1 PUSH0 SSTORE POP POP POP JUMP JUMPDEST PUSH1 0x40 DUP1 MLOAD PUSH2 0x100 DUP2 ADD DUP3 MSTORE PUSH0 DUP1 DUP3 MSTORE PUSH1 0x20 DUP3 ADD DUP2 SWAP1 MSTORE SWAP2 DUP2 ADD DUP3 SWAP1 MSTORE PUSH1 0x60 DUP1 DUP3 ADD DUP4 SWAP1 MSTORE PUSH1 0x80 DUP3 ADD DUP2 SWAP1 MSTORE PUSH1 0xA0 DUP3 ADD MSTORE PUSH1 0xC0 DUP2 ADD DUP3 SWAP1 MSTORE PUSH1 0xE0 DUP2 ADD SWAP2 SWAP1 SWAP2 MSTORE PUSH0 DUP3 DUP2 MSTORE PUSH1 0x5 PUSH1 0x20 SWAP1 DUP2 MSTORE PUSH1 0x40 SWAP2 DUP3 SWAP1 KECCAK256 DUP3 MLOAD PUSH2 0x100 DUP2 ADD DUP5 MSTORE DUP2 SLOAD PUSH1 0x1 PUSH1 0x1 PUSH1 0xA0 SHL SUB SWAP1 DUP2 AND DUP3 MSTORE PUSH1 0x1 DUP4 ADD SLOAD SWAP4 DUP3 ADD SWAP4 SWAP1 SWAP4 MSTORE PUSH1 0x2 DUP3 ADD SLOAD DUP4 AND SWAP4 DUP2 ADD SWAP4 SWAP1 SWAP4 MSTORE PUSH1 0x3 DUP2 ADD SLOAD SWAP1 SWAP2 AND PUSH1 0x60 DUP4 ADD MSTORE PUSH1 0x4 DUP2 ADD DUP1 SLOAD PUSH1 0x80 DUP5 ADD SWAP2 SWAP1 PUSH2 0x429 SWAP1 PUSH2 0xDEB JUMP JUMPDEST DUP1 PUSH1 0x1F ADD PUSH1 0x20 DUP1 SWAP2 DIV MUL PUSH1 0x20 ADD PUSH1 0x40 MLOAD SWAP1 DUP2 ADD PUSH1 0x40 MSTORE DUP1 SWAP3 SWAP2 SWAP1 DUP2 DUP2 MSTORE PUSH1 0x20 ADD DUP3 DUP1 SLOAD PUSH2 0x455 SWAP1 PUSH2 0xDEB JUMP JUMPDEST DUP1 ISZERO PUSH2 0x4A0 JUMPI DUP1 PUSH1 0x1F LT PUSH2 0x477 JUMPI PUSH2 0x100 DUP1 DUP4 SLOAD DIV MUL DUP4 MSTORE SWAP2 PUSH1 0x20 ADD SWAP2 PUSH2 0x4A0 JUMP JUMPDEST DUP3 ADD SWAP2 SWAP1 PUSH0 MSTORE PUSH1 0x20 PUSH0 KECCAK256 SWAP1 JUMPDEST DUP2 SLOAD DUP2 MSTORE SWAP1 PUSH1 0x1 ADD SWAP1 PUSH1 0x20 ADD DUP1 DUP4 GT PUSH2 0x483 JUMPI DUP3 SWAP1 SUB PUSH1 0x1F AND DUP3 ADD SWAP2 JUMPDEST POP POP POP POP POP DUP2 MSTORE PUSH1 0x20 ADD PUSH1 0x5 DUP3 ADD DUP1 SLOAD PUSH2 0x4B9 SWAP1 PUSH2 0xDEB JUMP JUMPDEST DUP1 PUSH1 0x1F ADD PUSH1 0x20 DUP1 SWAP2 DIV MUL PUSH1 0x20 ADD PUSH1 0x40 MLOAD SWAP1 DUP2 ADD PUSH1 0x40 MSTORE DUP1 SWAP3 SWAP2 SWAP1 DUP2 DUP2 MSTORE PUSH1 0x20 ADD DUP3 DUP1 SLOAD PUSH2 0x4E5 SWAP1 PUSH2 0xDEB JUMP JUMPDEST DUP1 ISZERO PUSH2 0x530 JUMPI DUP1 PUSH1 0x1F LT PUSH2 0x507 JUMPI PUSH2 0x100 DUP1 DUP4 SLOAD DIV MUL DUP4 MSTORE SWAP2 PUSH1 0x20 ADD SWAP2 PUSH2 0x530 JUMP JUMPDEST DUP3 ADD SWAP2 SWAP1 PUSH0 MSTORE PUSH1 0x20 PUSH0 KECCAK256 SWAP1 JUMPDEST DUP2 SLOAD DUP2 MSTORE SWAP1 PUSH1 0x1 ADD SWAP1 PUSH1 0x20 ADD DUP1 DUP4 GT PUSH2 0x513 JUMPI DUP3 SWAP1 SUB PUSH1 0x1F AND DUP3 ADD SWAP2 JUMPDEST POP POP POP SWAP2 DUP4 MSTORE POP POP PUSH1 0x6 DUP3 ADD SLOAD PUSH1 0x20 DUP3 ADD MSTORE PUSH1 0x7 SWAP1 SWAP2 ADD SLOAD PUSH1 0xFF AND ISZERO ISZERO PUSH1 0x40 SWAP1 SWAP2 ADD MSTORE SWAP3 SWAP2 POP POP JUMP JUMPDEST PUSH0 PUSH2 0x563 PUSH1 0x2 SLOAD SWAP1 JUMP JUMPDEST SWAP1 POP SWAP1 JUMP JUMPDEST PUSH1 0x2 PUSH0 SLOAD SUB PUSH2 0x589 JUMPI PUSH1 0x40 MLOAD PUSH3 0x461BCD PUSH1 0xE5 SHL DUP2 MSTORE PUSH1 0x4 ADD PUSH2 0x16B SWAP1 PUSH2 0xD5F JUMP JUMPDEST PUSH1 0x2 PUSH0 SWAP1 DUP2 SSTORE PUSH1 0x40 MLOAD PUSH4 0x31A9108F PUSH1 0xE1 SHL DUP2 MSTORE PUSH1 0x4 DUP2 ADD DUP4 SWAP1 MSTORE PUSH1 0x1 PUSH1 0x1 PUSH1 0xA0 SHL SUB DUP5 AND SWAP1 PUSH4 0x6352211E SWAP1 PUSH1 0x24 ADD PUSH1 0x20 PUSH1 0x40 MLOAD DUP1 DUP4 SUB DUP2 DUP7 GAS STATICCALL ISZERO DUP1 ISZERO PUSH2 0x5D2 JUMPI RETURNDATASIZE PUSH0 DUP1 RETURNDATACOPY RETURNDATASIZE PUSH0 REVERT JUMPDEST POP POP POP POP PUSH1 0x40 MLOAD RETURNDATASIZE PUSH1 0x1F NOT PUSH1 0x1F DUP3 ADD AND DUP3 ADD DUP1 PUSH1 0x40 MSTORE POP DUP2 ADD SWAP1 PUSH2 0x5F6 SWAP2 SWAP1 PUSH2 0xD96 JUMP JUMPDEST PUSH0 DUP4 DUP2 MSTORE PUSH1 0x5 PUSH1 0x20 MSTORE PUSH1 0x40 SWAP1 KECCAK256 PUSH1 0x6 DUP2 ADD SLOAD SWAP2 SWAP3 POP SWAP1 CALLVALUE LT ISZERO PUSH2 0x66A JUMPI PUSH1 0x40 MLOAD PUSH3 0x461BCD PUSH1 0xE5 SHL DUP2 MSTORE PUSH1 0x20 PUSH1 0x4 DUP3 ADD MSTORE PUSH1 0x26 PUSH1 0x24 DUP3 ADD MSTORE PUSH32 0x4E6F7420656E6F75676820657468657220746F20636F7665722061736B696E67 PUSH1 0x44 DUP3 ADD MSTORE PUSH6 0x207072696365 PUSH1 0xD0 SHL PUSH1 0x64 DUP3 ADD MSTORE PUSH1 0x84 ADD PUSH2 0x16B JUMP JUMPDEST PUSH1 0x2 DUP2 ADD SLOAD PUSH1 0x40 MLOAD CALLER SWAP2 PUSH1 0x1 PUSH1 0x1 PUSH1 0xA0 SHL SUB AND SWAP1 CALLVALUE DUP1 ISZERO PUSH2 0x8FC MUL SWAP2 PUSH0 DUP2 DUP2 DUP2 DUP6 DUP9 DUP9 CALL SWAP4 POP POP POP POP ISZERO DUP1 ISZERO PUSH2 0x6A2 JUMPI RETURNDATASIZE PUSH0 DUP1 RETURNDATACOPY RETURNDATASIZE PUSH0 REVERT JUMPDEST POP PUSH1 0x1 DUP3 ADD SLOAD PUSH1 0x40 MLOAD PUSH4 0x23B872DD PUSH1 0xE0 SHL DUP2 MSTORE PUSH1 0x1 PUSH1 0x1 PUSH1 0xA0 SHL SUB DUP6 DUP2 AND PUSH1 0x4 DUP4 ADD MSTORE CALLER PUSH1 0x24 DUP4 ADD MSTORE PUSH1 0x44 DUP3 ADD SWAP3 SWAP1 SWAP3 MSTORE SWAP1 DUP7 AND SWAP1 PUSH4 0x23B872DD SWAP1 PUSH1 0x64 ADD PUSH0 PUSH1 0x40 MLOAD DUP1 DUP4 SUB DUP2 PUSH0 DUP8 DUP1 EXTCODESIZE ISZERO DUP1 ISZERO PUSH2 0x6F7 JUMPI PUSH0 DUP1 REVERT JUMPDEST POP GAS CALL ISZERO DUP1 ISZERO PUSH2 0x709 JUMPI RETURNDATASIZE PUSH0 DUP1 RETURNDATACOPY RETURNDATASIZE PUSH0 REVERT JUMPDEST POP POP PUSH1 0x40 MLOAD PUSH4 0xA22CB465 PUSH1 0xE0 SHL DUP2 MSTORE CALLER PUSH1 0x4 DUP3 ADD MSTORE PUSH1 0x1 PUSH1 0x24 DUP3 ADD MSTORE PUSH1 0x1 PUSH1 0x1 PUSH1 0xA0 SHL SUB DUP9 AND SWAP3 POP PUSH4 0xA22CB465 SWAP2 POP PUSH1 0x44 ADD PUSH0 PUSH1 0x40 MLOAD DUP1 DUP4 SUB DUP2 PUSH0 DUP8 DUP1 EXTCODESIZE ISZERO DUP1 ISZERO PUSH2 0x752 JUMPI PUSH0 DUP1 REVERT JUMPDEST POP GAS CALL ISZERO DUP1 ISZERO PUSH2 0x764 JUMPI RETURNDATASIZE PUSH0 DUP1 RETURNDATACOPY RETURNDATASIZE PUSH0 REVERT JUMPDEST POP POP PUSH1 0x4 SLOAD PUSH1 0x3 SLOAD PUSH1 0x40 MLOAD PUSH1 0x1 PUSH1 0x1 PUSH1 0xA0 SHL SUB SWAP1 SWAP3 AND SWAP4 POP DUP1 ISZERO PUSH2 0x8FC MUL SWAP3 POP SWAP1 PUSH0 DUP2 DUP2 DUP2 DUP6 DUP9 DUP9 CALL SWAP4 POP POP POP POP ISZERO DUP1 ISZERO PUSH2 0x7A1 JUMPI RETURNDATASIZE PUSH0 DUP1 RETURNDATACOPY RETURNDATASIZE PUSH0 REVERT JUMPDEST POP PUSH1 0x3 DUP3 ADD DUP1 SLOAD PUSH1 0x1 PUSH1 0x1 PUSH1 0xA0 SHL SUB NOT AND PUSH1 0x1 PUSH1 0x1 PUSH1 0xA0 SHL SUB DUP4 AND OR SWAP1 SSTORE PUSH1 0x7 DUP3 ADD DUP1 SLOAD PUSH1 0xFF NOT AND SWAP1 SSTORE PUSH1 0x1 DUP1 SLOAD DUP2 ADD SWAP1 SSTORE PUSH1 0x1 DUP3 ADD SLOAD PUSH1 0x2 DUP4 ADD SLOAD PUSH1 0x40 MLOAD PUSH32 0x16F1DBD97E6BF646D429ED186CCE832F1F7FD9907814293B83181E9970AB7BD2 SWAP3 PUSH2 0x372 SWAP3 DUP10 SWAP3 PUSH1 0x1 PUSH1 0x1 PUSH1 0xA0 SHL SUB SWAP1 SWAP2 AND SWAP1 DUP7 SWAP1 CALLVALUE SWAP1 PUSH2 0xDB8 JUMP JUMPDEST PUSH0 PUSH2 0x563 PUSH1 0x1 SLOAD SWAP1 JUMP JUMPDEST PUSH1 0x2 PUSH0 SLOAD SUB PUSH2 0x848 JUMPI PUSH1 0x40 MLOAD PUSH3 0x461BCD PUSH1 0xE5 SHL DUP2 MSTORE PUSH1 0x4 ADD PUSH2 0x16B SWAP1 PUSH2 0xD5F JUMP JUMPDEST PUSH1 0x2 PUSH0 SSTORE DUP1 PUSH2 0x899 JUMPI PUSH1 0x40 MLOAD PUSH3 0x461BCD PUSH1 0xE5 SHL DUP2 MSTORE PUSH1 0x20 PUSH1 0x4 DUP3 ADD MSTORE PUSH1 0x1C PUSH1 0x24 DUP3 ADD MSTORE PUSH32 0x5072696365206D757374206265206174206C6561737420312077656900000000 PUSH1 0x44 DUP3 ADD MSTORE PUSH1 0x64 ADD PUSH2 0x16B JUMP JUMPDEST PUSH1 0x3 SLOAD CALLVALUE EQ PUSH2 0x8EA JUMPI PUSH1 0x40 MLOAD PUSH3 0x461BCD PUSH1 0xE5 SHL DUP2 MSTORE PUSH1 0x20 PUSH1 0x4 DUP3 ADD DUP2 SWAP1 MSTORE PUSH1 0x24 DUP3 ADD MSTORE PUSH32 0x4E6F7420656E6F75676820657468657220666F72206C697374696E6720666565 PUSH1 0x44 DUP3 ADD MSTORE PUSH1 0x64 ADD PUSH2 0x16B JUMP JUMPDEST PUSH1 0x40 MLOAD PUSH4 0x23B872DD PUSH1 0xE0 SHL DUP2 MSTORE CALLER PUSH1 0x4 DUP3 ADD MSTORE ADDRESS PUSH1 0x24 DUP3 ADD MSTORE PUSH1 0x44 DUP2 ADD DUP6 SWAP1 MSTORE PUSH1 0x1 PUSH1 0x1 PUSH1 0xA0 SHL SUB DUP7 AND SWAP1 PUSH4 0x23B872DD SWAP1 PUSH1 0x64 ADD PUSH0 PUSH1 0x40 MLOAD DUP1 DUP4 SUB DUP2 PUSH0 DUP8 DUP1 EXTCODESIZE ISZERO DUP1 ISZERO PUSH2 0x935 JUMPI PUSH0 DUP1 REVERT JUMPDEST POP GAS CALL ISZERO DUP1 ISZERO PUSH2 0x947 JUMPI RETURNDATASIZE PUSH0 DUP1 RETURNDATACOPY RETURNDATASIZE PUSH0 REVERT JUMPDEST POP POP POP POP PUSH2 0x959 PUSH1 0x2 DUP1 SLOAD PUSH1 0x1 ADD SWAP1 SSTORE JUMP JUMPDEST PUSH1 0x40 DUP1 MLOAD PUSH2 0x100 DUP2 ADD DUP3 MSTORE PUSH1 0x1 PUSH1 0x1 PUSH1 0xA0 SHL SUB DUP1 DUP9 AND DUP3 MSTORE PUSH1 0x20 DUP1 DUP4 ADD DUP9 DUP2 MSTORE CALLER DUP5 DUP7 ADD SWAP1 DUP2 MSTORE ADDRESS PUSH1 0x60 DUP7 ADD SWAP1 DUP2 MSTORE PUSH1 0x80 DUP7 ADD DUP10 DUP2 MSTORE PUSH1 0xA0 DUP8 ADD DUP12 SWAP1 MSTORE PUSH1 0xC0 DUP8 ADD DUP10 SWAP1 MSTORE PUSH1 0x1 PUSH1 0xE0 DUP9 ADD DUP2 SWAP1 MSTORE PUSH0 DUP14 DUP2 MSTORE PUSH1 0x5 SWAP1 SWAP7 MSTORE SWAP8 SWAP1 SWAP5 KECCAK256 DUP7 MLOAD DUP2 SLOAD SWAP1 DUP8 AND PUSH1 0x1 PUSH1 0x1 PUSH1 0xA0 SHL SUB NOT SWAP2 DUP3 AND OR DUP3 SSTORE SWAP4 MLOAD SWAP8 DUP2 ADD SWAP8 SWAP1 SWAP8 SSTORE SWAP1 MLOAD PUSH1 0x2 DUP8 ADD DUP1 SLOAD SWAP2 DUP7 AND SWAP2 DUP5 AND SWAP2 SWAP1 SWAP2 OR SWAP1 SSTORE MLOAD PUSH1 0x3 DUP7 ADD DUP1 SLOAD SWAP2 SWAP1 SWAP5 AND SWAP2 AND OR SWAP1 SWAP2 SSTORE MLOAD SWAP1 SWAP2 SWAP1 PUSH1 0x4 DUP3 ADD SWAP1 PUSH2 0xA0A SWAP1 DUP3 PUSH2 0xE6F JUMP JUMPDEST POP PUSH1 0xA0 DUP3 ADD MLOAD PUSH1 0x5 DUP3 ADD SWAP1 PUSH2 0xA1F SWAP1 DUP3 PUSH2 0xE6F JUMP JUMPDEST POP PUSH1 0xC0 DUP3 ADD MLOAD PUSH1 0x6 DUP3 ADD SSTORE PUSH1 0xE0 SWAP1 SWAP2 ADD MLOAD PUSH1 0x7 SWAP1 SWAP2 ADD DUP1 SLOAD PUSH1 0xFF NOT AND SWAP2 ISZERO ISZERO SWAP2 SWAP1 SWAP2 OR SWAP1 SSTORE PUSH1 0x40 MLOAD PUSH32 0xA0C6C0D02D86FDACECBAA5FDF5894BAB204E31A778250474108540733A9B8D19 SWAP1 PUSH2 0x372 SWAP1 DUP8 SWAP1 DUP8 SWAP1 CALLER SWAP1 ADDRESS SWAP1 DUP8 SWAP1 PUSH2 0xDB8 JUMP JUMPDEST DUP1 SLOAD DUP1 PUSH2 0xACB JUMPI PUSH1 0x40 MLOAD PUSH3 0x461BCD PUSH1 0xE5 SHL DUP2 MSTORE PUSH1 0x20 PUSH1 0x4 DUP3 ADD MSTORE PUSH1 0x1B PUSH1 0x24 DUP3 ADD MSTORE PUSH32 0x436F756E7465723A2064656372656D656E74206F766572666C6F770000000000 PUSH1 0x44 DUP3 ADD MSTORE PUSH1 0x64 ADD PUSH2 0x16B JUMP JUMPDEST PUSH0 NOT ADD SWAP1 SSTORE JUMP JUMPDEST PUSH1 0x1 PUSH1 0x1 PUSH1 0xA0 SHL SUB DUP2 AND DUP2 EQ PUSH2 0xAE6 JUMPI PUSH0 DUP1 REVERT JUMPDEST POP JUMP JUMPDEST PUSH0 DUP1 PUSH0 PUSH1 0x60 DUP5 DUP7 SUB SLT ISZERO PUSH2 0xAFB JUMPI PUSH0 DUP1 REVERT JUMPDEST DUP4 CALLDATALOAD PUSH2 0xB06 DUP2 PUSH2 0xAD2 JUMP JUMPDEST SWAP6 PUSH1 0x20 DUP6 ADD CALLDATALOAD SWAP6 POP PUSH1 0x40 SWAP1 SWAP5 ADD CALLDATALOAD SWAP4 SWAP3 POP POP POP JUMP JUMPDEST PUSH0 PUSH1 0x20 DUP3 DUP5 SUB SLT ISZERO PUSH2 0xB2B JUMPI PUSH0 DUP1 REVERT JUMPDEST POP CALLDATALOAD SWAP2 SWAP1 POP JUMP JUMPDEST PUSH0 DUP2 MLOAD DUP1 DUP5 MSTORE DUP1 PUSH1 0x20 DUP5 ADD PUSH1 0x20 DUP7 ADD MCOPY PUSH0 PUSH1 0x20 DUP3 DUP7 ADD ADD MSTORE PUSH1 0x20 PUSH1 0x1F NOT PUSH1 0x1F DUP4 ADD AND DUP6 ADD ADD SWAP2 POP POP SWAP3 SWAP2 POP POP JUMP JUMPDEST PUSH1 0x20 DUP2 MSTORE PUSH1 0x1 DUP1 PUSH1 0xA0 SHL SUB DUP3 MLOAD AND PUSH1 0x20 DUP3 ADD MSTORE PUSH1 0x20 DUP3 ADD MLOAD PUSH1 0x40 DUP3 ADD MSTORE PUSH0 PUSH1 0x40 DUP4 ADD MLOAD PUSH2 0xB98 PUSH1 0x60 DUP5 ADD DUP3 PUSH1 0x1 PUSH1 0x1 PUSH1 0xA0 SHL SUB AND SWAP1 MSTORE JUMP JUMPDEST POP PUSH1 0x60 DUP4 ADD MLOAD PUSH1 0x1 PUSH1 0x1 PUSH1 0xA0 SHL SUB DUP2 AND PUSH1 0x80 DUP5 ADD MSTORE POP PUSH1 0x80 DUP4 ADD MLOAD PUSH2 0x100 PUSH1 0xA0 DUP5 ADD MSTORE PUSH2 0xBC9 PUSH2 0x120 DUP5 ADD DUP3 PUSH2 0xB32 JUMP JUMPDEST SWAP1 POP PUSH1 0xA0 DUP5 ADD MLOAD PUSH1 0x1F NOT DUP5 DUP4 SUB ADD PUSH1 0xC0 DUP6 ADD MSTORE PUSH2 0xBE6 DUP3 DUP3 PUSH2 0xB32 JUMP JUMPDEST SWAP2 POP POP PUSH1 0xC0 DUP5 ADD MLOAD PUSH1 0xE0 DUP5 ADD MSTORE PUSH1 0xE0 DUP5 ADD MLOAD PUSH2 0xC07 PUSH2 0x100 DUP6 ADD DUP3 ISZERO ISZERO SWAP1 MSTORE JUMP JUMPDEST POP SWAP4 SWAP3 POP POP POP JUMP JUMPDEST PUSH0 DUP1 PUSH1 0x40 DUP4 DUP6 SUB SLT ISZERO PUSH2 0xC20 JUMPI PUSH0 DUP1 REVERT JUMPDEST DUP3 CALLDATALOAD PUSH2 0xC2B DUP2 PUSH2 0xAD2 JUMP JUMPDEST SWAP5 PUSH1 0x20 SWAP4 SWAP1 SWAP4 ADD CALLDATALOAD SWAP4 POP POP POP JUMP JUMPDEST PUSH4 0x4E487B71 PUSH1 0xE0 SHL PUSH0 MSTORE PUSH1 0x41 PUSH1 0x4 MSTORE PUSH1 0x24 PUSH0 REVERT JUMPDEST PUSH0 DUP3 PUSH1 0x1F DUP4 ADD SLT PUSH2 0xC5C JUMPI PUSH0 DUP1 REVERT JUMPDEST DUP2 CALLDATALOAD PUSH8 0xFFFFFFFFFFFFFFFF DUP2 GT ISZERO PUSH2 0xC76 JUMPI PUSH2 0xC76 PUSH2 0xC39 JUMP JUMPDEST PUSH1 0x40 MLOAD PUSH1 0x1F DUP3 ADD PUSH1 0x1F NOT SWAP1 DUP2 AND PUSH1 0x3F ADD AND DUP2 ADD PUSH8 0xFFFFFFFFFFFFFFFF DUP2 GT DUP3 DUP3 LT OR ISZERO PUSH2 0xCA5 JUMPI PUSH2 0xCA5 PUSH2 0xC39 JUMP JUMPDEST PUSH1 0x40 MSTORE DUP2 DUP2 MSTORE DUP4 DUP3 ADD PUSH1 0x20 ADD DUP6 LT ISZERO PUSH2 0xCBC JUMPI PUSH0 DUP1 REVERT JUMPDEST DUP2 PUSH1 0x20 DUP6 ADD PUSH1 0x20 DUP4 ADD CALLDATACOPY PUSH0 SWAP2 DUP2 ADD PUSH1 0x20 ADD SWAP2 SWAP1 SWAP2 MSTORE SWAP4 SWAP3 POP POP POP JUMP JUMPDEST PUSH0 DUP1 PUSH0 DUP1 PUSH0 PUSH1 0xA0 DUP7 DUP9 SUB SLT ISZERO PUSH2 0xCEC JUMPI PUSH0 DUP1 REVERT JUMPDEST DUP6 CALLDATALOAD PUSH2 0xCF7 DUP2 PUSH2 0xAD2 JUMP JUMPDEST SWAP5 POP PUSH1 0x20 DUP7 ADD CALLDATALOAD SWAP4 POP PUSH1 0x40 DUP7 ADD CALLDATALOAD PUSH8 0xFFFFFFFFFFFFFFFF DUP2 GT ISZERO PUSH2 0xD19 JUMPI PUSH0 DUP1 REVERT JUMPDEST PUSH2 0xD25 DUP9 DUP3 DUP10 ADD PUSH2 0xC4D JUMP JUMPDEST SWAP4 POP POP PUSH1 0x60 DUP7 ADD CALLDATALOAD PUSH8 0xFFFFFFFFFFFFFFFF DUP2 GT ISZERO PUSH2 0xD41 JUMPI PUSH0 DUP1 REVERT JUMPDEST PUSH2 0xD4D DUP9 DUP3 DUP10 ADD PUSH2 0xC4D JUMP JUMPDEST SWAP6 SWAP9 SWAP5 SWAP8 POP SWAP3 SWAP6 PUSH1 0x80 ADD CALLDATALOAD SWAP4 SWAP3 POP POP POP JUMP JUMPDEST PUSH1 0x20 DUP1 DUP3 MSTORE PUSH1 0x1F SWAP1 DUP3 ADD MSTORE PUSH32 0x5265656E7472616E637947756172643A207265656E7472616E742063616C6C00 PUSH1 0x40 DUP3 ADD MSTORE PUSH1 0x60 ADD SWAP1 JUMP JUMPDEST PUSH0 PUSH1 0x20 DUP3 DUP5 SUB SLT ISZERO PUSH2 0xDA6 JUMPI PUSH0 DUP1 REVERT JUMPDEST DUP2 MLOAD PUSH2 0xDB1 DUP2 PUSH2 0xAD2 JUMP JUMPDEST SWAP4 SWAP3 POP POP POP JUMP JUMPDEST PUSH1 0x1 PUSH1 0x1 PUSH1 0xA0 SHL SUB SWAP6 DUP7 AND DUP2 MSTORE PUSH1 0x20 DUP2 ADD SWAP5 SWAP1 SWAP5 MSTORE SWAP2 DUP5 AND PUSH1 0x40 DUP5 ADD MSTORE SWAP1 SWAP3 AND PUSH1 0x60 DUP3 ADD MSTORE PUSH1 0x80 DUP2 ADD SWAP2 SWAP1 SWAP2 MSTORE PUSH1 0xA0 ADD SWAP1 JUMP JUMPDEST PUSH1 0x1 DUP2 DUP2 SHR SWAP1 DUP3 AND DUP1 PUSH2 0xDFF JUMPI PUSH1 0x7F DUP3 AND SWAP2 POP JUMPDEST PUSH1 0x20 DUP3 LT DUP2 SUB PUSH2 0xE1D JUMPI PUSH4 0x4E487B71 PUSH1 0xE0 SHL PUSH0 MSTORE PUSH1 0x22 PUSH1 0x4 MSTORE PUSH1 0x24 PUSH0 REVERT JUMPDEST POP SWAP2 SWAP1 POP JUMP JUMPDEST PUSH1 0x1F DUP3 GT ISZERO PUSH2 0xE6A JUMPI DUP1 PUSH0 MSTORE PUSH1 0x20 PUSH0 KECCAK256 PUSH1 0x1F DUP5 ADD PUSH1 0x5 SHR DUP2 ADD PUSH1 0x20 DUP6 LT ISZERO PUSH2 0xE48 JUMPI POP DUP1 JUMPDEST PUSH1 0x1F DUP5 ADD PUSH1 0x5 SHR DUP3 ADD SWAP2 POP JUMPDEST DUP2 DUP2 LT ISZERO PUSH2 0xE67 JUMPI PUSH0 DUP2 SSTORE PUSH1 0x1 ADD PUSH2 0xE54 JUMP JUMPDEST POP POP JUMPDEST POP POP POP JUMP JUMPDEST DUP2 MLOAD PUSH8 0xFFFFFFFFFFFFFFFF DUP2 GT ISZERO PUSH2 0xE89 JUMPI PUSH2 0xE89 PUSH2 0xC39 JUMP JUMPDEST PUSH2 0xE9D DUP2 PUSH2 0xE97 DUP5 SLOAD PUSH2 0xDEB JUMP JUMPDEST DUP5 PUSH2 0xE23 JUMP JUMPDEST PUSH1 0x20 PUSH1 0x1F DUP3 GT PUSH1 0x1 DUP2 EQ PUSH2 0xECF JUMPI PUSH0 DUP4 ISZERO PUSH2 0xEB8 JUMPI POP DUP5 DUP3 ADD MLOAD JUMPDEST PUSH0 NOT PUSH1 0x3 DUP6 SWAP1 SHL SHR NOT AND PUSH1 0x1 DUP5 SWAP1 SHL OR DUP5 SSTORE PUSH2 0xE67 JUMP JUMPDEST PUSH0 DUP5 DUP2 MSTORE PUSH1 0x20 DUP2 KECCAK256 PUSH1 0x1F NOT DUP6 AND SWAP2 JUMPDEST DUP3 DUP2 LT ISZERO PUSH2 0xEFE JUMPI DUP8 DUP6 ADD MLOAD DUP3 SSTORE PUSH1 0x20 SWAP5 DUP6 ADD SWAP5 PUSH1 0x1 SWAP1 SWAP3 ADD SWAP2 ADD PUSH2 0xEDE JUMP JUMPDEST POP DUP5 DUP3 LT ISZERO PUSH2 0xF1B JUMPI DUP7 DUP5 ADD MLOAD PUSH0 NOT PUSH1 0x3 DUP8 SWAP1 SHL PUSH1 0xF8 AND SHR NOT AND DUP2 SSTORE JUMPDEST POP POP POP POP PUSH1 0x1 SWAP1 DUP2 SHL ADD SWAP1 SSTORE POP JUMP INVALID LOG2 PUSH5 0x6970667358 0x22 SLT KECCAK256 0xEB 0xFB 0xC9 PREVRANDAO ADDMOD 0xD2 0x2E CODESIZE 0x22 SHR 0xCA PUSH27 0xEFA9C414B1C5343593F4E6EAD41109F3A84AB84964736F6C634300 ADDMOD BYTE STOP CALLER "
				},
				"gasEstimates": {
					"creation": {
						"codeDepositCost": "787200",
						"executionCost": "69262",
						"totalCost": "856462"
					},
					"external": {
						"LISTING_FEE()": "2339",
						"buyNFT(address,uint256)": "infinite",
						"getItemsCount()": "2395",
						"getItemsSold()": "2372",
						"getMarketPlaceBalance()": "215",
						"getTokenForId(uint256)": "infinite",
						"listNFT(address,uint256,string,string,uint256)": "infinite",
						"resellNFT(address,uint256,uint256)": "infinite"
					}
				},
				"methodIdentifiers": {
					"LISTING_FEE()": "2b86ae38",
					"buyNFT(address,uint256)": "a82ba76f",
					"getItemsCount()": "512dd020",
					"getItemsSold()": "c4b15141",
					"getMarketPlaceBalance()": "b4c49d09",
					"getTokenForId(uint256)": "2444a8a6",
					"listNFT(address,uint256,string,string,uint256)": "eb9597d1",
					"resellNFT(address,uint256,uint256)": "04935694"
				}
			},
			"storageLayout": {
				"storage": [
					{
						"astId": 10,
						"contract": "contracts/Marketplace.sol:Marketplace",
						"label": "_status",
						"offset": 0,
						"slot": "0",
						"type": "t_uint256"
					},
					{
						"astId": 1734,
						"contract": "contracts/Marketplace.sol:Marketplace",
						"label": "_nftsSold",
						"offset": 0,
						"slot": "1",
						"type": "t_struct(Counter)1390_storage"
					},
					{
						"astId": 1737,
						"contract": "contracts/Marketplace.sol:Marketplace",
						"label": "_nftCount",
						"offset": 0,
						"slot": "2",
						"type": "t_struct(Counter)1390_storage"
					},
					{
						"astId": 1740,
						"contract": "contracts/Marketplace.sol:Marketplace",
						"label": "LISTING_FEE",
						"offset": 0,
						"slot": "3",
						"type": "t_uint256"
					},
					{
						"astId": 1742,
						"contract": "contracts/Marketplace.sol:Marketplace",
						"label": "_marketOwner",
						"offset": 0,
						"slot": "4",
						"type": "t_address_payable"
					},
					{
						"astId": 1747,
						"contract": "contracts/Marketplace.sol:Marketplace",
						"label": "_idToToken",
						"offset": 0,
						"slot": "5",
						"type": "t_mapping(t_uint256,t_struct(Token)1764_storage)"
					}
				],
				"types": {
					"t_address": {
						"encoding": "inplace",
						"label": "address",
						"numberOfBytes": "20"
					},
					"t_address_payable": {
						"encoding": "inplace",
						"label": "address payable",
						"numberOfBytes": "20"
					},
					"t_bool": {
						"encoding": "inplace",
						"label": "bool",
						"numberOfBytes": "1"
					},
					"t_mapping(t_uint256,t_struct(Token)1764_storage)": {
						"encoding": "mapping",
						"key": "t_uint256",
						"label": "mapping(uint256 => struct Marketplace.Token)",
						"numberOfBytes": "32",
						"value": "t_struct(Token)1764_storage"
					},
					"t_string_storage": {
						"encoding": "bytes",
						"label": "string",
						"numberOfBytes": "32"
					},
					"t_struct(Counter)1390_storage": {
						"encoding": "inplace",
						"label": "struct Counters.Counter",
						"members": [
							{
								"astId": 1389,
								"contract": "contracts/Marketplace.sol:Marketplace",
								"label": "_value",
								"offset": 0,
								"slot": "0",
								"type": "t_uint256"
							}
						],
						"numberOfBytes": "32"
					},
					"t_struct(Token)1764_storage": {
						"encoding": "inplace",
						"label": "struct Marketplace.Token",
						"members": [
							{
								"astId": 1749,
								"contract": "contracts/Marketplace.sol:Marketplace",
								"label": "nftContract",
								"offset": 0,
								"slot": "0",
								"type": "t_address"
							},
							{
								"astId": 1751,
								"contract": "contracts/Marketplace.sol:Marketplace",
								"label": "tokenId",
								"offset": 0,
								"slot": "1",
								"type": "t_uint256"
							},
							{
								"astId": 1753,
								"contract": "contracts/Marketplace.sol:Marketplace",
								"label": "seller",
								"offset": 0,
								"slot": "2",
								"type": "t_address_payable"
							},
							{
								"astId": 1755,
								"contract": "contracts/Marketplace.sol:Marketplace",
								"label": "owner",
								"offset": 0,
								"slot": "3",
								"type": "t_address_payable"
							},
							{
								"astId": 1757,
								"contract": "contracts/Marketplace.sol:Marketplace",
								"label": "tokenURI",
								"offset": 0,
								"slot": "4",
								"type": "t_string_storage"
							},
							{
								"astId": 1759,
								"contract": "contracts/Marketplace.sol:Marketplace",
								"label": "name",
								"offset": 0,
								"slot": "5",
								"type": "t_string_storage"
							},
							{
								"astId": 1761,
								"contract": "contracts/Marketplace.sol:Marketplace",
								"label": "price",
								"offset": 0,
								"slot": "6",
								"type": "t_uint256"
							},
							{
								"astId": 1763,
								"contract": "contracts/Marketplace.sol:Marketplace",
								"label": "isListed",
								"offset": 0,
								"slot": "7",
								"type": "t_bool"
							}
						],
						"numberOfBytes": "256"
					},
					"t_uint256": {
						"encoding": "inplace",
						"label": "uint256",
						"numberOfBytes": "32"
					}
				}
			},
			"userdoc": {
				"kind": "user",
				"methods": {},
				"version": 1
			}
		}
	}
}