{
	"contracts/Marketplace.sol": {
		"Marketplace": {
			"abi": [
				{
					"inputs": [],
					"stateMutability": "nonpayable",
					"type": "constructor"
				},
				{
					"anonymous": false,
					"inputs": [
						{
							"indexed": false,
							"internalType": "address",
							"name": "nftContract",
							"type": "address"
						},
						{
							"indexed": false,
							"internalType": "uint256",
							"name": "tokenId",
							"type": "uint256"
						},
						{
							"indexed": false,
							"internalType": "address",
							"name": "seller",
							"type": "address"
						},
						{
							"indexed": false,
							"internalType": "address",
							"name": "owner",
							"type": "address"
						},
						{
							"indexed": false,
							"internalType": "uint256",
							"name": "price",
							"type": "uint256"
						}
					],
					"name": "NFTListed",
					"type": "event"
				},
				{
					"anonymous": false,
					"inputs": [
						{
							"indexed": false,
							"internalType": "address",
							"name": "nftContract",
							"type": "address"
						},
						{
							"indexed": false,
							"internalType": "uint256",
							"name": "tokenId",
							"type": "uint256"
						},
						{
							"indexed": false,
							"internalType": "address",
							"name": "seller",
							"type": "address"
						},
						{
							"indexed": false,
							"internalType": "address",
							"name": "owner",
							"type": "address"
						},
						{
							"indexed": false,
							"internalType": "uint256",
							"name": "price",
							"type": "uint256"
						}
					],
					"name": "NFTSold",
					"type": "event"
				},
				{
					"inputs": [],
					"name": "LISTING_FEE",
					"outputs": [
						{
							"internalType": "uint256",
							"name": "",
							"type": "uint256"
						}
					],
					"stateMutability": "view",
					"type": "function"
				},
				{
					"inputs": [
						{
							"internalType": "address",
							"name": "_nftContract",
							"type": "address"
						},
						{
							"internalType": "uint256",
							"name": "_tokenId",
							"type": "uint256"
						}
					],
					"name": "buyNFT",
					"outputs": [],
					"stateMutability": "payable",
					"type": "function"
				},
				{
					"inputs": [],
					"name": "getItemsCount",
					"outputs": [
						{
							"internalType": "uint256",
							"name": "",
							"type": "uint256"
						}
					],
					"stateMutability": "view",
					"type": "function"
				},
				{
					"inputs": [],
					"name": "getItemsSold",
					"outputs": [
						{
							"internalType": "uint256",
							"name": "",
							"type": "uint256"
						}
					],
					"stateMutability": "view",
					"type": "function"
				},
				{
					"inputs": [],
					"name": "getListingFee",
					"outputs": [
						{
							"internalType": "uint256",
							"name": "",
							"type": "uint256"
						}
					],
					"stateMutability": "view",
					"type": "function"
				},
				{
					"inputs": [],
					"name": "getMarketPlaceBalance",
					"outputs": [
						{
							"internalType": "uint256",
							"name": "",
							"type": "uint256"
						}
					],
					"stateMutability": "view",
					"type": "function"
				},
				{
					"inputs": [
						{
							"internalType": "uint256",
							"name": "_tokenId",
							"type": "uint256"
						}
					],
					"name": "getTokenForId",
					"outputs": [
						{
							"components": [
								{
									"internalType": "address",
									"name": "nftContract",
									"type": "address"
								},
								{
									"internalType": "uint256",
									"name": "tokenId",
									"type": "uint256"
								},
								{
									"internalType": "address payable",
									"name": "seller",
									"type": "address"
								},
								{
									"internalType": "address payable",
									"name": "owner",
									"type": "address"
								},
								{
									"internalType": "string",
									"name": "tokenURI",
									"type": "string"
								},
								{
									"internalType": "string",
									"name": "name",
									"type": "string"
								},
								{
									"internalType": "uint256",
									"name": "price",
									"type": "uint256"
								},
								{
									"internalType": "bool",
									"name": "isListed",
									"type": "bool"
								}
							],
							"internalType": "struct Marketplace.Token",
							"name": "",
							"type": "tuple"
						}
					],
					"stateMutability": "view",
					"type": "function"
				},
				{
					"inputs": [
						{
							"internalType": "address",
							"name": "_nftContract",
							"type": "address"
						},
						{
							"internalType": "uint256",
							"name": "_tokenId",
							"type": "uint256"
						},
						{
							"internalType": "string",
							"name": "_name",
							"type": "string"
						},
						{
							"internalType": "string",
							"name": "_tokenURI",
							"type": "string"
						}
					],
					"name": "listNFT",
					"outputs": [],
					"stateMutability": "payable",
					"type": "function"
				},
				{
					"inputs": [
						{
							"internalType": "address",
							"name": "_nftContract",
							"type": "address"
						},
						{
							"internalType": "uint256",
							"name": "_tokenId",
							"type": "uint256"
						}
					],
					"name": "resellNFT",
					"outputs": [],
					"stateMutability": "payable",
					"type": "function"
				}
			],
			"devdoc": {
				"kind": "dev",
				"methods": {},
				"version": 1
			},
			"evm": {
				"assembly": "    /* \"contracts/Marketplace.sol\":238:3742  contract Marketplace is ReentrancyGuard {... */\n  mstore(0x40, 0x80)\n    /* \"contracts/Marketplace.sol\":426:438  0.0001 ether */\n  0x5af3107a4000\n    /* \"contracts/Marketplace.sol\":397:438  uint256 public LISTING_FEE = 0.0001 ether */\n  0x03\n  sstore\n    /* \"contracts/Marketplace.sol\":1008:1067  constructor() {... */\n  callvalue\n  dup1\n  iszero\n  tag_1\n  jumpi\n  0x00\n  dup1\n  revert\ntag_1:\n  pop\n    /* \"contracts/@openzeppelin/contracts/security/ReentrancyGuard.sol\":1701:1702  1 */\n  0x01\n    /* \"contracts/@openzeppelin/contracts/security/ReentrancyGuard.sol\":1806:1813  _status */\n  0x00\n    /* \"contracts/@openzeppelin/contracts/security/ReentrancyGuard.sol\":1806:1828  _status = _NOT_ENTERED */\n  sstore\n    /* \"contracts/Marketplace.sol\":1028:1040  _marketOwner */\n  0x04\n    /* \"contracts/Marketplace.sol\":1028:1062  _marketOwner = payable(msg.sender) */\n  dup1\n  sload\n  not(sub(shl(0xa0, 0x01), 0x01))\n  and\n    /* \"contracts/Marketplace.sol\":1051:1061  msg.sender */\n  caller\n    /* \"contracts/Marketplace.sol\":1028:1062  _marketOwner = payable(msg.sender) */\n  or\n  swap1\n  sstore\n    /* \"contracts/Marketplace.sol\":238:3742  contract Marketplace is ReentrancyGuard {... */\n  dataSize(sub_0)\n  dup1\n  dataOffset(sub_0)\n  0x00\n  codecopy\n  0x00\n  return\nstop\n\nsub_0: assembly {\n        /* \"contracts/Marketplace.sol\":238:3742  contract Marketplace is ReentrancyGuard {... */\n      mstore(0x40, 0x80)\n      jumpi(tag_1, lt(calldatasize, 0x04))\n      shr(0xe0, calldataload(0x00))\n      dup1\n      0xa82ba76f\n      gt\n      tag_11\n      jumpi\n      dup1\n      0xa82ba76f\n      eq\n      tag_6\n      jumpi\n      dup1\n      0xb4c49d09\n      eq\n      tag_7\n      jumpi\n      dup1\n      0xb8fe6abe\n      eq\n      tag_8\n      jumpi\n      dup1\n      0xc4b15141\n      eq\n      tag_9\n      jumpi\n      dup1\n      0xdbcc7575\n      eq\n      tag_10\n      jumpi\n      0x00\n      dup1\n      revert\n    tag_11:\n      dup1\n      0x2444a8a6\n      eq\n      tag_2\n      jumpi\n      dup1\n      0x2b86ae38\n      eq\n      tag_3\n      jumpi\n      dup1\n      0x512dd020\n      eq\n      tag_4\n      jumpi\n      dup1\n      0x9e1001b0\n      eq\n      tag_5\n      jumpi\n    tag_1:\n      0x00\n      dup1\n      revert\n        /* \"contracts/Marketplace.sol\":3216:3334  function getTokenForId(uint256 _tokenId) public view returns (Token memory) {... */\n    tag_2:\n      callvalue\n      dup1\n      iszero\n      tag_12\n      jumpi\n      0x00\n      dup1\n      revert\n    tag_12:\n      pop\n      tag_13\n      tag_14\n      calldatasize\n      0x04\n      tag_15\n      jump\t// in\n    tag_14:\n      tag_16\n      jump\t// in\n    tag_13:\n      mload(0x40)\n      tag_17\n      swap2\n      swap1\n      tag_18\n      jump\t// in\n    tag_17:\n      mload(0x40)\n      dup1\n      swap2\n      sub\n      swap1\n      return\n        /* \"contracts/Marketplace.sol\":397:438  uint256 public LISTING_FEE = 0.0001 ether */\n    tag_3:\n      callvalue\n      dup1\n      iszero\n      tag_19\n      jumpi\n      0x00\n      dup1\n      revert\n    tag_19:\n      pop\n      tag_20\n      sload(0x03)\n      dup2\n      jump\n    tag_20:\n      mload(0x40)\n        /* \"#utility.yul\":2012:2037   */\n      swap1\n      dup2\n      mstore\n        /* \"#utility.yul\":2000:2002   */\n      0x20\n        /* \"#utility.yul\":1985:2003   */\n      add\n        /* \"contracts/Marketplace.sol\":397:438  uint256 public LISTING_FEE = 0.0001 ether */\n      tag_17\n        /* \"#utility.yul\":1866:2043   */\n      jump\n        /* \"contracts/Marketplace.sol\":3547:3642  function getItemsCount() public view returns(uint256) {... */\n    tag_4:\n      callvalue\n      dup1\n      iszero\n      tag_24\n      jumpi\n      0x00\n      dup1\n      revert\n    tag_24:\n      pop\n      tag_20\n      tag_26\n      jump\t// in\n        /* \"contracts/Marketplace.sol\":2547:3124  function resellNFT(address _nftContract, uint256 _tokenId) public payable nonReentrant {... */\n    tag_5:\n      tag_28\n      tag_29\n      calldatasize\n      0x04\n      tag_30\n      jump\t// in\n    tag_29:\n      tag_31\n      jump\t// in\n    tag_28:\n      stop\n        /* \"contracts/Marketplace.sol\":1793:2493  function buyNFT(address _nftContract, uint256 _tokenId) public payable nonReentrant {... */\n    tag_6:\n      tag_28\n      tag_33\n      calldatasize\n      0x04\n      tag_30\n      jump\t// in\n    tag_33:\n      tag_34\n      jump\t// in\n        /* \"contracts/Marketplace.sol\":3339:3542  function getMarketPlaceBalance() public view returns(uint256) {... */\n    tag_7:\n      callvalue\n      dup1\n      iszero\n      tag_35\n      jumpi\n      0x00\n      dup1\n      revert\n    tag_35:\n      pop\n        /* \"contracts/Marketplace.sol\":3515:3536  address(this).balance */\n      selfbalance\n        /* \"contracts/Marketplace.sol\":3339:3542  function getMarketPlaceBalance() public view returns(uint256) {... */\n      jump(tag_20)\n        /* \"contracts/Marketplace.sol\":3128:3212  function getListingFee() public view returns (uint256) {... */\n    tag_8:\n      callvalue\n      dup1\n      iszero\n      tag_39\n      jumpi\n      0x00\n      dup1\n      revert\n    tag_39:\n      pop\n        /* \"contracts/Marketplace.sol\":3196:3207  LISTING_FEE */\n      sload(0x03)\n        /* \"contracts/Marketplace.sol\":3128:3212  function getListingFee() public view returns (uint256) {... */\n      jump(tag_20)\n        /* \"contracts/Marketplace.sol\":3646:3740  function getItemsSold() public view returns(uint256) {... */\n    tag_9:\n      callvalue\n      dup1\n      iszero\n      tag_43\n      jumpi\n      0x00\n      dup1\n      revert\n    tag_43:\n      pop\n      tag_20\n      tag_45\n      jump\t// in\n        /* \"contracts/Marketplace.sol\":1109:1773  function listNFT(address _nftContract, uint256 _tokenId, string memory _name, string memory _tokenURI) public payable nonReentrant {... */\n    tag_10:\n      tag_28\n      tag_48\n      calldatasize\n      0x04\n      tag_49\n      jump\t// in\n    tag_48:\n      tag_50\n      jump\t// in\n        /* \"contracts/Marketplace.sol\":3216:3334  function getTokenForId(uint256 _tokenId) public view returns (Token memory) {... */\n    tag_16:\n      0x40\n      dup1\n      mload\n      0x0100\n      dup2\n      add\n      dup3\n      mstore\n      0x00\n      dup1\n      dup3\n      mstore\n      0x20\n      dup3\n      add\n      dup2\n      swap1\n      mstore\n      swap2\n      dup2\n      add\n      dup3\n      swap1\n      mstore\n      0x60\n      dup1\n      dup3\n      add\n      dup4\n      swap1\n      mstore\n      0x80\n      dup3\n      add\n      dup2\n      swap1\n      mstore\n      0xa0\n      dup3\n      add\n      mstore\n      0xc0\n      dup2\n      add\n      dup3\n      swap1\n      mstore\n      0xe0\n      dup2\n      add\n      swap2\n      swap1\n      swap2\n      mstore\n        /* \"contracts/Marketplace.sol\":3308:3328  _idToToken[_tokenId] */\n      0x00\n      dup3\n      dup2\n      mstore\n        /* \"contracts/Marketplace.sol\":3308:3318  _idToToken */\n      0x05\n        /* \"contracts/Marketplace.sol\":3308:3328  _idToToken[_tokenId] */\n      0x20\n      swap1\n      dup2\n      mstore\n      0x40\n      swap2\n      dup3\n      swap1\n      keccak256\n        /* \"contracts/Marketplace.sol\":3301:3328  return _idToToken[_tokenId] */\n      dup3\n      mload\n      0x0100\n      dup2\n      add\n      dup5\n      mstore\n      dup2\n      sload\n      sub(shl(0xa0, 0x01), 0x01)\n      swap1\n      dup2\n      and\n      dup3\n      mstore\n      0x01\n      dup4\n      add\n      sload\n      swap4\n      dup3\n      add\n      swap4\n      swap1\n      swap4\n      mstore\n      0x02\n      dup3\n      add\n      sload\n      dup4\n      and\n      swap4\n      dup2\n      add\n      swap4\n      swap1\n      swap4\n      mstore\n      0x03\n      dup2\n      add\n      sload\n      swap1\n      swap2\n      and\n      0x60\n      dup4\n      add\n      mstore\n      0x04\n      dup2\n      add\n      dup1\n      sload\n      0x80\n      dup5\n      add\n      swap2\n      swap1\n      tag_54\n      swap1\n      tag_55\n      jump\t// in\n    tag_54:\n      dup1\n      0x1f\n      add\n      0x20\n      dup1\n      swap2\n      div\n      mul\n      0x20\n      add\n      mload(0x40)\n      swap1\n      dup2\n      add\n      0x40\n      mstore\n      dup1\n      swap3\n      swap2\n      swap1\n      dup2\n      dup2\n      mstore\n      0x20\n      add\n      dup3\n      dup1\n      sload\n      tag_56\n      swap1\n      tag_55\n      jump\t// in\n    tag_56:\n      dup1\n      iszero\n      tag_57\n      jumpi\n      dup1\n      0x1f\n      lt\n      tag_58\n      jumpi\n      0x0100\n      dup1\n      dup4\n      sload\n      div\n      mul\n      dup4\n      mstore\n      swap2\n      0x20\n      add\n      swap2\n      jump(tag_57)\n    tag_58:\n      dup3\n      add\n      swap2\n      swap1\n      0x00\n      mstore\n      keccak256(0x00, 0x20)\n      swap1\n    tag_59:\n      dup2\n      sload\n      dup2\n      mstore\n      swap1\n      0x01\n      add\n      swap1\n      0x20\n      add\n      dup1\n      dup4\n      gt\n      tag_59\n      jumpi\n      dup3\n      swap1\n      sub\n      0x1f\n      and\n      dup3\n      add\n      swap2\n    tag_57:\n      pop\n      pop\n      pop\n      pop\n      pop\n      dup2\n      mstore\n      0x20\n      add\n      0x05\n      dup3\n      add\n      dup1\n      sload\n      tag_60\n      swap1\n      tag_55\n      jump\t// in\n    tag_60:\n      dup1\n      0x1f\n      add\n      0x20\n      dup1\n      swap2\n      div\n      mul\n      0x20\n      add\n      mload(0x40)\n      swap1\n      dup2\n      add\n      0x40\n      mstore\n      dup1\n      swap3\n      swap2\n      swap1\n      dup2\n      dup2\n      mstore\n      0x20\n      add\n      dup3\n      dup1\n      sload\n      tag_61\n      swap1\n      tag_55\n      jump\t// in\n    tag_61:\n      dup1\n      iszero\n      tag_62\n      jumpi\n      dup1\n      0x1f\n      lt\n      tag_63\n      jumpi\n      0x0100\n      dup1\n      dup4\n      sload\n      div\n      mul\n      dup4\n      mstore\n      swap2\n      0x20\n      add\n      swap2\n      jump(tag_62)\n    tag_63:\n      dup3\n      add\n      swap2\n      swap1\n      0x00\n      mstore\n      keccak256(0x00, 0x20)\n      swap1\n    tag_64:\n      dup2\n      sload\n      dup2\n      mstore\n      swap1\n      0x01\n      add\n      swap1\n      0x20\n      add\n      dup1\n      dup4\n      gt\n      tag_64\n      jumpi\n      dup3\n      swap1\n      sub\n      0x1f\n      and\n      dup3\n      add\n      swap2\n    tag_62:\n      pop\n      pop\n      pop\n      swap2\n      dup4\n      mstore\n      pop\n      pop\n      0x06\n      dup3\n      add\n      sload\n      0x20\n      dup3\n      add\n      mstore\n      0x07\n      swap1\n      swap2\n      add\n      sload\n      0xff\n      and\n      iszero\n      iszero\n      0x40\n      swap1\n      swap2\n      add\n      mstore\n      swap3\n        /* \"contracts/Marketplace.sol\":3216:3334  function getTokenForId(uint256 _tokenId) public view returns (Token memory) {... */\n      swap2\n      pop\n      pop\n      jump\t// out\n        /* \"contracts/Marketplace.sol\":3547:3642  function getItemsCount() public view returns(uint256) {... */\n    tag_26:\n        /* \"contracts/Marketplace.sol\":3592:3599  uint256 */\n      0x00\n        /* \"contracts/Marketplace.sol\":3617:3636  _nftCount.current() */\n      tag_66\n        /* \"contracts/Marketplace.sol\":3617:3626  _nftCount */\n      0x02\n        /* \"contracts/@openzeppelin/contracts/utils/Counters.sol\":918:932  counter._value */\n      sload\n      swap1\n        /* \"contracts/@openzeppelin/contracts/utils/Counters.sol\":827:939  function current(Counter storage counter) internal view returns (uint256) {... */\n      jump\n        /* \"contracts/Marketplace.sol\":3617:3636  _nftCount.current() */\n    tag_66:\n        /* \"contracts/Marketplace.sol\":3610:3636  return _nftCount.current() */\n      swap1\n      pop\n        /* \"contracts/Marketplace.sol\":3547:3642  function getItemsCount() public view returns(uint256) {... */\n      swap1\n      jump\t// out\n        /* \"contracts/Marketplace.sol\":2547:3124  function resellNFT(address _nftContract, uint256 _tokenId) public payable nonReentrant {... */\n    tag_31:\n        /* \"contracts/@openzeppelin/contracts/security/ReentrancyGuard.sol\":1744:1745  2 */\n      0x02\n        /* \"contracts/@openzeppelin/contracts/security/ReentrancyGuard.sol\":2325:2332  _status */\n      sload(0x00)\n        /* \"contracts/@openzeppelin/contracts/security/ReentrancyGuard.sol\":2325:2344  _status != _ENTERED */\n      sub\n        /* \"contracts/@openzeppelin/contracts/security/ReentrancyGuard.sol\":2317:2380  require(_status != _ENTERED, \"ReentrancyGuard: reentrant call\") */\n      tag_69\n      jumpi\n      mload(0x40)\n      shl(0xe5, 0x461bcd)\n      dup2\n      mstore\n      0x04\n      add\n      tag_70\n      swap1\n      tag_71\n      jump\t// in\n    tag_70:\n      mload(0x40)\n      dup1\n      swap2\n      sub\n      swap1\n      revert\n    tag_69:\n        /* \"contracts/@openzeppelin/contracts/security/ReentrancyGuard.sol\":1744:1745  2 */\n      0x02\n        /* \"contracts/@openzeppelin/contracts/security/ReentrancyGuard.sol\":2455:2462  _status */\n      0x00\n        /* \"contracts/@openzeppelin/contracts/security/ReentrancyGuard.sol\":2455:2473  _status = _ENTERED */\n      swap1\n      dup2\n      sstore\n        /* \"contracts/Marketplace.sol\":2656:2695  IERC721(_nftContract).ownerOf(_tokenId) */\n      mload(0x40)\n      shl(0xe1, 0x31a9108f)\n      dup2\n      mstore\n      0x04\n      dup2\n      add\n        /* \"#utility.yul\":2012:2037   */\n      dup4\n      swap1\n      mstore\n      sub(shl(0xa0, 0x01), 0x01)\n        /* \"contracts/Marketplace.sol\":2656:2685  IERC721(_nftContract).ownerOf */\n      dup5\n      and\n      swap1\n      0x6352211e\n      swap1\n        /* \"#utility.yul\":1985:2003   */\n      0x24\n      add\n        /* \"contracts/Marketplace.sol\":2656:2695  IERC721(_nftContract).ownerOf(_tokenId) */\n      0x20\n      mload(0x40)\n      dup1\n      dup4\n      sub\n      dup2\n      dup7\n      gas\n      staticcall\n      iszero\n      dup1\n      iszero\n      tag_75\n      jumpi\n      returndatasize\n      0x00\n      dup1\n      returndatacopy\n      revert(0x00, returndatasize)\n    tag_75:\n      pop\n      pop\n      pop\n      pop\n      mload(0x40)\n      returndatasize\n      not(0x1f)\n      0x1f\n      dup3\n      add\n      and\n      dup3\n      add\n      dup1\n      0x40\n      mstore\n      pop\n      dup2\n      add\n      swap1\n      tag_76\n      swap2\n      swap1\n      tag_77\n      jump\t// in\n    tag_76:\n        /* \"contracts/Marketplace.sol\":2640:2695  address owner = IERC721(_nftContract).ownerOf(_tokenId) */\n      swap1\n      pop\n        /* \"contracts/Marketplace.sol\":2722:2733  LISTING_FEE */\n      sload(0x03)\n        /* \"contracts/Marketplace.sol\":2709:2718  msg.value */\n      callvalue\n        /* \"contracts/Marketplace.sol\":2709:2733  msg.value == LISTING_FEE */\n      eq\n        /* \"contracts/Marketplace.sol\":2701:2770  require(msg.value == LISTING_FEE, \"Not enough ether for listing fee\") */\n      tag_78\n      jumpi\n      mload(0x40)\n      shl(0xe5, 0x461bcd)\n      dup2\n      mstore\n        /* \"#utility.yul\":5421:5423   */\n      0x20\n        /* \"contracts/Marketplace.sol\":2701:2770  require(msg.value == LISTING_FEE, \"Not enough ether for listing fee\") */\n      0x04\n      dup3\n      add\n        /* \"#utility.yul\":5403:5424   */\n      dup2\n      swap1\n      mstore\n        /* \"#utility.yul\":5440:5458   */\n      0x24\n      dup3\n      add\n        /* \"#utility.yul\":5433:5463   */\n      mstore\n        /* \"#utility.yul\":5499:5533   */\n      0x4e6f7420656e6f75676820657468657220666f72206c697374696e6720666565\n        /* \"#utility.yul\":5479:5497   */\n      0x44\n      dup3\n      add\n        /* \"#utility.yul\":5472:5534   */\n      mstore\n        /* \"#utility.yul\":5551:5569   */\n      0x64\n      add\n        /* \"contracts/Marketplace.sol\":2701:2770  require(msg.value == LISTING_FEE, \"Not enough ether for listing fee\") */\n      tag_70\n        /* \"#utility.yul\":5219:5575   */\n      jump\n        /* \"contracts/Marketplace.sol\":2701:2770  require(msg.value == LISTING_FEE, \"Not enough ether for listing fee\") */\n    tag_78:\n        /* \"contracts/Marketplace.sol\":2791:2857  IERC721(_nftContract).transferFrom(owner, address(this), _tokenId) */\n      mload(0x40)\n      shl(0xe0, 0x23b872dd)\n      dup2\n      mstore\n      sub(shl(0xa0, 0x01), 0x01)\n        /* \"#utility.yul\":5800:5832   */\n      dup3\n      dup2\n      and\n        /* \"contracts/Marketplace.sol\":2791:2857  IERC721(_nftContract).transferFrom(owner, address(this), _tokenId) */\n      0x04\n      dup4\n      add\n        /* \"#utility.yul\":5782:5833   */\n      mstore\n        /* \"contracts/Marketplace.sol\":2841:2845  this */\n      address\n        /* \"#utility.yul\":5849:5867   */\n      0x24\n      dup4\n      add\n        /* \"#utility.yul\":5842:5902   */\n      mstore\n        /* \"#utility.yul\":5918:5936   */\n      0x44\n      dup3\n      add\n        /* \"#utility.yul\":5911:5945   */\n      dup5\n      swap1\n      mstore\n        /* \"contracts/Marketplace.sol\":2791:2825  IERC721(_nftContract).transferFrom */\n      dup5\n      and\n      swap1\n      0x23b872dd\n      swap1\n        /* \"#utility.yul\":5755:5773   */\n      0x64\n      add\n        /* \"contracts/Marketplace.sol\":2791:2857  IERC721(_nftContract).transferFrom(owner, address(this), _tokenId) */\n      0x00\n      mload(0x40)\n      dup1\n      dup4\n      sub\n      dup2\n      0x00\n      dup8\n      dup1\n      extcodesize\n      iszero\n      dup1\n      iszero\n      tag_83\n      jumpi\n      0x00\n      dup1\n      revert\n    tag_83:\n      pop\n      gas\n      call\n      iszero\n      dup1\n      iszero\n      tag_85\n      jumpi\n      returndatasize\n      0x00\n      dup1\n      returndatacopy\n      revert(0x00, returndatasize)\n    tag_85:\n      pop\n      pop\n      pop\n        /* \"contracts/Marketplace.sol\":2864:2881  Token storage nft */\n      0x00\n        /* \"contracts/Marketplace.sol\":2884:2904  _idToToken[_tokenId] */\n      dup4\n      dup2\n      mstore\n        /* \"contracts/Marketplace.sol\":2884:2894  _idToToken */\n      0x05\n        /* \"contracts/Marketplace.sol\":2884:2904  _idToToken[_tokenId] */\n      0x20\n      mstore\n      0x40\n      swap1\n      keccak256\n        /* \"contracts/Marketplace.sol\":2910:2920  nft.seller */\n      0x02\n      dup2\n      add\n        /* \"contracts/Marketplace.sol\":2910:2942  nft.seller = payable(msg.sender) */\n      dup1\n      sload\n      not(sub(shl(0xa0, 0x01), 0x01))\n      swap1\n      dup2\n      and\n        /* \"contracts/Marketplace.sol\":2931:2941  msg.sender */\n      caller\n        /* \"contracts/Marketplace.sol\":2910:2942  nft.seller = payable(msg.sender) */\n      or\n      swap1\n      swap2\n      sstore\n        /* \"contracts/Marketplace.sol\":2948:2957  nft.owner */\n      0x03\n      dup3\n      add\n        /* \"contracts/Marketplace.sol\":2948:2982  nft.owner = payable(address(this)) */\n      dup1\n      sload\n      swap1\n      swap2\n      and\n        /* \"contracts/Marketplace.sol\":2976:2980  this */\n      address\n        /* \"contracts/Marketplace.sol\":2948:2982  nft.owner = payable(address(this)) */\n      or\n      swap1\n      sstore\n        /* \"contracts/Marketplace.sol\":2988:3000  nft.isListed */\n      0x07\n      dup2\n      add\n        /* \"contracts/Marketplace.sol\":2988:3007  nft.isListed = true */\n      dup1\n      sload\n      not(0xff)\n      and\n        /* \"contracts/Marketplace.sol\":2910:2942  nft.seller = payable(msg.sender) */\n      0x01\n        /* \"contracts/Marketplace.sol\":2988:3007  nft.isListed = true */\n      swap1\n      dup2\n      or\n      swap1\n      swap2\n      sstore\n        /* \"contracts/Marketplace.sol\":2884:2904  _idToToken[_tokenId] */\n      swap1\n      swap2\n      pop\n        /* \"contracts/Marketplace.sol\":3014:3035  _nftsSold.decrement() */\n      tag_86\n      swap1\n        /* \"contracts/Marketplace.sol\":3014:3033  _nftsSold.decrement */\n      tag_87\n        /* \"contracts/Marketplace.sol\":3014:3035  _nftsSold.decrement() */\n      jump\t// in\n    tag_86:\n        /* \"contracts/Marketplace.sol\":3046:3119  NFTListed(_nftContract, _tokenId, msg.sender, address(this), LISTING_FEE) */\n      0xa0c6c0d02d86fdacecbaa5fdf5894bab204e31a778250474108540733a9b8d19\n        /* \"contracts/Marketplace.sol\":3056:3068  _nftContract */\n      dup5\n        /* \"contracts/Marketplace.sol\":3070:3078  _tokenId */\n      dup5\n        /* \"contracts/Marketplace.sol\":3080:3090  msg.sender */\n      caller\n        /* \"contracts/Marketplace.sol\":3100:3104  this */\n      address\n        /* \"contracts/Marketplace.sol\":3107:3118  LISTING_FEE */\n      sload(0x03)\n        /* \"contracts/Marketplace.sol\":3046:3119  NFTListed(_nftContract, _tokenId, msg.sender, address(this), LISTING_FEE) */\n      mload(0x40)\n      tag_88\n      swap6\n      swap5\n      swap4\n      swap3\n      swap2\n      swap1\n      tag_89\n      jump\t// in\n    tag_88:\n      mload(0x40)\n      dup1\n      swap2\n      sub\n      swap1\n      log1\n      pop\n      pop\n        /* \"contracts/@openzeppelin/contracts/security/ReentrancyGuard.sol\":1701:1702  1 */\n      0x01\n        /* \"contracts/@openzeppelin/contracts/security/ReentrancyGuard.sol\":2628:2635  _status */\n      0x00\n        /* \"contracts/@openzeppelin/contracts/security/ReentrancyGuard.sol\":2628:2650  _status = _NOT_ENTERED */\n      sstore\n      pop\n      pop\n        /* \"contracts/Marketplace.sol\":2547:3124  function resellNFT(address _nftContract, uint256 _tokenId) public payable nonReentrant {... */\n      jump\t// out\n        /* \"contracts/Marketplace.sol\":1793:2493  function buyNFT(address _nftContract, uint256 _tokenId) public payable nonReentrant {... */\n    tag_34:\n        /* \"contracts/@openzeppelin/contracts/security/ReentrancyGuard.sol\":1744:1745  2 */\n      0x02\n        /* \"contracts/@openzeppelin/contracts/security/ReentrancyGuard.sol\":2325:2332  _status */\n      sload(0x00)\n        /* \"contracts/@openzeppelin/contracts/security/ReentrancyGuard.sol\":2325:2344  _status != _ENTERED */\n      sub\n        /* \"contracts/@openzeppelin/contracts/security/ReentrancyGuard.sol\":2317:2380  require(_status != _ENTERED, \"ReentrancyGuard: reentrant call\") */\n      tag_91\n      jumpi\n      mload(0x40)\n      shl(0xe5, 0x461bcd)\n      dup2\n      mstore\n      0x04\n      add\n      tag_70\n      swap1\n      tag_71\n      jump\t// in\n    tag_91:\n        /* \"contracts/@openzeppelin/contracts/security/ReentrancyGuard.sol\":1744:1745  2 */\n      0x02\n        /* \"contracts/@openzeppelin/contracts/security/ReentrancyGuard.sol\":2455:2462  _status */\n      0x00\n        /* \"contracts/@openzeppelin/contracts/security/ReentrancyGuard.sol\":2455:2473  _status = _ENTERED */\n      swap1\n      dup2\n      sstore\n        /* \"contracts/Marketplace.sol\":1899:1938  IERC721(_nftContract).ownerOf(_tokenId) */\n      mload(0x40)\n      shl(0xe1, 0x31a9108f)\n      dup2\n      mstore\n      0x04\n      dup2\n      add\n        /* \"#utility.yul\":2012:2037   */\n      dup4\n      swap1\n      mstore\n      sub(shl(0xa0, 0x01), 0x01)\n        /* \"contracts/Marketplace.sol\":1899:1928  IERC721(_nftContract).ownerOf */\n      dup5\n      and\n      swap1\n      0x6352211e\n      swap1\n        /* \"#utility.yul\":1985:2003   */\n      0x24\n      add\n        /* \"contracts/Marketplace.sol\":1899:1938  IERC721(_nftContract).ownerOf(_tokenId) */\n      0x20\n      mload(0x40)\n      dup1\n      dup4\n      sub\n      dup2\n      dup7\n      gas\n      staticcall\n      iszero\n      dup1\n      iszero\n      tag_96\n      jumpi\n      returndatasize\n      0x00\n      dup1\n      returndatacopy\n      revert(0x00, returndatasize)\n    tag_96:\n      pop\n      pop\n      pop\n      pop\n      mload(0x40)\n      returndatasize\n      not(0x1f)\n      0x1f\n      dup3\n      add\n      and\n      dup3\n      add\n      dup1\n      0x40\n      mstore\n      pop\n      dup2\n      add\n      swap1\n      tag_97\n      swap2\n      swap1\n      tag_77\n      jump\t// in\n    tag_97:\n        /* \"contracts/Marketplace.sol\":1944:1961  Token storage nft */\n      0x00\n        /* \"contracts/Marketplace.sol\":1964:1984  _idToToken[_tokenId] */\n      dup4\n      dup2\n      mstore\n        /* \"contracts/Marketplace.sol\":1964:1974  _idToToken */\n      0x05\n        /* \"contracts/Marketplace.sol\":1964:1984  _idToToken[_tokenId] */\n      0x20\n      mstore\n      0x40\n      swap1\n      keccak256\n        /* \"contracts/Marketplace.sol\":2011:2020  nft.price */\n      0x06\n      dup2\n      add\n      sload\n        /* \"contracts/Marketplace.sol\":1883:1938  address owner = IERC721(_nftContract).ownerOf(_tokenId) */\n      swap2\n      swap3\n      pop\n        /* \"contracts/Marketplace.sol\":1964:1984  _idToToken[_tokenId] */\n      swap1\n        /* \"contracts/Marketplace.sol\":1998:2007  msg.value */\n      callvalue\n        /* \"contracts/Marketplace.sol\":1998:2020  msg.value >= nft.price */\n      lt\n      iszero\n        /* \"contracts/Marketplace.sol\":1990:2063  require(msg.value >= nft.price, \"Not enough ether to cover asking price\") */\n      tag_98\n      jumpi\n      mload(0x40)\n      shl(0xe5, 0x461bcd)\n      dup2\n      mstore\n        /* \"#utility.yul\":6704:6706   */\n      0x20\n        /* \"contracts/Marketplace.sol\":1990:2063  require(msg.value >= nft.price, \"Not enough ether to cover asking price\") */\n      0x04\n      dup3\n      add\n        /* \"#utility.yul\":6686:6707   */\n      mstore\n        /* \"#utility.yul\":6743:6745   */\n      0x26\n        /* \"#utility.yul\":6723:6741   */\n      0x24\n      dup3\n      add\n        /* \"#utility.yul\":6716:6746   */\n      mstore\n        /* \"#utility.yul\":6782:6816   */\n      0x4e6f7420656e6f75676820657468657220746f20636f7665722061736b696e67\n        /* \"#utility.yul\":6762:6780   */\n      0x44\n      dup3\n      add\n        /* \"#utility.yul\":6755:6817   */\n      mstore\n      shl(0xd0, 0x207072696365)\n        /* \"#utility.yul\":6833:6851   */\n      0x64\n      dup3\n      add\n        /* \"#utility.yul\":6826:6862   */\n      mstore\n        /* \"#utility.yul\":6879:6898   */\n      0x84\n      add\n        /* \"contracts/Marketplace.sol\":1990:2063  require(msg.value >= nft.price, \"Not enough ether to cover asking price\") */\n      tag_70\n        /* \"#utility.yul\":6502:6904   */\n      jump\n        /* \"contracts/Marketplace.sol\":1990:2063  require(msg.value >= nft.price, \"Not enough ether to cover asking price\") */\n    tag_98:\n        /* \"contracts/Marketplace.sol\":2127:2137  nft.seller */\n      0x02\n      dup2\n      add\n      sload\n        /* \"contracts/Marketplace.sol\":2119:2158  payable(nft.seller).transfer(msg.value) */\n      mload(0x40)\n        /* \"contracts/Marketplace.sol\":2102:2112  msg.sender */\n      caller\n      swap2\n      sub(shl(0xa0, 0x01), 0x01)\n        /* \"contracts/Marketplace.sol\":2127:2137  nft.seller */\n      and\n      swap1\n        /* \"contracts/Marketplace.sol\":2148:2157  msg.value */\n      callvalue\n        /* \"contracts/Marketplace.sol\":2119:2158  payable(nft.seller).transfer(msg.value) */\n      dup1\n      iszero\n      0x08fc\n      mul\n      swap2\n        /* \"contracts/Marketplace.sol\":2070:2091  address payable buyer */\n      0x00\n        /* \"contracts/Marketplace.sol\":2119:2158  payable(nft.seller).transfer(msg.value) */\n      dup2\n        /* \"contracts/Marketplace.sol\":2070:2091  address payable buyer */\n      dup2\n        /* \"contracts/Marketplace.sol\":2119:2158  payable(nft.seller).transfer(msg.value) */\n      dup2\n        /* \"contracts/Marketplace.sol\":2148:2157  msg.value */\n      dup6\n        /* \"contracts/Marketplace.sol\":2127:2137  nft.seller */\n      dup9\n        /* \"contracts/Marketplace.sol\":2119:2158  payable(nft.seller).transfer(msg.value) */\n      dup9\n      call\n      swap4\n      pop\n      pop\n      pop\n      pop\n      iszero\n      dup1\n      iszero\n      tag_102\n      jumpi\n      returndatasize\n      0x00\n      dup1\n      returndatacopy\n      revert(0x00, returndatasize)\n    tag_102:\n      pop\n        /* \"contracts/Marketplace.sol\":2220:2231  nft.tokenId */\n      0x01\n      dup3\n      add\n      sload\n        /* \"contracts/Marketplace.sol\":2166:2232  IERC721(_nftContract).transferFrom(owner, msg.sender, nft.tokenId) */\n      mload(0x40)\n      shl(0xe0, 0x23b872dd)\n      dup2\n      mstore\n      sub(shl(0xa0, 0x01), 0x01)\n        /* \"#utility.yul\":5800:5832   */\n      dup6\n      dup2\n      and\n        /* \"contracts/Marketplace.sol\":2166:2232  IERC721(_nftContract).transferFrom(owner, msg.sender, nft.tokenId) */\n      0x04\n      dup4\n      add\n        /* \"#utility.yul\":5782:5833   */\n      mstore\n        /* \"contracts/Marketplace.sol\":2208:2218  msg.sender */\n      caller\n        /* \"#utility.yul\":5849:5867   */\n      0x24\n      dup4\n      add\n        /* \"#utility.yul\":5842:5902   */\n      mstore\n        /* \"#utility.yul\":5918:5936   */\n      0x44\n      dup3\n      add\n        /* \"#utility.yul\":5911:5945   */\n      swap3\n      swap1\n      swap3\n      mstore\n        /* \"contracts/Marketplace.sol\":2166:2200  IERC721(_nftContract).transferFrom */\n      swap1\n      dup7\n      and\n      swap1\n      0x23b872dd\n      swap1\n        /* \"#utility.yul\":5755:5773   */\n      0x64\n      add\n        /* \"contracts/Marketplace.sol\":2166:2232  IERC721(_nftContract).transferFrom(owner, msg.sender, nft.tokenId) */\n      0x00\n      mload(0x40)\n      dup1\n      dup4\n      sub\n      dup2\n      0x00\n      dup8\n      dup1\n      extcodesize\n      iszero\n      dup1\n      iszero\n      tag_104\n      jumpi\n      0x00\n      dup1\n      revert\n    tag_104:\n      pop\n      gas\n      call\n      iszero\n      dup1\n      iszero\n      tag_106\n      jumpi\n      returndatasize\n      0x00\n      dup1\n      returndatacopy\n      revert(0x00, returndatasize)\n    tag_106:\n      pop\n      pop\n        /* \"contracts/Marketplace.sol\":2238:2295  IERC721(_nftContract).setApprovalForAll(msg.sender, true) */\n      mload(0x40)\n      shl(0xe0, 0xa22cb465)\n      dup2\n      mstore\n        /* \"contracts/Marketplace.sol\":2278:2288  msg.sender */\n      caller\n        /* \"contracts/Marketplace.sol\":2238:2295  IERC721(_nftContract).setApprovalForAll(msg.sender, true) */\n      0x04\n      dup3\n      add\n        /* \"#utility.yul\":7077:7128   */\n      mstore\n        /* \"contracts/Marketplace.sol\":2290:2294  true */\n      0x01\n        /* \"#utility.yul\":7144:7162   */\n      0x24\n      dup3\n      add\n        /* \"#utility.yul\":7137:7187   */\n      mstore\n      sub(shl(0xa0, 0x01), 0x01)\n        /* \"contracts/Marketplace.sol\":2238:2277  IERC721(_nftContract).setApprovalForAll */\n      dup9\n      and\n      swap3\n      pop\n      0xa22cb465\n      swap2\n      pop\n        /* \"#utility.yul\":7050:7068   */\n      0x44\n      add\n        /* \"contracts/Marketplace.sol\":2238:2295  IERC721(_nftContract).setApprovalForAll(msg.sender, true) */\n      0x00\n      mload(0x40)\n      dup1\n      dup4\n      sub\n      dup2\n      0x00\n      dup8\n      dup1\n      extcodesize\n      iszero\n      dup1\n      iszero\n      tag_109\n      jumpi\n      0x00\n      dup1\n      revert\n    tag_109:\n      pop\n      gas\n      call\n      iszero\n      dup1\n      iszero\n      tag_111\n      jumpi\n      returndatasize\n      0x00\n      dup1\n      returndatacopy\n      revert(0x00, returndatasize)\n    tag_111:\n      pop\n      pop\n        /* \"contracts/Marketplace.sol\":2302:2314  _marketOwner */\n      sload(0x04)\n        /* \"contracts/Marketplace.sol\":2324:2335  LISTING_FEE */\n      sload(0x03)\n        /* \"contracts/Marketplace.sol\":2302:2336  _marketOwner.transfer(LISTING_FEE) */\n      mload(0x40)\n      sub(shl(0xa0, 0x01), 0x01)\n        /* \"contracts/Marketplace.sol\":2302:2314  _marketOwner */\n      swap1\n      swap3\n      and\n      swap4\n      pop\n        /* \"contracts/Marketplace.sol\":2302:2336  _marketOwner.transfer(LISTING_FEE) */\n      dup1\n      iszero\n      0x08fc\n      mul\n      swap3\n      pop\n        /* \"contracts/Marketplace.sol\":2324:2335  LISTING_FEE */\n      swap1\n        /* \"contracts/Marketplace.sol\":2302:2314  _marketOwner */\n      0x00\n        /* \"contracts/Marketplace.sol\":2302:2336  _marketOwner.transfer(LISTING_FEE) */\n      dup2\n        /* \"contracts/Marketplace.sol\":2302:2314  _marketOwner */\n      dup2\n        /* \"contracts/Marketplace.sol\":2302:2336  _marketOwner.transfer(LISTING_FEE) */\n      dup2\n        /* \"contracts/Marketplace.sol\":2324:2335  LISTING_FEE */\n      dup6\n        /* \"contracts/Marketplace.sol\":2302:2314  _marketOwner */\n      dup9\n        /* \"contracts/Marketplace.sol\":2302:2336  _marketOwner.transfer(LISTING_FEE) */\n      dup9\n      call\n      swap4\n      pop\n      pop\n      pop\n      pop\n      iszero\n      dup1\n      iszero\n      tag_113\n      jumpi\n      returndatasize\n      0x00\n      dup1\n      returndatacopy\n      revert(0x00, returndatasize)\n    tag_113:\n      pop\n        /* \"contracts/Marketplace.sol\":2342:2351  nft.owner */\n      0x03\n      dup3\n      add\n        /* \"contracts/Marketplace.sol\":2342:2359  nft.owner = buyer */\n      dup1\n      sload\n      not(sub(shl(0xa0, 0x01), 0x01))\n      and\n      sub(shl(0xa0, 0x01), 0x01)\n      dup4\n      and\n      or\n      swap1\n      sstore\n        /* \"contracts/Marketplace.sol\":2365:2377  nft.isListed */\n      0x07\n      dup3\n      add\n        /* \"contracts/Marketplace.sol\":2365:2385  nft.isListed = false */\n      dup1\n      sload\n      not(0xff)\n      and\n      swap1\n      sstore\n      0x01\n        /* \"contracts/@openzeppelin/contracts/utils/Counters.sol\":1032:1051  counter._value += 1 */\n      dup1\n      sload\n      dup2\n      add\n      swap1\n      sstore\n        /* \"contracts/Marketplace.sol\":2446:2457  nft.tokenId */\n      0x01\n      dup3\n      add\n      sload\n        /* \"contracts/Marketplace.sol\":2459:2469  nft.seller */\n      0x02\n      dup4\n      add\n      sload\n        /* \"contracts/Marketplace.sol\":2424:2488  NFTSold(_nftContract, nft.tokenId, nft.seller, buyer, msg.value) */\n      mload(0x40)\n      0x16f1dbd97e6bf646d429ed186cce832f1f7fd9907814293b83181e9970ab7bd2\n      swap3\n      tag_116\n      swap3\n        /* \"contracts/Marketplace.sol\":2432:2444  _nftContract */\n      dup10\n      swap3\n      sub(shl(0xa0, 0x01), 0x01)\n        /* \"contracts/Marketplace.sol\":2459:2469  nft.seller */\n      swap1\n      swap2\n      and\n      swap1\n        /* \"contracts/Marketplace.sol\":2471:2476  buyer */\n      dup7\n      swap1\n        /* \"contracts/Marketplace.sol\":2478:2487  msg.value */\n      callvalue\n      swap1\n        /* \"contracts/Marketplace.sol\":2424:2488  NFTSold(_nftContract, nft.tokenId, nft.seller, buyer, msg.value) */\n      tag_89\n      jump\t// in\n    tag_116:\n      mload(0x40)\n      dup1\n      swap2\n      sub\n      swap1\n      log1\n      pop\n      pop\n        /* \"contracts/@openzeppelin/contracts/security/ReentrancyGuard.sol\":1701:1702  1 */\n      0x01\n        /* \"contracts/@openzeppelin/contracts/security/ReentrancyGuard.sol\":2628:2635  _status */\n      0x00\n        /* \"contracts/@openzeppelin/contracts/security/ReentrancyGuard.sol\":2628:2650  _status = _NOT_ENTERED */\n      sstore\n      pop\n      pop\n      pop\n        /* \"contracts/Marketplace.sol\":1793:2493  function buyNFT(address _nftContract, uint256 _tokenId) public payable nonReentrant {... */\n      jump\t// out\n        /* \"contracts/Marketplace.sol\":3646:3740  function getItemsSold() public view returns(uint256) {... */\n    tag_45:\n        /* \"contracts/Marketplace.sol\":3690:3697  uint256 */\n      0x00\n        /* \"contracts/Marketplace.sol\":3715:3734  _nftsSold.current() */\n      tag_66\n        /* \"contracts/Marketplace.sol\":3715:3724  _nftsSold */\n      0x01\n        /* \"contracts/@openzeppelin/contracts/utils/Counters.sol\":918:932  counter._value */\n      sload\n      swap1\n        /* \"contracts/@openzeppelin/contracts/utils/Counters.sol\":827:939  function current(Counter storage counter) internal view returns (uint256) {... */\n      jump\n        /* \"contracts/Marketplace.sol\":1109:1773  function listNFT(address _nftContract, uint256 _tokenId, string memory _name, string memory _tokenURI) public payable nonReentrant {... */\n    tag_50:\n        /* \"contracts/@openzeppelin/contracts/security/ReentrancyGuard.sol\":1744:1745  2 */\n      0x02\n        /* \"contracts/@openzeppelin/contracts/security/ReentrancyGuard.sol\":2325:2332  _status */\n      sload(0x00)\n        /* \"contracts/@openzeppelin/contracts/security/ReentrancyGuard.sol\":2325:2344  _status != _ENTERED */\n      sub\n        /* \"contracts/@openzeppelin/contracts/security/ReentrancyGuard.sol\":2317:2380  require(_status != _ENTERED, \"ReentrancyGuard: reentrant call\") */\n      tag_123\n      jumpi\n      mload(0x40)\n      shl(0xe5, 0x461bcd)\n      dup2\n      mstore\n      0x04\n      add\n      tag_70\n      swap1\n      tag_71\n      jump\t// in\n    tag_123:\n        /* \"contracts/@openzeppelin/contracts/security/ReentrancyGuard.sol\":1744:1745  2 */\n      0x02\n        /* \"contracts/@openzeppelin/contracts/security/ReentrancyGuard.sol\":2455:2462  _status */\n      0x00\n        /* \"contracts/@openzeppelin/contracts/security/ReentrancyGuard.sol\":2455:2473  _status = _ENTERED */\n      sstore\n        /* \"contracts/Marketplace.sol\":1254:1263  msg.value */\n      callvalue\n        /* \"contracts/Marketplace.sol\":1246:1300  require(msg.value > 0, \"Price must be at least 1 wei\") */\n      tag_126\n      jumpi\n      mload(0x40)\n      shl(0xe5, 0x461bcd)\n      dup2\n      mstore\n        /* \"#utility.yul\":7962:7964   */\n      0x20\n        /* \"contracts/Marketplace.sol\":1246:1300  require(msg.value > 0, \"Price must be at least 1 wei\") */\n      0x04\n      dup3\n      add\n        /* \"#utility.yul\":7944:7965   */\n      mstore\n        /* \"#utility.yul\":8001:8003   */\n      0x1c\n        /* \"#utility.yul\":7981:7999   */\n      0x24\n      dup3\n      add\n        /* \"#utility.yul\":7974:8004   */\n      mstore\n        /* \"#utility.yul\":8040:8070   */\n      0x5072696365206d757374206265206174206c6561737420312077656900000000\n        /* \"#utility.yul\":8020:8038   */\n      0x44\n      dup3\n      add\n        /* \"#utility.yul\":8013:8071   */\n      mstore\n        /* \"#utility.yul\":8088:8106   */\n      0x64\n      add\n        /* \"contracts/Marketplace.sol\":1246:1300  require(msg.value > 0, \"Price must be at least 1 wei\") */\n      tag_70\n        /* \"#utility.yul\":7760:8112   */\n      jump\n        /* \"contracts/Marketplace.sol\":1246:1300  require(msg.value > 0, \"Price must be at least 1 wei\") */\n    tag_126:\n        /* \"contracts/Marketplace.sol\":1327:1338  LISTING_FEE */\n      sload(0x03)\n        /* \"contracts/Marketplace.sol\":1314:1323  msg.value */\n      callvalue\n        /* \"contracts/Marketplace.sol\":1314:1338  msg.value == LISTING_FEE */\n      eq\n        /* \"contracts/Marketplace.sol\":1306:1375  require(msg.value == LISTING_FEE, \"Not enough ether for listing fee\") */\n      tag_129\n      jumpi\n      mload(0x40)\n      shl(0xe5, 0x461bcd)\n      dup2\n      mstore\n        /* \"#utility.yul\":5421:5423   */\n      0x20\n        /* \"contracts/Marketplace.sol\":1306:1375  require(msg.value == LISTING_FEE, \"Not enough ether for listing fee\") */\n      0x04\n      dup3\n      add\n        /* \"#utility.yul\":5403:5424   */\n      dup2\n      swap1\n      mstore\n        /* \"#utility.yul\":5440:5458   */\n      0x24\n      dup3\n      add\n        /* \"#utility.yul\":5433:5463   */\n      mstore\n        /* \"#utility.yul\":5499:5533   */\n      0x4e6f7420656e6f75676820657468657220666f72206c697374696e6720666565\n        /* \"#utility.yul\":5479:5497   */\n      0x44\n      dup3\n      add\n        /* \"#utility.yul\":5472:5534   */\n      mstore\n        /* \"#utility.yul\":5551:5569   */\n      0x64\n      add\n        /* \"contracts/Marketplace.sol\":1306:1375  require(msg.value == LISTING_FEE, \"Not enough ether for listing fee\") */\n      tag_70\n        /* \"#utility.yul\":5219:5575   */\n      jump\n        /* \"contracts/Marketplace.sol\":1306:1375  require(msg.value == LISTING_FEE, \"Not enough ether for listing fee\") */\n    tag_129:\n        /* \"contracts/Marketplace.sol\":1382:1453  IERC721(_nftContract).transferFrom(msg.sender, address(this), _tokenId) */\n      mload(0x40)\n      shl(0xe0, 0x23b872dd)\n      dup2\n      mstore\n        /* \"contracts/Marketplace.sol\":1417:1427  msg.sender */\n      caller\n        /* \"contracts/Marketplace.sol\":1382:1453  IERC721(_nftContract).transferFrom(msg.sender, address(this), _tokenId) */\n      0x04\n      dup3\n      add\n        /* \"#utility.yul\":5782:5833   */\n      mstore\n        /* \"contracts/Marketplace.sol\":1437:1441  this */\n      address\n        /* \"#utility.yul\":5849:5867   */\n      0x24\n      dup3\n      add\n        /* \"#utility.yul\":5842:5902   */\n      mstore\n        /* \"#utility.yul\":5918:5936   */\n      0x44\n      dup2\n      add\n        /* \"#utility.yul\":5911:5945   */\n      dup5\n      swap1\n      mstore\n      sub(shl(0xa0, 0x01), 0x01)\n        /* \"contracts/Marketplace.sol\":1382:1416  IERC721(_nftContract).transferFrom */\n      dup6\n      and\n      swap1\n      0x23b872dd\n      swap1\n        /* \"#utility.yul\":5755:5773   */\n      0x64\n      add\n        /* \"contracts/Marketplace.sol\":1382:1453  IERC721(_nftContract).transferFrom(msg.sender, address(this), _tokenId) */\n      0x00\n      mload(0x40)\n      dup1\n      dup4\n      sub\n      dup2\n      0x00\n      dup8\n      dup1\n      extcodesize\n      iszero\n      dup1\n      iszero\n      tag_132\n      jumpi\n      0x00\n      dup1\n      revert\n    tag_132:\n      pop\n      gas\n      call\n      iszero\n      dup1\n      iszero\n      tag_134\n      jumpi\n      returndatasize\n      0x00\n      dup1\n      returndatacopy\n      revert(0x00, returndatasize)\n    tag_134:\n      pop\n      pop\n      pop\n      pop\n        /* \"contracts/Marketplace.sol\":1464:1485  _nftCount.increment() */\n      tag_135\n        /* \"contracts/Marketplace.sol\":1464:1473  _nftCount */\n      0x02\n        /* \"contracts/@openzeppelin/contracts/utils/Counters.sol\":1032:1051  counter._value += 1 */\n      dup1\n      sload\n        /* \"contracts/@openzeppelin/contracts/utils/Counters.sol\":1050:1051  1 */\n      0x01\n        /* \"contracts/@openzeppelin/contracts/utils/Counters.sol\":1032:1051  counter._value += 1 */\n      add\n      swap1\n      sstore\n        /* \"contracts/@openzeppelin/contracts/utils/Counters.sol\":945:1068  function increment(Counter storage counter) internal {... */\n      jump\n        /* \"contracts/Marketplace.sol\":1464:1485  _nftCount.increment() */\n    tag_135:\n        /* \"contracts/Marketplace.sol\":1515:1683  Token(... */\n      0x40\n      dup1\n      mload\n      0x0100\n      dup2\n      add\n      dup3\n      mstore\n      sub(shl(0xa0, 0x01), 0x01)\n      dup1\n      dup8\n      and\n      dup3\n      mstore\n      0x20\n      dup1\n      dup4\n      add\n      dup8\n      dup2\n      mstore\n        /* \"contracts/Marketplace.sol\":1573:1583  msg.sender */\n      caller\n        /* \"contracts/Marketplace.sol\":1515:1683  Token(... */\n      dup5\n      dup7\n      add\n      swap1\n      dup2\n      mstore\n        /* \"contracts/Marketplace.sol\":1608:1612  this */\n      address\n        /* \"contracts/Marketplace.sol\":1515:1683  Token(... */\n      0x60\n      dup7\n      add\n      swap1\n      dup2\n      mstore\n      0x80\n      dup7\n      add\n      dup9\n      dup2\n      mstore\n      0xa0\n      dup8\n      add\n      dup11\n      swap1\n      mstore\n        /* \"contracts/Marketplace.sol\":1654:1665  LISTING_FEE */\n      0x03\n      dup1\n      sload\n        /* \"contracts/Marketplace.sol\":1515:1683  Token(... */\n      0xc0\n      dup10\n      add\n      mstore\n        /* \"contracts/Marketplace.sol\":1673:1677  true */\n      0x01\n        /* \"contracts/Marketplace.sol\":1515:1683  Token(... */\n      0xe0\n      dup10\n      add\n      dup2\n      swap1\n      mstore\n      0x00\n        /* \"contracts/Marketplace.sol\":1492:1512  _idToToken[_tokenId] */\n      dup14\n      dup2\n      mstore\n        /* \"contracts/Marketplace.sol\":1492:1502  _idToToken */\n      0x05\n        /* \"contracts/Marketplace.sol\":1492:1512  _idToToken[_tokenId] */\n      swap1\n      swap8\n      mstore\n      swap9\n      swap1\n      swap6\n      keccak256\n        /* \"contracts/Marketplace.sol\":1492:1683  _idToToken[_tokenId] = Token(... */\n      dup8\n      mload\n      dup2\n      sload\n      swap1\n      dup9\n      and\n      not(sub(shl(0xa0, 0x01), 0x01))\n      swap2\n      dup3\n      and\n      or\n      dup3\n      sstore\n      swap5\n      mload\n      swap9\n      dup2\n      add\n      swap9\n      swap1\n      swap9\n      sstore\n      swap2\n      mload\n      0x02\n      dup9\n      add\n      dup1\n      sload\n      swap2\n      dup8\n      and\n      swap2\n      dup6\n      and\n      swap2\n      swap1\n      swap2\n      or\n      swap1\n      sstore\n      mload\n      swap3\n      dup7\n      add\n      dup1\n      sload\n      swap4\n      swap1\n      swap5\n      and\n      swap3\n      swap1\n      swap2\n      and\n      swap2\n      swap1\n      swap2\n      or\n      swap1\n      swap2\n      sstore\n      mload\n        /* \"contracts/Marketplace.sol\":1515:1683  Token(... */\n      swap1\n      swap2\n        /* \"contracts/Marketplace.sol\":1492:1512  _idToToken[_tokenId] */\n      swap1\n        /* \"contracts/Marketplace.sol\":1492:1683  _idToToken[_tokenId] = Token(... */\n      0x04\n      dup3\n      add\n      swap1\n      tag_136\n      swap1\n      dup3\n      tag_137\n      jump\t// in\n    tag_136:\n      pop\n      0xa0\n      dup3\n      add\n      mload\n      0x05\n      dup3\n      add\n      swap1\n      tag_138\n      swap1\n      dup3\n      tag_137\n      jump\t// in\n    tag_138:\n      pop\n      0xc0\n      dup3\n      add\n      mload\n      0x06\n      dup3\n      add\n      sstore\n      0xe0\n      swap1\n      swap2\n      add\n      mload\n      0x07\n      swap1\n      swap2\n      add\n      dup1\n      sload\n      not(0xff)\n      and\n      swap2\n      iszero\n      iszero\n      swap2\n      swap1\n      swap2\n      or\n      swap1\n      sstore\n        /* \"contracts/Marketplace.sol\":1756:1767  LISTING_FEE */\n      sload(0x03)\n        /* \"contracts/Marketplace.sol\":1695:1768  NFTListed(_nftContract, _tokenId, msg.sender, address(this), LISTING_FEE) */\n      mload(0x40)\n      0xa0c6c0d02d86fdacecbaa5fdf5894bab204e31a778250474108540733a9b8d19\n      swap2\n      tag_88\n      swap2\n        /* \"contracts/Marketplace.sol\":1705:1717  _nftContract */\n      dup8\n      swap2\n        /* \"contracts/Marketplace.sol\":1719:1727  _tokenId */\n      dup8\n      swap2\n        /* \"contracts/Marketplace.sol\":1729:1739  msg.sender */\n      caller\n      swap2\n        /* \"contracts/Marketplace.sol\":1749:1753  this */\n      address\n      swap2\n        /* \"contracts/Marketplace.sol\":1695:1768  NFTListed(_nftContract, _tokenId, msg.sender, address(this), LISTING_FEE) */\n      tag_89\n      jump\t// in\n        /* \"contracts/@openzeppelin/contracts/utils/Counters.sol\":1074:1303  function decrement(Counter storage counter) internal {... */\n    tag_87:\n        /* \"contracts/@openzeppelin/contracts/utils/Counters.sol\":1153:1167  counter._value */\n      dup1\n      sload\n        /* \"contracts/@openzeppelin/contracts/utils/Counters.sol\":1185:1194  value > 0 */\n      dup1\n        /* \"contracts/@openzeppelin/contracts/utils/Counters.sol\":1177:1226  require(value > 0, \"Counter: decrement overflow\") */\n      tag_142\n      jumpi\n      mload(0x40)\n      shl(0xe5, 0x461bcd)\n      dup2\n      mstore\n        /* \"#utility.yul\":10443:10445   */\n      0x20\n        /* \"contracts/@openzeppelin/contracts/utils/Counters.sol\":1177:1226  require(value > 0, \"Counter: decrement overflow\") */\n      0x04\n      dup3\n      add\n        /* \"#utility.yul\":10425:10446   */\n      mstore\n        /* \"#utility.yul\":10482:10484   */\n      0x1b\n        /* \"#utility.yul\":10462:10480   */\n      0x24\n      dup3\n      add\n        /* \"#utility.yul\":10455:10485   */\n      mstore\n        /* \"#utility.yul\":10521:10550   */\n      0x436f756e7465723a2064656372656d656e74206f766572666c6f770000000000\n        /* \"#utility.yul\":10501:10519   */\n      0x44\n      dup3\n      add\n        /* \"#utility.yul\":10494:10551   */\n      mstore\n        /* \"#utility.yul\":10568:10586   */\n      0x64\n      add\n        /* \"contracts/@openzeppelin/contracts/utils/Counters.sol\":1177:1226  require(value > 0, \"Counter: decrement overflow\") */\n      tag_70\n        /* \"#utility.yul\":10241:10592   */\n      jump\n        /* \"contracts/@openzeppelin/contracts/utils/Counters.sol\":1177:1226  require(value > 0, \"Counter: decrement overflow\") */\n    tag_142:\n      not(0x00)\n        /* \"contracts/@openzeppelin/contracts/utils/Counters.sol\":1277:1286  value - 1 */\n      add\n        /* \"contracts/@openzeppelin/contracts/utils/Counters.sol\":1260:1286  counter._value = value - 1 */\n      swap1\n      sstore\n        /* \"contracts/@openzeppelin/contracts/utils/Counters.sol\":1074:1303  function decrement(Counter storage counter) internal {... */\n      jump\t// out\n        /* \"#utility.yul\":14:240   */\n    tag_15:\n        /* \"#utility.yul\":73:79   */\n      0x00\n        /* \"#utility.yul\":126:128   */\n      0x20\n        /* \"#utility.yul\":114:123   */\n      dup3\n        /* \"#utility.yul\":105:112   */\n      dup5\n        /* \"#utility.yul\":101:124   */\n      sub\n        /* \"#utility.yul\":97:129   */\n      slt\n        /* \"#utility.yul\":94:146   */\n      iszero\n      tag_157\n      jumpi\n        /* \"#utility.yul\":142:143   */\n      0x00\n        /* \"#utility.yul\":139:140   */\n      dup1\n        /* \"#utility.yul\":132:144   */\n      revert\n        /* \"#utility.yul\":94:146   */\n    tag_157:\n      pop\n        /* \"#utility.yul\":187:210   */\n      calldataload\n      swap2\n        /* \"#utility.yul\":14:240   */\n      swap1\n      pop\n      jump\t// out\n        /* \"#utility.yul\":354:643   */\n    tag_147:\n        /* \"#utility.yul\":396:399   */\n      0x00\n        /* \"#utility.yul\":434:439   */\n      dup2\n        /* \"#utility.yul\":428:440   */\n      mload\n        /* \"#utility.yul\":461:467   */\n      dup1\n        /* \"#utility.yul\":456:459   */\n      dup5\n        /* \"#utility.yul\":449:468   */\n      mstore\n        /* \"#utility.yul\":517:523   */\n      dup1\n        /* \"#utility.yul\":510:514   */\n      0x20\n        /* \"#utility.yul\":503:508   */\n      dup5\n        /* \"#utility.yul\":499:515   */\n      add\n        /* \"#utility.yul\":492:496   */\n      0x20\n        /* \"#utility.yul\":487:490   */\n      dup7\n        /* \"#utility.yul\":483:497   */\n      add\n        /* \"#utility.yul\":477:524   */\n      mcopy\n        /* \"#utility.yul\":569:570   */\n      0x00\n        /* \"#utility.yul\":562:566   */\n      0x20\n        /* \"#utility.yul\":553:559   */\n      dup3\n        /* \"#utility.yul\":548:551   */\n      dup7\n        /* \"#utility.yul\":544:560   */\n      add\n        /* \"#utility.yul\":540:567   */\n      add\n        /* \"#utility.yul\":533:571   */\n      mstore\n        /* \"#utility.yul\":632:636   */\n      0x20\n        /* \"#utility.yul\":625:627   */\n      0x1f\n        /* \"#utility.yul\":621:628   */\n      not\n        /* \"#utility.yul\":616:618   */\n      0x1f\n        /* \"#utility.yul\":608:614   */\n      dup4\n        /* \"#utility.yul\":604:619   */\n      add\n        /* \"#utility.yul\":600:629   */\n      and\n        /* \"#utility.yul\":595:598   */\n      dup6\n        /* \"#utility.yul\":591:630   */\n      add\n        /* \"#utility.yul\":587:637   */\n      add\n        /* \"#utility.yul\":580:637   */\n      swap2\n      pop\n      pop\n        /* \"#utility.yul\":354:643   */\n      swap3\n      swap2\n      pop\n      pop\n      jump\t// out\n        /* \"#utility.yul\":744:1861   */\n    tag_18:\n        /* \"#utility.yul\":919:921   */\n      0x20\n        /* \"#utility.yul\":908:917   */\n      dup2\n        /* \"#utility.yul\":901:922   */\n      mstore\n        /* \"#utility.yul\":994:995   */\n      0x01\n        /* \"#utility.yul\":990:991   */\n      dup1\n        /* \"#utility.yul\":985:988   */\n      0xa0\n        /* \"#utility.yul\":981:992   */\n      shl\n        /* \"#utility.yul\":977:996   */\n      sub\n        /* \"#utility.yul\":968:974   */\n      dup3\n        /* \"#utility.yul\":962:975   */\n      mload\n        /* \"#utility.yul\":958:997   */\n      and\n        /* \"#utility.yul\":953:955   */\n      0x20\n        /* \"#utility.yul\":942:951   */\n      dup3\n        /* \"#utility.yul\":938:956   */\n      add\n        /* \"#utility.yul\":931:998   */\n      mstore\n        /* \"#utility.yul\":1052:1054   */\n      0x20\n        /* \"#utility.yul\":1044:1050   */\n      dup3\n        /* \"#utility.yul\":1040:1055   */\n      add\n        /* \"#utility.yul\":1034:1056   */\n      mload\n        /* \"#utility.yul\":1029:1031   */\n      0x40\n        /* \"#utility.yul\":1018:1027   */\n      dup3\n        /* \"#utility.yul\":1014:1032   */\n      add\n        /* \"#utility.yul\":1007:1057   */\n      mstore\n        /* \"#utility.yul\":882:886   */\n      0x00\n        /* \"#utility.yul\":1104:1106   */\n      0x40\n        /* \"#utility.yul\":1096:1102   */\n      dup4\n        /* \"#utility.yul\":1092:1107   */\n      add\n        /* \"#utility.yul\":1086:1108   */\n      mload\n        /* \"#utility.yul\":1117:1169   */\n      tag_162\n        /* \"#utility.yul\":1165:1167   */\n      0x60\n        /* \"#utility.yul\":1154:1163   */\n      dup5\n        /* \"#utility.yul\":1150:1168   */\n      add\n        /* \"#utility.yul\":1136:1148   */\n      dup3\n      sub(shl(0xa0, 0x01), 0x01)\n        /* \"#utility.yul\":311:342   */\n      and\n        /* \"#utility.yul\":299:343   */\n      swap1\n      mstore\n        /* \"#utility.yul\":245:349   */\n      jump\n        /* \"#utility.yul\":1117:1169   */\n    tag_162:\n      pop\n        /* \"#utility.yul\":1218:1220   */\n      0x60\n        /* \"#utility.yul\":1206:1221   */\n      dup4\n      add\n        /* \"#utility.yul\":1200:1222   */\n      mload\n      sub(shl(0xa0, 0x01), 0x01)\n        /* \"#utility.yul\":311:342   */\n      dup2\n      and\n        /* \"#utility.yul\":1281:1284   */\n      0x80\n        /* \"#utility.yul\":1266:1285   */\n      dup5\n      add\n        /* \"#utility.yul\":299:343   */\n      mstore\n        /* \"#utility.yul\":1231:1286   */\n      pop\n        /* \"#utility.yul\":1335:1338   */\n      0x80\n        /* \"#utility.yul\":1327:1333   */\n      dup4\n        /* \"#utility.yul\":1323:1339   */\n      add\n        /* \"#utility.yul\":1317:1340   */\n      mload\n        /* \"#utility.yul\":1377:1383   */\n      0x0100\n        /* \"#utility.yul\":1371:1374   */\n      0xa0\n        /* \"#utility.yul\":1360:1369   */\n      dup5\n        /* \"#utility.yul\":1356:1375   */\n      add\n        /* \"#utility.yul\":1349:1384   */\n      mstore\n        /* \"#utility.yul\":1407:1461   */\n      tag_164\n        /* \"#utility.yul\":1456:1459   */\n      0x0120\n        /* \"#utility.yul\":1445:1454   */\n      dup5\n        /* \"#utility.yul\":1441:1460   */\n      add\n        /* \"#utility.yul\":1425:1439   */\n      dup3\n        /* \"#utility.yul\":1407:1461   */\n      tag_147\n      jump\t// in\n    tag_164:\n        /* \"#utility.yul\":1393:1461   */\n      swap1\n      pop\n        /* \"#utility.yul\":1510:1513   */\n      0xa0\n        /* \"#utility.yul\":1502:1508   */\n      dup5\n        /* \"#utility.yul\":1498:1514   */\n      add\n        /* \"#utility.yul\":1492:1515   */\n      mload\n        /* \"#utility.yul\":1584:1586   */\n      0x1f\n        /* \"#utility.yul\":1580:1587   */\n      not\n        /* \"#utility.yul\":1568:1577   */\n      dup5\n        /* \"#utility.yul\":1560:1566   */\n      dup4\n        /* \"#utility.yul\":1556:1578   */\n      sub\n        /* \"#utility.yul\":1552:1588   */\n      add\n        /* \"#utility.yul\":1546:1549   */\n      0xc0\n        /* \"#utility.yul\":1535:1544   */\n      dup6\n        /* \"#utility.yul\":1531:1550   */\n      add\n        /* \"#utility.yul\":1524:1589   */\n      mstore\n        /* \"#utility.yul\":1612:1653   */\n      tag_165\n        /* \"#utility.yul\":1646:1652   */\n      dup3\n        /* \"#utility.yul\":1630:1644   */\n      dup3\n        /* \"#utility.yul\":1612:1653   */\n      tag_147\n      jump\t// in\n    tag_165:\n        /* \"#utility.yul\":1598:1653   */\n      swap2\n      pop\n      pop\n        /* \"#utility.yul\":1708:1711   */\n      0xc0\n        /* \"#utility.yul\":1700:1706   */\n      dup5\n        /* \"#utility.yul\":1696:1712   */\n      add\n        /* \"#utility.yul\":1690:1713   */\n      mload\n        /* \"#utility.yul\":1684:1687   */\n      0xe0\n        /* \"#utility.yul\":1673:1682   */\n      dup5\n        /* \"#utility.yul\":1669:1688   */\n      add\n        /* \"#utility.yul\":1662:1714   */\n      mstore\n        /* \"#utility.yul\":1763:1766   */\n      0xe0\n        /* \"#utility.yul\":1755:1761   */\n      dup5\n        /* \"#utility.yul\":1751:1767   */\n      add\n        /* \"#utility.yul\":1745:1768   */\n      mload\n        /* \"#utility.yul\":1777:1832   */\n      tag_166\n        /* \"#utility.yul\":1824:1830   */\n      0x0100\n        /* \"#utility.yul\":1813:1822   */\n      dup6\n        /* \"#utility.yul\":1809:1831   */\n      add\n        /* \"#utility.yul\":1793:1807   */\n      dup3\n        /* \"#utility.yul\":718:731   */\n      iszero\n        /* \"#utility.yul\":711:732   */\n      iszero\n        /* \"#utility.yul\":699:733   */\n      swap1\n      mstore\n        /* \"#utility.yul\":648:739   */\n      jump\n        /* \"#utility.yul\":1777:1832   */\n    tag_166:\n      pop\n        /* \"#utility.yul\":1849:1855   */\n      swap4\n        /* \"#utility.yul\":744:1861   */\n      swap3\n      pop\n      pop\n      pop\n      jump\t// out\n        /* \"#utility.yul\":2048:2179   */\n    tag_149:\n      sub(shl(0xa0, 0x01), 0x01)\n        /* \"#utility.yul\":2123:2154   */\n      dup2\n      and\n        /* \"#utility.yul\":2113:2155   */\n      dup2\n      eq\n        /* \"#utility.yul\":2103:2173   */\n      tag_169\n      jumpi\n        /* \"#utility.yul\":2169:2170   */\n      0x00\n        /* \"#utility.yul\":2166:2167   */\n      dup1\n        /* \"#utility.yul\":2159:2171   */\n      revert\n        /* \"#utility.yul\":2103:2173   */\n    tag_169:\n        /* \"#utility.yul\":2048:2179   */\n      pop\n      jump\t// out\n        /* \"#utility.yul\":2184:2551   */\n    tag_30:\n        /* \"#utility.yul\":2252:2258   */\n      0x00\n        /* \"#utility.yul\":2260:2266   */\n      dup1\n        /* \"#utility.yul\":2313:2315   */\n      0x40\n        /* \"#utility.yul\":2301:2310   */\n      dup4\n        /* \"#utility.yul\":2292:2299   */\n      dup6\n        /* \"#utility.yul\":2288:2311   */\n      sub\n        /* \"#utility.yul\":2284:2316   */\n      slt\n        /* \"#utility.yul\":2281:2333   */\n      iszero\n      tag_171\n      jumpi\n        /* \"#utility.yul\":2329:2330   */\n      0x00\n        /* \"#utility.yul\":2326:2327   */\n      dup1\n        /* \"#utility.yul\":2319:2331   */\n      revert\n        /* \"#utility.yul\":2281:2333   */\n    tag_171:\n        /* \"#utility.yul\":2368:2377   */\n      dup3\n        /* \"#utility.yul\":2355:2378   */\n      calldataload\n        /* \"#utility.yul\":2387:2418   */\n      tag_172\n        /* \"#utility.yul\":2412:2417   */\n      dup2\n        /* \"#utility.yul\":2387:2418   */\n      tag_149\n      jump\t// in\n    tag_172:\n        /* \"#utility.yul\":2437:2442   */\n      swap5\n        /* \"#utility.yul\":2515:2517   */\n      0x20\n        /* \"#utility.yul\":2500:2518   */\n      swap4\n      swap1\n      swap4\n      add\n        /* \"#utility.yul\":2487:2519   */\n      calldataload\n      swap4\n      pop\n      pop\n      pop\n        /* \"#utility.yul\":2184:2551   */\n      jump\t// out\n        /* \"#utility.yul\":2556:2683   */\n    tag_150:\n        /* \"#utility.yul\":2617:2627   */\n      0x4e487b71\n        /* \"#utility.yul\":2612:2615   */\n      0xe0\n        /* \"#utility.yul\":2608:2628   */\n      shl\n        /* \"#utility.yul\":2605:2606   */\n      0x00\n        /* \"#utility.yul\":2598:2629   */\n      mstore\n        /* \"#utility.yul\":2648:2652   */\n      0x41\n        /* \"#utility.yul\":2645:2646   */\n      0x04\n        /* \"#utility.yul\":2638:2653   */\n      mstore\n        /* \"#utility.yul\":2672:2676   */\n      0x24\n        /* \"#utility.yul\":2669:2670   */\n      0x00\n        /* \"#utility.yul\":2662:2677   */\n      revert\n        /* \"#utility.yul\":2688:3414   */\n    tag_151:\n        /* \"#utility.yul\":2731:2736   */\n      0x00\n        /* \"#utility.yul\":2784:2787   */\n      dup3\n        /* \"#utility.yul\":2777:2781   */\n      0x1f\n        /* \"#utility.yul\":2769:2775   */\n      dup4\n        /* \"#utility.yul\":2765:2782   */\n      add\n        /* \"#utility.yul\":2761:2788   */\n      slt\n        /* \"#utility.yul\":2751:2806   */\n      tag_175\n      jumpi\n        /* \"#utility.yul\":2802:2803   */\n      0x00\n        /* \"#utility.yul\":2799:2800   */\n      dup1\n        /* \"#utility.yul\":2792:2804   */\n      revert\n        /* \"#utility.yul\":2751:2806   */\n    tag_175:\n        /* \"#utility.yul\":2842:2848   */\n      dup2\n        /* \"#utility.yul\":2829:2849   */\n      calldataload\n        /* \"#utility.yul\":2872:2890   */\n      0xffffffffffffffff\n        /* \"#utility.yul\":2864:2870   */\n      dup2\n        /* \"#utility.yul\":2861:2891   */\n      gt\n        /* \"#utility.yul\":2858:2914   */\n      iszero\n      tag_177\n      jumpi\n        /* \"#utility.yul\":2894:2912   */\n      tag_177\n      tag_150\n      jump\t// in\n    tag_177:\n        /* \"#utility.yul\":2943:2945   */\n      0x40\n        /* \"#utility.yul\":2937:2946   */\n      mload\n        /* \"#utility.yul\":3035:3037   */\n      0x1f\n        /* \"#utility.yul\":2997:3014   */\n      dup3\n      add\n      not(0x1f)\n        /* \"#utility.yul\":2993:3024   */\n      swap1\n      dup2\n      and\n        /* \"#utility.yul\":3026:3028   */\n      0x3f\n        /* \"#utility.yul\":2989:3029   */\n      add\n        /* \"#utility.yul\":2985:3039   */\n      and\n        /* \"#utility.yul\":2973:3040   */\n      dup2\n      add\n        /* \"#utility.yul\":3070:3088   */\n      0xffffffffffffffff\n        /* \"#utility.yul\":3055:3089   */\n      dup2\n      gt\n        /* \"#utility.yul\":3091:3113   */\n      dup3\n      dup3\n      lt\n        /* \"#utility.yul\":3052:3114   */\n      or\n        /* \"#utility.yul\":3049:3137   */\n      iszero\n      tag_179\n      jumpi\n        /* \"#utility.yul\":3117:3135   */\n      tag_179\n      tag_150\n      jump\t// in\n    tag_179:\n        /* \"#utility.yul\":3153:3155   */\n      0x40\n        /* \"#utility.yul\":3146:3168   */\n      mstore\n        /* \"#utility.yul\":3177:3199   */\n      dup2\n      dup2\n      mstore\n        /* \"#utility.yul\":3218:3237   */\n      dup4\n      dup3\n      add\n        /* \"#utility.yul\":3239:3243   */\n      0x20\n        /* \"#utility.yul\":3214:3244   */\n      add\n        /* \"#utility.yul\":3211:3250   */\n      dup6\n      lt\n        /* \"#utility.yul\":3208:3267   */\n      iszero\n      tag_180\n      jumpi\n        /* \"#utility.yul\":3263:3264   */\n      0x00\n        /* \"#utility.yul\":3260:3261   */\n      dup1\n        /* \"#utility.yul\":3253:3265   */\n      revert\n        /* \"#utility.yul\":3208:3267   */\n    tag_180:\n        /* \"#utility.yul\":3327:3333   */\n      dup2\n        /* \"#utility.yul\":3320:3324   */\n      0x20\n        /* \"#utility.yul\":3312:3318   */\n      dup6\n        /* \"#utility.yul\":3308:3325   */\n      add\n        /* \"#utility.yul\":3301:3305   */\n      0x20\n        /* \"#utility.yul\":3293:3299   */\n      dup4\n        /* \"#utility.yul\":3289:3306   */\n      add\n        /* \"#utility.yul\":3276:3334   */\n      calldatacopy\n        /* \"#utility.yul\":3382:3383   */\n      0x00\n        /* \"#utility.yul\":3354:3373   */\n      swap2\n      dup2\n      add\n        /* \"#utility.yul\":3375:3379   */\n      0x20\n        /* \"#utility.yul\":3350:3380   */\n      add\n        /* \"#utility.yul\":3343:3384   */\n      swap2\n      swap1\n      swap2\n      mstore\n        /* \"#utility.yul\":3358:3364   */\n      swap4\n        /* \"#utility.yul\":2688:3414   */\n      swap3\n      pop\n      pop\n      pop\n      jump\t// out\n        /* \"#utility.yul\":3419:4213   */\n    tag_49:\n        /* \"#utility.yul\":3525:3531   */\n      0x00\n        /* \"#utility.yul\":3533:3539   */\n      dup1\n        /* \"#utility.yul\":3541:3547   */\n      0x00\n        /* \"#utility.yul\":3549:3555   */\n      dup1\n        /* \"#utility.yul\":3602:3605   */\n      0x80\n        /* \"#utility.yul\":3590:3599   */\n      dup6\n        /* \"#utility.yul\":3581:3588   */\n      dup8\n        /* \"#utility.yul\":3577:3600   */\n      sub\n        /* \"#utility.yul\":3573:3606   */\n      slt\n        /* \"#utility.yul\":3570:3623   */\n      iszero\n      tag_182\n      jumpi\n        /* \"#utility.yul\":3619:3620   */\n      0x00\n        /* \"#utility.yul\":3616:3617   */\n      dup1\n        /* \"#utility.yul\":3609:3621   */\n      revert\n        /* \"#utility.yul\":3570:3623   */\n    tag_182:\n        /* \"#utility.yul\":3658:3667   */\n      dup5\n        /* \"#utility.yul\":3645:3668   */\n      calldataload\n        /* \"#utility.yul\":3677:3708   */\n      tag_183\n        /* \"#utility.yul\":3702:3707   */\n      dup2\n        /* \"#utility.yul\":3677:3708   */\n      tag_149\n      jump\t// in\n    tag_183:\n        /* \"#utility.yul\":3727:3732   */\n      swap4\n      pop\n        /* \"#utility.yul\":3805:3807   */\n      0x20\n        /* \"#utility.yul\":3790:3808   */\n      dup6\n      add\n        /* \"#utility.yul\":3777:3809   */\n      calldataload\n      swap3\n      pop\n        /* \"#utility.yul\":3886:3888   */\n      0x40\n        /* \"#utility.yul\":3871:3889   */\n      dup6\n      add\n        /* \"#utility.yul\":3858:3890   */\n      calldataload\n        /* \"#utility.yul\":3913:3931   */\n      0xffffffffffffffff\n        /* \"#utility.yul\":3902:3932   */\n      dup2\n      gt\n        /* \"#utility.yul\":3899:3949   */\n      iszero\n      tag_184\n      jumpi\n        /* \"#utility.yul\":3945:3946   */\n      0x00\n        /* \"#utility.yul\":3942:3943   */\n      dup1\n        /* \"#utility.yul\":3935:3947   */\n      revert\n        /* \"#utility.yul\":3899:3949   */\n    tag_184:\n        /* \"#utility.yul\":3968:4018   */\n      tag_185\n        /* \"#utility.yul\":4010:4017   */\n      dup8\n        /* \"#utility.yul\":4001:4007   */\n      dup3\n        /* \"#utility.yul\":3990:3999   */\n      dup9\n        /* \"#utility.yul\":3986:4008   */\n      add\n        /* \"#utility.yul\":3968:4018   */\n      tag_151\n      jump\t// in\n    tag_185:\n        /* \"#utility.yul\":3958:4018   */\n      swap3\n      pop\n      pop\n        /* \"#utility.yul\":4071:4073   */\n      0x60\n        /* \"#utility.yul\":4060:4069   */\n      dup6\n        /* \"#utility.yul\":4056:4074   */\n      add\n        /* \"#utility.yul\":4043:4075   */\n      calldataload\n        /* \"#utility.yul\":4100:4118   */\n      0xffffffffffffffff\n        /* \"#utility.yul\":4090:4098   */\n      dup2\n        /* \"#utility.yul\":4087:4119   */\n      gt\n        /* \"#utility.yul\":4084:4136   */\n      iszero\n      tag_186\n      jumpi\n        /* \"#utility.yul\":4132:4133   */\n      0x00\n        /* \"#utility.yul\":4129:4130   */\n      dup1\n        /* \"#utility.yul\":4122:4134   */\n      revert\n        /* \"#utility.yul\":4084:4136   */\n    tag_186:\n        /* \"#utility.yul\":4155:4207   */\n      tag_187\n        /* \"#utility.yul\":4199:4206   */\n      dup8\n        /* \"#utility.yul\":4188:4196   */\n      dup3\n        /* \"#utility.yul\":4177:4186   */\n      dup9\n        /* \"#utility.yul\":4173:4197   */\n      add\n        /* \"#utility.yul\":4155:4207   */\n      tag_151\n      jump\t// in\n    tag_187:\n        /* \"#utility.yul\":4145:4207   */\n      swap2\n      pop\n      pop\n        /* \"#utility.yul\":3419:4213   */\n      swap3\n      swap6\n      swap2\n      swap5\n      pop\n      swap3\n      pop\n      jump\t// out\n        /* \"#utility.yul\":4218:4598   */\n    tag_55:\n        /* \"#utility.yul\":4297:4298   */\n      0x01\n        /* \"#utility.yul\":4293:4305   */\n      dup2\n      dup2\n      shr\n      swap1\n        /* \"#utility.yul\":4340:4352   */\n      dup3\n      and\n      dup1\n        /* \"#utility.yul\":4361:4422   */\n      tag_189\n      jumpi\n        /* \"#utility.yul\":4415:4419   */\n      0x7f\n        /* \"#utility.yul\":4407:4413   */\n      dup3\n        /* \"#utility.yul\":4403:4420   */\n      and\n        /* \"#utility.yul\":4393:4420   */\n      swap2\n      pop\n        /* \"#utility.yul\":4361:4422   */\n    tag_189:\n        /* \"#utility.yul\":4468:4470   */\n      0x20\n        /* \"#utility.yul\":4460:4466   */\n      dup3\n        /* \"#utility.yul\":4457:4471   */\n      lt\n        /* \"#utility.yul\":4437:4455   */\n      dup2\n        /* \"#utility.yul\":4434:4472   */\n      sub\n        /* \"#utility.yul\":4431:4592   */\n      tag_190\n      jumpi\n        /* \"#utility.yul\":4514:4524   */\n      0x4e487b71\n        /* \"#utility.yul\":4509:4512   */\n      0xe0\n        /* \"#utility.yul\":4505:4525   */\n      shl\n        /* \"#utility.yul\":4502:4503   */\n      0x00\n        /* \"#utility.yul\":4495:4526   */\n      mstore\n        /* \"#utility.yul\":4549:4553   */\n      0x22\n        /* \"#utility.yul\":4546:4547   */\n      0x04\n        /* \"#utility.yul\":4539:4554   */\n      mstore\n        /* \"#utility.yul\":4577:4581   */\n      0x24\n        /* \"#utility.yul\":4574:4575   */\n      0x00\n        /* \"#utility.yul\":4567:4582   */\n      revert\n        /* \"#utility.yul\":4431:4592   */\n    tag_190:\n      pop\n        /* \"#utility.yul\":4218:4598   */\n      swap2\n      swap1\n      pop\n      jump\t// out\n        /* \"#utility.yul\":4603:4958   */\n    tag_71:\n        /* \"#utility.yul\":4805:4807   */\n      0x20\n        /* \"#utility.yul\":4787:4808   */\n      dup1\n      dup3\n      mstore\n        /* \"#utility.yul\":4844:4846   */\n      0x1f\n        /* \"#utility.yul\":4824:4842   */\n      swap1\n      dup3\n      add\n        /* \"#utility.yul\":4817:4847   */\n      mstore\n        /* \"#utility.yul\":4883:4916   */\n      0x5265656e7472616e637947756172643a207265656e7472616e742063616c6c00\n        /* \"#utility.yul\":4878:4880   */\n      0x40\n        /* \"#utility.yul\":4863:4881   */\n      dup3\n      add\n        /* \"#utility.yul\":4856:4917   */\n      mstore\n        /* \"#utility.yul\":4949:4951   */\n      0x60\n        /* \"#utility.yul\":4934:4952   */\n      add\n      swap1\n        /* \"#utility.yul\":4603:4958   */\n      jump\t// out\n        /* \"#utility.yul\":4963:5214   */\n    tag_77:\n        /* \"#utility.yul\":5033:5039   */\n      0x00\n        /* \"#utility.yul\":5086:5088   */\n      0x20\n        /* \"#utility.yul\":5074:5083   */\n      dup3\n        /* \"#utility.yul\":5065:5072   */\n      dup5\n        /* \"#utility.yul\":5061:5084   */\n      sub\n        /* \"#utility.yul\":5057:5089   */\n      slt\n        /* \"#utility.yul\":5054:5106   */\n      iszero\n      tag_193\n      jumpi\n        /* \"#utility.yul\":5102:5103   */\n      0x00\n        /* \"#utility.yul\":5099:5100   */\n      dup1\n        /* \"#utility.yul\":5092:5104   */\n      revert\n        /* \"#utility.yul\":5054:5106   */\n    tag_193:\n        /* \"#utility.yul\":5134:5143   */\n      dup2\n        /* \"#utility.yul\":5128:5144   */\n      mload\n        /* \"#utility.yul\":5153:5184   */\n      tag_194\n        /* \"#utility.yul\":5178:5183   */\n      dup2\n        /* \"#utility.yul\":5153:5184   */\n      tag_149\n      jump\t// in\n    tag_194:\n        /* \"#utility.yul\":5203:5208   */\n      swap4\n        /* \"#utility.yul\":4963:5214   */\n      swap3\n      pop\n      pop\n      pop\n      jump\t// out\n        /* \"#utility.yul\":5956:6497   */\n    tag_89:\n      sub(shl(0xa0, 0x01), 0x01)\n        /* \"#utility.yul\":6233:6265   */\n      swap6\n      dup7\n      and\n        /* \"#utility.yul\":6215:6266   */\n      dup2\n      mstore\n        /* \"#utility.yul\":6297:6299   */\n      0x20\n        /* \"#utility.yul\":6282:6300   */\n      dup2\n      add\n        /* \"#utility.yul\":6275:6309   */\n      swap5\n      swap1\n      swap5\n      mstore\n        /* \"#utility.yul\":6345:6377   */\n      swap2\n      dup5\n      and\n        /* \"#utility.yul\":6340:6342   */\n      0x40\n        /* \"#utility.yul\":6325:6343   */\n      dup5\n      add\n        /* \"#utility.yul\":6318:6378   */\n      mstore\n        /* \"#utility.yul\":6414:6446   */\n      swap1\n      swap3\n      and\n        /* \"#utility.yul\":6409:6411   */\n      0x60\n        /* \"#utility.yul\":6394:6412   */\n      dup3\n      add\n        /* \"#utility.yul\":6387:6447   */\n      mstore\n        /* \"#utility.yul\":6478:6481   */\n      0x80\n        /* \"#utility.yul\":6463:6482   */\n      dup2\n      add\n        /* \"#utility.yul\":6456:6491   */\n      swap2\n      swap1\n      swap2\n      mstore\n        /* \"#utility.yul\":6202:6205   */\n      0xa0\n        /* \"#utility.yul\":6187:6206   */\n      add\n      swap1\n        /* \"#utility.yul\":5956:6497   */\n      jump\t// out\n        /* \"#utility.yul\":8243:8761   */\n    tag_153:\n        /* \"#utility.yul\":8345:8347   */\n      0x1f\n        /* \"#utility.yul\":8340:8343   */\n      dup3\n        /* \"#utility.yul\":8337:8348   */\n      gt\n        /* \"#utility.yul\":8334:8755   */\n      iszero\n      tag_204\n      jumpi\n        /* \"#utility.yul\":8381:8386   */\n      dup1\n        /* \"#utility.yul\":8378:8379   */\n      0x00\n        /* \"#utility.yul\":8371:8387   */\n      mstore\n        /* \"#utility.yul\":8425:8429   */\n      0x20\n        /* \"#utility.yul\":8422:8423   */\n      0x00\n        /* \"#utility.yul\":8412:8430   */\n      keccak256\n        /* \"#utility.yul\":8495:8497   */\n      0x1f\n        /* \"#utility.yul\":8483:8493   */\n      dup5\n        /* \"#utility.yul\":8479:8498   */\n      add\n        /* \"#utility.yul\":8476:8477   */\n      0x05\n        /* \"#utility.yul\":8472:8499   */\n      shr\n        /* \"#utility.yul\":8466:8470   */\n      dup2\n        /* \"#utility.yul\":8462:8500   */\n      add\n        /* \"#utility.yul\":8531:8535   */\n      0x20\n        /* \"#utility.yul\":8519:8529   */\n      dup6\n        /* \"#utility.yul\":8516:8536   */\n      lt\n        /* \"#utility.yul\":8513:8560   */\n      iszero\n      tag_205\n      jumpi\n      pop\n        /* \"#utility.yul\":8554:8558   */\n      dup1\n        /* \"#utility.yul\":8513:8560   */\n    tag_205:\n        /* \"#utility.yul\":8609:8611   */\n      0x1f\n        /* \"#utility.yul\":8604:8607   */\n      dup5\n        /* \"#utility.yul\":8600:8612   */\n      add\n        /* \"#utility.yul\":8597:8598   */\n      0x05\n        /* \"#utility.yul\":8593:8613   */\n      shr\n        /* \"#utility.yul\":8587:8591   */\n      dup3\n        /* \"#utility.yul\":8583:8614   */\n      add\n        /* \"#utility.yul\":8573:8614   */\n      swap2\n      pop\n        /* \"#utility.yul\":8664:8745   */\n    tag_206:\n        /* \"#utility.yul\":8682:8684   */\n      dup2\n        /* \"#utility.yul\":8675:8680   */\n      dup2\n        /* \"#utility.yul\":8672:8685   */\n      lt\n        /* \"#utility.yul\":8664:8745   */\n      iszero\n      tag_208\n      jumpi\n        /* \"#utility.yul\":8741:8742   */\n      0x00\n        /* \"#utility.yul\":8727:8743   */\n      dup2\n      sstore\n        /* \"#utility.yul\":8708:8709   */\n      0x01\n        /* \"#utility.yul\":8697:8710   */\n      add\n        /* \"#utility.yul\":8664:8745   */\n      jump(tag_206)\n    tag_208:\n        /* \"#utility.yul\":8668:8671   */\n      pop\n      pop\n        /* \"#utility.yul\":8334:8755   */\n    tag_204:\n        /* \"#utility.yul\":8243:8761   */\n      pop\n      pop\n      pop\n      jump\t// out\n        /* \"#utility.yul\":8937:10236   */\n    tag_137:\n        /* \"#utility.yul\":9063:9066   */\n      dup2\n        /* \"#utility.yul\":9057:9067   */\n      mload\n        /* \"#utility.yul\":9090:9108   */\n      0xffffffffffffffff\n        /* \"#utility.yul\":9082:9088   */\n      dup2\n        /* \"#utility.yul\":9079:9109   */\n      gt\n        /* \"#utility.yul\":9076:9132   */\n      iszero\n      tag_212\n      jumpi\n        /* \"#utility.yul\":9112:9130   */\n      tag_212\n      tag_150\n      jump\t// in\n    tag_212:\n        /* \"#utility.yul\":9141:9238   */\n      tag_213\n        /* \"#utility.yul\":9231:9237   */\n      dup2\n        /* \"#utility.yul\":9191:9229   */\n      tag_214\n        /* \"#utility.yul\":9223:9227   */\n      dup5\n        /* \"#utility.yul\":9217:9228   */\n      sload\n        /* \"#utility.yul\":9191:9229   */\n      tag_55\n      jump\t// in\n    tag_214:\n        /* \"#utility.yul\":9185:9189   */\n      dup5\n        /* \"#utility.yul\":9141:9238   */\n      tag_153\n      jump\t// in\n    tag_213:\n        /* \"#utility.yul\":9287:9291   */\n      0x20\n        /* \"#utility.yul\":9318:9320   */\n      0x1f\n        /* \"#utility.yul\":9307:9321   */\n      dup3\n      gt\n        /* \"#utility.yul\":9335:9336   */\n      0x01\n        /* \"#utility.yul\":9330:9979   */\n      dup2\n      eq\n      tag_216\n      jumpi\n        /* \"#utility.yul\":10023:10024   */\n      0x00\n        /* \"#utility.yul\":10040:10046   */\n      dup4\n        /* \"#utility.yul\":10037:10126   */\n      iszero\n      tag_217\n      jumpi\n      pop\n        /* \"#utility.yul\":10092:10111   */\n      dup5\n      dup3\n      add\n        /* \"#utility.yul\":10086:10112   */\n      mload\n        /* \"#utility.yul\":10037:10126   */\n    tag_217:\n      not(0x00)\n        /* \"#utility.yul\":8894:8895   */\n      0x03\n        /* \"#utility.yul\":8890:8901   */\n      dup6\n      swap1\n      shl\n        /* \"#utility.yul\":8886:8910   */\n      shr\n        /* \"#utility.yul\":8882:8911   */\n      not\n        /* \"#utility.yul\":8872:8912   */\n      and\n        /* \"#utility.yul\":8918:8919   */\n      0x01\n        /* \"#utility.yul\":8914:8925   */\n      dup5\n      swap1\n      shl\n        /* \"#utility.yul\":8869:8926   */\n      or\n        /* \"#utility.yul\":10139:10220   */\n      dup5\n      sstore\n        /* \"#utility.yul\":9300:10230   */\n      jump(tag_208)\n        /* \"#utility.yul\":9330:9979   */\n    tag_216:\n        /* \"#utility.yul\":8190:8191   */\n      0x00\n        /* \"#utility.yul\":8183:8197   */\n      dup5\n      dup2\n      mstore\n        /* \"#utility.yul\":8227:8231   */\n      0x20\n        /* \"#utility.yul\":8214:8232   */\n      dup2\n      keccak256\n      not(0x1f)\n        /* \"#utility.yul\":9366:9386   */\n      dup6\n      and\n      swap2\n        /* \"#utility.yul\":9484:9706   */\n    tag_220:\n        /* \"#utility.yul\":9498:9505   */\n      dup3\n        /* \"#utility.yul\":9495:9496   */\n      dup2\n        /* \"#utility.yul\":9492:9506   */\n      lt\n        /* \"#utility.yul\":9484:9706   */\n      iszero\n      tag_222\n      jumpi\n        /* \"#utility.yul\":9580:9599   */\n      dup8\n      dup6\n      add\n        /* \"#utility.yul\":9574:9600   */\n      mload\n        /* \"#utility.yul\":9559:9601   */\n      dup3\n      sstore\n        /* \"#utility.yul\":9687:9691   */\n      0x20\n        /* \"#utility.yul\":9672:9692   */\n      swap5\n      dup6\n      add\n      swap5\n        /* \"#utility.yul\":9640:9641   */\n      0x01\n        /* \"#utility.yul\":9628:9642   */\n      swap1\n      swap3\n      add\n      swap2\n        /* \"#utility.yul\":9514:9526   */\n      add\n        /* \"#utility.yul\":9484:9706   */\n      jump(tag_220)\n    tag_222:\n        /* \"#utility.yul\":9488:9491   */\n      pop\n        /* \"#utility.yul\":9734:9740   */\n      dup5\n        /* \"#utility.yul\":9725:9732   */\n      dup3\n        /* \"#utility.yul\":9722:9741   */\n      lt\n        /* \"#utility.yul\":9719:9920   */\n      iszero\n      tag_223\n      jumpi\n        /* \"#utility.yul\":9795:9814   */\n      dup7\n      dup5\n      add\n        /* \"#utility.yul\":9789:9815   */\n      mload\n      not(0x00)\n        /* \"#utility.yul\":9878:9879   */\n      0x03\n        /* \"#utility.yul\":9874:9888   */\n      dup8\n      swap1\n      shl\n        /* \"#utility.yul\":9890:9893   */\n      0xf8\n        /* \"#utility.yul\":9870:9894   */\n      and\n        /* \"#utility.yul\":9866:9903   */\n      shr\n        /* \"#utility.yul\":9862:9904   */\n      not\n        /* \"#utility.yul\":9847:9905   */\n      and\n        /* \"#utility.yul\":9832:9906   */\n      dup2\n      sstore\n        /* \"#utility.yul\":9719:9920   */\n    tag_223:\n      pop\n      pop\n      pop\n      pop\n        /* \"#utility.yul\":9966:9967   */\n      0x01\n        /* \"#utility.yul\":9950:9964   */\n      swap1\n      dup2\n      shl\n        /* \"#utility.yul\":9946:9968   */\n      add\n        /* \"#utility.yul\":9933:9969   */\n      swap1\n      sstore\n      pop\n        /* \"#utility.yul\":8937:10236   */\n      jump\t// out\n\n    auxdata: 0xa264697066735822122038ed3ab32bd8fce5f417bdad330a6d17adfc2b2ad3ccbb5b51b479b2220e78e464736f6c634300081a0033\n}\n",
				"bytecode": {
					"linkReferences": {},
					"object": "6080604052655af3107a40006003553480156018575f80fd5b5060015f55600480546001600160a01b03191633179055610f0b8061003c5f395ff3fe608060405260043610610084575f3560e01c8063a82ba76f11610057578063a82ba76f14610109578063b4c49d091461011c578063b8fe6abe1461012e578063c4b1514114610142578063dbcc757514610156575f80fd5b80632444a8a6146100885780632b86ae38146100bd578063512dd020146100e05780639e1001b0146100f4575b5f80fd5b348015610093575f80fd5b506100a76100a2366004610ab6565b610169565b6040516100b49190610afb565b60405180910390f35b3480156100c8575f80fd5b506100d260035481565b6040519081526020016100b4565b3480156100eb575f80fd5b506100d261033d565b610107610102366004610bc1565b61034c565b005b610107610117366004610bc1565b610532565b348015610127575f80fd5b50476100d2565b348015610139575f80fd5b506003546100d2565b34801561014d575f80fd5b506100d26107fa565b610107610164366004610c8a565b610804565b60408051610100810182525f8082526020820181905291810182905260608082018390526080820181905260a082015260c0810182905260e08101919091525f8281526005602090815260409182902082516101008101845281546001600160a01b03908116825260018301549382019390935260028201548316938101939093526003810154909116606083015260048101805460808401919061020d90610d0a565b80601f016020809104026020016040519081016040528092919081815260200182805461023990610d0a565b80156102845780601f1061025b57610100808354040283529160200191610284565b820191905f5260205f20905b81548152906001019060200180831161026757829003601f168201915b5050505050815260200160058201805461029d90610d0a565b80601f01602080910402602001604051908101604052809291908181526020018280546102c990610d0a565b80156103145780601f106102eb57610100808354040283529160200191610314565b820191905f5260205f20905b8154815290600101906020018083116102f757829003601f168201915b50505091835250506006820154602082015260079091015460ff16151560409091015292915050565b5f61034760025490565b905090565b60025f54036103765760405162461bcd60e51b815260040161036d90610d42565b60405180910390fd5b60025f9081556040516331a9108f60e11b8152600481018390526001600160a01b03841690636352211e90602401602060405180830381865afa1580156103bf573d5f803e3d5ffd5b505050506040513d601f19601f820116820180604052508101906103e39190610d79565b905060035434146104365760405162461bcd60e51b815260206004820181905260248201527f4e6f7420656e6f75676820657468657220666f72206c697374696e6720666565604482015260640161036d565b6040516323b872dd60e01b81526001600160a01b038281166004830152306024830152604482018490528416906323b872dd906064015f604051808303815f87803b158015610483575f80fd5b505af1158015610495573d5f803e3d5ffd5b5050505f8381526005602052604090206002810180546001600160a01b031990811633179091556003820180549091163017905560078101805460ff191660019081179091559091506104e790610a60565b7fa0c6c0d02d86fdacecbaa5fdf5894bab204e31a778250474108540733a9b8d1984843330600354604051610520959493929190610d9b565b60405180910390a1505060015f555050565b60025f54036105535760405162461bcd60e51b815260040161036d90610d42565b60025f9081556040516331a9108f60e11b8152600481018390526001600160a01b03841690636352211e90602401602060405180830381865afa15801561059c573d5f803e3d5ffd5b505050506040513d601f19601f820116820180604052508101906105c09190610d79565b5f8381526005602052604090206006810154919250903410156106345760405162461bcd60e51b815260206004820152602660248201527f4e6f7420656e6f75676820657468657220746f20636f7665722061736b696e6760448201526520707269636560d01b606482015260840161036d565b600281015460405133916001600160a01b0316903480156108fc02915f818181858888f1935050505015801561066c573d5f803e3d5ffd5b5060018201546040516323b872dd60e01b81526001600160a01b0385811660048301523360248301526044820192909252908616906323b872dd906064015f604051808303815f87803b1580156106c1575f80fd5b505af11580156106d3573d5f803e3d5ffd5b505060405163a22cb46560e01b8152336004820152600160248201526001600160a01b038816925063a22cb46591506044015f604051808303815f87803b15801561071c575f80fd5b505af115801561072e573d5f803e3d5ffd5b50506004546003546040516001600160a01b03909216935080156108fc029250905f818181858888f1935050505015801561076b573d5f803e3d5ffd5b506003820180546001600160a01b0319166001600160a01b03831617905560078201805460ff191690556001805481019055600182015460028301546040517f16f1dbd97e6bf646d429ed186cce832f1f7fd9907814293b83181e9970ab7bd2926107e79289926001600160a01b039091169086903490610d9b565b60405180910390a1505060015f55505050565b5f61034760015490565b60025f54036108255760405162461bcd60e51b815260040161036d90610d42565b60025f55346108765760405162461bcd60e51b815260206004820152601c60248201527f5072696365206d757374206265206174206c6561737420312077656900000000604482015260640161036d565b60035434146108c75760405162461bcd60e51b815260206004820181905260248201527f4e6f7420656e6f75676820657468657220666f72206c697374696e6720666565604482015260640161036d565b6040516323b872dd60e01b8152336004820152306024820152604481018490526001600160a01b038516906323b872dd906064015f604051808303815f87803b158015610912575f80fd5b505af1158015610924573d5f803e3d5ffd5b50505050610936600280546001019055565b60408051610100810182526001600160a01b03808716825260208083018781523384860190815230606086019081526080860188815260a087018a90526003805460c0890152600160e089018190525f8d8152600590975298909520875181549088166001600160a01b031991821617825594519881019890985591516002880180549187169185169190911790555192860180549390941692909116919091179091555190919060048201906109ed9082610e1a565b5060a08201516005820190610a029082610e1a565b5060c0820151600682015560e0909101516007909101805460ff19169115159190911790556003546040517fa0c6c0d02d86fdacecbaa5fdf5894bab204e31a778250474108540733a9b8d1991610520918791879133913091610d9b565b805480610aaf5760405162461bcd60e51b815260206004820152601b60248201527f436f756e7465723a2064656372656d656e74206f766572666c6f770000000000604482015260640161036d565b5f19019055565b5f60208284031215610ac6575f80fd5b5035919050565b5f81518084528060208401602086015e5f602082860101526020601f19601f83011685010191505092915050565b6020815260018060a01b038251166020820152602082015160408201525f6040830151610b3360608401826001600160a01b03169052565b5060608301516001600160a01b038116608084015250608083015161010060a0840152610b64610120840182610acd565b905060a0840151601f198483030160c0850152610b818282610acd565b91505060c084015160e084015260e0840151610ba261010085018215159052565b509392505050565b6001600160a01b0381168114610bbe575f80fd5b50565b5f8060408385031215610bd2575f80fd5b8235610bdd81610baa565b946020939093013593505050565b634e487b7160e01b5f52604160045260245ffd5b5f82601f830112610c0e575f80fd5b813567ffffffffffffffff811115610c2857610c28610beb565b604051601f8201601f19908116603f0116810167ffffffffffffffff81118282101715610c5757610c57610beb565b604052818152838201602001851015610c6e575f80fd5b816020850160208301375f918101602001919091529392505050565b5f805f8060808587031215610c9d575f80fd5b8435610ca881610baa565b935060208501359250604085013567ffffffffffffffff811115610cca575f80fd5b610cd687828801610bff565b925050606085013567ffffffffffffffff811115610cf2575f80fd5b610cfe87828801610bff565b91505092959194509250565b600181811c90821680610d1e57607f821691505b602082108103610d3c57634e487b7160e01b5f52602260045260245ffd5b50919050565b6020808252601f908201527f5265656e7472616e637947756172643a207265656e7472616e742063616c6c00604082015260600190565b5f60208284031215610d89575f80fd5b8151610d9481610baa565b9392505050565b6001600160a01b039586168152602081019490945291841660408401529092166060820152608081019190915260a00190565b601f821115610e1557805f5260205f20601f840160051c81016020851015610df35750805b601f840160051c820191505b81811015610e12575f8155600101610dff565b50505b505050565b815167ffffffffffffffff811115610e3457610e34610beb565b610e4881610e428454610d0a565b84610dce565b6020601f821160018114610e7a575f8315610e635750848201515b5f19600385901b1c1916600184901b178455610e12565b5f84815260208120601f198516915b82811015610ea95787850151825560209485019460019092019101610e89565b5084821015610ec657868401515f19600387901b60f8161c191681555b50505050600190811b0190555056fea264697066735822122038ed3ab32bd8fce5f417bdad330a6d17adfc2b2ad3ccbb5b51b479b2220e78e464736f6c634300081a0033",
					"opcodes": "PUSH1 0x80 PUSH1 0x40 MSTORE PUSH6 0x5AF3107A4000 PUSH1 0x3 SSTORE CALLVALUE DUP1 ISZERO PUSH1 0x18 JUMPI PUSH0 DUP1 REVERT JUMPDEST POP PUSH1 0x1 PUSH0 SSTORE PUSH1 0x4 DUP1 SLOAD PUSH1 0x1 PUSH1 0x1 PUSH1 0xA0 SHL SUB NOT AND CALLER OR SWAP1 SSTORE PUSH2 0xF0B DUP1 PUSH2 0x3C PUSH0 CODECOPY PUSH0 RETURN INVALID PUSH1 0x80 PUSH1 0x40 MSTORE PUSH1 0x4 CALLDATASIZE LT PUSH2 0x84 JUMPI PUSH0 CALLDATALOAD PUSH1 0xE0 SHR DUP1 PUSH4 0xA82BA76F GT PUSH2 0x57 JUMPI DUP1 PUSH4 0xA82BA76F EQ PUSH2 0x109 JUMPI DUP1 PUSH4 0xB4C49D09 EQ PUSH2 0x11C JUMPI DUP1 PUSH4 0xB8FE6ABE EQ PUSH2 0x12E JUMPI DUP1 PUSH4 0xC4B15141 EQ PUSH2 0x142 JUMPI DUP1 PUSH4 0xDBCC7575 EQ PUSH2 0x156 JUMPI PUSH0 DUP1 REVERT JUMPDEST DUP1 PUSH4 0x2444A8A6 EQ PUSH2 0x88 JUMPI DUP1 PUSH4 0x2B86AE38 EQ PUSH2 0xBD JUMPI DUP1 PUSH4 0x512DD020 EQ PUSH2 0xE0 JUMPI DUP1 PUSH4 0x9E1001B0 EQ PUSH2 0xF4 JUMPI JUMPDEST PUSH0 DUP1 REVERT JUMPDEST CALLVALUE DUP1 ISZERO PUSH2 0x93 JUMPI PUSH0 DUP1 REVERT JUMPDEST POP PUSH2 0xA7 PUSH2 0xA2 CALLDATASIZE PUSH1 0x4 PUSH2 0xAB6 JUMP JUMPDEST PUSH2 0x169 JUMP JUMPDEST PUSH1 0x40 MLOAD PUSH2 0xB4 SWAP2 SWAP1 PUSH2 0xAFB JUMP JUMPDEST PUSH1 0x40 MLOAD DUP1 SWAP2 SUB SWAP1 RETURN JUMPDEST CALLVALUE DUP1 ISZERO PUSH2 0xC8 JUMPI PUSH0 DUP1 REVERT JUMPDEST POP PUSH2 0xD2 PUSH1 0x3 SLOAD DUP2 JUMP JUMPDEST PUSH1 0x40 MLOAD SWAP1 DUP2 MSTORE PUSH1 0x20 ADD PUSH2 0xB4 JUMP JUMPDEST CALLVALUE DUP1 ISZERO PUSH2 0xEB JUMPI PUSH0 DUP1 REVERT JUMPDEST POP PUSH2 0xD2 PUSH2 0x33D JUMP JUMPDEST PUSH2 0x107 PUSH2 0x102 CALLDATASIZE PUSH1 0x4 PUSH2 0xBC1 JUMP JUMPDEST PUSH2 0x34C JUMP JUMPDEST STOP JUMPDEST PUSH2 0x107 PUSH2 0x117 CALLDATASIZE PUSH1 0x4 PUSH2 0xBC1 JUMP JUMPDEST PUSH2 0x532 JUMP JUMPDEST CALLVALUE DUP1 ISZERO PUSH2 0x127 JUMPI PUSH0 DUP1 REVERT JUMPDEST POP SELFBALANCE PUSH2 0xD2 JUMP JUMPDEST CALLVALUE DUP1 ISZERO PUSH2 0x139 JUMPI PUSH0 DUP1 REVERT JUMPDEST POP PUSH1 0x3 SLOAD PUSH2 0xD2 JUMP JUMPDEST CALLVALUE DUP1 ISZERO PUSH2 0x14D JUMPI PUSH0 DUP1 REVERT JUMPDEST POP PUSH2 0xD2 PUSH2 0x7FA JUMP JUMPDEST PUSH2 0x107 PUSH2 0x164 CALLDATASIZE PUSH1 0x4 PUSH2 0xC8A JUMP JUMPDEST PUSH2 0x804 JUMP JUMPDEST PUSH1 0x40 DUP1 MLOAD PUSH2 0x100 DUP2 ADD DUP3 MSTORE PUSH0 DUP1 DUP3 MSTORE PUSH1 0x20 DUP3 ADD DUP2 SWAP1 MSTORE SWAP2 DUP2 ADD DUP3 SWAP1 MSTORE PUSH1 0x60 DUP1 DUP3 ADD DUP4 SWAP1 MSTORE PUSH1 0x80 DUP3 ADD DUP2 SWAP1 MSTORE PUSH1 0xA0 DUP3 ADD MSTORE PUSH1 0xC0 DUP2 ADD DUP3 SWAP1 MSTORE PUSH1 0xE0 DUP2 ADD SWAP2 SWAP1 SWAP2 MSTORE PUSH0 DUP3 DUP2 MSTORE PUSH1 0x5 PUSH1 0x20 SWAP1 DUP2 MSTORE PUSH1 0x40 SWAP2 DUP3 SWAP1 KECCAK256 DUP3 MLOAD PUSH2 0x100 DUP2 ADD DUP5 MSTORE DUP2 SLOAD PUSH1 0x1 PUSH1 0x1 PUSH1 0xA0 SHL SUB SWAP1 DUP2 AND DUP3 MSTORE PUSH1 0x1 DUP4 ADD SLOAD SWAP4 DUP3 ADD SWAP4 SWAP1 SWAP4 MSTORE PUSH1 0x2 DUP3 ADD SLOAD DUP4 AND SWAP4 DUP2 ADD SWAP4 SWAP1 SWAP4 MSTORE PUSH1 0x3 DUP2 ADD SLOAD SWAP1 SWAP2 AND PUSH1 0x60 DUP4 ADD MSTORE PUSH1 0x4 DUP2 ADD DUP1 SLOAD PUSH1 0x80 DUP5 ADD SWAP2 SWAP1 PUSH2 0x20D SWAP1 PUSH2 0xD0A JUMP JUMPDEST DUP1 PUSH1 0x1F ADD PUSH1 0x20 DUP1 SWAP2 DIV MUL PUSH1 0x20 ADD PUSH1 0x40 MLOAD SWAP1 DUP2 ADD PUSH1 0x40 MSTORE DUP1 SWAP3 SWAP2 SWAP1 DUP2 DUP2 MSTORE PUSH1 0x20 ADD DUP3 DUP1 SLOAD PUSH2 0x239 SWAP1 PUSH2 0xD0A JUMP JUMPDEST DUP1 ISZERO PUSH2 0x284 JUMPI DUP1 PUSH1 0x1F LT PUSH2 0x25B JUMPI PUSH2 0x100 DUP1 DUP4 SLOAD DIV MUL DUP4 MSTORE SWAP2 PUSH1 0x20 ADD SWAP2 PUSH2 0x284 JUMP JUMPDEST DUP3 ADD SWAP2 SWAP1 PUSH0 MSTORE PUSH1 0x20 PUSH0 KECCAK256 SWAP1 JUMPDEST DUP2 SLOAD DUP2 MSTORE SWAP1 PUSH1 0x1 ADD SWAP1 PUSH1 0x20 ADD DUP1 DUP4 GT PUSH2 0x267 JUMPI DUP3 SWAP1 SUB PUSH1 0x1F AND DUP3 ADD SWAP2 JUMPDEST POP POP POP POP POP DUP2 MSTORE PUSH1 0x20 ADD PUSH1 0x5 DUP3 ADD DUP1 SLOAD PUSH2 0x29D SWAP1 PUSH2 0xD0A JUMP JUMPDEST DUP1 PUSH1 0x1F ADD PUSH1 0x20 DUP1 SWAP2 DIV MUL PUSH1 0x20 ADD PUSH1 0x40 MLOAD SWAP1 DUP2 ADD PUSH1 0x40 MSTORE DUP1 SWAP3 SWAP2 SWAP1 DUP2 DUP2 MSTORE PUSH1 0x20 ADD DUP3 DUP1 SLOAD PUSH2 0x2C9 SWAP1 PUSH2 0xD0A JUMP JUMPDEST DUP1 ISZERO PUSH2 0x314 JUMPI DUP1 PUSH1 0x1F LT PUSH2 0x2EB JUMPI PUSH2 0x100 DUP1 DUP4 SLOAD DIV MUL DUP4 MSTORE SWAP2 PUSH1 0x20 ADD SWAP2 PUSH2 0x314 JUMP JUMPDEST DUP3 ADD SWAP2 SWAP1 PUSH0 MSTORE PUSH1 0x20 PUSH0 KECCAK256 SWAP1 JUMPDEST DUP2 SLOAD DUP2 MSTORE SWAP1 PUSH1 0x1 ADD SWAP1 PUSH1 0x20 ADD DUP1 DUP4 GT PUSH2 0x2F7 JUMPI DUP3 SWAP1 SUB PUSH1 0x1F AND DUP3 ADD SWAP2 JUMPDEST POP POP POP SWAP2 DUP4 MSTORE POP POP PUSH1 0x6 DUP3 ADD SLOAD PUSH1 0x20 DUP3 ADD MSTORE PUSH1 0x7 SWAP1 SWAP2 ADD SLOAD PUSH1 0xFF AND ISZERO ISZERO PUSH1 0x40 SWAP1 SWAP2 ADD MSTORE SWAP3 SWAP2 POP POP JUMP JUMPDEST PUSH0 PUSH2 0x347 PUSH1 0x2 SLOAD SWAP1 JUMP JUMPDEST SWAP1 POP SWAP1 JUMP JUMPDEST PUSH1 0x2 PUSH0 SLOAD SUB PUSH2 0x376 JUMPI PUSH1 0x40 MLOAD PUSH3 0x461BCD PUSH1 0xE5 SHL DUP2 MSTORE PUSH1 0x4 ADD PUSH2 0x36D SWAP1 PUSH2 0xD42 JUMP JUMPDEST PUSH1 0x40 MLOAD DUP1 SWAP2 SUB SWAP1 REVERT JUMPDEST PUSH1 0x2 PUSH0 SWAP1 DUP2 SSTORE PUSH1 0x40 MLOAD PUSH4 0x31A9108F PUSH1 0xE1 SHL DUP2 MSTORE PUSH1 0x4 DUP2 ADD DUP4 SWAP1 MSTORE PUSH1 0x1 PUSH1 0x1 PUSH1 0xA0 SHL SUB DUP5 AND SWAP1 PUSH4 0x6352211E SWAP1 PUSH1 0x24 ADD PUSH1 0x20 PUSH1 0x40 MLOAD DUP1 DUP4 SUB DUP2 DUP7 GAS STATICCALL ISZERO DUP1 ISZERO PUSH2 0x3BF JUMPI RETURNDATASIZE PUSH0 DUP1 RETURNDATACOPY RETURNDATASIZE PUSH0 REVERT JUMPDEST POP POP POP POP PUSH1 0x40 MLOAD RETURNDATASIZE PUSH1 0x1F NOT PUSH1 0x1F DUP3 ADD AND DUP3 ADD DUP1 PUSH1 0x40 MSTORE POP DUP2 ADD SWAP1 PUSH2 0x3E3 SWAP2 SWAP1 PUSH2 0xD79 JUMP JUMPDEST SWAP1 POP PUSH1 0x3 SLOAD CALLVALUE EQ PUSH2 0x436 JUMPI PUSH1 0x40 MLOAD PUSH3 0x461BCD PUSH1 0xE5 SHL DUP2 MSTORE PUSH1 0x20 PUSH1 0x4 DUP3 ADD DUP2 SWAP1 MSTORE PUSH1 0x24 DUP3 ADD MSTORE PUSH32 0x4E6F7420656E6F75676820657468657220666F72206C697374696E6720666565 PUSH1 0x44 DUP3 ADD MSTORE PUSH1 0x64 ADD PUSH2 0x36D JUMP JUMPDEST PUSH1 0x40 MLOAD PUSH4 0x23B872DD PUSH1 0xE0 SHL DUP2 MSTORE PUSH1 0x1 PUSH1 0x1 PUSH1 0xA0 SHL SUB DUP3 DUP2 AND PUSH1 0x4 DUP4 ADD MSTORE ADDRESS PUSH1 0x24 DUP4 ADD MSTORE PUSH1 0x44 DUP3 ADD DUP5 SWAP1 MSTORE DUP5 AND SWAP1 PUSH4 0x23B872DD SWAP1 PUSH1 0x64 ADD PUSH0 PUSH1 0x40 MLOAD DUP1 DUP4 SUB DUP2 PUSH0 DUP8 DUP1 EXTCODESIZE ISZERO DUP1 ISZERO PUSH2 0x483 JUMPI PUSH0 DUP1 REVERT JUMPDEST POP GAS CALL ISZERO DUP1 ISZERO PUSH2 0x495 JUMPI RETURNDATASIZE PUSH0 DUP1 RETURNDATACOPY RETURNDATASIZE PUSH0 REVERT JUMPDEST POP POP POP PUSH0 DUP4 DUP2 MSTORE PUSH1 0x5 PUSH1 0x20 MSTORE PUSH1 0x40 SWAP1 KECCAK256 PUSH1 0x2 DUP2 ADD DUP1 SLOAD PUSH1 0x1 PUSH1 0x1 PUSH1 0xA0 SHL SUB NOT SWAP1 DUP2 AND CALLER OR SWAP1 SWAP2 SSTORE PUSH1 0x3 DUP3 ADD DUP1 SLOAD SWAP1 SWAP2 AND ADDRESS OR SWAP1 SSTORE PUSH1 0x7 DUP2 ADD DUP1 SLOAD PUSH1 0xFF NOT AND PUSH1 0x1 SWAP1 DUP2 OR SWAP1 SWAP2 SSTORE SWAP1 SWAP2 POP PUSH2 0x4E7 SWAP1 PUSH2 0xA60 JUMP JUMPDEST PUSH32 0xA0C6C0D02D86FDACECBAA5FDF5894BAB204E31A778250474108540733A9B8D19 DUP5 DUP5 CALLER ADDRESS PUSH1 0x3 SLOAD PUSH1 0x40 MLOAD PUSH2 0x520 SWAP6 SWAP5 SWAP4 SWAP3 SWAP2 SWAP1 PUSH2 0xD9B JUMP JUMPDEST PUSH1 0x40 MLOAD DUP1 SWAP2 SUB SWAP1 LOG1 POP POP PUSH1 0x1 PUSH0 SSTORE POP POP JUMP JUMPDEST PUSH1 0x2 PUSH0 SLOAD SUB PUSH2 0x553 JUMPI PUSH1 0x40 MLOAD PUSH3 0x461BCD PUSH1 0xE5 SHL DUP2 MSTORE PUSH1 0x4 ADD PUSH2 0x36D SWAP1 PUSH2 0xD42 JUMP JUMPDEST PUSH1 0x2 PUSH0 SWAP1 DUP2 SSTORE PUSH1 0x40 MLOAD PUSH4 0x31A9108F PUSH1 0xE1 SHL DUP2 MSTORE PUSH1 0x4 DUP2 ADD DUP4 SWAP1 MSTORE PUSH1 0x1 PUSH1 0x1 PUSH1 0xA0 SHL SUB DUP5 AND SWAP1 PUSH4 0x6352211E SWAP1 PUSH1 0x24 ADD PUSH1 0x20 PUSH1 0x40 MLOAD DUP1 DUP4 SUB DUP2 DUP7 GAS STATICCALL ISZERO DUP1 ISZERO PUSH2 0x59C JUMPI RETURNDATASIZE PUSH0 DUP1 RETURNDATACOPY RETURNDATASIZE PUSH0 REVERT JUMPDEST POP POP POP POP PUSH1 0x40 MLOAD RETURNDATASIZE PUSH1 0x1F NOT PUSH1 0x1F DUP3 ADD AND DUP3 ADD DUP1 PUSH1 0x40 MSTORE POP DUP2 ADD SWAP1 PUSH2 0x5C0 SWAP2 SWAP1 PUSH2 0xD79 JUMP JUMPDEST PUSH0 DUP4 DUP2 MSTORE PUSH1 0x5 PUSH1 0x20 MSTORE PUSH1 0x40 SWAP1 KECCAK256 PUSH1 0x6 DUP2 ADD SLOAD SWAP2 SWAP3 POP SWAP1 CALLVALUE LT ISZERO PUSH2 0x634 JUMPI PUSH1 0x40 MLOAD PUSH3 0x461BCD PUSH1 0xE5 SHL DUP2 MSTORE PUSH1 0x20 PUSH1 0x4 DUP3 ADD MSTORE PUSH1 0x26 PUSH1 0x24 DUP3 ADD MSTORE PUSH32 0x4E6F7420656E6F75676820657468657220746F20636F7665722061736B696E67 PUSH1 0x44 DUP3 ADD MSTORE PUSH6 0x207072696365 PUSH1 0xD0 SHL PUSH1 0x64 DUP3 ADD MSTORE PUSH1 0x84 ADD PUSH2 0x36D JUMP JUMPDEST PUSH1 0x2 DUP2 ADD SLOAD PUSH1 0x40 MLOAD CALLER SWAP2 PUSH1 0x1 PUSH1 0x1 PUSH1 0xA0 SHL SUB AND SWAP1 CALLVALUE DUP1 ISZERO PUSH2 0x8FC MUL SWAP2 PUSH0 DUP2 DUP2 DUP2 DUP6 DUP9 DUP9 CALL SWAP4 POP POP POP POP ISZERO DUP1 ISZERO PUSH2 0x66C JUMPI RETURNDATASIZE PUSH0 DUP1 RETURNDATACOPY RETURNDATASIZE PUSH0 REVERT JUMPDEST POP PUSH1 0x1 DUP3 ADD SLOAD PUSH1 0x40 MLOAD PUSH4 0x23B872DD PUSH1 0xE0 SHL DUP2 MSTORE PUSH1 0x1 PUSH1 0x1 PUSH1 0xA0 SHL SUB DUP6 DUP2 AND PUSH1 0x4 DUP4 ADD MSTORE CALLER PUSH1 0x24 DUP4 ADD MSTORE PUSH1 0x44 DUP3 ADD SWAP3 SWAP1 SWAP3 MSTORE SWAP1 DUP7 AND SWAP1 PUSH4 0x23B872DD SWAP1 PUSH1 0x64 ADD PUSH0 PUSH1 0x40 MLOAD DUP1 DUP4 SUB DUP2 PUSH0 DUP8 DUP1 EXTCODESIZE ISZERO DUP1 ISZERO PUSH2 0x6C1 JUMPI PUSH0 DUP1 REVERT JUMPDEST POP GAS CALL ISZERO DUP1 ISZERO PUSH2 0x6D3 JUMPI RETURNDATASIZE PUSH0 DUP1 RETURNDATACOPY RETURNDATASIZE PUSH0 REVERT JUMPDEST POP POP PUSH1 0x40 MLOAD PUSH4 0xA22CB465 PUSH1 0xE0 SHL DUP2 MSTORE CALLER PUSH1 0x4 DUP3 ADD MSTORE PUSH1 0x1 PUSH1 0x24 DUP3 ADD MSTORE PUSH1 0x1 PUSH1 0x1 PUSH1 0xA0 SHL SUB DUP9 AND SWAP3 POP PUSH4 0xA22CB465 SWAP2 POP PUSH1 0x44 ADD PUSH0 PUSH1 0x40 MLOAD DUP1 DUP4 SUB DUP2 PUSH0 DUP8 DUP1 EXTCODESIZE ISZERO DUP1 ISZERO PUSH2 0x71C JUMPI PUSH0 DUP1 REVERT JUMPDEST POP GAS CALL ISZERO DUP1 ISZERO PUSH2 0x72E JUMPI RETURNDATASIZE PUSH0 DUP1 RETURNDATACOPY RETURNDATASIZE PUSH0 REVERT JUMPDEST POP POP PUSH1 0x4 SLOAD PUSH1 0x3 SLOAD PUSH1 0x40 MLOAD PUSH1 0x1 PUSH1 0x1 PUSH1 0xA0 SHL SUB SWAP1 SWAP3 AND SWAP4 POP DUP1 ISZERO PUSH2 0x8FC MUL SWAP3 POP SWAP1 PUSH0 DUP2 DUP2 DUP2 DUP6 DUP9 DUP9 CALL SWAP4 POP POP POP POP ISZERO DUP1 ISZERO PUSH2 0x76B JUMPI RETURNDATASIZE PUSH0 DUP1 RETURNDATACOPY RETURNDATASIZE PUSH0 REVERT JUMPDEST POP PUSH1 0x3 DUP3 ADD DUP1 SLOAD PUSH1 0x1 PUSH1 0x1 PUSH1 0xA0 SHL SUB NOT AND PUSH1 0x1 PUSH1 0x1 PUSH1 0xA0 SHL SUB DUP4 AND OR SWAP1 SSTORE PUSH1 0x7 DUP3 ADD DUP1 SLOAD PUSH1 0xFF NOT AND SWAP1 SSTORE PUSH1 0x1 DUP1 SLOAD DUP2 ADD SWAP1 SSTORE PUSH1 0x1 DUP3 ADD SLOAD PUSH1 0x2 DUP4 ADD SLOAD PUSH1 0x40 MLOAD PUSH32 0x16F1DBD97E6BF646D429ED186CCE832F1F7FD9907814293B83181E9970AB7BD2 SWAP3 PUSH2 0x7E7 SWAP3 DUP10 SWAP3 PUSH1 0x1 PUSH1 0x1 PUSH1 0xA0 SHL SUB SWAP1 SWAP2 AND SWAP1 DUP7 SWAP1 CALLVALUE SWAP1 PUSH2 0xD9B JUMP JUMPDEST PUSH1 0x40 MLOAD DUP1 SWAP2 SUB SWAP1 LOG1 POP POP PUSH1 0x1 PUSH0 SSTORE POP POP POP JUMP JUMPDEST PUSH0 PUSH2 0x347 PUSH1 0x1 SLOAD SWAP1 JUMP JUMPDEST PUSH1 0x2 PUSH0 SLOAD SUB PUSH2 0x825 JUMPI PUSH1 0x40 MLOAD PUSH3 0x461BCD PUSH1 0xE5 SHL DUP2 MSTORE PUSH1 0x4 ADD PUSH2 0x36D SWAP1 PUSH2 0xD42 JUMP JUMPDEST PUSH1 0x2 PUSH0 SSTORE CALLVALUE PUSH2 0x876 JUMPI PUSH1 0x40 MLOAD PUSH3 0x461BCD PUSH1 0xE5 SHL DUP2 MSTORE PUSH1 0x20 PUSH1 0x4 DUP3 ADD MSTORE PUSH1 0x1C PUSH1 0x24 DUP3 ADD MSTORE PUSH32 0x5072696365206D757374206265206174206C6561737420312077656900000000 PUSH1 0x44 DUP3 ADD MSTORE PUSH1 0x64 ADD PUSH2 0x36D JUMP JUMPDEST PUSH1 0x3 SLOAD CALLVALUE EQ PUSH2 0x8C7 JUMPI PUSH1 0x40 MLOAD PUSH3 0x461BCD PUSH1 0xE5 SHL DUP2 MSTORE PUSH1 0x20 PUSH1 0x4 DUP3 ADD DUP2 SWAP1 MSTORE PUSH1 0x24 DUP3 ADD MSTORE PUSH32 0x4E6F7420656E6F75676820657468657220666F72206C697374696E6720666565 PUSH1 0x44 DUP3 ADD MSTORE PUSH1 0x64 ADD PUSH2 0x36D JUMP JUMPDEST PUSH1 0x40 MLOAD PUSH4 0x23B872DD PUSH1 0xE0 SHL DUP2 MSTORE CALLER PUSH1 0x4 DUP3 ADD MSTORE ADDRESS PUSH1 0x24 DUP3 ADD MSTORE PUSH1 0x44 DUP2 ADD DUP5 SWAP1 MSTORE PUSH1 0x1 PUSH1 0x1 PUSH1 0xA0 SHL SUB DUP6 AND SWAP1 PUSH4 0x23B872DD SWAP1 PUSH1 0x64 ADD PUSH0 PUSH1 0x40 MLOAD DUP1 DUP4 SUB DUP2 PUSH0 DUP8 DUP1 EXTCODESIZE ISZERO DUP1 ISZERO PUSH2 0x912 JUMPI PUSH0 DUP1 REVERT JUMPDEST POP GAS CALL ISZERO DUP1 ISZERO PUSH2 0x924 JUMPI RETURNDATASIZE PUSH0 DUP1 RETURNDATACOPY RETURNDATASIZE PUSH0 REVERT JUMPDEST POP POP POP POP PUSH2 0x936 PUSH1 0x2 DUP1 SLOAD PUSH1 0x1 ADD SWAP1 SSTORE JUMP JUMPDEST PUSH1 0x40 DUP1 MLOAD PUSH2 0x100 DUP2 ADD DUP3 MSTORE PUSH1 0x1 PUSH1 0x1 PUSH1 0xA0 SHL SUB DUP1 DUP8 AND DUP3 MSTORE PUSH1 0x20 DUP1 DUP4 ADD DUP8 DUP2 MSTORE CALLER DUP5 DUP7 ADD SWAP1 DUP2 MSTORE ADDRESS PUSH1 0x60 DUP7 ADD SWAP1 DUP2 MSTORE PUSH1 0x80 DUP7 ADD DUP9 DUP2 MSTORE PUSH1 0xA0 DUP8 ADD DUP11 SWAP1 MSTORE PUSH1 0x3 DUP1 SLOAD PUSH1 0xC0 DUP10 ADD MSTORE PUSH1 0x1 PUSH1 0xE0 DUP10 ADD DUP2 SWAP1 MSTORE PUSH0 DUP14 DUP2 MSTORE PUSH1 0x5 SWAP1 SWAP8 MSTORE SWAP9 SWAP1 SWAP6 KECCAK256 DUP8 MLOAD DUP2 SLOAD SWAP1 DUP9 AND PUSH1 0x1 PUSH1 0x1 PUSH1 0xA0 SHL SUB NOT SWAP2 DUP3 AND OR DUP3 SSTORE SWAP5 MLOAD SWAP9 DUP2 ADD SWAP9 SWAP1 SWAP9 SSTORE SWAP2 MLOAD PUSH1 0x2 DUP9 ADD DUP1 SLOAD SWAP2 DUP8 AND SWAP2 DUP6 AND SWAP2 SWAP1 SWAP2 OR SWAP1 SSTORE MLOAD SWAP3 DUP7 ADD DUP1 SLOAD SWAP4 SWAP1 SWAP5 AND SWAP3 SWAP1 SWAP2 AND SWAP2 SWAP1 SWAP2 OR SWAP1 SWAP2 SSTORE MLOAD SWAP1 SWAP2 SWAP1 PUSH1 0x4 DUP3 ADD SWAP1 PUSH2 0x9ED SWAP1 DUP3 PUSH2 0xE1A JUMP JUMPDEST POP PUSH1 0xA0 DUP3 ADD MLOAD PUSH1 0x5 DUP3 ADD SWAP1 PUSH2 0xA02 SWAP1 DUP3 PUSH2 0xE1A JUMP JUMPDEST POP PUSH1 0xC0 DUP3 ADD MLOAD PUSH1 0x6 DUP3 ADD SSTORE PUSH1 0xE0 SWAP1 SWAP2 ADD MLOAD PUSH1 0x7 SWAP1 SWAP2 ADD DUP1 SLOAD PUSH1 0xFF NOT AND SWAP2 ISZERO ISZERO SWAP2 SWAP1 SWAP2 OR SWAP1 SSTORE PUSH1 0x3 SLOAD PUSH1 0x40 MLOAD PUSH32 0xA0C6C0D02D86FDACECBAA5FDF5894BAB204E31A778250474108540733A9B8D19 SWAP2 PUSH2 0x520 SWAP2 DUP8 SWAP2 DUP8 SWAP2 CALLER SWAP2 ADDRESS SWAP2 PUSH2 0xD9B JUMP JUMPDEST DUP1 SLOAD DUP1 PUSH2 0xAAF JUMPI PUSH1 0x40 MLOAD PUSH3 0x461BCD PUSH1 0xE5 SHL DUP2 MSTORE PUSH1 0x20 PUSH1 0x4 DUP3 ADD MSTORE PUSH1 0x1B PUSH1 0x24 DUP3 ADD MSTORE PUSH32 0x436F756E7465723A2064656372656D656E74206F766572666C6F770000000000 PUSH1 0x44 DUP3 ADD MSTORE PUSH1 0x64 ADD PUSH2 0x36D JUMP JUMPDEST PUSH0 NOT ADD SWAP1 SSTORE JUMP JUMPDEST PUSH0 PUSH1 0x20 DUP3 DUP5 SUB SLT ISZERO PUSH2 0xAC6 JUMPI PUSH0 DUP1 REVERT JUMPDEST POP CALLDATALOAD SWAP2 SWAP1 POP JUMP JUMPDEST PUSH0 DUP2 MLOAD DUP1 DUP5 MSTORE DUP1 PUSH1 0x20 DUP5 ADD PUSH1 0x20 DUP7 ADD MCOPY PUSH0 PUSH1 0x20 DUP3 DUP7 ADD ADD MSTORE PUSH1 0x20 PUSH1 0x1F NOT PUSH1 0x1F DUP4 ADD AND DUP6 ADD ADD SWAP2 POP POP SWAP3 SWAP2 POP POP JUMP JUMPDEST PUSH1 0x20 DUP2 MSTORE PUSH1 0x1 DUP1 PUSH1 0xA0 SHL SUB DUP3 MLOAD AND PUSH1 0x20 DUP3 ADD MSTORE PUSH1 0x20 DUP3 ADD MLOAD PUSH1 0x40 DUP3 ADD MSTORE PUSH0 PUSH1 0x40 DUP4 ADD MLOAD PUSH2 0xB33 PUSH1 0x60 DUP5 ADD DUP3 PUSH1 0x1 PUSH1 0x1 PUSH1 0xA0 SHL SUB AND SWAP1 MSTORE JUMP JUMPDEST POP PUSH1 0x60 DUP4 ADD MLOAD PUSH1 0x1 PUSH1 0x1 PUSH1 0xA0 SHL SUB DUP2 AND PUSH1 0x80 DUP5 ADD MSTORE POP PUSH1 0x80 DUP4 ADD MLOAD PUSH2 0x100 PUSH1 0xA0 DUP5 ADD MSTORE PUSH2 0xB64 PUSH2 0x120 DUP5 ADD DUP3 PUSH2 0xACD JUMP JUMPDEST SWAP1 POP PUSH1 0xA0 DUP5 ADD MLOAD PUSH1 0x1F NOT DUP5 DUP4 SUB ADD PUSH1 0xC0 DUP6 ADD MSTORE PUSH2 0xB81 DUP3 DUP3 PUSH2 0xACD JUMP JUMPDEST SWAP2 POP POP PUSH1 0xC0 DUP5 ADD MLOAD PUSH1 0xE0 DUP5 ADD MSTORE PUSH1 0xE0 DUP5 ADD MLOAD PUSH2 0xBA2 PUSH2 0x100 DUP6 ADD DUP3 ISZERO ISZERO SWAP1 MSTORE JUMP JUMPDEST POP SWAP4 SWAP3 POP POP POP JUMP JUMPDEST PUSH1 0x1 PUSH1 0x1 PUSH1 0xA0 SHL SUB DUP2 AND DUP2 EQ PUSH2 0xBBE JUMPI PUSH0 DUP1 REVERT JUMPDEST POP JUMP JUMPDEST PUSH0 DUP1 PUSH1 0x40 DUP4 DUP6 SUB SLT ISZERO PUSH2 0xBD2 JUMPI PUSH0 DUP1 REVERT JUMPDEST DUP3 CALLDATALOAD PUSH2 0xBDD DUP2 PUSH2 0xBAA JUMP JUMPDEST SWAP5 PUSH1 0x20 SWAP4 SWAP1 SWAP4 ADD CALLDATALOAD SWAP4 POP POP POP JUMP JUMPDEST PUSH4 0x4E487B71 PUSH1 0xE0 SHL PUSH0 MSTORE PUSH1 0x41 PUSH1 0x4 MSTORE PUSH1 0x24 PUSH0 REVERT JUMPDEST PUSH0 DUP3 PUSH1 0x1F DUP4 ADD SLT PUSH2 0xC0E JUMPI PUSH0 DUP1 REVERT JUMPDEST DUP2 CALLDATALOAD PUSH8 0xFFFFFFFFFFFFFFFF DUP2 GT ISZERO PUSH2 0xC28 JUMPI PUSH2 0xC28 PUSH2 0xBEB JUMP JUMPDEST PUSH1 0x40 MLOAD PUSH1 0x1F DUP3 ADD PUSH1 0x1F NOT SWAP1 DUP2 AND PUSH1 0x3F ADD AND DUP2 ADD PUSH8 0xFFFFFFFFFFFFFFFF DUP2 GT DUP3 DUP3 LT OR ISZERO PUSH2 0xC57 JUMPI PUSH2 0xC57 PUSH2 0xBEB JUMP JUMPDEST PUSH1 0x40 MSTORE DUP2 DUP2 MSTORE DUP4 DUP3 ADD PUSH1 0x20 ADD DUP6 LT ISZERO PUSH2 0xC6E JUMPI PUSH0 DUP1 REVERT JUMPDEST DUP2 PUSH1 0x20 DUP6 ADD PUSH1 0x20 DUP4 ADD CALLDATACOPY PUSH0 SWAP2 DUP2 ADD PUSH1 0x20 ADD SWAP2 SWAP1 SWAP2 MSTORE SWAP4 SWAP3 POP POP POP JUMP JUMPDEST PUSH0 DUP1 PUSH0 DUP1 PUSH1 0x80 DUP6 DUP8 SUB SLT ISZERO PUSH2 0xC9D JUMPI PUSH0 DUP1 REVERT JUMPDEST DUP5 CALLDATALOAD PUSH2 0xCA8 DUP2 PUSH2 0xBAA JUMP JUMPDEST SWAP4 POP PUSH1 0x20 DUP6 ADD CALLDATALOAD SWAP3 POP PUSH1 0x40 DUP6 ADD CALLDATALOAD PUSH8 0xFFFFFFFFFFFFFFFF DUP2 GT ISZERO PUSH2 0xCCA JUMPI PUSH0 DUP1 REVERT JUMPDEST PUSH2 0xCD6 DUP8 DUP3 DUP9 ADD PUSH2 0xBFF JUMP JUMPDEST SWAP3 POP POP PUSH1 0x60 DUP6 ADD CALLDATALOAD PUSH8 0xFFFFFFFFFFFFFFFF DUP2 GT ISZERO PUSH2 0xCF2 JUMPI PUSH0 DUP1 REVERT JUMPDEST PUSH2 0xCFE DUP8 DUP3 DUP9 ADD PUSH2 0xBFF JUMP JUMPDEST SWAP2 POP POP SWAP3 SWAP6 SWAP2 SWAP5 POP SWAP3 POP JUMP JUMPDEST PUSH1 0x1 DUP2 DUP2 SHR SWAP1 DUP3 AND DUP1 PUSH2 0xD1E JUMPI PUSH1 0x7F DUP3 AND SWAP2 POP JUMPDEST PUSH1 0x20 DUP3 LT DUP2 SUB PUSH2 0xD3C JUMPI PUSH4 0x4E487B71 PUSH1 0xE0 SHL PUSH0 MSTORE PUSH1 0x22 PUSH1 0x4 MSTORE PUSH1 0x24 PUSH0 REVERT JUMPDEST POP SWAP2 SWAP1 POP JUMP JUMPDEST PUSH1 0x20 DUP1 DUP3 MSTORE PUSH1 0x1F SWAP1 DUP3 ADD MSTORE PUSH32 0x5265656E7472616E637947756172643A207265656E7472616E742063616C6C00 PUSH1 0x40 DUP3 ADD MSTORE PUSH1 0x60 ADD SWAP1 JUMP JUMPDEST PUSH0 PUSH1 0x20 DUP3 DUP5 SUB SLT ISZERO PUSH2 0xD89 JUMPI PUSH0 DUP1 REVERT JUMPDEST DUP2 MLOAD PUSH2 0xD94 DUP2 PUSH2 0xBAA JUMP JUMPDEST SWAP4 SWAP3 POP POP POP JUMP JUMPDEST PUSH1 0x1 PUSH1 0x1 PUSH1 0xA0 SHL SUB SWAP6 DUP7 AND DUP2 MSTORE PUSH1 0x20 DUP2 ADD SWAP5 SWAP1 SWAP5 MSTORE SWAP2 DUP5 AND PUSH1 0x40 DUP5 ADD MSTORE SWAP1 SWAP3 AND PUSH1 0x60 DUP3 ADD MSTORE PUSH1 0x80 DUP2 ADD SWAP2 SWAP1 SWAP2 MSTORE PUSH1 0xA0 ADD SWAP1 JUMP JUMPDEST PUSH1 0x1F DUP3 GT ISZERO PUSH2 0xE15 JUMPI DUP1 PUSH0 MSTORE PUSH1 0x20 PUSH0 KECCAK256 PUSH1 0x1F DUP5 ADD PUSH1 0x5 SHR DUP2 ADD PUSH1 0x20 DUP6 LT ISZERO PUSH2 0xDF3 JUMPI POP DUP1 JUMPDEST PUSH1 0x1F DUP5 ADD PUSH1 0x5 SHR DUP3 ADD SWAP2 POP JUMPDEST DUP2 DUP2 LT ISZERO PUSH2 0xE12 JUMPI PUSH0 DUP2 SSTORE PUSH1 0x1 ADD PUSH2 0xDFF JUMP JUMPDEST POP POP JUMPDEST POP POP POP JUMP JUMPDEST DUP2 MLOAD PUSH8 0xFFFFFFFFFFFFFFFF DUP2 GT ISZERO PUSH2 0xE34 JUMPI PUSH2 0xE34 PUSH2 0xBEB JUMP JUMPDEST PUSH2 0xE48 DUP2 PUSH2 0xE42 DUP5 SLOAD PUSH2 0xD0A JUMP JUMPDEST DUP5 PUSH2 0xDCE JUMP JUMPDEST PUSH1 0x20 PUSH1 0x1F DUP3 GT PUSH1 0x1 DUP2 EQ PUSH2 0xE7A JUMPI PUSH0 DUP4 ISZERO PUSH2 0xE63 JUMPI POP DUP5 DUP3 ADD MLOAD JUMPDEST PUSH0 NOT PUSH1 0x3 DUP6 SWAP1 SHL SHR NOT AND PUSH1 0x1 DUP5 SWAP1 SHL OR DUP5 SSTORE PUSH2 0xE12 JUMP JUMPDEST PUSH0 DUP5 DUP2 MSTORE PUSH1 0x20 DUP2 KECCAK256 PUSH1 0x1F NOT DUP6 AND SWAP2 JUMPDEST DUP3 DUP2 LT ISZERO PUSH2 0xEA9 JUMPI DUP8 DUP6 ADD MLOAD DUP3 SSTORE PUSH1 0x20 SWAP5 DUP6 ADD SWAP5 PUSH1 0x1 SWAP1 SWAP3 ADD SWAP2 ADD PUSH2 0xE89 JUMP JUMPDEST POP DUP5 DUP3 LT ISZERO PUSH2 0xEC6 JUMPI DUP7 DUP5 ADD MLOAD PUSH0 NOT PUSH1 0x3 DUP8 SWAP1 SHL PUSH1 0xF8 AND SHR NOT AND DUP2 SSTORE JUMPDEST POP POP POP POP PUSH1 0x1 SWAP1 DUP2 SHL ADD SWAP1 SSTORE POP JUMP INVALID LOG2 PUSH5 0x6970667358 0x22 SLT KECCAK256 CODESIZE 0xED GASPRICE 0xB3 0x2B 0xD8 0xFC 0xE5 DELEGATECALL OR 0xBD 0xAD CALLER EXP PUSH14 0x17ADFC2B2AD3CCBB5B51B479B222 0xE PUSH25 0xE464736F6C634300081A003300000000000000000000000000 "
				},
				"gasEstimates": {
					"creation": {
						"codeDepositCost": "770200",
						"executionCost": "69249",
						"totalCost": "839449"
					},
					"external": {
						"LISTING_FEE()": "2317",
						"buyNFT(address,uint256)": "infinite",
						"getItemsCount()": "2373",
						"getItemsSold()": "2394",
						"getListingFee()": "2335",
						"getMarketPlaceBalance()": "215",
						"getTokenForId(uint256)": "infinite",
						"listNFT(address,uint256,string,string)": "infinite",
						"resellNFT(address,uint256)": "infinite"
					}
				},
				"methodIdentifiers": {
					"LISTING_FEE()": "2b86ae38",
					"buyNFT(address,uint256)": "a82ba76f",
					"getItemsCount()": "512dd020",
					"getItemsSold()": "c4b15141",
					"getListingFee()": "b8fe6abe",
					"getMarketPlaceBalance()": "b4c49d09",
					"getTokenForId(uint256)": "2444a8a6",
					"listNFT(address,uint256,string,string)": "dbcc7575",
					"resellNFT(address,uint256)": "9e1001b0"
				}
			},
			"storageLayout": {
				"storage": [
					{
						"astId": 10,
						"contract": "contracts/Marketplace.sol:Marketplace",
						"label": "_status",
						"offset": 0,
						"slot": "0",
						"type": "t_uint256"
					},
					{
						"astId": 1734,
						"contract": "contracts/Marketplace.sol:Marketplace",
						"label": "_nftsSold",
						"offset": 0,
						"slot": "1",
						"type": "t_struct(Counter)1390_storage"
					},
					{
						"astId": 1737,
						"contract": "contracts/Marketplace.sol:Marketplace",
						"label": "_nftCount",
						"offset": 0,
						"slot": "2",
						"type": "t_struct(Counter)1390_storage"
					},
					{
						"astId": 1740,
						"contract": "contracts/Marketplace.sol:Marketplace",
						"label": "LISTING_FEE",
						"offset": 0,
						"slot": "3",
						"type": "t_uint256"
					},
					{
						"astId": 1742,
						"contract": "contracts/Marketplace.sol:Marketplace",
						"label": "_marketOwner",
						"offset": 0,
						"slot": "4",
						"type": "t_address_payable"
					},
					{
						"astId": 1747,
						"contract": "contracts/Marketplace.sol:Marketplace",
						"label": "_idToToken",
						"offset": 0,
						"slot": "5",
						"type": "t_mapping(t_uint256,t_struct(Token)1764_storage)"
					}
				],
				"types": {
					"t_address": {
						"encoding": "inplace",
						"label": "address",
						"numberOfBytes": "20"
					},
					"t_address_payable": {
						"encoding": "inplace",
						"label": "address payable",
						"numberOfBytes": "20"
					},
					"t_bool": {
						"encoding": "inplace",
						"label": "bool",
						"numberOfBytes": "1"
					},
					"t_mapping(t_uint256,t_struct(Token)1764_storage)": {
						"encoding": "mapping",
						"key": "t_uint256",
						"label": "mapping(uint256 => struct Marketplace.Token)",
						"numberOfBytes": "32",
						"value": "t_struct(Token)1764_storage"
					},
					"t_string_storage": {
						"encoding": "bytes",
						"label": "string",
						"numberOfBytes": "32"
					},
					"t_struct(Counter)1390_storage": {
						"encoding": "inplace",
						"label": "struct Counters.Counter",
						"members": [
							{
								"astId": 1389,
								"contract": "contracts/Marketplace.sol:Marketplace",
								"label": "_value",
								"offset": 0,
								"slot": "0",
								"type": "t_uint256"
							}
						],
						"numberOfBytes": "32"
					},
					"t_struct(Token)1764_storage": {
						"encoding": "inplace",
						"label": "struct Marketplace.Token",
						"members": [
							{
								"astId": 1749,
								"contract": "contracts/Marketplace.sol:Marketplace",
								"label": "nftContract",
								"offset": 0,
								"slot": "0",
								"type": "t_address"
							},
							{
								"astId": 1751,
								"contract": "contracts/Marketplace.sol:Marketplace",
								"label": "tokenId",
								"offset": 0,
								"slot": "1",
								"type": "t_uint256"
							},
							{
								"astId": 1753,
								"contract": "contracts/Marketplace.sol:Marketplace",
								"label": "seller",
								"offset": 0,
								"slot": "2",
								"type": "t_address_payable"
							},
							{
								"astId": 1755,
								"contract": "contracts/Marketplace.sol:Marketplace",
								"label": "owner",
								"offset": 0,
								"slot": "3",
								"type": "t_address_payable"
							},
							{
								"astId": 1757,
								"contract": "contracts/Marketplace.sol:Marketplace",
								"label": "tokenURI",
								"offset": 0,
								"slot": "4",
								"type": "t_string_storage"
							},
							{
								"astId": 1759,
								"contract": "contracts/Marketplace.sol:Marketplace",
								"label": "name",
								"offset": 0,
								"slot": "5",
								"type": "t_string_storage"
							},
							{
								"astId": 1761,
								"contract": "contracts/Marketplace.sol:Marketplace",
								"label": "price",
								"offset": 0,
								"slot": "6",
								"type": "t_uint256"
							},
							{
								"astId": 1763,
								"contract": "contracts/Marketplace.sol:Marketplace",
								"label": "isListed",
								"offset": 0,
								"slot": "7",
								"type": "t_bool"
							}
						],
						"numberOfBytes": "256"
					},
					"t_uint256": {
						"encoding": "inplace",
						"label": "uint256",
						"numberOfBytes": "32"
					}
				}
			},
			"userdoc": {
				"kind": "user",
				"methods": {},
				"version": 1
			}
		}
	}
}